{
  "transactions": [
    {
      "hash": "0xe745cfc2d1d3efcfec122bc2bfdca8bd74419ecbf2cb0a3437c6b3412f4b5f7c",
      "transactionType": "CALL",
      "contractName": null,
      "contractAddress": "0x6b1c656ad724c246049ef586fa35d217a8db13a0",
      "function": "initiate(address,address,uint256,uint256,bytes32)",
      "arguments": [
        "0x00c1Df9bf9C7ff7F3c2A8F9e9af72DA95b350D34",
        "0xe62a2b235f7bB86C1122313153824D54E6137e77",
        "100",
        "1000",
        "0x8bf236717150921fd7ad7d2ab23b233c8fd2744214d202038436c857897135d5"
      ],
      "transaction": {
        "from": "0x1b150538e943f00127929f7eeb65754f7beb0b6d",
        "to": "0x6b1c656ad724c246049ef586fa35d217a8db13a0",
        "gas": "0x3d9fe",
        "value": "0x0",
        "input": "0xa70cac9100000000000000000000000000c1df9bf9c7ff7f3c2a8f9e9af72da95b350d34000000000000000000000000e62a2b235f7bb86c1122313153824d54e6137e77000000000000000000000000000000000000000000000000000000000000006400000000000000000000000000000000000000000000000000000000000003e88bf236717150921fd7ad7d2ab23b233c8fd2744214d202038436c857897135d5",
        "nonce": "0x50",
        "chainId": "0xa869"
      },
      "additionalContracts": [],
      "isFixedGasLimit": false
    },
    {
      "hash": "0x9ff5155f4f6fb299b2f7845c94cb41991abc9ec0f2f2f0c04261d2dae1f02c0b",
      "transactionType": "CALL",
      "contractName": null,
      "contractAddress": "0x6b1c656ad724c246049ef586fa35d217a8db13a0",
      "function": "redeem(bytes32,bytes)",
      "arguments": [
        "0x826d11d86a896b3c4623d7835eb887dfbe6fde6cf0adb401d6e8ac9a526069e7",
        "0x7365637265743131"
      ],
      "transaction": {
        "from": "0x1b150538e943f00127929f7eeb65754f7beb0b6d",
        "to": "0x6b1c656ad724c246049ef586fa35d217a8db13a0",
        "gas": "0x21dea",
        "value": "0x0",
        "input": "0xf7ff7207826d11d86a896b3c4623d7835eb887dfbe6fde6cf0adb401d6e8ac9a526069e7000000000000000000000000000000000000000000000000000000000000004000000000000000000000000000000000000000000000000000000000000000087365637265743131000000000000000000000000000000000000000000000000",
        "nonce": "0x51",
        "chainId": "0xa869"
      },
      "additionalContracts": [],
      "isFixedGasLimit": false
    }
  ],
  "receipts": [
    {
      "status": "0x1",
      "cumulativeGasUsed": "0x2c9d8",
      "logs": [
        {
          "address": "0x6b1c656ad724c246049ef586fa35d217a8db13a0",
          "topics": [
            "0x01b41cbd4bbcc3c5b968a04d3fbdd8c1648a39ff6d9a3929b4840cea1142bc65",
            "0x826d11d86a896b3c4623d7835eb887dfbe6fde6cf0adb401d6e8ac9a526069e7",
            "0x8bf236717150921fd7ad7d2ab23b233c8fd2744214d202038436c857897135d5",
            "0x00000000000000000000000000000000000000000000000000000000000003e8"
          ],
          "data": "0x",
          "blockHash": "0x5980094b7164ac6f3c69c8cad09747072597070696785692f17d742a6950028c",
          "blockNumber": "0x2b0a6db",
          "transactionHash": "0xe745cfc2d1d3efcfec122bc2bfdca8bd74419ecbf2cb0a3437c6b3412f4b5f7c",
          "transactionIndex": "0x0",
          "logIndex": "0x0",
          "removed": false
        },
        {
          "address": "0x00c1df9bf9c7ff7f3c2a8f9e9af72da95b350d34",
          "topics": [
            "0xddf252ad1be2c89b69c2b068fc378daa952ba7f163c4a11628f55a4df523b3ef",
            "0x0000000000000000000000001b150538e943f00127929f7eeb65754f7beb0b6d",
            "0x0000000000000000000000006b1c656ad724c246049ef586fa35d217a8db13a0"
          ],
          "data": "0x00000000000000000000000000000000000000000000000000000000000003e8",
          "blockHash": "0x5980094b7164ac6f3c69c8cad09747072597070696785692f17d742a6950028c",
          "blockNumber": "0x2b0a6db",
          "transactionHash": "0xe745cfc2d1d3efcfec122bc2bfdca8bd74419ecbf2cb0a3437c6b3412f4b5f7c",
          "transactionIndex": "0x0",
          "logIndex": "0x1",
          "removed": false
        }
      ],
      "logsBloom": "0x00000000000000000000000020000000000000200000000000000000000000000000000000000000000000000000000000000000000000000000000000000000000003000000000000000008040000000000000000000000000400000000000000000800000902000000000000000000000000000000000000000010000000000020000200000000000000080000000000000000000040000000000000000000000000000000000100000000000000000000000000000000000000000000000000008002000000020000000000000000001000200000000000000000080000100000020000000000000100000000000000000000000080000000000000000000",
      "type": "0x2",
      "transactionHash": "0xe745cfc2d1d3efcfec122bc2bfdca8bd74419ecbf2cb0a3437c6b3412f4b5f7c",
      "transactionIndex": "0x0",
      "blockHash": "0x5980094b7164ac6f3c69c8cad09747072597070696785692f17d742a6950028c",
      "blockNumber": "0x2b0a6db",
      "gasUsed": "0x2c9d8",
      "effectiveGasPrice": "0x1389",
      "from": "0x1b150538e943f00127929f7eeb65754f7beb0b6d",
      "to": "0x6b1c656ad724c246049ef586fa35d217a8db13a0",
      "contractAddress": null
    },
    {
      "status": "0x1",
      "cumulativeGasUsed": "0x43c63",
      "logs": [
        {
          "address": "0x6b1c656ad724c246049ef586fa35d217a8db13a0",
          "topics": [
            "0x4c9a044220477b4e94dbb0d07ff6ff4ac30d443bef59098c4541b006954778e2",
            "0x826d11d86a896b3c4623d7835eb887dfbe6fde6cf0adb401d6e8ac9a526069e7",
            "0x8bf236717150921fd7ad7d2ab23b233c8fd2744214d202038436c857897135d5"
          ],
          "data": "0x000000000000000000000000000000000000000000000000000000000000002000000000000000000000000000000000000000000000000000000000000000087365637265743131000000000000000000000000000000000000000000000000",
          "blockHash": "0x5980094b7164ac6f3c69c8cad09747072597070696785692f17d742a6950028c",
          "blockNumber": "0x2b0a6db",
          "transactionHash": "0x9ff5155f4f6fb299b2f7845c94cb41991abc9ec0f2f2f0c04261d2dae1f02c0b",
          "transactionIndex": "0x1",
          "logIndex": "0x2",
          "removed": false
        },
        {
          "address": "0x00c1df9bf9c7ff7f3c2a8f9e9af72da95b350d34",
          "topics": [
            "0xddf252ad1be2c89b69c2b068fc378daa952ba7f163c4a11628f55a4df523b3ef",
            "0x0000000000000000000000006b1c656ad724c246049ef586fa35d217a8db13a0",
            "0x000000000000000000000000e62a2b235f7bb86c1122313153824d54e6137e77"
          ],
          "data": "0x00000000000000000000000000000000000000000000000000000000000003e8",
          "blockHash": "0x5980094b7164ac6f3c69c8cad09747072597070696785692f17d742a6950028c",
          "blockNumber": "0x2b0a6db",
          "transactionHash": "0x9ff5155f4f6fb299b2f7845c94cb41991abc9ec0f2f2f0c04261d2dae1f02c0b",
          "transactionIndex": "0x1",
          "logIndex": "0x3",
          "removed": false
        }
      ],
      "logsBloom": "0x00000000000000000000000000000000000000200000000000000000000000000000000000000000000000000000000000000000020000000000000000000000000003000000000040000008000000000000000000000000080400000000000000000800000902000000000000000000000000000000000000000010000000000020040000000000000000000000000000000000000000000000000000000000000000000000000100000000000000000000000000000000000000000000000000000002000000000000000000000000001000200000000000000000080000000000020000000000000100000000000000000000000002000000000000004000",
      "type": "0x2",
      "transactionHash": "0x9ff5155f4f6fb299b2f7845c94cb41991abc9ec0f2f2f0c04261d2dae1f02c0b",
      "transactionIndex": "0x1",
      "blockHash": "0x5980094b7164ac6f3c69c8cad09747072597070696785692f17d742a6950028c",
      "blockNumber": "0x2b0a6db",
      "gasUsed": "0x1728b",
      "effectiveGasPrice": "0x1389",
      "from": "0x1b150538e943f00127929f7eeb65754f7beb0b6d",
      "to": "0x6b1c656ad724c246049ef586fa35d217a8db13a0",
      "contractAddress": null
    }
  ],
  "libraries": [],
  "pending": [],
  "returns": {},
  "timestamp": 1755949112024,
  "chain": 43113,
  "commit": "aa36f6b"
}