{
  "transactions": [
    {
      "hash": "0x74cf7dd6db242a3f5337a85795874e25db1c968f796c75ca7ea92d1f164a8222",
      "transactionType": "CALL",
      "contractName": null,
      "contractAddress": "0x00c1df9bf9c7ff7f3c2a8f9e9af72da95b350d34",
      "function": "approve(address,uint256)",
      "arguments": [
        "0x6B1c656ad724C246049EF586Fa35D217A8db13A0",
        "115792089237316195423570985008687907853269984665640564039457584007913129639935"
      ],
      "transaction": {
        "from": "0x1b150538e943f00127929f7eeb65754f7beb0b6d",
        "to": "0x00c1df9bf9c7ff7f3c2a8f9e9af72da95b350d34",
        "gas": "0x9382",
        "value": "0x0",
        "input": "0x095ea7b30000000000000000000000006b1c656ad724c246049ef586fa35d217a8db13a0ffffffffffffffffffffffffffffffffffffffffffffffffffffffffffffffff",
        "nonce": "0x24",
        "chainId": "0xa869"
      },
      "additionalContracts": [],
      "isFixedGasLimit": false
    },
    {
      "hash": "0x655a03f9102d534732cd514662fed3390461def986f304b70b290badf44a5738",
      "transactionType": "CALL",
      "contractName": null,
      "contractAddress": "0x6b1c656ad724c246049ef586fa35d217a8db13a0",
      "function": "initiate(address,address,uint256,uint256,bytes32)",
      "arguments": [
        "0x00c1Df9bf9C7ff7F3c2A8F9e9af72DA95b350D34",
        "0x000000000000000000000000000000000000007B",
        "100",
        "1000",
        "0x81b04ae4944e1704a65bc3a57b6fc3b06a6b923e3c558d611f6a854b5539ec13"
      ],
      "transaction": {
        "from": "0x1b150538e943f00127929f7eeb65754f7beb0b6d",
        "to": "0x6b1c656ad724c246049ef586fa35d217a8db13a0",
        "gas": "0x3d8c3",
        "value": "0x0",
        "input": "0xa70cac9100000000000000000000000000c1df9bf9c7ff7f3c2a8f9e9af72da95b350d34000000000000000000000000000000000000000000000000000000000000007b000000000000000000000000000000000000000000000000000000000000006400000000000000000000000000000000000000000000000000000000000003e881b04ae4944e1704a65bc3a57b6fc3b06a6b923e3c558d611f6a854b5539ec13",
        "nonce": "0x25",
        "chainId": "0xa869"
      },
      "additionalContracts": [],
      "isFixedGasLimit": false
    },
    {
      "hash": "0x0a9e95b06e7963880ef16557461384cc3e29afaa2b545b6abe3aa42da79059e4",
      "transactionType": "CALL",
      "contractName": null,
      "contractAddress": "0x6b1c656ad724c246049ef586fa35d217a8db13a0",
      "function": "initiate(address,address,uint256,uint256,bytes32)",
      "arguments": [
        "0x00c1Df9bf9C7ff7F3c2A8F9e9af72DA95b350D34",
        "0x000000000000000000000000000000000000007B",
        "100",
        "1000",
        "0xc09322c415a5ac9ffb1a6cde7e927f480cc1d8afaf22b39a47797966c08e9c4b"
      ],
      "transaction": {
        "from": "0x1b150538e943f00127929f7eeb65754f7beb0b6d",
        "to": "0x6b1c656ad724c246049ef586fa35d217a8db13a0",
        "gas": "0x3d8c3",
        "value": "0x0",
        "input": "0xa70cac9100000000000000000000000000c1df9bf9c7ff7f3c2a8f9e9af72da95b350d34000000000000000000000000000000000000000000000000000000000000007b000000000000000000000000000000000000000000000000000000000000006400000000000000000000000000000000000000000000000000000000000003e8c09322c415a5ac9ffb1a6cde7e927f480cc1d8afaf22b39a47797966c08e9c4b",
        "nonce": "0x26",
        "chainId": "0xa869"
      },
      "additionalContracts": [],
      "isFixedGasLimit": false
    },
    {
      "hash": "0x2b62699097d021e0f3d409b5da28394e0d9ca396bc7b181d0c9ca352b98948b6",
      "transactionType": "CALL",
      "contractName": null,
      "contractAddress": "0x6b1c656ad724c246049ef586fa35d217a8db13a0",
      "function": "initiate(address,address,uint256,uint256,bytes32)",
      "arguments": [
        "0x00c1Df9bf9C7ff7F3c2A8F9e9af72DA95b350D34",
        "0x000000000000000000000000000000000000007B",
        "100",
        "1000",
        "0xa82872b96246dac512ddf0515f5da862a92ecebebcb92537b6e3e73199694c45"
      ],
      "transaction": {
        "from": "0x1b150538e943f00127929f7eeb65754f7beb0b6d",
        "to": "0x6b1c656ad724c246049ef586fa35d217a8db13a0",
        "gas": "0x3d8c3",
        "value": "0x0",
        "input": "0xa70cac9100000000000000000000000000c1df9bf9c7ff7f3c2a8f9e9af72da95b350d34000000000000000000000000000000000000000000000000000000000000007b000000000000000000000000000000000000000000000000000000000000006400000000000000000000000000000000000000000000000000000000000003e8a82872b96246dac512ddf0515f5da862a92ecebebcb92537b6e3e73199694c45",
        "nonce": "0x27",
        "chainId": "0xa869"
      },
      "additionalContracts": [],
      "isFixedGasLimit": false
    },
    {
      "hash": "0xefcd37014ea518d0db7a58295968fa0390f1a6981e9b2ecf4a8b6d518339fa05",
      "transactionType": "CALL",
      "contractName": null,
      "contractAddress": "0x6b1c656ad724c246049ef586fa35d217a8db13a0",
      "function": "initiate(address,address,uint256,uint256,bytes32)",
      "arguments": [
        "0x00c1Df9bf9C7ff7F3c2A8F9e9af72DA95b350D34",
        "0x000000000000000000000000000000000000007B",
        "100",
        "1000",
        "0x2a3f128306951f1ded174b8803ee1f0df0c6404bbe92682be21fd84accf5d540"
      ],
      "transaction": {
        "from": "0x1b150538e943f00127929f7eeb65754f7beb0b6d",
        "to": "0x6b1c656ad724c246049ef586fa35d217a8db13a0",
        "gas": "0x3d8c3",
        "value": "0x0",
        "input": "0xa70cac9100000000000000000000000000c1df9bf9c7ff7f3c2a8f9e9af72da95b350d34000000000000000000000000000000000000000000000000000000000000007b000000000000000000000000000000000000000000000000000000000000006400000000000000000000000000000000000000000000000000000000000003e82a3f128306951f1ded174b8803ee1f0df0c6404bbe92682be21fd84accf5d540",
        "nonce": "0x28",
        "chainId": "0xa869"
      },
      "additionalContracts": [],
      "isFixedGasLimit": false
    },
    {
      "hash": "0x995489b9759e31f34991ec5568f6c40bdd6733bc397f5d35b5bec0a11a524f84",
      "transactionType": "CALL",
      "contractName": null,
      "contractAddress": "0x6b1c656ad724c246049ef586fa35d217a8db13a0",
      "function": "initiate(address,address,uint256,uint256,bytes32)",
      "arguments": [
        "0x00c1Df9bf9C7ff7F3c2A8F9e9af72DA95b350D34",
        "0x000000000000000000000000000000000000007B",
        "100",
        "1000",
        "0xe14f5be83831f7fefa669d5a84daaa56ec01477dafc6701a83f243bc2228bb11"
      ],
      "transaction": {
        "from": "0x1b150538e943f00127929f7eeb65754f7beb0b6d",
        "to": "0x6b1c656ad724c246049ef586fa35d217a8db13a0",
        "gas": "0x3d8c3",
        "value": "0x0",
        "input": "0xa70cac9100000000000000000000000000c1df9bf9c7ff7f3c2a8f9e9af72da95b350d34000000000000000000000000000000000000000000000000000000000000007b000000000000000000000000000000000000000000000000000000000000006400000000000000000000000000000000000000000000000000000000000003e8e14f5be83831f7fefa669d5a84daaa56ec01477dafc6701a83f243bc2228bb11",
        "nonce": "0x29",
        "chainId": "0xa869"
      },
      "additionalContracts": [],
      "isFixedGasLimit": false
    },
    {
      "hash": "0x7dbfa8a907f3912a9a93f012f1753c1e69b03baac9bea6e9fe421cb075087a00",
      "transactionType": "CALL",
      "contractName": null,
      "contractAddress": "0x6b1c656ad724c246049ef586fa35d217a8db13a0",
      "function": "initiate(address,address,uint256,uint256,bytes32)",
      "arguments": [
        "0x00c1Df9bf9C7ff7F3c2A8F9e9af72DA95b350D34",
        "0x000000000000000000000000000000000000007B",
        "100",
        "1000",
        "0x3ba2581d53fbf070be34b6d6a2382faf1b8e76a3ade45b31c0c7c90ea289874e"
      ],
      "transaction": {
        "from": "0x1b150538e943f00127929f7eeb65754f7beb0b6d",
        "to": "0x6b1c656ad724c246049ef586fa35d217a8db13a0",
        "gas": "0x3d8c3",
        "value": "0x0",
        "input": "0xa70cac9100000000000000000000000000c1df9bf9c7ff7f3c2a8f9e9af72da95b350d34000000000000000000000000000000000000000000000000000000000000007b000000000000000000000000000000000000000000000000000000000000006400000000000000000000000000000000000000000000000000000000000003e83ba2581d53fbf070be34b6d6a2382faf1b8e76a3ade45b31c0c7c90ea289874e",
        "nonce": "0x2a",
        "chainId": "0xa869"
      },
      "additionalContracts": [],
      "isFixedGasLimit": false
    },
    {
      "hash": "0x8c51c93b7d6ff4b0095cf43f9be6c6305acdf75d759b20ac1a71529cf6404041",
      "transactionType": "CALL",
      "contractName": null,
      "contractAddress": "0x6b1c656ad724c246049ef586fa35d217a8db13a0",
      "function": "initiate(address,address,uint256,uint256,bytes32)",
      "arguments": [
        "0x00c1Df9bf9C7ff7F3c2A8F9e9af72DA95b350D34",
        "0x000000000000000000000000000000000000007B",
        "100",
        "1000",
        "0xa3ecde0c1d9daa6b7a949c87a1af7963c69cb2c412fb3086c495f14630c17b7b"
      ],
      "transaction": {
        "from": "0x1b150538e943f00127929f7eeb65754f7beb0b6d",
        "to": "0x6b1c656ad724c246049ef586fa35d217a8db13a0",
        "gas": "0x3d8c3",
        "value": "0x0",
        "input": "0xa70cac9100000000000000000000000000c1df9bf9c7ff7f3c2a8f9e9af72da95b350d34000000000000000000000000000000000000000000000000000000000000007b000000000000000000000000000000000000000000000000000000000000006400000000000000000000000000000000000000000000000000000000000003e8a3ecde0c1d9daa6b7a949c87a1af7963c69cb2c412fb3086c495f14630c17b7b",
        "nonce": "0x2b",
        "chainId": "0xa869"
      },
      "additionalContracts": [],
      "isFixedGasLimit": false
    },
    {
      "hash": "0xb9b38f690f7e940f1376e0299d5012c1aa704a458d3eba509d2f6ea71a57d6fe",
      "transactionType": "CALL",
      "contractName": null,
      "contractAddress": "0x6b1c656ad724c246049ef586fa35d217a8db13a0",
      "function": "initiate(address,address,uint256,uint256,bytes32)",
      "arguments": [
        "0x00c1Df9bf9C7ff7F3c2A8F9e9af72DA95b350D34",
        "0x000000000000000000000000000000000000007B",
        "100",
        "1000",
        "0x99fdc3a44c06c65a307ea38acda009243287ccbbdb2b0ce423a25bb9b525d7f2"
      ],
      "transaction": {
        "from": "0x1b150538e943f00127929f7eeb65754f7beb0b6d",
        "to": "0x6b1c656ad724c246049ef586fa35d217a8db13a0",
        "gas": "0x3d8c3",
        "value": "0x0",
        "input": "0xa70cac9100000000000000000000000000c1df9bf9c7ff7f3c2a8f9e9af72da95b350d34000000000000000000000000000000000000000000000000000000000000007b000000000000000000000000000000000000000000000000000000000000006400000000000000000000000000000000000000000000000000000000000003e899fdc3a44c06c65a307ea38acda009243287ccbbdb2b0ce423a25bb9b525d7f2",
        "nonce": "0x2c",
        "chainId": "0xa869"
      },
      "additionalContracts": [],
      "isFixedGasLimit": false
    },
    {
      "hash": "0x8bebc57f247a6835ba7e373026eb6d0a90fc8b4703f2770d9bd46f36f0f24e4e",
      "transactionType": "CALL",
      "contractName": null,
      "contractAddress": "0x6b1c656ad724c246049ef586fa35d217a8db13a0",
      "function": "initiate(address,address,uint256,uint256,bytes32)",
      "arguments": [
        "0x00c1Df9bf9C7ff7F3c2A8F9e9af72DA95b350D34",
        "0x000000000000000000000000000000000000007B",
        "100",
        "1000",
        "0xc03eee8aa25e1b9fd36a28c6d3321bd0d0534a72034c40fcd9d75c70a610037e"
      ],
      "transaction": {
        "from": "0x1b150538e943f00127929f7eeb65754f7beb0b6d",
        "to": "0x6b1c656ad724c246049ef586fa35d217a8db13a0",
        "gas": "0x3d8c3",
        "value": "0x0",
        "input": "0xa70cac9100000000000000000000000000c1df9bf9c7ff7f3c2a8f9e9af72da95b350d34000000000000000000000000000000000000000000000000000000000000007b000000000000000000000000000000000000000000000000000000000000006400000000000000000000000000000000000000000000000000000000000003e8c03eee8aa25e1b9fd36a28c6d3321bd0d0534a72034c40fcd9d75c70a610037e",
        "nonce": "0x2d",
        "chainId": "0xa869"
      },
      "additionalContracts": [],
      "isFixedGasLimit": false
    },
    {
      "hash": "0x1dcaeeb42a2915f7b107c9d3f6a03dc5960232ac4dd156520d20dee5c52301fd",
      "transactionType": "CALL",
      "contractName": null,
      "contractAddress": "0x6b1c656ad724c246049ef586fa35d217a8db13a0",
      "function": "initiate(address,address,uint256,uint256,bytes32)",
      "arguments": [
        "0x00c1Df9bf9C7ff7F3c2A8F9e9af72DA95b350D34",
        "0x000000000000000000000000000000000000007B",
        "100",
        "1000",
        "0xd3b2f026768fb94e95a4848cf669d1f120a6c73cd795450e52de6bddcadd883c"
      ],
      "transaction": {
        "from": "0x1b150538e943f00127929f7eeb65754f7beb0b6d",
        "to": "0x6b1c656ad724c246049ef586fa35d217a8db13a0",
        "gas": "0x3d8c3",
        "value": "0x0",
        "input": "0xa70cac9100000000000000000000000000c1df9bf9c7ff7f3c2a8f9e9af72da95b350d34000000000000000000000000000000000000000000000000000000000000007b000000000000000000000000000000000000000000000000000000000000006400000000000000000000000000000000000000000000000000000000000003e8d3b2f026768fb94e95a4848cf669d1f120a6c73cd795450e52de6bddcadd883c",
        "nonce": "0x2e",
        "chainId": "0xa869"
      },
      "additionalContracts": [],
      "isFixedGasLimit": false
    }
  ],
  "receipts": [
    {
      "status": "0x1",
      "cumulativeGasUsed": "0x6acc",
      "logs": [
        {
          "address": "0x00c1df9bf9c7ff7f3c2a8f9e9af72da95b350d34",
          "topics": [
            "0x8c5be1e5ebec7d5bd14f71427d1e84f3dd0314c0f7b2291e5b200ac8c7c3b925",
            "0x0000000000000000000000001b150538e943f00127929f7eeb65754f7beb0b6d",
            "0x0000000000000000000000006b1c656ad724c246049ef586fa35d217a8db13a0"
          ],
          "data": "0xffffffffffffffffffffffffffffffffffffffffffffffffffffffffffffffff",
          "blockHash": "0x93f1703cd72548fdd95cf14eee45754819cf6c0427eeb6a81292635567e45c9b",
          "blockNumber": "0x2b0a26d",
          "transactionHash": "0x74cf7dd6db242a3f5337a85795874e25db1c968f796c75ca7ea92d1f164a8222",
          "transactionIndex": "0x0",
          "logIndex": "0x0",
          "removed": false
        }
      ],
      "logsBloom": "0x00000000000000000000000000000000000000200000000000000000000000000000000000000000000000000000000000000000000000000000000000200000000000000000000000000000040000000000000000000000000000000000000000000000000002000000000000000000000000000000000000000000000000000000000000000000000000080000000000000000000000000000000000000000020000000000000100000000000000000000000000000000000000000000000000008000000000000000000000000000001000200000000000000000000000000010000000000000000100000000000000000000000000000000000000000000",
      "type": "0x2",
      "transactionHash": "0x74cf7dd6db242a3f5337a85795874e25db1c968f796c75ca7ea92d1f164a8222",
      "transactionIndex": "0x0",
      "blockHash": "0x93f1703cd72548fdd95cf14eee45754819cf6c0427eeb6a81292635567e45c9b",
      "blockNumber": "0x2b0a26d",
      "gasUsed": "0x6acc",
      "effectiveGasPrice": "0x2",
      "from": "0x1b150538e943f00127929f7eeb65754f7beb0b6d",
      "to": "0x00c1df9bf9c7ff7f3c2a8f9e9af72da95b350d34",
      "contractAddress": null
    },
    {
      "status": "0x1",
      "cumulativeGasUsed": "0x333c0",
      "logs": [
        {
          "address": "0x6b1c656ad724c246049ef586fa35d217a8db13a0",
          "topics": [
            "0x01b41cbd4bbcc3c5b968a04d3fbdd8c1648a39ff6d9a3929b4840cea1142bc65",
            "0xa7ee832ba34f597f0f11a64d0b6554d807abfeec79b9b935f2af46ee8fe3f9a1",
            "0x81b04ae4944e1704a65bc3a57b6fc3b06a6b923e3c558d611f6a854b5539ec13",
            "0x00000000000000000000000000000000000000000000000000000000000003e8"
          ],
          "data": "0x",
          "blockHash": "0x93f1703cd72548fdd95cf14eee45754819cf6c0427eeb6a81292635567e45c9b",
          "blockNumber": "0x2b0a26d",
          "transactionHash": "0x655a03f9102d534732cd514662fed3390461def986f304b70b290badf44a5738",
          "transactionIndex": "0x1",
          "logIndex": "0x1",
          "removed": false
        },
        {
          "address": "0x00c1df9bf9c7ff7f3c2a8f9e9af72da95b350d34",
          "topics": [
            "0xddf252ad1be2c89b69c2b068fc378daa952ba7f163c4a11628f55a4df523b3ef",
            "0x0000000000000000000000001b150538e943f00127929f7eeb65754f7beb0b6d",
            "0x0000000000000000000000006b1c656ad724c246049ef586fa35d217a8db13a0"
          ],
          "data": "0x00000000000000000000000000000000000000000000000000000000000003e8",
          "blockHash": "0x93f1703cd72548fdd95cf14eee45754819cf6c0427eeb6a81292635567e45c9b",
          "blockNumber": "0x2b0a26d",
          "transactionHash": "0x655a03f9102d534732cd514662fed3390461def986f304b70b290badf44a5738",
          "transactionIndex": "0x1",
          "logIndex": "0x2",
          "removed": false
        }
      ],
      "logsBloom": "0x00000000000000000000000020000000000000200000000000000000000000000000000000000000000000000000000000000000000000000000000000000000000000000000000000000018040000000000000000000000000400000000000000000800000902000000000000000000000000000000010000000010000000000000000200010000000000080000000000000000000040000000000000000000000000000100000100000000000000000000000200000000000000000000000000008002000000020000000000000000001000200000000000000000000000100000000000000000000100000000000000000000000080000000000000000000",
      "type": "0x2",
      "transactionHash": "0x655a03f9102d534732cd514662fed3390461def986f304b70b290badf44a5738",
      "transactionIndex": "0x1",
      "blockHash": "0x93f1703cd72548fdd95cf14eee45754819cf6c0427eeb6a81292635567e45c9b",
      "blockNumber": "0x2b0a26d",
      "gasUsed": "0x2c8f4",
      "effectiveGasPrice": "0x2",
      "from": "0x1b150538e943f00127929f7eeb65754f7beb0b6d",
      "to": "0x6b1c656ad724c246049ef586fa35d217a8db13a0",
      "contractAddress": null
    },
    {
      "status": "0x1",
      "cumulativeGasUsed": "0x5fcb4",
      "logs": [
        {
          "address": "0x6b1c656ad724c246049ef586fa35d217a8db13a0",
          "topics": [
            "0x01b41cbd4bbcc3c5b968a04d3fbdd8c1648a39ff6d9a3929b4840cea1142bc65",
            "0xcbbcf2450053df9c3d23330455f67ca8ddf32349ced42bfa4e58dd700942e80a",
            "0xc09322c415a5ac9ffb1a6cde7e927f480cc1d8afaf22b39a47797966c08e9c4b",
            "0x00000000000000000000000000000000000000000000000000000000000003e8"
          ],
          "data": "0x",
          "blockHash": "0x93f1703cd72548fdd95cf14eee45754819cf6c0427eeb6a81292635567e45c9b",
          "blockNumber": "0x2b0a26d",
          "transactionHash": "0x0a9e95b06e7963880ef16557461384cc3e29afaa2b545b6abe3aa42da79059e4",
          "transactionIndex": "0x2",
          "logIndex": "0x3",
          "removed": false
        },
        {
          "address": "0x00c1df9bf9c7ff7f3c2a8f9e9af72da95b350d34",
          "topics": [
            "0xddf252ad1be2c89b69c2b068fc378daa952ba7f163c4a11628f55a4df523b3ef",
            "0x0000000000000000000000001b150538e943f00127929f7eeb65754f7beb0b6d",
            "0x0000000000000000000000006b1c656ad724c246049ef586fa35d217a8db13a0"
          ],
          "data": "0x00000000000000000000000000000000000000000000000000000000000003e8",
          "blockHash": "0x93f1703cd72548fdd95cf14eee45754819cf6c0427eeb6a81292635567e45c9b",
          "blockNumber": "0x2b0a26d",
          "transactionHash": "0x0a9e95b06e7963880ef16557461384cc3e29afaa2b545b6abe3aa42da79059e4",
          "transactionIndex": "0x2",
          "logIndex": "0x4",
          "removed": false
        }
      ],
      "logsBloom": "0x00000000000000000000000020000004000000200000000000000000000000000000000000000000000000000000000000000000000000000000000000000000000000000000000000000008040010000000000000000010000400000000000000000800000102000000000000000000000000000000000000000010000000800000000200020000000000080000000000000000000040000000000000000000000000000000000100000000000000000000000000000000000000000000000000008002000000020000000000000000001000200000000000000000000000300000000000000000000100000000000000000000000080000000000000000000",
      "type": "0x2",
      "transactionHash": "0x0a9e95b06e7963880ef16557461384cc3e29afaa2b545b6abe3aa42da79059e4",
      "transactionIndex": "0x2",
      "blockHash": "0x93f1703cd72548fdd95cf14eee45754819cf6c0427eeb6a81292635567e45c9b",
      "blockNumber": "0x2b0a26d",
      "gasUsed": "0x2c8f4",
      "effectiveGasPrice": "0x2",
      "from": "0x1b150538e943f00127929f7eeb65754f7beb0b6d",
      "to": "0x6b1c656ad724c246049ef586fa35d217a8db13a0",
      "contractAddress": null
    },
    {
      "status": "0x1",
      "cumulativeGasUsed": "0x8c5a8",
      "logs": [
        {
          "address": "0x6b1c656ad724c246049ef586fa35d217a8db13a0",
          "topics": [
            "0x01b41cbd4bbcc3c5b968a04d3fbdd8c1648a39ff6d9a3929b4840cea1142bc65",
            "0x534da4081bccdd7fcfb36ef5046a5c75861a577651d72193b7fd06049c8baa63",
            "0xa82872b96246dac512ddf0515f5da862a92ecebebcb92537b6e3e73199694c45",
            "0x00000000000000000000000000000000000000000000000000000000000003e8"
          ],
          "data": "0x",
          "blockHash": "0x93f1703cd72548fdd95cf14eee45754819cf6c0427eeb6a81292635567e45c9b",
          "blockNumber": "0x2b0a26d",
          "transactionHash": "0x2b62699097d021e0f3d409b5da28394e0d9ca396bc7b181d0c9ca352b98948b6",
          "transactionIndex": "0x3",
          "logIndex": "0x5",
          "removed": false
        },
        {
          "address": "0x00c1df9bf9c7ff7f3c2a8f9e9af72da95b350d34",
          "topics": [
            "0xddf252ad1be2c89b69c2b068fc378daa952ba7f163c4a11628f55a4df523b3ef",
            "0x0000000000000000000000001b150538e943f00127929f7eeb65754f7beb0b6d",
            "0x0000000000000000000000006b1c656ad724c246049ef586fa35d217a8db13a0"
          ],
          "data": "0x00000000000000000000000000000000000000000000000000000000000003e8",
          "blockHash": "0x93f1703cd72548fdd95cf14eee45754819cf6c0427eeb6a81292635567e45c9b",
          "blockNumber": "0x2b0a26d",
          "transactionHash": "0x2b62699097d021e0f3d409b5da28394e0d9ca396bc7b181d0c9ca352b98948b6",
          "transactionIndex": "0x3",
          "logIndex": "0x6",
          "removed": false
        }
      ],
      "logsBloom": "0x00000000000000000000000020000000040000200000000000000000000000000000000000000000000000000000000000000000000000000000000000000000000000000000000000000008040000000000000000000000000400000000000000000800000102000000000010000000000000000000000000000010000000000000000200000000000000080000000000000000000040000000000000000000000000000000000100000000000000008000000000000000000000000000000000028002000000020000000000000000001000200000000000000000002000100000000000000000002100000000000000000000000080000000000000000000",
      "type": "0x2",
      "transactionHash": "0x2b62699097d021e0f3d409b5da28394e0d9ca396bc7b181d0c9ca352b98948b6",
      "transactionIndex": "0x3",
      "blockHash": "0x93f1703cd72548fdd95cf14eee45754819cf6c0427eeb6a81292635567e45c9b",
      "blockNumber": "0x2b0a26d",
      "gasUsed": "0x2c8f4",
      "effectiveGasPrice": "0x2",
      "from": "0x1b150538e943f00127929f7eeb65754f7beb0b6d",
      "to": "0x6b1c656ad724c246049ef586fa35d217a8db13a0",
      "contractAddress": null
    },
    {
      "status": "0x1",
      "cumulativeGasUsed": "0xb8e9c",
      "logs": [
        {
          "address": "0x6b1c656ad724c246049ef586fa35d217a8db13a0",
          "topics": [
            "0x01b41cbd4bbcc3c5b968a04d3fbdd8c1648a39ff6d9a3929b4840cea1142bc65",
            "0xf2d95cac97442f0a735267d36e61ea62081cd1fb5056ee2dc822dcd1029a1733",
            "0x2a3f128306951f1ded174b8803ee1f0df0c6404bbe92682be21fd84accf5d540",
            "0x00000000000000000000000000000000000000000000000000000000000003e8"
          ],
          "data": "0x",
          "blockHash": "0x93f1703cd72548fdd95cf14eee45754819cf6c0427eeb6a81292635567e45c9b",
          "blockNumber": "0x2b0a26d",
          "transactionHash": "0xefcd37014ea518d0db7a58295968fa0390f1a6981e9b2ecf4a8b6d518339fa05",
          "transactionIndex": "0x4",
          "logIndex": "0x7",
          "removed": false
        },
        {
          "address": "0x00c1df9bf9c7ff7f3c2a8f9e9af72da95b350d34",
          "topics": [
            "0xddf252ad1be2c89b69c2b068fc378daa952ba7f163c4a11628f55a4df523b3ef",
            "0x0000000000000000000000001b150538e943f00127929f7eeb65754f7beb0b6d",
            "0x0000000000000000000000006b1c656ad724c246049ef586fa35d217a8db13a0"
          ],
          "data": "0x00000000000000000000000000000000000000000000000000000000000003e8",
          "blockHash": "0x93f1703cd72548fdd95cf14eee45754819cf6c0427eeb6a81292635567e45c9b",
          "blockNumber": "0x2b0a26d",
          "transactionHash": "0xefcd37014ea518d0db7a58295968fa0390f1a6981e9b2ecf4a8b6d518339fa05",
          "transactionIndex": "0x4",
          "logIndex": "0x8",
          "removed": false
        }
      ],
      "logsBloom": "0x00000000004000000000000020000000000000200000000000000000000000000000000000000000000000000000000000040000000000000000000000000000000000000000000000000008040000000000000000100000000400000000000000000800000102000000000008000000000000000000000000000010000000000000000200000000000000080000000000000800000040000000000000000000000000000000000100000000000000000000000000000000000000000000000000008002000000020000000000000000001000200100000000000000000000100000000000000000000100000000000000000000000080000000000000000000",
      "type": "0x2",
      "transactionHash": "0xefcd37014ea518d0db7a58295968fa0390f1a6981e9b2ecf4a8b6d518339fa05",
      "transactionIndex": "0x4",
      "blockHash": "0x93f1703cd72548fdd95cf14eee45754819cf6c0427eeb6a81292635567e45c9b",
      "blockNumber": "0x2b0a26d",
      "gasUsed": "0x2c8f4",
      "effectiveGasPrice": "0x2",
      "from": "0x1b150538e943f00127929f7eeb65754f7beb0b6d",
      "to": "0x6b1c656ad724c246049ef586fa35d217a8db13a0",
      "contractAddress": null
    },
    {
      "status": "0x1",
      "cumulativeGasUsed": "0xe5790",
      "logs": [
        {
          "address": "0x6b1c656ad724c246049ef586fa35d217a8db13a0",
          "topics": [
            "0x01b41cbd4bbcc3c5b968a04d3fbdd8c1648a39ff6d9a3929b4840cea1142bc65",
            "0x0bd47e8211650f1b60233872c6214ca49c521847db1f3647d037ddf2f944ab89",
            "0xe14f5be83831f7fefa669d5a84daaa56ec01477dafc6701a83f243bc2228bb11",
            "0x00000000000000000000000000000000000000000000000000000000000003e8"
          ],
          "data": "0x",
          "blockHash": "0x93f1703cd72548fdd95cf14eee45754819cf6c0427eeb6a81292635567e45c9b",
          "blockNumber": "0x2b0a26d",
          "transactionHash": "0x995489b9759e31f34991ec5568f6c40bdd6733bc397f5d35b5bec0a11a524f84",
          "transactionIndex": "0x5",
          "logIndex": "0x9",
          "removed": false
        },
        {
          "address": "0x00c1df9bf9c7ff7f3c2a8f9e9af72da95b350d34",
          "topics": [
            "0xddf252ad1be2c89b69c2b068fc378daa952ba7f163c4a11628f55a4df523b3ef",
            "0x0000000000000000000000001b150538e943f00127929f7eeb65754f7beb0b6d",
            "0x0000000000000000000000006b1c656ad724c246049ef586fa35d217a8db13a0"
          ],
          "data": "0x00000000000000000000000000000000000000000000000000000000000003e8",
          "blockHash": "0x93f1703cd72548fdd95cf14eee45754819cf6c0427eeb6a81292635567e45c9b",
          "blockNumber": "0x2b0a26d",
          "transactionHash": "0x995489b9759e31f34991ec5568f6c40bdd6733bc397f5d35b5bec0a11a524f84",
          "transactionIndex": "0x5",
          "logIndex": "0xa",
          "removed": false
        }
      ],
      "logsBloom": "0x00000000000000000000000020000000000000200000000000000000000000000000000000000000000000000000000000000000000000000800000000000000000000000000000000000008040000000000000000000000000400000000000000000800008112000000000000000000000000000000000000000010000000000200000200000000000000080000000000800000000040000000000000000000000000000000000100010000000000000000000000000000000000000000000000008002000000020000000000000000001000200000000000000000000000100000000000000000000100000000000000000000000080000000000000000000",
      "type": "0x2",
      "transactionHash": "0x995489b9759e31f34991ec5568f6c40bdd6733bc397f5d35b5bec0a11a524f84",
      "transactionIndex": "0x5",
      "blockHash": "0x93f1703cd72548fdd95cf14eee45754819cf6c0427eeb6a81292635567e45c9b",
      "blockNumber": "0x2b0a26d",
      "gasUsed": "0x2c8f4",
      "effectiveGasPrice": "0x2",
      "from": "0x1b150538e943f00127929f7eeb65754f7beb0b6d",
      "to": "0x6b1c656ad724c246049ef586fa35d217a8db13a0",
      "contractAddress": null
    },
    {
      "status": "0x1",
      "cumulativeGasUsed": "0x112084",
      "logs": [
        {
          "address": "0x6b1c656ad724c246049ef586fa35d217a8db13a0",
          "topics": [
            "0x01b41cbd4bbcc3c5b968a04d3fbdd8c1648a39ff6d9a3929b4840cea1142bc65",
            "0x582750712d2efc8bbdd4d15ba1d26a3448690239db0398748eccdd5d310c13b1",
            "0x3ba2581d53fbf070be34b6d6a2382faf1b8e76a3ade45b31c0c7c90ea289874e",
            "0x00000000000000000000000000000000000000000000000000000000000003e8"
          ],
          "data": "0x",
          "blockHash": "0x93f1703cd72548fdd95cf14eee45754819cf6c0427eeb6a81292635567e45c9b",
          "blockNumber": "0x2b0a26d",
          "transactionHash": "0x7dbfa8a907f3912a9a93f012f1753c1e69b03baac9bea6e9fe421cb075087a00",
          "transactionIndex": "0x6",
          "logIndex": "0xb",
          "removed": false
        },
        {
          "address": "0x00c1df9bf9c7ff7f3c2a8f9e9af72da95b350d34",
          "topics": [
            "0xddf252ad1be2c89b69c2b068fc378daa952ba7f163c4a11628f55a4df523b3ef",
            "0x0000000000000000000000001b150538e943f00127929f7eeb65754f7beb0b6d",
            "0x0000000000000000000000006b1c656ad724c246049ef586fa35d217a8db13a0"
          ],
          "data": "0x00000000000000000000000000000000000000000000000000000000000003e8",
          "blockHash": "0x93f1703cd72548fdd95cf14eee45754819cf6c0427eeb6a81292635567e45c9b",
          "blockNumber": "0x2b0a26d",
          "transactionHash": "0x7dbfa8a907f3912a9a93f012f1753c1e69b03baac9bea6e9fe421cb075087a00",
          "transactionIndex": "0x6",
          "logIndex": "0xc",
          "removed": false
        }
      ],
      "logsBloom": "0x00000000000000000000080020000000000000200000000000000000000000000000000000000000200000000000000000000000000000000000000000000000000000000000000000000008040000000000000000000000000400000000000000000800000102000000000000000000000000000000000000000010000000000000000200000000000000080000000000000000000040000000000000000000000000000000000100000000000000000000000020000000000000000000000000008002000000020000000002000000001000200000000000800000001000100000000000000000000100000000000000000000000080000000000000000000",
      "type": "0x2",
      "transactionHash": "0x7dbfa8a907f3912a9a93f012f1753c1e69b03baac9bea6e9fe421cb075087a00",
      "transactionIndex": "0x6",
      "blockHash": "0x93f1703cd72548fdd95cf14eee45754819cf6c0427eeb6a81292635567e45c9b",
      "blockNumber": "0x2b0a26d",
      "gasUsed": "0x2c8f4",
      "effectiveGasPrice": "0x2",
      "from": "0x1b150538e943f00127929f7eeb65754f7beb0b6d",
      "to": "0x6b1c656ad724c246049ef586fa35d217a8db13a0",
      "contractAddress": null
    },
    {
      "status": "0x1",
      "cumulativeGasUsed": "0x2c8f4",
      "logs": [
        {
          "address": "0x6b1c656ad724c246049ef586fa35d217a8db13a0",
          "topics": [
            "0x01b41cbd4bbcc3c5b968a04d3fbdd8c1648a39ff6d9a3929b4840cea1142bc65",
            "0xe37053bd222fa85a39c95ac0b029318e8a9be5bb333a5d0d8025f2ff85e6222c",
            "0xa3ecde0c1d9daa6b7a949c87a1af7963c69cb2c412fb3086c495f14630c17b7b",
            "0x00000000000000000000000000000000000000000000000000000000000003e8"
          ],
          "data": "0x",
          "blockHash": "0x8fd2d58f8fb448d54b9a603b712d35b2836ba585562a44f355ecb9c21f534be2",
          "blockNumber": "0x2b0a26e",
          "transactionHash": "0x8c51c93b7d6ff4b0095cf43f9be6c6305acdf75d759b20ac1a71529cf6404041",
          "transactionIndex": "0x0",
          "logIndex": "0x0",
          "removed": false
        },
        {
          "address": "0x00c1df9bf9c7ff7f3c2a8f9e9af72da95b350d34",
          "topics": [
            "0xddf252ad1be2c89b69c2b068fc378daa952ba7f163c4a11628f55a4df523b3ef",
            "0x0000000000000000000000001b150538e943f00127929f7eeb65754f7beb0b6d",
            "0x0000000000000000000000006b1c656ad724c246049ef586fa35d217a8db13a0"
          ],
          "data": "0x00000000000000000000000000000000000000000000000000000000000003e8",
          "blockHash": "0x8fd2d58f8fb448d54b9a603b712d35b2836ba585562a44f355ecb9c21f534be2",
          "blockNumber": "0x2b0a26e",
          "transactionHash": "0x8c51c93b7d6ff4b0095cf43f9be6c6305acdf75d759b20ac1a71529cf6404041",
          "transactionIndex": "0x0",
          "logIndex": "0x1",
          "removed": false
        }
      ],
      "logsBloom": "0x00000000000000000000000020000000000000200000000000000000000000010000000000000000000000000000000001000000000000000000000000000000000000000000000000000008040000000000000000000100000400000000000000000800000102000000000000000000000000008000000000000010000000000000000200000000000000080000000000000000000040000000000000000020000000000000000100000000000000000000000000000000000000000001000000008002000000020000000000000000001000200000000000000000000000100000000000000000000100000000000000000000000080000000000000000000",
      "type": "0x2",
      "transactionHash": "0x8c51c93b7d6ff4b0095cf43f9be6c6305acdf75d759b20ac1a71529cf6404041",
      "transactionIndex": "0x0",
      "blockHash": "0x8fd2d58f8fb448d54b9a603b712d35b2836ba585562a44f355ecb9c21f534be2",
      "blockNumber": "0x2b0a26e",
      "gasUsed": "0x2c8f4",
      "effectiveGasPrice": "0x2",
      "from": "0x1b150538e943f00127929f7eeb65754f7beb0b6d",
      "to": "0x6b1c656ad724c246049ef586fa35d217a8db13a0",
      "contractAddress": null
    },
    {
      "status": "0x1",
      "cumulativeGasUsed": "0x591e8",
      "logs": [
        {
          "address": "0x6b1c656ad724c246049ef586fa35d217a8db13a0",
          "topics": [
            "0x01b41cbd4bbcc3c5b968a04d3fbdd8c1648a39ff6d9a3929b4840cea1142bc65",
            "0x2b7547af7980aaf56cce2120af8111a87e777edfb2368e7abf615f671302d0c3",
            "0x99fdc3a44c06c65a307ea38acda009243287ccbbdb2b0ce423a25bb9b525d7f2",
            "0x00000000000000000000000000000000000000000000000000000000000003e8"
          ],
          "data": "0x",
          "blockHash": "0x8fd2d58f8fb448d54b9a603b712d35b2836ba585562a44f355ecb9c21f534be2",
          "blockNumber": "0x2b0a26e",
          "transactionHash": "0xb9b38f690f7e940f1376e0299d5012c1aa704a458d3eba509d2f6ea71a57d6fe",
          "transactionIndex": "0x1",
          "logIndex": "0x2",
          "removed": false
        },
        {
          "address": "0x00c1df9bf9c7ff7f3c2a8f9e9af72da95b350d34",
          "topics": [
            "0xddf252ad1be2c89b69c2b068fc378daa952ba7f163c4a11628f55a4df523b3ef",
            "0x0000000000000000000000001b150538e943f00127929f7eeb65754f7beb0b6d",
            "0x0000000000000000000000006b1c656ad724c246049ef586fa35d217a8db13a0"
          ],
          "data": "0x00000000000000000000000000000000000000000000000000000000000003e8",
          "blockHash": "0x8fd2d58f8fb448d54b9a603b712d35b2836ba585562a44f355ecb9c21f534be2",
          "blockNumber": "0x2b0a26e",
          "transactionHash": "0xb9b38f690f7e940f1376e0299d5012c1aa704a458d3eba509d2f6ea71a57d6fe",
          "transactionIndex": "0x1",
          "logIndex": "0x3",
          "removed": false
        }
      ],
      "logsBloom": "0x0000000000000000000000002000000000000020400000000000000000000000000000000000000000000400000000000000000000000000000000000000000000000000000000000000000804000000000010000000000000040000000000000000080000010200000000000000000000000000000000000000001000100000000000020000000000000008000000000000000000004000000000000000000000400000000000010000000000000000000000000000000000000000000000000000800a000000020000000000000000001000200000000000000000000000100000000000000000000100000000000000000000000080000000000000000000",
      "type": "0x2",
      "transactionHash": "0xb9b38f690f7e940f1376e0299d5012c1aa704a458d3eba509d2f6ea71a57d6fe",
      "transactionIndex": "0x1",
      "blockHash": "0x8fd2d58f8fb448d54b9a603b712d35b2836ba585562a44f355ecb9c21f534be2",
      "blockNumber": "0x2b0a26e",
      "gasUsed": "0x2c8f4",
      "effectiveGasPrice": "0x2",
      "from": "0x1b150538e943f00127929f7eeb65754f7beb0b6d",
      "to": "0x6b1c656ad724c246049ef586fa35d217a8db13a0",
      "contractAddress": null
    },
    {
      "status": "0x1",
      "cumulativeGasUsed": "0x85adc",
      "logs": [
        {
          "address": "0x6b1c656ad724c246049ef586fa35d217a8db13a0",
          "topics": [
            "0x01b41cbd4bbcc3c5b968a04d3fbdd8c1648a39ff6d9a3929b4840cea1142bc65",
            "0x372c714335ca34bfa5c302adefabee37b71d906320382e6a0d5a9aa31b316a3d",
            "0xc03eee8aa25e1b9fd36a28c6d3321bd0d0534a72034c40fcd9d75c70a610037e",
            "0x00000000000000000000000000000000000000000000000000000000000003e8"
          ],
          "data": "0x",
          "blockHash": "0x8fd2d58f8fb448d54b9a603b712d35b2836ba585562a44f355ecb9c21f534be2",
          "blockNumber": "0x2b0a26e",
          "transactionHash": "0x8bebc57f247a6835ba7e373026eb6d0a90fc8b4703f2770d9bd46f36f0f24e4e",
          "transactionIndex": "0x2",
          "logIndex": "0x4",
          "removed": false
        },
        {
          "address": "0x00c1df9bf9c7ff7f3c2a8f9e9af72da95b350d34",
          "topics": [
            "0xddf252ad1be2c89b69c2b068fc378daa952ba7f163c4a11628f55a4df523b3ef",
            "0x0000000000000000000000001b150538e943f00127929f7eeb65754f7beb0b6d",
            "0x0000000000000000000000006b1c656ad724c246049ef586fa35d217a8db13a0"
          ],
          "data": "0x00000000000000000000000000000000000000000000000000000000000003e8",
          "blockHash": "0x8fd2d58f8fb448d54b9a603b712d35b2836ba585562a44f355ecb9c21f534be2",
          "blockNumber": "0x2b0a26e",
          "transactionHash": "0x8bebc57f247a6835ba7e373026eb6d0a90fc8b4703f2770d9bd46f36f0f24e4e",
          "transactionIndex": "0x2",
          "logIndex": "0x5",
          "removed": false
        }
      ],
      "logsBloom": "0x00000000000000000002000020040000000000200000000000000000000000000000000000000000000000000000000000000000000000000000000000000000000000000000000000000008040000000000000000080000000400000000000000000800400122000000000000000000000000000000000000000010000000000000000200000000000000080000000000000000000040000000000000000000000000000000000100000000000000000000001000000000000000000000000000008002000000020000000000000000001000200000000000000000000000100000000000000000000100000000000000000000000080000000000000000000",
      "type": "0x2",
      "transactionHash": "0x8bebc57f247a6835ba7e373026eb6d0a90fc8b4703f2770d9bd46f36f0f24e4e",
      "transactionIndex": "0x2",
      "blockHash": "0x8fd2d58f8fb448d54b9a603b712d35b2836ba585562a44f355ecb9c21f534be2",
      "blockNumber": "0x2b0a26e",
      "gasUsed": "0x2c8f4",
      "effectiveGasPrice": "0x2",
      "from": "0x1b150538e943f00127929f7eeb65754f7beb0b6d",
      "to": "0x6b1c656ad724c246049ef586fa35d217a8db13a0",
      "contractAddress": null
    },
    {
      "status": "0x1",
      "cumulativeGasUsed": "0xb23d0",
      "logs": [
        {
          "address": "0x6b1c656ad724c246049ef586fa35d217a8db13a0",
          "topics": [
            "0x01b41cbd4bbcc3c5b968a04d3fbdd8c1648a39ff6d9a3929b4840cea1142bc65",
            "0x3c085e290c09d3abc596fb08ad9dc27435477b1562f576da847345d562ff5d85",
            "0xd3b2f026768fb94e95a4848cf669d1f120a6c73cd795450e52de6bddcadd883c",
            "0x00000000000000000000000000000000000000000000000000000000000003e8"
          ],
          "data": "0x",
          "blockHash": "0x8fd2d58f8fb448d54b9a603b712d35b2836ba585562a44f355ecb9c21f534be2",
          "blockNumber": "0x2b0a26e",
          "transactionHash": "0x1dcaeeb42a2915f7b107c9d3f6a03dc5960232ac4dd156520d20dee5c52301fd",
          "transactionIndex": "0x3",
          "logIndex": "0x6",
          "removed": false
        },
        {
          "address": "0x00c1df9bf9c7ff7f3c2a8f9e9af72da95b350d34",
          "topics": [
            "0xddf252ad1be2c89b69c2b068fc378daa952ba7f163c4a11628f55a4df523b3ef",
            "0x0000000000000000000000001b150538e943f00127929f7eeb65754f7beb0b6d",
            "0x0000000000000000000000006b1c656ad724c246049ef586fa35d217a8db13a0"
          ],
          "data": "0x00000000000000000000000000000000000000000000000000000000000003e8",
          "blockHash": "0x8fd2d58f8fb448d54b9a603b712d35b2836ba585562a44f355ecb9c21f534be2",
          "blockNumber": "0x2b0a26e",
          "transactionHash": "0x1dcaeeb42a2915f7b107c9d3f6a03dc5960232ac4dd156520d20dee5c52301fd",
          "transactionIndex": "0x3",
          "logIndex": "0x7",
          "removed": false
        }
      ],
      "logsBloom": "0x00000000000000000000000020000000000000200000000000000000000000000000000000000000000000000000000000000000000000000000000000000000000000000000002000000008040000000000000000000000000400000000000000000800000102000000000000000000000000000000000000000010000000000000000200000000000010080000000000000000000041000000000000200000000000000000000100000000000000000000000000000000000000000000000000008002000000020000000000000010001000200000000000000000000000100000000000000000000100000000000000001000000080000000000000000000",
      "type": "0x2",
      "transactionHash": "0x1dcaeeb42a2915f7b107c9d3f6a03dc5960232ac4dd156520d20dee5c52301fd",
      "transactionIndex": "0x3",
      "blockHash": "0x8fd2d58f8fb448d54b9a603b712d35b2836ba585562a44f355ecb9c21f534be2",
      "blockNumber": "0x2b0a26e",
      "gasUsed": "0x2c8f4",
      "effectiveGasPrice": "0x2",
      "from": "0x1b150538e943f00127929f7eeb65754f7beb0b6d",
      "to": "0x6b1c656ad724c246049ef586fa35d217a8db13a0",
      "contractAddress": null
    }
  ],
  "libraries": [],
  "pending": [],
  "returns": {},
  "timestamp": 1755946824006,
  "chain": 43113,
  "commit": "aa36f6b"
}