{
  "transactions": [
    {
      "hash": "0x90d5f4860f87a2d4c3b1360f161b9dfa6e21823160c6bc096773b920264b1dd8",
      "transactionType": "CALL",
      "contractName": null,
      "contractAddress": "0x00c1df9bf9c7ff7f3c2a8f9e9af72da95b350d34",
      "function": "approve(address,uint256)",
      "arguments": [
        "0x6B1c656ad724C246049EF586Fa35D217A8db13A0",
        "115792089237316195423570985008687907853269984665640564039457584007913129639935"
      ],
      "transaction": {
        "from": "0x1b150538e943f00127929f7eeb65754f7beb0b6d",
        "to": "0x00c1df9bf9c7ff7f3c2a8f9e9af72da95b350d34",
        "gas": "0xfee1",
        "value": "0x0",
        "input": "0x095ea7b30000000000000000000000006b1c656ad724c246049ef586fa35d217a8db13a0ffffffffffffffffffffffffffffffffffffffffffffffffffffffffffffffff",
        "nonce": "0x19",
        "chainId": "0xa869"
      },
      "additionalContracts": [],
      "isFixedGasLimit": false
    },
    {
      "hash": "0xc44f6f10186c793625714a53e490fd40e376029094dd5ec47f020876c706d34b",
      "transactionType": "CALL",
      "contractName": null,
      "contractAddress": "0x6b1c656ad724c246049ef586fa35d217a8db13a0",
      "function": "initiate(address,address,uint256,uint256,bytes32)",
      "arguments": [
        "0x00c1Df9bf9C7ff7F3c2A8F9e9af72DA95b350D34",
        "0x000000000000000000000000000000000000007B",
        "100",
        "1000",
        "0x66687aadf862bd776c8fc18b8e9f8e20089714856ee233b3902a591d0d5f2925"
      ],
      "transaction": {
        "from": "0x1b150538e943f00127929f7eeb65754f7beb0b6d",
        "to": "0x6b1c656ad724c246049ef586fa35d217a8db13a0",
        "gas": "0x43507",
        "value": "0x0",
        "input": "0xa70cac9100000000000000000000000000c1df9bf9c7ff7f3c2a8f9e9af72da95b350d34000000000000000000000000000000000000000000000000000000000000007b000000000000000000000000000000000000000000000000000000000000006400000000000000000000000000000000000000000000000000000000000003e866687aadf862bd776c8fc18b8e9f8e20089714856ee233b3902a591d0d5f2925",
        "nonce": "0x1a",
        "chainId": "0xa869"
      },
      "additionalContracts": [],
      "isFixedGasLimit": false
    },
    {
      "hash": "0x42c103812428a9cc7c0cf3ae554f3c10fa41fd13f634eb89df1e5b40648aea8b",
      "transactionType": "CALL",
      "contractName": null,
      "contractAddress": "0x6b1c656ad724c246049ef586fa35d217a8db13a0",
      "function": "initiate(address,address,uint256,uint256,bytes32)",
      "arguments": [
        "0x00c1Df9bf9C7ff7F3c2A8F9e9af72DA95b350D34",
        "0x000000000000000000000000000000000000007B",
        "100",
        "1000",
        "0xec4916dd28fc4c10d78e287ca5d9cc51ee1ae73cbfde08c6b37324cbfaac8bc5"
      ],
      "transaction": {
        "from": "0x1b150538e943f00127929f7eeb65754f7beb0b6d",
        "to": "0x6b1c656ad724c246049ef586fa35d217a8db13a0",
        "gas": "0x3d8c3",
        "value": "0x0",
        "input": "0xa70cac9100000000000000000000000000c1df9bf9c7ff7f3c2a8f9e9af72da95b350d34000000000000000000000000000000000000000000000000000000000000007b000000000000000000000000000000000000000000000000000000000000006400000000000000000000000000000000000000000000000000000000000003e8ec4916dd28fc4c10d78e287ca5d9cc51ee1ae73cbfde08c6b37324cbfaac8bc5",
        "nonce": "0x1b",
        "chainId": "0xa869"
      },
      "additionalContracts": [],
      "isFixedGasLimit": false
    },
    {
      "hash": "0x88dbbf1127f5c604fce3cb14deeac352c6af8cc9e80046f1229139aa1612e400",
      "transactionType": "CALL",
      "contractName": null,
      "contractAddress": "0x6b1c656ad724c246049ef586fa35d217a8db13a0",
      "function": "initiate(address,address,uint256,uint256,bytes32)",
      "arguments": [
        "0x00c1Df9bf9C7ff7F3c2A8F9e9af72DA95b350D34",
        "0x000000000000000000000000000000000000007B",
        "100",
        "1000",
        "0x9267d3dbed802941483f1afa2a6bc68de5f653128aca9bf1461c5d0a3ad36ed2"
      ],
      "transaction": {
        "from": "0x1b150538e943f00127929f7eeb65754f7beb0b6d",
        "to": "0x6b1c656ad724c246049ef586fa35d217a8db13a0",
        "gas": "0x3d8c3",
        "value": "0x0",
        "input": "0xa70cac9100000000000000000000000000c1df9bf9c7ff7f3c2a8f9e9af72da95b350d34000000000000000000000000000000000000000000000000000000000000007b000000000000000000000000000000000000000000000000000000000000006400000000000000000000000000000000000000000000000000000000000003e89267d3dbed802941483f1afa2a6bc68de5f653128aca9bf1461c5d0a3ad36ed2",
        "nonce": "0x1c",
        "chainId": "0xa869"
      },
      "additionalContracts": [],
      "isFixedGasLimit": false
    },
    {
      "hash": "0x64b6dbf8766a91d72469d247ce419c5b8643bde9c01174a6eea17d8648636945",
      "transactionType": "CALL",
      "contractName": null,
      "contractAddress": "0x6b1c656ad724c246049ef586fa35d217a8db13a0",
      "function": "initiate(address,address,uint256,uint256,bytes32)",
      "arguments": [
        "0x00c1Df9bf9C7ff7F3c2A8F9e9af72DA95b350D34",
        "0x000000000000000000000000000000000000007B",
        "100",
        "1000",
        "0xd9147961436944f43cd99d28b2bbddbf452ef872b30c8279e255e7daafc7f946"
      ],
      "transaction": {
        "from": "0x1b150538e943f00127929f7eeb65754f7beb0b6d",
        "to": "0x6b1c656ad724c246049ef586fa35d217a8db13a0",
        "gas": "0x3d8c3",
        "value": "0x0",
        "input": "0xa70cac9100000000000000000000000000c1df9bf9c7ff7f3c2a8f9e9af72da95b350d34000000000000000000000000000000000000000000000000000000000000007b000000000000000000000000000000000000000000000000000000000000006400000000000000000000000000000000000000000000000000000000000003e8d9147961436944f43cd99d28b2bbddbf452ef872b30c8279e255e7daafc7f946",
        "nonce": "0x1d",
        "chainId": "0xa869"
      },
      "additionalContracts": [],
      "isFixedGasLimit": false
    },
    {
      "hash": "0x6dcdc38a170eece1c74aa82436feb79ab10b6959755c07a66c170ec395a0848c",
      "transactionType": "CALL",
      "contractName": null,
      "contractAddress": "0x6b1c656ad724c246049ef586fa35d217a8db13a0",
      "function": "initiate(address,address,uint256,uint256,bytes32)",
      "arguments": [
        "0x00c1Df9bf9C7ff7F3c2A8F9e9af72DA95b350D34",
        "0x000000000000000000000000000000000000007B",
        "100",
        "1000",
        "0xe38990d0c7fc009880a9c07c23842e886c6bbdc964ce6bdd5817ad357335ee6f"
      ],
      "transaction": {
        "from": "0x1b150538e943f00127929f7eeb65754f7beb0b6d",
        "to": "0x6b1c656ad724c246049ef586fa35d217a8db13a0",
        "gas": "0x3d8b3",
        "value": "0x0",
        "input": "0xa70cac9100000000000000000000000000c1df9bf9c7ff7f3c2a8f9e9af72da95b350d34000000000000000000000000000000000000000000000000000000000000007b000000000000000000000000000000000000000000000000000000000000006400000000000000000000000000000000000000000000000000000000000003e8e38990d0c7fc009880a9c07c23842e886c6bbdc964ce6bdd5817ad357335ee6f",
        "nonce": "0x1e",
        "chainId": "0xa869"
      },
      "additionalContracts": [],
      "isFixedGasLimit": false
    },
    {
      "hash": "0x431644fec845c014a344d718643da85da25d6e4809cc4be5be733d75477d0d9b",
      "transactionType": "CALL",
      "contractName": null,
      "contractAddress": "0x6b1c656ad724c246049ef586fa35d217a8db13a0",
      "function": "initiate(address,address,uint256,uint256,bytes32)",
      "arguments": [
        "0x00c1Df9bf9C7ff7F3c2A8F9e9af72DA95b350D34",
        "0x000000000000000000000000000000000000007B",
        "100",
        "1000",
        "0x96de8fc8c256fa1e1556d41af431cace7dca68707c78dd88c3acab8b17164c47"
      ],
      "transaction": {
        "from": "0x1b150538e943f00127929f7eeb65754f7beb0b6d",
        "to": "0x6b1c656ad724c246049ef586fa35d217a8db13a0",
        "gas": "0x3d8c3",
        "value": "0x0",
        "input": "0xa70cac9100000000000000000000000000c1df9bf9c7ff7f3c2a8f9e9af72da95b350d34000000000000000000000000000000000000000000000000000000000000007b000000000000000000000000000000000000000000000000000000000000006400000000000000000000000000000000000000000000000000000000000003e896de8fc8c256fa1e1556d41af431cace7dca68707c78dd88c3acab8b17164c47",
        "nonce": "0x1f",
        "chainId": "0xa869"
      },
      "additionalContracts": [],
      "isFixedGasLimit": false
    },
    {
      "hash": "0xaa7280b539f6f9e558090359093209a57956db5dcb0f05b36fff1cb88ca3646a",
      "transactionType": "CALL",
      "contractName": null,
      "contractAddress": "0x6b1c656ad724c246049ef586fa35d217a8db13a0",
      "function": "initiate(address,address,uint256,uint256,bytes32)",
      "arguments": [
        "0x00c1Df9bf9C7ff7F3c2A8F9e9af72DA95b350D34",
        "0x000000000000000000000000000000000000007B",
        "100",
        "1000",
        "0xd1ec675902ef1633427ca360b290b0b3045a0d9058ddb5e648b4c3c3224c5c68"
      ],
      "transaction": {
        "from": "0x1b150538e943f00127929f7eeb65754f7beb0b6d",
        "to": "0x6b1c656ad724c246049ef586fa35d217a8db13a0",
        "gas": "0x3d8c3",
        "value": "0x0",
        "input": "0xa70cac9100000000000000000000000000c1df9bf9c7ff7f3c2a8f9e9af72da95b350d34000000000000000000000000000000000000000000000000000000000000007b000000000000000000000000000000000000000000000000000000000000006400000000000000000000000000000000000000000000000000000000000003e8d1ec675902ef1633427ca360b290b0b3045a0d9058ddb5e648b4c3c3224c5c68",
        "nonce": "0x20",
        "chainId": "0xa869"
      },
      "additionalContracts": [],
      "isFixedGasLimit": false
    },
    {
      "hash": "0x6507b3ccdefe2b9ca7ef395fc463c262a2d95c6966454c34f0a6222f55f4415d",
      "transactionType": "CALL",
      "contractName": null,
      "contractAddress": "0x6b1c656ad724c246049ef586fa35d217a8db13a0",
      "function": "initiate(address,address,uint256,uint256,bytes32)",
      "arguments": [
        "0x00c1Df9bf9C7ff7F3c2A8F9e9af72DA95b350D34",
        "0x000000000000000000000000000000000000007B",
        "100",
        "1000",
        "0x48428bdb7ddd829410d6bbb924fdeb3a3d7e88c2577bffae073b990c6f061d08"
      ],
      "transaction": {
        "from": "0x1b150538e943f00127929f7eeb65754f7beb0b6d",
        "to": "0x6b1c656ad724c246049ef586fa35d217a8db13a0",
        "gas": "0x3d8c3",
        "value": "0x0",
        "input": "0xa70cac9100000000000000000000000000c1df9bf9c7ff7f3c2a8f9e9af72da95b350d34000000000000000000000000000000000000000000000000000000000000007b000000000000000000000000000000000000000000000000000000000000006400000000000000000000000000000000000000000000000000000000000003e848428bdb7ddd829410d6bbb924fdeb3a3d7e88c2577bffae073b990c6f061d08",
        "nonce": "0x21",
        "chainId": "0xa869"
      },
      "additionalContracts": [],
      "isFixedGasLimit": false
    },
    {
      "hash": "0x8022b82bf5c28904d3fce8a28391f58802acfb35c7a5fd47ce75d6b043300541",
      "transactionType": "CALL",
      "contractName": null,
      "contractAddress": "0x6b1c656ad724c246049ef586fa35d217a8db13a0",
      "function": "initiate(address,address,uint256,uint256,bytes32)",
      "arguments": [
        "0x00c1Df9bf9C7ff7F3c2A8F9e9af72DA95b350D34",
        "0x000000000000000000000000000000000000007B",
        "100",
        "1000",
        "0x38df1c1f64a24a77b23393bca50dff872e31edc4f3b5aa3b90ad0b82f4f089b6"
      ],
      "transaction": {
        "from": "0x1b150538e943f00127929f7eeb65754f7beb0b6d",
        "to": "0x6b1c656ad724c246049ef586fa35d217a8db13a0",
        "gas": "0x3d8c3",
        "value": "0x0",
        "input": "0xa70cac9100000000000000000000000000c1df9bf9c7ff7f3c2a8f9e9af72da95b350d34000000000000000000000000000000000000000000000000000000000000007b000000000000000000000000000000000000000000000000000000000000006400000000000000000000000000000000000000000000000000000000000003e838df1c1f64a24a77b23393bca50dff872e31edc4f3b5aa3b90ad0b82f4f089b6",
        "nonce": "0x22",
        "chainId": "0xa869"
      },
      "additionalContracts": [],
      "isFixedGasLimit": false
    },
    {
      "hash": "0x5240e282ab57999a3e8cbf2ebfd035ffc8dfb7dae4b4d0ba0c85b5dffa30d7b6",
      "transactionType": "CALL",
      "contractName": null,
      "contractAddress": "0x6b1c656ad724c246049ef586fa35d217a8db13a0",
      "function": "initiate(address,address,uint256,uint256,bytes32)",
      "arguments": [
        "0x00c1Df9bf9C7ff7F3c2A8F9e9af72DA95b350D34",
        "0x000000000000000000000000000000000000007B",
        "100",
        "1000",
        "0x887bf140ce0b6a497ed8db5c7498a45454f0b2bd644b0313f7a82acc084d0027"
      ],
      "transaction": {
        "from": "0x1b150538e943f00127929f7eeb65754f7beb0b6d",
        "to": "0x6b1c656ad724c246049ef586fa35d217a8db13a0",
        "gas": "0x3d8b3",
        "value": "0x0",
        "input": "0xa70cac9100000000000000000000000000c1df9bf9c7ff7f3c2a8f9e9af72da95b350d34000000000000000000000000000000000000000000000000000000000000007b000000000000000000000000000000000000000000000000000000000000006400000000000000000000000000000000000000000000000000000000000003e8887bf140ce0b6a497ed8db5c7498a45454f0b2bd644b0313f7a82acc084d0027",
        "nonce": "0x23",
        "chainId": "0xa869"
      },
      "additionalContracts": [],
      "isFixedGasLimit": false
    }
  ],
  "receipts": [
    {
      "status": "0x1",
      "cumulativeGasUsed": "0xb888",
      "logs": [
        {
          "address": "0x00c1df9bf9c7ff7f3c2a8f9e9af72da95b350d34",
          "topics": [
            "0x8c5be1e5ebec7d5bd14f71427d1e84f3dd0314c0f7b2291e5b200ac8c7c3b925",
            "0x0000000000000000000000001b150538e943f00127929f7eeb65754f7beb0b6d",
            "0x0000000000000000000000006b1c656ad724c246049ef586fa35d217a8db13a0"
          ],
          "data": "0xffffffffffffffffffffffffffffffffffffffffffffffffffffffffffffffff",
          "blockHash": "0x4b1c6619456541f7359642e81c45e877e911a9bf1a03e7ac7605d96d89bd8a61",
          "blockNumber": "0x2b0a1d9",
          "transactionHash": "0x90d5f4860f87a2d4c3b1360f161b9dfa6e21823160c6bc096773b920264b1dd8",
          "transactionIndex": "0x0",
          "logIndex": "0x0",
          "removed": false
        }
      ],
      "logsBloom": "0x00000000000000000000000000000000000000200000000000000000000000000000000000000000000000000000000000000000000000000000000000200000000000000000000000000000040000000000000000000000000000000000000000000000000002000000000000000000000000000000000000000000000000000000000000000000000000080000000000000000000000000000000000000000020000000000000100000000000000000000000000000000000000000000000000008000000000000000000000000000001000200000000000000000000000000010000000000000000100000000000000000000000000000000000000000000",
      "type": "0x2",
      "transactionHash": "0x90d5f4860f87a2d4c3b1360f161b9dfa6e21823160c6bc096773b920264b1dd8",
      "transactionIndex": "0x0",
      "blockHash": "0x4b1c6619456541f7359642e81c45e877e911a9bf1a03e7ac7605d96d89bd8a61",
      "blockNumber": "0x2b0a1d9",
      "gasUsed": "0xb888",
      "effectiveGasPrice": "0x1389",
      "from": "0x1b150538e943f00127929f7eeb65754f7beb0b6d",
      "to": "0x00c1df9bf9c7ff7f3c2a8f9e9af72da95b350d34",
      "contractAddress": null
    },
    {
      "status": "0x1",
      "cumulativeGasUsed": "0x30bc0",
      "logs": [
        {
          "address": "0x6b1c656ad724c246049ef586fa35d217a8db13a0",
          "topics": [
            "0x01b41cbd4bbcc3c5b968a04d3fbdd8c1648a39ff6d9a3929b4840cea1142bc65",
            "0xc0ae1ca34d3c5d6d1658919aa5779062aa6eab817b7998d691bb156d0c21fad4",
            "0x66687aadf862bd776c8fc18b8e9f8e20089714856ee233b3902a591d0d5f2925",
            "0x00000000000000000000000000000000000000000000000000000000000003e8"
          ],
          "data": "0x",
          "blockHash": "0x8ae019041668ffd4d5d8da80dd7f9b66bf2b178afb1db14d806190652ce8762e",
          "blockNumber": "0x2b0a1da",
          "transactionHash": "0xc44f6f10186c793625714a53e490fd40e376029094dd5ec47f020876c706d34b",
          "transactionIndex": "0x0",
          "logIndex": "0x0",
          "removed": false
        },
        {
          "address": "0x00c1df9bf9c7ff7f3c2a8f9e9af72da95b350d34",
          "topics": [
            "0xddf252ad1be2c89b69c2b068fc378daa952ba7f163c4a11628f55a4df523b3ef",
            "0x0000000000000000000000001b150538e943f00127929f7eeb65754f7beb0b6d",
            "0x0000000000000000000000006b1c656ad724c246049ef586fa35d217a8db13a0"
          ],
          "data": "0x00000000000000000000000000000000000000000000000000000000000003e8",
          "blockHash": "0x8ae019041668ffd4d5d8da80dd7f9b66bf2b178afb1db14d806190652ce8762e",
          "blockNumber": "0x2b0a1da",
          "transactionHash": "0xc44f6f10186c793625714a53e490fd40e376029094dd5ec47f020876c706d34b",
          "transactionIndex": "0x0",
          "logIndex": "0x1",
          "removed": false
        }
      ],
      "logsBloom": "0x00000000000000000000000220000000000000200000000000000000000000000000000000000000000000000000000000000000000004000000000000000000000000000000000000000008040000000000000000000000000400000000000000000800000102000000000000000000000000000000000000000010000000000000000200000000000000080000000000000000000040000000000000000000000080000000000100000000000000000000000000000000000000000000000000008002000000020000000020010000001000200000000001000000000000100000000000000000000100000000000000000000000080000000000000000000",
      "type": "0x2",
      "transactionHash": "0xc44f6f10186c793625714a53e490fd40e376029094dd5ec47f020876c706d34b",
      "transactionIndex": "0x0",
      "blockHash": "0x8ae019041668ffd4d5d8da80dd7f9b66bf2b178afb1db14d806190652ce8762e",
      "blockNumber": "0x2b0a1da",
      "gasUsed": "0x30bc0",
      "effectiveGasPrice": "0x1389",
      "from": "0x1b150538e943f00127929f7eeb65754f7beb0b6d",
      "to": "0x6b1c656ad724c246049ef586fa35d217a8db13a0",
      "contractAddress": null
    },
    {
      "status": "0x1",
      "cumulativeGasUsed": "0x5d4b4",
      "logs": [
        {
          "address": "0x6b1c656ad724c246049ef586fa35d217a8db13a0",
          "topics": [
            "0x01b41cbd4bbcc3c5b968a04d3fbdd8c1648a39ff6d9a3929b4840cea1142bc65",
            "0xf2f0545d07299bfabd0baddd233372a20019120e4d4dd7ea279d2391d451573d",
            "0xec4916dd28fc4c10d78e287ca5d9cc51ee1ae73cbfde08c6b37324cbfaac8bc5",
            "0x00000000000000000000000000000000000000000000000000000000000003e8"
          ],
          "data": "0x",
          "blockHash": "0x8ae019041668ffd4d5d8da80dd7f9b66bf2b178afb1db14d806190652ce8762e",
          "blockNumber": "0x2b0a1da",
          "transactionHash": "0x42c103812428a9cc7c0cf3ae554f3c10fa41fd13f634eb89df1e5b40648aea8b",
          "transactionIndex": "0x1",
          "logIndex": "0x2",
          "removed": false
        },
        {
          "address": "0x00c1df9bf9c7ff7f3c2a8f9e9af72da95b350d34",
          "topics": [
            "0xddf252ad1be2c89b69c2b068fc378daa952ba7f163c4a11628f55a4df523b3ef",
            "0x0000000000000000000000001b150538e943f00127929f7eeb65754f7beb0b6d",
            "0x0000000000000000000000006b1c656ad724c246049ef586fa35d217a8db13a0"
          ],
          "data": "0x00000000000000000000000000000000000000000000000000000000000003e8",
          "blockHash": "0x8ae019041668ffd4d5d8da80dd7f9b66bf2b178afb1db14d806190652ce8762e",
          "blockNumber": "0x2b0a1da",
          "transactionHash": "0x42c103812428a9cc7c0cf3ae554f3c10fa41fd13f634eb89df1e5b40648aea8b",
          "transactionIndex": "0x1",
          "logIndex": "0x3",
          "removed": false
        }
      ],
      "logsBloom": "0x00000000000000000000000020000000000000200000000000000000800000000000000000000000000000000000000000000000000000000000000000000000000000000000000000008008040000000000000000000000000400000000000000000800000102000000000000000000000000000000000000000010000000000000000200000000000000080000000000000000000040000000000000000000000000000000000100000000000000000000000000010000000000000000000000009002000000020000000100000400001000200000000000000000000000100000000000000000000100000000000000000000000080000000000000000000",
      "type": "0x2",
      "transactionHash": "0x42c103812428a9cc7c0cf3ae554f3c10fa41fd13f634eb89df1e5b40648aea8b",
      "transactionIndex": "0x1",
      "blockHash": "0x8ae019041668ffd4d5d8da80dd7f9b66bf2b178afb1db14d806190652ce8762e",
      "blockNumber": "0x2b0a1da",
      "gasUsed": "0x2c8f4",
      "effectiveGasPrice": "0x1389",
      "from": "0x1b150538e943f00127929f7eeb65754f7beb0b6d",
      "to": "0x6b1c656ad724c246049ef586fa35d217a8db13a0",
      "contractAddress": null
    },
    {
      "status": "0x1",
      "cumulativeGasUsed": "0x89da8",
      "logs": [
        {
          "address": "0x6b1c656ad724c246049ef586fa35d217a8db13a0",
          "topics": [
            "0x01b41cbd4bbcc3c5b968a04d3fbdd8c1648a39ff6d9a3929b4840cea1142bc65",
            "0xe20b393ace2cee8f65f91ef73c41e6c9417158770b9c304dfa9d13efd61d6600",
            "0x9267d3dbed802941483f1afa2a6bc68de5f653128aca9bf1461c5d0a3ad36ed2",
            "0x00000000000000000000000000000000000000000000000000000000000003e8"
          ],
          "data": "0x",
          "blockHash": "0x8ae019041668ffd4d5d8da80dd7f9b66bf2b178afb1db14d806190652ce8762e",
          "blockNumber": "0x2b0a1da",
          "transactionHash": "0x88dbbf1127f5c604fce3cb14deeac352c6af8cc9e80046f1229139aa1612e400",
          "transactionIndex": "0x2",
          "logIndex": "0x4",
          "removed": false
        },
        {
          "address": "0x00c1df9bf9c7ff7f3c2a8f9e9af72da95b350d34",
          "topics": [
            "0xddf252ad1be2c89b69c2b068fc378daa952ba7f163c4a11628f55a4df523b3ef",
            "0x0000000000000000000000001b150538e943f00127929f7eeb65754f7beb0b6d",
            "0x0000000000000000000000006b1c656ad724c246049ef586fa35d217a8db13a0"
          ],
          "data": "0x00000000000000000000000000000000000000000000000000000000000003e8",
          "blockHash": "0x8ae019041668ffd4d5d8da80dd7f9b66bf2b178afb1db14d806190652ce8762e",
          "blockNumber": "0x2b0a1da",
          "transactionHash": "0x88dbbf1127f5c604fce3cb14deeac352c6af8cc9e80046f1229139aa1612e400",
          "transactionIndex": "0x2",
          "logIndex": "0x5",
          "removed": false
        }
      ],
      "logsBloom": "0x00000000000000000000000020000000000000200000000000000000080000000000000000000000000000000000000000000000000100000000000000000000000000000000000000000008040000000000000000000000000400000000000100000800000102000000000000000000000000000000000000000010000000000000000200000000000000080000000000020000000040000000000000000000000000000000000100000000000000000000000000000000000000000000000000008002000000020000000000000000001000200000000000000000000000100000008000000000000100000008000000000000000080000000000000000000",
      "type": "0x2",
      "transactionHash": "0x88dbbf1127f5c604fce3cb14deeac352c6af8cc9e80046f1229139aa1612e400",
      "transactionIndex": "0x2",
      "blockHash": "0x8ae019041668ffd4d5d8da80dd7f9b66bf2b178afb1db14d806190652ce8762e",
      "blockNumber": "0x2b0a1da",
      "gasUsed": "0x2c8f4",
      "effectiveGasPrice": "0x1389",
      "from": "0x1b150538e943f00127929f7eeb65754f7beb0b6d",
      "to": "0x6b1c656ad724c246049ef586fa35d217a8db13a0",
      "contractAddress": null
    },
    {
      "status": "0x1",
      "cumulativeGasUsed": "0x2c8f4",
      "logs": [
        {
          "address": "0x6b1c656ad724c246049ef586fa35d217a8db13a0",
          "topics": [
            "0x01b41cbd4bbcc3c5b968a04d3fbdd8c1648a39ff6d9a3929b4840cea1142bc65",
            "0x41795a7505bf6a2d871bce4e44b43a3c71b4602139645210d3ef2326e945d113",
            "0xd9147961436944f43cd99d28b2bbddbf452ef872b30c8279e255e7daafc7f946",
            "0x00000000000000000000000000000000000000000000000000000000000003e8"
          ],
          "data": "0x",
          "blockHash": "0x5508bb17786133fc99a9716f0e5447b21181a6bb7514090b842b133dbb65c651",
          "blockNumber": "0x2b0a1db",
          "transactionHash": "0x64b6dbf8766a91d72469d247ce419c5b8643bde9c01174a6eea17d8648636945",
          "transactionIndex": "0x0",
          "logIndex": "0x0",
          "removed": false
        },
        {
          "address": "0x00c1df9bf9c7ff7f3c2a8f9e9af72da95b350d34",
          "topics": [
            "0xddf252ad1be2c89b69c2b068fc378daa952ba7f163c4a11628f55a4df523b3ef",
            "0x0000000000000000000000001b150538e943f00127929f7eeb65754f7beb0b6d",
            "0x0000000000000000000000006b1c656ad724c246049ef586fa35d217a8db13a0"
          ],
          "data": "0x00000000000000000000000000000000000000000000000000000000000003e8",
          "blockHash": "0x5508bb17786133fc99a9716f0e5447b21181a6bb7514090b842b133dbb65c651",
          "blockNumber": "0x2b0a1db",
          "transactionHash": "0x64b6dbf8766a91d72469d247ce419c5b8643bde9c01174a6eea17d8648636945",
          "transactionIndex": "0x0",
          "logIndex": "0x1",
          "removed": false
        }
      ],
      "logsBloom": "0x00000000000000000000020020000000000000201000000000000000000000000000000000000000000000100000000000000000000000000000000000000000000000000000000000000008040000000000000000000000000400000000000000000800000102000000000000000000000000000000000000000010000000000000000200004000000000080000000000000000000040000000000000000000000000000400000100000000000000000000000000000000000001000000000000008002000000020000000000000000001000200000000000000000000000100000000000000000000100000000000000000000000080000000000000000000",
      "type": "0x2",
      "transactionHash": "0x64b6dbf8766a91d72469d247ce419c5b8643bde9c01174a6eea17d8648636945",
      "transactionIndex": "0x0",
      "blockHash": "0x5508bb17786133fc99a9716f0e5447b21181a6bb7514090b842b133dbb65c651",
      "blockNumber": "0x2b0a1db",
      "gasUsed": "0x2c8f4",
      "effectiveGasPrice": "0x1389",
      "from": "0x1b150538e943f00127929f7eeb65754f7beb0b6d",
      "to": "0x6b1c656ad724c246049ef586fa35d217a8db13a0",
      "contractAddress": null
    },
    {
      "status": "0x1",
      "cumulativeGasUsed": "0x591dc",
      "logs": [
        {
          "address": "0x6b1c656ad724c246049ef586fa35d217a8db13a0",
          "topics": [
            "0x01b41cbd4bbcc3c5b968a04d3fbdd8c1648a39ff6d9a3929b4840cea1142bc65",
            "0xb1197c57317ad68280cab93d30950deff4bc3c5966168d14791a774768cad9a4",
            "0xe38990d0c7fc009880a9c07c23842e886c6bbdc964ce6bdd5817ad357335ee6f",
            "0x00000000000000000000000000000000000000000000000000000000000003e8"
          ],
          "data": "0x",
          "blockHash": "0x5508bb17786133fc99a9716f0e5447b21181a6bb7514090b842b133dbb65c651",
          "blockNumber": "0x2b0a1db",
          "transactionHash": "0x6dcdc38a170eece1c74aa82436feb79ab10b6959755c07a66c170ec395a0848c",
          "transactionIndex": "0x1",
          "logIndex": "0x2",
          "removed": false
        },
        {
          "address": "0x00c1df9bf9c7ff7f3c2a8f9e9af72da95b350d34",
          "topics": [
            "0xddf252ad1be2c89b69c2b068fc378daa952ba7f163c4a11628f55a4df523b3ef",
            "0x0000000000000000000000001b150538e943f00127929f7eeb65754f7beb0b6d",
            "0x0000000000000000000000006b1c656ad724c246049ef586fa35d217a8db13a0"
          ],
          "data": "0x00000000000000000000000000000000000000000000000000000000000003e8",
          "blockHash": "0x5508bb17786133fc99a9716f0e5447b21181a6bb7514090b842b133dbb65c651",
          "blockNumber": "0x2b0a1db",
          "transactionHash": "0x6dcdc38a170eece1c74aa82436feb79ab10b6959755c07a66c170ec395a0848c",
          "transactionIndex": "0x1",
          "logIndex": "0x3",
          "removed": false
        }
      ],
      "logsBloom": "0x00000000000000000000000020000000000000200000000000000000000000000000000000000000000000000000000000000000000000000000000000000000000000000000000000000008040010000000000000000000000400000000000000044800000102000000000000000000000000000000000000000010000000000000000200000000000000080000000000000000000040000000000000000000000000000000000100000000000000000000000008000000000000000000000000008002000000020000002000000000001000200400000000000000000000100000000000000000000100000000000000000000000080000000000000000000",
      "type": "0x2",
      "transactionHash": "0x6dcdc38a170eece1c74aa82436feb79ab10b6959755c07a66c170ec395a0848c",
      "transactionIndex": "0x1",
      "blockHash": "0x5508bb17786133fc99a9716f0e5447b21181a6bb7514090b842b133dbb65c651",
      "blockNumber": "0x2b0a1db",
      "gasUsed": "0x2c8e8",
      "effectiveGasPrice": "0x1389",
      "from": "0x1b150538e943f00127929f7eeb65754f7beb0b6d",
      "to": "0x6b1c656ad724c246049ef586fa35d217a8db13a0",
      "contractAddress": null
    },
    {
      "status": "0x1",
      "cumulativeGasUsed": "0x85ad0",
      "logs": [
        {
          "address": "0x6b1c656ad724c246049ef586fa35d217a8db13a0",
          "topics": [
            "0x01b41cbd4bbcc3c5b968a04d3fbdd8c1648a39ff6d9a3929b4840cea1142bc65",
            "0x8655c6b1ce52dc460cb142112f5c9256a38d96b4eb10fb4980c5c44499ba6240",
            "0x96de8fc8c256fa1e1556d41af431cace7dca68707c78dd88c3acab8b17164c47",
            "0x00000000000000000000000000000000000000000000000000000000000003e8"
          ],
          "data": "0x",
          "blockHash": "0x5508bb17786133fc99a9716f0e5447b21181a6bb7514090b842b133dbb65c651",
          "blockNumber": "0x2b0a1db",
          "transactionHash": "0x431644fec845c014a344d718643da85da25d6e4809cc4be5be733d75477d0d9b",
          "transactionIndex": "0x2",
          "logIndex": "0x4",
          "removed": false
        },
        {
          "address": "0x00c1df9bf9c7ff7f3c2a8f9e9af72da95b350d34",
          "topics": [
            "0xddf252ad1be2c89b69c2b068fc378daa952ba7f163c4a11628f55a4df523b3ef",
            "0x0000000000000000000000001b150538e943f00127929f7eeb65754f7beb0b6d",
            "0x0000000000000000000000006b1c656ad724c246049ef586fa35d217a8db13a0"
          ],
          "data": "0x00000000000000000000000000000000000000000000000000000000000003e8",
          "blockHash": "0x5508bb17786133fc99a9716f0e5447b21181a6bb7514090b842b133dbb65c651",
          "blockNumber": "0x2b0a1db",
          "transactionHash": "0x431644fec845c014a344d718643da85da25d6e4809cc4be5be733d75477d0d9b",
          "transactionIndex": "0x2",
          "logIndex": "0x5",
          "removed": false
        }
      ],
      "logsBloom": "0x00004000000000000000000020000000000000200000004000000000000000000000000000000400000000000000000000000000000000000000000000000000400000000000000000000008040000000000000000000000000400000000000000000800000102000000000000000000040000000000000000000010000000000000000200000000000000080000000000000000000040000000000000000000000000000000000100000000000000000000000000000040000000000000000000008002000000020000000000000000001000200000000000000000000000100000000000000000000100000000000000000000000080000000000000000000",
      "type": "0x2",
      "transactionHash": "0x431644fec845c014a344d718643da85da25d6e4809cc4be5be733d75477d0d9b",
      "transactionIndex": "0x2",
      "blockHash": "0x5508bb17786133fc99a9716f0e5447b21181a6bb7514090b842b133dbb65c651",
      "blockNumber": "0x2b0a1db",
      "gasUsed": "0x2c8f4",
      "effectiveGasPrice": "0x1389",
      "from": "0x1b150538e943f00127929f7eeb65754f7beb0b6d",
      "to": "0x6b1c656ad724c246049ef586fa35d217a8db13a0",
      "contractAddress": null
    },
    {
      "status": "0x1",
      "cumulativeGasUsed": "0xb23c4",
      "logs": [
        {
          "address": "0x6b1c656ad724c246049ef586fa35d217a8db13a0",
          "topics": [
            "0x01b41cbd4bbcc3c5b968a04d3fbdd8c1648a39ff6d9a3929b4840cea1142bc65",
            "0x939e6b728651588a61ee18eff091eb9a3a9cceba3cd03266acf086692d8fce37",
            "0xd1ec675902ef1633427ca360b290b0b3045a0d9058ddb5e648b4c3c3224c5c68",
            "0x00000000000000000000000000000000000000000000000000000000000003e8"
          ],
          "data": "0x",
          "blockHash": "0x5508bb17786133fc99a9716f0e5447b21181a6bb7514090b842b133dbb65c651",
          "blockNumber": "0x2b0a1db",
          "transactionHash": "0xaa7280b539f6f9e558090359093209a57956db5dcb0f05b36fff1cb88ca3646a",
          "transactionIndex": "0x3",
          "logIndex": "0x6",
          "removed": false
        },
        {
          "address": "0x00c1df9bf9c7ff7f3c2a8f9e9af72da95b350d34",
          "topics": [
            "0xddf252ad1be2c89b69c2b068fc378daa952ba7f163c4a11628f55a4df523b3ef",
            "0x0000000000000000000000001b150538e943f00127929f7eeb65754f7beb0b6d",
            "0x0000000000000000000000006b1c656ad724c246049ef586fa35d217a8db13a0"
          ],
          "data": "0x00000000000000000000000000000000000000000000000000000000000003e8",
          "blockHash": "0x5508bb17786133fc99a9716f0e5447b21181a6bb7514090b842b133dbb65c651",
          "blockNumber": "0x2b0a1db",
          "transactionHash": "0xaa7280b539f6f9e558090359093209a57956db5dcb0f05b36fff1cb88ca3646a",
          "transactionIndex": "0x3",
          "logIndex": "0x7",
          "removed": false
        }
      ],
      "logsBloom": "0x00000000000000000000000020000000000000200000000000000000000000000000000000000000000000000000000000000000000000000000000000000000000000080000000000000008040000000000000000000000000400000002000000000800080102000000000000000000000000000000000000000010000000004000000200000000000000080000000000000000000040000000000000000000000000000000000100008000000000000000000000000000000000000000000008008002000000020000000000000000001000200000000000000000000000100000000000000000000100000000000000000000000080000000000000000000",
      "type": "0x2",
      "transactionHash": "0xaa7280b539f6f9e558090359093209a57956db5dcb0f05b36fff1cb88ca3646a",
      "transactionIndex": "0x3",
      "blockHash": "0x5508bb17786133fc99a9716f0e5447b21181a6bb7514090b842b133dbb65c651",
      "blockNumber": "0x2b0a1db",
      "gasUsed": "0x2c8f4",
      "effectiveGasPrice": "0x1389",
      "from": "0x1b150538e943f00127929f7eeb65754f7beb0b6d",
      "to": "0x6b1c656ad724c246049ef586fa35d217a8db13a0",
      "contractAddress": null
    },
    {
      "status": "0x1",
      "cumulativeGasUsed": "0xdecb8",
      "logs": [
        {
          "address": "0x6b1c656ad724c246049ef586fa35d217a8db13a0",
          "topics": [
            "0x01b41cbd4bbcc3c5b968a04d3fbdd8c1648a39ff6d9a3929b4840cea1142bc65",
            "0x5dbc02ff3eb50a026810ebedb15c225be2fbec07bfebc9505d0f7b51be322833",
            "0x48428bdb7ddd829410d6bbb924fdeb3a3d7e88c2577bffae073b990c6f061d08",
            "0x00000000000000000000000000000000000000000000000000000000000003e8"
          ],
          "data": "0x",
          "blockHash": "0x5508bb17786133fc99a9716f0e5447b21181a6bb7514090b842b133dbb65c651",
          "blockNumber": "0x2b0a1db",
          "transactionHash": "0x6507b3ccdefe2b9ca7ef395fc463c262a2d95c6966454c34f0a6222f55f4415d",
          "transactionIndex": "0x4",
          "logIndex": "0x8",
          "removed": false
        },
        {
          "address": "0x00c1df9bf9c7ff7f3c2a8f9e9af72da95b350d34",
          "topics": [
            "0xddf252ad1be2c89b69c2b068fc378daa952ba7f163c4a11628f55a4df523b3ef",
            "0x0000000000000000000000001b150538e943f00127929f7eeb65754f7beb0b6d",
            "0x0000000000000000000000006b1c656ad724c246049ef586fa35d217a8db13a0"
          ],
          "data": "0x00000000000000000000000000000000000000000000000000000000000003e8",
          "blockHash": "0x5508bb17786133fc99a9716f0e5447b21181a6bb7514090b842b133dbb65c651",
          "blockNumber": "0x2b0a1db",
          "transactionHash": "0x6507b3ccdefe2b9ca7ef395fc463c262a2d95c6966454c34f0a6222f55f4415d",
          "transactionIndex": "0x4",
          "logIndex": "0x9",
          "removed": false
        }
      ],
      "logsBloom": "0x00040000000000000000000020000000000000200000000000000000000000000000000000000000000000000000000000000000000000000000000000000800000000000000000000000008040000000000000000000000000400000000000080000800000102000020000000000000000000000000000000000010000000000000000200000000000000080000000000000000000040000000000000000000000000000000000100000000000000000000000000000000000000000000000000008002010000020000000000000000001000200000000000000000000000100000000000000000000100000000000000000001000080000000000000000000",
      "type": "0x2",
      "transactionHash": "0x6507b3ccdefe2b9ca7ef395fc463c262a2d95c6966454c34f0a6222f55f4415d",
      "transactionIndex": "0x4",
      "blockHash": "0x5508bb17786133fc99a9716f0e5447b21181a6bb7514090b842b133dbb65c651",
      "blockNumber": "0x2b0a1db",
      "gasUsed": "0x2c8f4",
      "effectiveGasPrice": "0x1389",
      "from": "0x1b150538e943f00127929f7eeb65754f7beb0b6d",
      "to": "0x6b1c656ad724c246049ef586fa35d217a8db13a0",
      "contractAddress": null
    },
    {
      "status": "0x1",
      "cumulativeGasUsed": "0x10b5ac",
      "logs": [
        {
          "address": "0x6b1c656ad724c246049ef586fa35d217a8db13a0",
          "topics": [
            "0x01b41cbd4bbcc3c5b968a04d3fbdd8c1648a39ff6d9a3929b4840cea1142bc65",
            "0x22c0be00737753d4238b70c9d81be4d44da2fe068eb2f3b4c675811d338264bc",
            "0x38df1c1f64a24a77b23393bca50dff872e31edc4f3b5aa3b90ad0b82f4f089b6",
            "0x00000000000000000000000000000000000000000000000000000000000003e8"
          ],
          "data": "0x",
          "blockHash": "0x5508bb17786133fc99a9716f0e5447b21181a6bb7514090b842b133dbb65c651",
          "blockNumber": "0x2b0a1db",
          "transactionHash": "0x8022b82bf5c28904d3fce8a28391f58802acfb35c7a5fd47ce75d6b043300541",
          "transactionIndex": "0x5",
          "logIndex": "0xa",
          "removed": false
        },
        {
          "address": "0x00c1df9bf9c7ff7f3c2a8f9e9af72da95b350d34",
          "topics": [
            "0xddf252ad1be2c89b69c2b068fc378daa952ba7f163c4a11628f55a4df523b3ef",
            "0x0000000000000000000000001b150538e943f00127929f7eeb65754f7beb0b6d",
            "0x0000000000000000000000006b1c656ad724c246049ef586fa35d217a8db13a0"
          ],
          "data": "0x00000000000000000000000000000000000000000000000000000000000003e8",
          "blockHash": "0x5508bb17786133fc99a9716f0e5447b21181a6bb7514090b842b133dbb65c651",
          "blockNumber": "0x2b0a1db",
          "transactionHash": "0x8022b82bf5c28904d3fce8a28391f58802acfb35c7a5fd47ce75d6b043300541",
          "transactionIndex": "0x5",
          "logIndex": "0xb",
          "removed": false
        }
      ],
      "logsBloom": "0x00000000000000000000000020000000000000200000000000000000000000000000000000000080000000000000000000000000000000000000000000000400000100000000000000000008040000000000000000000000000400000000000000000800200102000000000000000000000000000000000000000010000000000000000200008000000000080001000000000000000040000000000000000000000000000000000100000000000000000000000000000000000000000000000000008002000000020000000000000000001000200000000000000000000000100000000000000000000100000000000000000000000080000000000000000000",
      "type": "0x2",
      "transactionHash": "0x8022b82bf5c28904d3fce8a28391f58802acfb35c7a5fd47ce75d6b043300541",
      "transactionIndex": "0x5",
      "blockHash": "0x5508bb17786133fc99a9716f0e5447b21181a6bb7514090b842b133dbb65c651",
      "blockNumber": "0x2b0a1db",
      "gasUsed": "0x2c8f4",
      "effectiveGasPrice": "0x1389",
      "from": "0x1b150538e943f00127929f7eeb65754f7beb0b6d",
      "to": "0x6b1c656ad724c246049ef586fa35d217a8db13a0",
      "contractAddress": null
    },
    {
      "status": "0x1",
      "cumulativeGasUsed": "0x137e94",
      "logs": [
        {
          "address": "0x6b1c656ad724c246049ef586fa35d217a8db13a0",
          "topics": [
            "0x01b41cbd4bbcc3c5b968a04d3fbdd8c1648a39ff6d9a3929b4840cea1142bc65",
            "0xcfeebe32c81f7a631c23b13cfc7f10ff5a61d42a5f810dc93eb1fad9a17610ba",
            "0x887bf140ce0b6a497ed8db5c7498a45454f0b2bd644b0313f7a82acc084d0027",
            "0x00000000000000000000000000000000000000000000000000000000000003e8"
          ],
          "data": "0x",
          "blockHash": "0x5508bb17786133fc99a9716f0e5447b21181a6bb7514090b842b133dbb65c651",
          "blockNumber": "0x2b0a1db",
          "transactionHash": "0x5240e282ab57999a3e8cbf2ebfd035ffc8dfb7dae4b4d0ba0c85b5dffa30d7b6",
          "transactionIndex": "0x6",
          "logIndex": "0xc",
          "removed": false
        },
        {
          "address": "0x00c1df9bf9c7ff7f3c2a8f9e9af72da95b350d34",
          "topics": [
            "0xddf252ad1be2c89b69c2b068fc378daa952ba7f163c4a11628f55a4df523b3ef",
            "0x0000000000000000000000001b150538e943f00127929f7eeb65754f7beb0b6d",
            "0x0000000000000000000000006b1c656ad724c246049ef586fa35d217a8db13a0"
          ],
          "data": "0x00000000000000000000000000000000000000000000000000000000000003e8",
          "blockHash": "0x5508bb17786133fc99a9716f0e5447b21181a6bb7514090b842b133dbb65c651",
          "blockNumber": "0x2b0a1db",
          "transactionHash": "0x5240e282ab57999a3e8cbf2ebfd035ffc8dfb7dae4b4d0ba0c85b5dffa30d7b6",
          "transactionIndex": "0x6",
          "logIndex": "0xd",
          "removed": false
        }
      ],
      "logsBloom": "0x00000000000000000000000020000000000000200000000000000000000000000000000000000000000000000000000000000000000000000000000000000000000000000000000001000008040000000000000000000000008400000000000800000800000102000000000000000000000000000000100000000210000000000000000200000000000000080000000000000000000040000000000000000000000000000000000100000000000000000000000000000000000000000000000000008002000000020000000000000000001000200000000000000000000000100000000002000000000100000000000000000000000080000000000000000000",
      "type": "0x2",
      "transactionHash": "0x5240e282ab57999a3e8cbf2ebfd035ffc8dfb7dae4b4d0ba0c85b5dffa30d7b6",
      "transactionIndex": "0x6",
      "blockHash": "0x5508bb17786133fc99a9716f0e5447b21181a6bb7514090b842b133dbb65c651",
      "blockNumber": "0x2b0a1db",
      "gasUsed": "0x2c8e8",
      "effectiveGasPrice": "0x1389",
      "from": "0x1b150538e943f00127929f7eeb65754f7beb0b6d",
      "to": "0x6b1c656ad724c246049ef586fa35d217a8db13a0",
      "contractAddress": null
    }
  ],
  "libraries": [],
  "pending": [],
  "returns": {},
  "timestamp": 1755946531292,
  "chain": 43113,
  "commit": "aa36f6b"
}