{
  "transactions": [
    {
      "hash": "0x9536c763eee20b486aa138687b5c1c3d6952a7b827c2ecaf98f608b47e9ab236",
      "transactionType": "CALL",
      "contractName": null,
      "contractAddress": "0xeffc83ac0da8ec6c91cde640d35efb0d10c2e112",
      "function": "transfer(address,uint256)",
      "arguments": [
        "0x667Ea4A745828D62aAd9ef9d8f974Ad247f27a70",
        "1000"
      ],
      "transaction": {
        "from": "0x1b150538e943f00127929f7eeb65754f7beb0b6d",
        "to": "0xeffc83ac0da8ec6c91cde640d35efb0d10c2e112",
        "gas": "0x129ce",
        "value": "0x0",
        "input": "0xa9059cbb000000000000000000000000667ea4a745828d62aad9ef9d8f974ad247f27a7000000000000000000000000000000000000000000000000000000000000003e8",
        "nonce": "0x3a",
        "chainId": "0xa869"
      },
      "additionalContracts": [],
      "isFixedGasLimit": false
    },
    {
      "hash": "0x96a0b8300951b783291569cbb7436a645ed64200ad9fd27fa7dd8e1a871e6e37",
      "transactionType": "CALL",
      "contractName": null,
      "contractAddress": "0x66f20a5fbf43e4b36ac9e2d9de33e8b8cafd3ab7",
      "function": "createERC20SwapAddress(address,address,address,uint256,uint256,bytes32)",
      "arguments": [
        "0xeffc83AC0Da8EC6C91CDe640d35eFB0D10c2E112",
        "0x000000000000000000000000000000000000007B",
        "0x00000000000000000000000000000000000000e7",
        "100",
        "1000",
        "0x4a9b2b10c976bdff93ab0b237cb03ba9626ee95b8785de92a035bb65ade08bfa"
      ],
      "transaction": {
        "from": "0x1b150538e943f00127929f7eeb65754f7beb0b6d",
        "to": "0x66f20a5fbf43e4b36ac9e2d9de33e8b8cafd3ab7",
        "gas": "0x6c94e",
        "value": "0x0",
        "input": "0xda65e516000000000000000000000000effc83ac0da8ec6c91cde640d35efb0d10c2e112000000000000000000000000000000000000000000000000000000000000007b00000000000000000000000000000000000000000000000000000000000000e7000000000000000000000000000000000000000000000000000000000000006400000000000000000000000000000000000000000000000000000000000003e84a9b2b10c976bdff93ab0b237cb03ba9626ee95b8785de92a035bb65ade08bfa",
        "nonce": "0x3b",
        "chainId": "0xa869"
      },
      "additionalContracts": [
        {
          "transactionType": "CREATE2",
          "contractName": null,
          "address": "0x667ea4a745828d62aad9ef9d8f974ad247f27a70",
          "initCode": "0x61010d3d81600a3d39f3363d3d373d3d3d363d7369c8598202017476c5a423acbc612fc93de6887b5af43d82803e903d91602b57fd5bf30000000000000000000000006b1c656ad724c246049ef586fa35d217a8db13a0000000000000000000000000effc83ac0da8ec6c91cde640d35efb0d10c2e112000000000000000000000000000000000000000000000000000000000000007b00000000000000000000000000000000000000000000000000000000000000e700000000000000000000000000000000000000000000000000000000000000644a9b2b10c976bdff93ab0b237cb03ba9626ee95b8785de92a035bb65ade08bfa00000000000000000000000000000000000000000000000000000000000003e8"
        }
      ],
      "isFixedGasLimit": false
    },
    {
      "hash": "0x980f862e4e680991c9c54740d52f3351e428556b9b730cfdb7a74e0790b49d1e",
      "transactionType": "CALL",
      "contractName": null,
      "contractAddress": "0xeffc83ac0da8ec6c91cde640d35efb0d10c2e112",
      "function": "transfer(address,uint256)",
      "arguments": [
        "0xD238c5aD6F0A863c14a61017F85B0c50529eae3f",
        "1000"
      ],
      "transaction": {
        "from": "0x1b150538e943f00127929f7eeb65754f7beb0b6d",
        "to": "0xeffc83ac0da8ec6c91cde640d35efb0d10c2e112",
        "gas": "0x129ce",
        "value": "0x0",
        "input": "0xa9059cbb000000000000000000000000d238c5ad6f0a863c14a61017f85b0c50529eae3f00000000000000000000000000000000000000000000000000000000000003e8",
        "nonce": "0x3c",
        "chainId": "0xa869"
      },
      "additionalContracts": [],
      "isFixedGasLimit": false
    },
    {
      "hash": "0xf8df40e271f2ef1affc5e07017547de712ae0f157dfdd050ff6b5495d7c2f668",
      "transactionType": "CALL",
      "contractName": null,
      "contractAddress": "0x66f20a5fbf43e4b36ac9e2d9de33e8b8cafd3ab7",
      "function": "createERC20SwapAddress(address,address,address,uint256,uint256,bytes32)",
      "arguments": [
        "0xeffc83AC0Da8EC6C91CDe640d35eFB0D10c2E112",
        "0x000000000000000000000000000000000000007B",
        "0x00000000000000000000000000000000000000e7",
        "100",
        "1000",
        "0x12506fb588df7eaa74dbbf3b9c861a834489953ff1022d00d25863ccce6e0afb"
      ],
      "transaction": {
        "from": "0x1b150538e943f00127929f7eeb65754f7beb0b6d",
        "to": "0x66f20a5fbf43e4b36ac9e2d9de33e8b8cafd3ab7",
        "gas": "0x6c93d",
        "value": "0x0",
        "input": "0xda65e516000000000000000000000000effc83ac0da8ec6c91cde640d35efb0d10c2e112000000000000000000000000000000000000000000000000000000000000007b00000000000000000000000000000000000000000000000000000000000000e7000000000000000000000000000000000000000000000000000000000000006400000000000000000000000000000000000000000000000000000000000003e812506fb588df7eaa74dbbf3b9c861a834489953ff1022d00d25863ccce6e0afb",
        "nonce": "0x3d",
        "chainId": "0xa869"
      },
      "additionalContracts": [
        {
          "transactionType": "CREATE2",
          "contractName": null,
          "address": "0xd238c5ad6f0a863c14a61017f85b0c50529eae3f",
          "initCode": "0x61010d3d81600a3d39f3363d3d373d3d3d363d7369c8598202017476c5a423acbc612fc93de6887b5af43d82803e903d91602b57fd5bf30000000000000000000000006b1c656ad724c246049ef586fa35d217a8db13a0000000000000000000000000effc83ac0da8ec6c91cde640d35efb0d10c2e112000000000000000000000000000000000000000000000000000000000000007b00000000000000000000000000000000000000000000000000000000000000e7000000000000000000000000000000000000000000000000000000000000006412506fb588df7eaa74dbbf3b9c861a834489953ff1022d00d25863ccce6e0afb00000000000000000000000000000000000000000000000000000000000003e8"
        }
      ],
      "isFixedGasLimit": false
    },
    {
      "hash": "0xf704fee4af3e2e76c1414d2e633de40254d4cc7a92ecc3223ec39ac85f8b30d1",
      "transactionType": "CALL",
      "contractName": null,
      "contractAddress": "0xeffc83ac0da8ec6c91cde640d35efb0d10c2e112",
      "function": "transfer(address,uint256)",
      "arguments": [
        "0x202D7D2cbc96B24cd1290a29B530D146Df3B5a2F",
        "1000"
      ],
      "transaction": {
        "from": "0x1b150538e943f00127929f7eeb65754f7beb0b6d",
        "to": "0xeffc83ac0da8ec6c91cde640d35efb0d10c2e112",
        "gas": "0x129ce",
        "value": "0x0",
        "input": "0xa9059cbb000000000000000000000000202d7d2cbc96b24cd1290a29b530d146df3b5a2f00000000000000000000000000000000000000000000000000000000000003e8",
        "nonce": "0x3e",
        "chainId": "0xa869"
      },
      "additionalContracts": [],
      "isFixedGasLimit": false
    },
    {
      "hash": "0xb18f3255dbc8d42ebf8586070d273832ab72977283f099415d90daeb4911a084",
      "transactionType": "CALL",
      "contractName": null,
      "contractAddress": "0x66f20a5fbf43e4b36ac9e2d9de33e8b8cafd3ab7",
      "function": "createERC20SwapAddress(address,address,address,uint256,uint256,bytes32)",
      "arguments": [
        "0xeffc83AC0Da8EC6C91CDe640d35eFB0D10c2E112",
        "0x000000000000000000000000000000000000007B",
        "0x00000000000000000000000000000000000000e7",
        "100",
        "1000",
        "0xd1df26f75315a3c9285668d3079f8fd02322af7b0aa7ac5c8152c55765213ac7"
      ],
      "transaction": {
        "from": "0x1b150538e943f00127929f7eeb65754f7beb0b6d",
        "to": "0x66f20a5fbf43e4b36ac9e2d9de33e8b8cafd3ab7",
        "gas": "0x6c94e",
        "value": "0x0",
        "input": "0xda65e516000000000000000000000000effc83ac0da8ec6c91cde640d35efb0d10c2e112000000000000000000000000000000000000000000000000000000000000007b00000000000000000000000000000000000000000000000000000000000000e7000000000000000000000000000000000000000000000000000000000000006400000000000000000000000000000000000000000000000000000000000003e8d1df26f75315a3c9285668d3079f8fd02322af7b0aa7ac5c8152c55765213ac7",
        "nonce": "0x3f",
        "chainId": "0xa869"
      },
      "additionalContracts": [
        {
          "transactionType": "CREATE2",
          "contractName": null,
          "address": "0x202d7d2cbc96b24cd1290a29b530d146df3b5a2f",
          "initCode": "0x61010d3d81600a3d39f3363d3d373d3d3d363d7369c8598202017476c5a423acbc612fc93de6887b5af43d82803e903d91602b57fd5bf30000000000000000000000006b1c656ad724c246049ef586fa35d217a8db13a0000000000000000000000000effc83ac0da8ec6c91cde640d35efb0d10c2e112000000000000000000000000000000000000000000000000000000000000007b00000000000000000000000000000000000000000000000000000000000000e70000000000000000000000000000000000000000000000000000000000000064d1df26f75315a3c9285668d3079f8fd02322af7b0aa7ac5c8152c55765213ac700000000000000000000000000000000000000000000000000000000000003e8"
        }
      ],
      "isFixedGasLimit": false
    },
    {
      "hash": "0x4378a20e304ef7c99004ebf4ac7c95d73fa56bfcb6032dbb4639b5f6ae7bc940",
      "transactionType": "CALL",
      "contractName": null,
      "contractAddress": "0xeffc83ac0da8ec6c91cde640d35efb0d10c2e112",
      "function": "transfer(address,uint256)",
      "arguments": [
        "0x27b1de2Ec2d921Dd091E62d3C66f3dfFC1E09cD4",
        "1000"
      ],
      "transaction": {
        "from": "0x1b150538e943f00127929f7eeb65754f7beb0b6d",
        "to": "0xeffc83ac0da8ec6c91cde640d35efb0d10c2e112",
        "gas": "0x129ce",
        "value": "0x0",
        "input": "0xa9059cbb00000000000000000000000027b1de2ec2d921dd091e62d3c66f3dffc1e09cd400000000000000000000000000000000000000000000000000000000000003e8",
        "nonce": "0x40",
        "chainId": "0xa869"
      },
      "additionalContracts": [],
      "isFixedGasLimit": false
    },
    {
      "hash": "0x1b9db0f301ab39a24377bafc97b7e7e7b01cbd99311ef62b9f0e80415db16c3a",
      "transactionType": "CALL",
      "contractName": null,
      "contractAddress": "0x66f20a5fbf43e4b36ac9e2d9de33e8b8cafd3ab7",
      "function": "createERC20SwapAddress(address,address,address,uint256,uint256,bytes32)",
      "arguments": [
        "0xeffc83AC0Da8EC6C91CDe640d35eFB0D10c2E112",
        "0x000000000000000000000000000000000000007B",
        "0x00000000000000000000000000000000000000e7",
        "100",
        "1000",
        "0x844883995feec6b372e42239da3f0e8098d288ae25fb178fa9e31e43efa7f394"
      ],
      "transaction": {
        "from": "0x1b150538e943f00127929f7eeb65754f7beb0b6d",
        "to": "0x66f20a5fbf43e4b36ac9e2d9de33e8b8cafd3ab7",
        "gas": "0x6c94e",
        "value": "0x0",
        "input": "0xda65e516000000000000000000000000effc83ac0da8ec6c91cde640d35efb0d10c2e112000000000000000000000000000000000000000000000000000000000000007b00000000000000000000000000000000000000000000000000000000000000e7000000000000000000000000000000000000000000000000000000000000006400000000000000000000000000000000000000000000000000000000000003e8844883995feec6b372e42239da3f0e8098d288ae25fb178fa9e31e43efa7f394",
        "nonce": "0x41",
        "chainId": "0xa869"
      },
      "additionalContracts": [
        {
          "transactionType": "CREATE2",
          "contractName": null,
          "address": "0x27b1de2ec2d921dd091e62d3c66f3dffc1e09cd4",
          "initCode": "0x61010d3d81600a3d39f3363d3d373d3d3d363d7369c8598202017476c5a423acbc612fc93de6887b5af43d82803e903d91602b57fd5bf30000000000000000000000006b1c656ad724c246049ef586fa35d217a8db13a0000000000000000000000000effc83ac0da8ec6c91cde640d35efb0d10c2e112000000000000000000000000000000000000000000000000000000000000007b00000000000000000000000000000000000000000000000000000000000000e70000000000000000000000000000000000000000000000000000000000000064844883995feec6b372e42239da3f0e8098d288ae25fb178fa9e31e43efa7f39400000000000000000000000000000000000000000000000000000000000003e8"
        }
      ],
      "isFixedGasLimit": false
    },
    {
      "hash": "0xf0c2bb5f60bbf354481e80d9d82cac94011414ad3627267a0b802c581ebec334",
      "transactionType": "CALL",
      "contractName": null,
      "contractAddress": "0xeffc83ac0da8ec6c91cde640d35efb0d10c2e112",
      "function": "transfer(address,uint256)",
      "arguments": [
        "0x0EF60A43ad9DB8f3A8a7191956085842BB972097",
        "1000"
      ],
      "transaction": {
        "from": "0x1b150538e943f00127929f7eeb65754f7beb0b6d",
        "to": "0xeffc83ac0da8ec6c91cde640d35efb0d10c2e112",
        "gas": "0x129ce",
        "value": "0x0",
        "input": "0xa9059cbb0000000000000000000000000ef60a43ad9db8f3a8a7191956085842bb97209700000000000000000000000000000000000000000000000000000000000003e8",
        "nonce": "0x42",
        "chainId": "0xa869"
      },
      "additionalContracts": [],
      "isFixedGasLimit": false
    },
    {
      "hash": "0x3977c0aac851795580b825c0d0a80bb77d8a63471679e1960a548d7ef8c4b3a8",
      "transactionType": "CALL",
      "contractName": null,
      "contractAddress": "0x66f20a5fbf43e4b36ac9e2d9de33e8b8cafd3ab7",
      "function": "createERC20SwapAddress(address,address,address,uint256,uint256,bytes32)",
      "arguments": [
        "0xeffc83AC0Da8EC6C91CDe640d35eFB0D10c2E112",
        "0x000000000000000000000000000000000000007B",
        "0x00000000000000000000000000000000000000e7",
        "100",
        "1000",
        "0x2d72cc8dd01d18c767fe1efc060496ca2f64fa9224f5b2cf67b7157e86e459e0"
      ],
      "transaction": {
        "from": "0x1b150538e943f00127929f7eeb65754f7beb0b6d",
        "to": "0x66f20a5fbf43e4b36ac9e2d9de33e8b8cafd3ab7",
        "gas": "0x6c94e",
        "value": "0x0",
        "input": "0xda65e516000000000000000000000000effc83ac0da8ec6c91cde640d35efb0d10c2e112000000000000000000000000000000000000000000000000000000000000007b00000000000000000000000000000000000000000000000000000000000000e7000000000000000000000000000000000000000000000000000000000000006400000000000000000000000000000000000000000000000000000000000003e82d72cc8dd01d18c767fe1efc060496ca2f64fa9224f5b2cf67b7157e86e459e0",
        "nonce": "0x43",
        "chainId": "0xa869"
      },
      "additionalContracts": [
        {
          "transactionType": "CREATE2",
          "contractName": null,
          "address": "0x0ef60a43ad9db8f3a8a7191956085842bb972097",
          "initCode": "0x61010d3d81600a3d39f3363d3d373d3d3d363d7369c8598202017476c5a423acbc612fc93de6887b5af43d82803e903d91602b57fd5bf30000000000000000000000006b1c656ad724c246049ef586fa35d217a8db13a0000000000000000000000000effc83ac0da8ec6c91cde640d35efb0d10c2e112000000000000000000000000000000000000000000000000000000000000007b00000000000000000000000000000000000000000000000000000000000000e700000000000000000000000000000000000000000000000000000000000000642d72cc8dd01d18c767fe1efc060496ca2f64fa9224f5b2cf67b7157e86e459e000000000000000000000000000000000000000000000000000000000000003e8"
        }
      ],
      "isFixedGasLimit": false
    },
    {
      "hash": "0xef9e407d2f372c7fe41bebed70dcd2c7dad0c74b42699abe595041285c7b3f61",
      "transactionType": "CALL",
      "contractName": null,
      "contractAddress": "0xeffc83ac0da8ec6c91cde640d35efb0d10c2e112",
      "function": "transfer(address,uint256)",
      "arguments": [
        "0xcb5454C952e58D8A71fee03E1312823A2C2C9B37",
        "1000"
      ],
      "transaction": {
        "from": "0x1b150538e943f00127929f7eeb65754f7beb0b6d",
        "to": "0xeffc83ac0da8ec6c91cde640d35efb0d10c2e112",
        "gas": "0x129ce",
        "value": "0x0",
        "input": "0xa9059cbb000000000000000000000000cb5454c952e58d8a71fee03e1312823a2c2c9b3700000000000000000000000000000000000000000000000000000000000003e8",
        "nonce": "0x44",
        "chainId": "0xa869"
      },
      "additionalContracts": [],
      "isFixedGasLimit": false
    },
    {
      "hash": "0x340abe217ab510762100a9a6ea9ba009dc7a328f5a0723b482f09363fcab4988",
      "transactionType": "CALL",
      "contractName": null,
      "contractAddress": "0x66f20a5fbf43e4b36ac9e2d9de33e8b8cafd3ab7",
      "function": "createERC20SwapAddress(address,address,address,uint256,uint256,bytes32)",
      "arguments": [
        "0xeffc83AC0Da8EC6C91CDe640d35eFB0D10c2E112",
        "0x000000000000000000000000000000000000007B",
        "0x00000000000000000000000000000000000000e7",
        "100",
        "1000",
        "0xd381e355e8ba3c30d8e33de124277f0fbe492b307625d222d9f6d0b99a02b7e8"
      ],
      "transaction": {
        "from": "0x1b150538e943f00127929f7eeb65754f7beb0b6d",
        "to": "0x66f20a5fbf43e4b36ac9e2d9de33e8b8cafd3ab7",
        "gas": "0x6c94e",
        "value": "0x0",
        "input": "0xda65e516000000000000000000000000effc83ac0da8ec6c91cde640d35efb0d10c2e112000000000000000000000000000000000000000000000000000000000000007b00000000000000000000000000000000000000000000000000000000000000e7000000000000000000000000000000000000000000000000000000000000006400000000000000000000000000000000000000000000000000000000000003e8d381e355e8ba3c30d8e33de124277f0fbe492b307625d222d9f6d0b99a02b7e8",
        "nonce": "0x45",
        "chainId": "0xa869"
      },
      "additionalContracts": [
        {
          "transactionType": "CREATE2",
          "contractName": null,
          "address": "0xcb5454c952e58d8a71fee03e1312823a2c2c9b37",
          "initCode": "0x61010d3d81600a3d39f3363d3d373d3d3d363d7369c8598202017476c5a423acbc612fc93de6887b5af43d82803e903d91602b57fd5bf30000000000000000000000006b1c656ad724c246049ef586fa35d217a8db13a0000000000000000000000000effc83ac0da8ec6c91cde640d35efb0d10c2e112000000000000000000000000000000000000000000000000000000000000007b00000000000000000000000000000000000000000000000000000000000000e70000000000000000000000000000000000000000000000000000000000000064d381e355e8ba3c30d8e33de124277f0fbe492b307625d222d9f6d0b99a02b7e800000000000000000000000000000000000000000000000000000000000003e8"
        }
      ],
      "isFixedGasLimit": false
    },
    {
      "hash": "0x26003f2d9c5c473b63213dc74bbdd2b36ddf3ae11e044eb2e4613d2f65a9fd3e",
      "transactionType": "CALL",
      "contractName": null,
      "contractAddress": "0xeffc83ac0da8ec6c91cde640d35efb0d10c2e112",
      "function": "transfer(address,uint256)",
      "arguments": [
        "0x1DE1eCc38FabA2D11126A053247Fc1f7BAF51254",
        "1000"
      ],
      "transaction": {
        "from": "0x1b150538e943f00127929f7eeb65754f7beb0b6d",
        "to": "0xeffc83ac0da8ec6c91cde640d35efb0d10c2e112",
        "gas": "0x129ce",
        "value": "0x0",
        "input": "0xa9059cbb0000000000000000000000001de1ecc38faba2d11126a053247fc1f7baf5125400000000000000000000000000000000000000000000000000000000000003e8",
        "nonce": "0x46",
        "chainId": "0xa869"
      },
      "additionalContracts": [],
      "isFixedGasLimit": false
    },
    {
      "hash": "0x940869b308124fd67463900556ee7dec889ee8dc0c2d9c5b3753e3d8e41b5a15",
      "transactionType": "CALL",
      "contractName": null,
      "contractAddress": "0x66f20a5fbf43e4b36ac9e2d9de33e8b8cafd3ab7",
      "function": "createERC20SwapAddress(address,address,address,uint256,uint256,bytes32)",
      "arguments": [
        "0xeffc83AC0Da8EC6C91CDe640d35eFB0D10c2E112",
        "0x000000000000000000000000000000000000007B",
        "0x00000000000000000000000000000000000000e7",
        "100",
        "1000",
        "0xf34ee78f86a4d8b28ce6b43a9ca0021151002be1a23491301847ba166750d24c"
      ],
      "transaction": {
        "from": "0x1b150538e943f00127929f7eeb65754f7beb0b6d",
        "to": "0x66f20a5fbf43e4b36ac9e2d9de33e8b8cafd3ab7",
        "gas": "0x6c93d",
        "value": "0x0",
        "input": "0xda65e516000000000000000000000000effc83ac0da8ec6c91cde640d35efb0d10c2e112000000000000000000000000000000000000000000000000000000000000007b00000000000000000000000000000000000000000000000000000000000000e7000000000000000000000000000000000000000000000000000000000000006400000000000000000000000000000000000000000000000000000000000003e8f34ee78f86a4d8b28ce6b43a9ca0021151002be1a23491301847ba166750d24c",
        "nonce": "0x47",
        "chainId": "0xa869"
      },
      "additionalContracts": [
        {
          "transactionType": "CREATE2",
          "contractName": null,
          "address": "0x1de1ecc38faba2d11126a053247fc1f7baf51254",
          "initCode": "0x61010d3d81600a3d39f3363d3d373d3d3d363d7369c8598202017476c5a423acbc612fc93de6887b5af43d82803e903d91602b57fd5bf30000000000000000000000006b1c656ad724c246049ef586fa35d217a8db13a0000000000000000000000000effc83ac0da8ec6c91cde640d35efb0d10c2e112000000000000000000000000000000000000000000000000000000000000007b00000000000000000000000000000000000000000000000000000000000000e70000000000000000000000000000000000000000000000000000000000000064f34ee78f86a4d8b28ce6b43a9ca0021151002be1a23491301847ba166750d24c00000000000000000000000000000000000000000000000000000000000003e8"
        }
      ],
      "isFixedGasLimit": false
    },
    {
      "hash": "0x58c153c8bbea054e80002fa737d367467ef9505c3cfd8336a49005ae0b613d99",
      "transactionType": "CALL",
      "contractName": null,
      "contractAddress": "0xeffc83ac0da8ec6c91cde640d35efb0d10c2e112",
      "function": "transfer(address,uint256)",
      "arguments": [
        "0x6CD65257046d4bA07fca5738fE93e18d0fF6DaeF",
        "1000"
      ],
      "transaction": {
        "from": "0x1b150538e943f00127929f7eeb65754f7beb0b6d",
        "to": "0xeffc83ac0da8ec6c91cde640d35efb0d10c2e112",
        "gas": "0x129ce",
        "value": "0x0",
        "input": "0xa9059cbb0000000000000000000000006cd65257046d4ba07fca5738fe93e18d0ff6daef00000000000000000000000000000000000000000000000000000000000003e8",
        "nonce": "0x48",
        "chainId": "0xa869"
      },
      "additionalContracts": [],
      "isFixedGasLimit": false
    },
    {
      "hash": "0x600d599ce94e15fd4a7b584b0c99d487539c9068e7373a4a502125306bfcd8a2",
      "transactionType": "CALL",
      "contractName": null,
      "contractAddress": "0x66f20a5fbf43e4b36ac9e2d9de33e8b8cafd3ab7",
      "function": "createERC20SwapAddress(address,address,address,uint256,uint256,bytes32)",
      "arguments": [
        "0xeffc83AC0Da8EC6C91CDe640d35eFB0D10c2E112",
        "0x000000000000000000000000000000000000007B",
        "0x00000000000000000000000000000000000000e7",
        "100",
        "1000",
        "0xa956b8bfc8736ef35456d5c5d9df46af2802e155d75c0b38fd153b9bd15b5484"
      ],
      "transaction": {
        "from": "0x1b150538e943f00127929f7eeb65754f7beb0b6d",
        "to": "0x66f20a5fbf43e4b36ac9e2d9de33e8b8cafd3ab7",
        "gas": "0x6c94e",
        "value": "0x0",
        "input": "0xda65e516000000000000000000000000effc83ac0da8ec6c91cde640d35efb0d10c2e112000000000000000000000000000000000000000000000000000000000000007b00000000000000000000000000000000000000000000000000000000000000e7000000000000000000000000000000000000000000000000000000000000006400000000000000000000000000000000000000000000000000000000000003e8a956b8bfc8736ef35456d5c5d9df46af2802e155d75c0b38fd153b9bd15b5484",
        "nonce": "0x49",
        "chainId": "0xa869"
      },
      "additionalContracts": [
        {
          "transactionType": "CREATE2",
          "contractName": null,
          "address": "0x6cd65257046d4ba07fca5738fe93e18d0ff6daef",
          "initCode": "0x61010d3d81600a3d39f3363d3d373d3d3d363d7369c8598202017476c5a423acbc612fc93de6887b5af43d82803e903d91602b57fd5bf30000000000000000000000006b1c656ad724c246049ef586fa35d217a8db13a0000000000000000000000000effc83ac0da8ec6c91cde640d35efb0d10c2e112000000000000000000000000000000000000000000000000000000000000007b00000000000000000000000000000000000000000000000000000000000000e70000000000000000000000000000000000000000000000000000000000000064a956b8bfc8736ef35456d5c5d9df46af2802e155d75c0b38fd153b9bd15b548400000000000000000000000000000000000000000000000000000000000003e8"
        }
      ],
      "isFixedGasLimit": false
    },
    {
      "hash": "0x59b9243afb46e08878bd860ed5c6e9a2e1df861af4bb8edf420117bdce98e26e",
      "transactionType": "CALL",
      "contractName": null,
      "contractAddress": "0xeffc83ac0da8ec6c91cde640d35efb0d10c2e112",
      "function": "transfer(address,uint256)",
      "arguments": [
        "0x0c85e9B74B16307a25892D6ABE81fc54dd090FbE",
        "1000"
      ],
      "transaction": {
        "from": "0x1b150538e943f00127929f7eeb65754f7beb0b6d",
        "to": "0xeffc83ac0da8ec6c91cde640d35efb0d10c2e112",
        "gas": "0x129ce",
        "value": "0x0",
        "input": "0xa9059cbb0000000000000000000000000c85e9b74b16307a25892d6abe81fc54dd090fbe00000000000000000000000000000000000000000000000000000000000003e8",
        "nonce": "0x4a",
        "chainId": "0xa869"
      },
      "additionalContracts": [],
      "isFixedGasLimit": false
    },
    {
      "hash": "0xc425609233b8c8c35bd946dcdb8cc15f6b5020954f9b5d068ab4d9689bb7a5da",
      "transactionType": "CALL",
      "contractName": null,
      "contractAddress": "0x66f20a5fbf43e4b36ac9e2d9de33e8b8cafd3ab7",
      "function": "createERC20SwapAddress(address,address,address,uint256,uint256,bytes32)",
      "arguments": [
        "0xeffc83AC0Da8EC6C91CDe640d35eFB0D10c2E112",
        "0x000000000000000000000000000000000000007B",
        "0x00000000000000000000000000000000000000e7",
        "100",
        "1000",
        "0x9cffc28aaa59582b0166a70a1631f7feee39373d49fe7fc9859b250949fbf10a"
      ],
      "transaction": {
        "from": "0x1b150538e943f00127929f7eeb65754f7beb0b6d",
        "to": "0x66f20a5fbf43e4b36ac9e2d9de33e8b8cafd3ab7",
        "gas": "0x6c94e",
        "value": "0x0",
        "input": "0xda65e516000000000000000000000000effc83ac0da8ec6c91cde640d35efb0d10c2e112000000000000000000000000000000000000000000000000000000000000007b00000000000000000000000000000000000000000000000000000000000000e7000000000000000000000000000000000000000000000000000000000000006400000000000000000000000000000000000000000000000000000000000003e89cffc28aaa59582b0166a70a1631f7feee39373d49fe7fc9859b250949fbf10a",
        "nonce": "0x4b",
        "chainId": "0xa869"
      },
      "additionalContracts": [
        {
          "transactionType": "CREATE2",
          "contractName": null,
          "address": "0x0c85e9b74b16307a25892d6abe81fc54dd090fbe",
          "initCode": "0x61010d3d81600a3d39f3363d3d373d3d3d363d7369c8598202017476c5a423acbc612fc93de6887b5af43d82803e903d91602b57fd5bf30000000000000000000000006b1c656ad724c246049ef586fa35d217a8db13a0000000000000000000000000effc83ac0da8ec6c91cde640d35efb0d10c2e112000000000000000000000000000000000000000000000000000000000000007b00000000000000000000000000000000000000000000000000000000000000e700000000000000000000000000000000000000000000000000000000000000649cffc28aaa59582b0166a70a1631f7feee39373d49fe7fc9859b250949fbf10a00000000000000000000000000000000000000000000000000000000000003e8"
        }
      ],
      "isFixedGasLimit": false
    },
    {
      "hash": "0x151b847ff5868dc836694d837dcb7f2b36f992ad1d7a23358dbd53d290c88871",
      "transactionType": "CALL",
      "contractName": null,
      "contractAddress": "0xeffc83ac0da8ec6c91cde640d35efb0d10c2e112",
      "function": "transfer(address,uint256)",
      "arguments": [
        "0x1B25CE55Db4F7Db741f2bfFCEe3b49EA2B526dE4",
        "1000"
      ],
      "transaction": {
        "from": "0x1b150538e943f00127929f7eeb65754f7beb0b6d",
        "to": "0xeffc83ac0da8ec6c91cde640d35efb0d10c2e112",
        "gas": "0x129ce",
        "value": "0x0",
        "input": "0xa9059cbb0000000000000000000000001b25ce55db4f7db741f2bffcee3b49ea2b526de400000000000000000000000000000000000000000000000000000000000003e8",
        "nonce": "0x4c",
        "chainId": "0xa869"
      },
      "additionalContracts": [],
      "isFixedGasLimit": false
    },
    {
      "hash": "0xb27d544e678f79d9eaa96696e0863c38ad74e333bc946f3a39bce5d04e05cd99",
      "transactionType": "CALL",
      "contractName": null,
      "contractAddress": "0x66f20a5fbf43e4b36ac9e2d9de33e8b8cafd3ab7",
      "function": "createERC20SwapAddress(address,address,address,uint256,uint256,bytes32)",
      "arguments": [
        "0xeffc83AC0Da8EC6C91CDe640d35eFB0D10c2E112",
        "0x000000000000000000000000000000000000007B",
        "0x00000000000000000000000000000000000000e7",
        "100",
        "1000",
        "0x19296e95a65a8da76a0410263668bda39c482ca2da444c3c42076b701616619e"
      ],
      "transaction": {
        "from": "0x1b150538e943f00127929f7eeb65754f7beb0b6d",
        "to": "0x66f20a5fbf43e4b36ac9e2d9de33e8b8cafd3ab7",
        "gas": "0x6c94e",
        "value": "0x0",
        "input": "0xda65e516000000000000000000000000effc83ac0da8ec6c91cde640d35efb0d10c2e112000000000000000000000000000000000000000000000000000000000000007b00000000000000000000000000000000000000000000000000000000000000e7000000000000000000000000000000000000000000000000000000000000006400000000000000000000000000000000000000000000000000000000000003e819296e95a65a8da76a0410263668bda39c482ca2da444c3c42076b701616619e",
        "nonce": "0x4d",
        "chainId": "0xa869"
      },
      "additionalContracts": [
        {
          "transactionType": "CREATE2",
          "contractName": null,
          "address": "0x1b25ce55db4f7db741f2bffcee3b49ea2b526de4",
          "initCode": "0x61010d3d81600a3d39f3363d3d373d3d3d363d7369c8598202017476c5a423acbc612fc93de6887b5af43d82803e903d91602b57fd5bf30000000000000000000000006b1c656ad724c246049ef586fa35d217a8db13a0000000000000000000000000effc83ac0da8ec6c91cde640d35efb0d10c2e112000000000000000000000000000000000000000000000000000000000000007b00000000000000000000000000000000000000000000000000000000000000e7000000000000000000000000000000000000000000000000000000000000006419296e95a65a8da76a0410263668bda39c482ca2da444c3c42076b701616619e00000000000000000000000000000000000000000000000000000000000003e8"
        }
      ],
      "isFixedGasLimit": false
    }
  ],
  "receipts": [
    {
      "status": "0x1",
      "cumulativeGasUsed": "0xcba1",
      "logs": [
        {
          "address": "0xeffc83ac0da8ec6c91cde640d35efb0d10c2e112",
          "topics": [
            "0xddf252ad1be2c89b69c2b068fc378daa952ba7f163c4a11628f55a4df523b3ef",
            "0x0000000000000000000000001b150538e943f00127929f7eeb65754f7beb0b6d",
            "0x000000000000000000000000667ea4a745828d62aad9ef9d8f974ad247f27a70"
          ],
          "data": "0x00000000000000000000000000000000000000000000000000000000000003e8",
          "blockHash": "0x05d733c4818fb5ba39cb84dfc6d1fc89be6b77f26fbb26e859b934d97db29a71",
          "blockNumber": "0x2b0a516",
          "transactionHash": "0x9536c763eee20b486aa138687b5c1c3d6952a7b827c2ecaf98f608b47e9ab236",
          "transactionIndex": "0x0",
          "logIndex": "0x0",
          "removed": false
        }
      ],
      "logsBloom": "0x00000000000000000000000000000000000000000000000000000000000000000000000000000000000000000000000000000000000000000000000000000000000000020000000000000008040000000000000000000000000000000000000000000000000000000000000000000000000000000000000000000010000000000000000000000000000000080000000000000000000000000000000000000800000000000000000000000000000000008000000000000000000000000000000000008002000000000000000000000000000000000000000010000000000004000000000000000000000000000000000000000000000000000000000100000000",
      "type": "0x2",
      "transactionHash": "0x9536c763eee20b486aa138687b5c1c3d6952a7b827c2ecaf98f608b47e9ab236",
      "transactionIndex": "0x0",
      "blockHash": "0x05d733c4818fb5ba39cb84dfc6d1fc89be6b77f26fbb26e859b934d97db29a71",
      "blockNumber": "0x2b0a516",
      "gasUsed": "0xcba1",
      "effectiveGasPrice": "0x1389",
      "from": "0x1b150538e943f00127929f7eeb65754f7beb0b6d",
      "to": "0xeffc83ac0da8ec6c91cde640d35efb0d10c2e112",
      "contractAddress": null
    },
    {
      "status": "0x1",
      "cumulativeGasUsed": "0x615e5",
      "logs": [
        {
          "address": "0x66f20a5fbf43e4b36ac9e2d9de33e8b8cafd3ab7",
          "topics": [
            "0x6a097a8db83fd9aee480dc6251f3cbbfc31c2b0adb9f70410b411de98e92515d",
            "0x000000000000000000000000667ea4a745828d62aad9ef9d8f974ad247f27a70",
            "0x000000000000000000000000000000000000000000000000000000000000007b",
            "0x000000000000000000000000effc83ac0da8ec6c91cde640d35efb0d10c2e112"
          ],
          "data": "0x",
          "blockHash": "0x05d733c4818fb5ba39cb84dfc6d1fc89be6b77f26fbb26e859b934d97db29a71",
          "blockNumber": "0x2b0a516",
          "transactionHash": "0x96a0b8300951b783291569cbb7436a645ed64200ad9fd27fa7dd8e1a871e6e37",
          "transactionIndex": "0x1",
          "logIndex": "0x1",
          "removed": false
        },
        {
          "address": "0xeffc83ac0da8ec6c91cde640d35efb0d10c2e112",
          "topics": [
            "0x8c5be1e5ebec7d5bd14f71427d1e84f3dd0314c0f7b2291e5b200ac8c7c3b925",
            "0x000000000000000000000000667ea4a745828d62aad9ef9d8f974ad247f27a70",
            "0x0000000000000000000000006b1c656ad724c246049ef586fa35d217a8db13a0"
          ],
          "data": "0x00000000000000000000000000000000000000000000000000000000000003e8",
          "blockHash": "0x05d733c4818fb5ba39cb84dfc6d1fc89be6b77f26fbb26e859b934d97db29a71",
          "blockNumber": "0x2b0a516",
          "transactionHash": "0x96a0b8300951b783291569cbb7436a645ed64200ad9fd27fa7dd8e1a871e6e37",
          "transactionIndex": "0x1",
          "logIndex": "0x2",
          "removed": false
        },
        {
          "address": "0x6b1c656ad724c246049ef586fa35d217a8db13a0",
          "topics": [
            "0x01b41cbd4bbcc3c5b968a04d3fbdd8c1648a39ff6d9a3929b4840cea1142bc65",
            "0x928b33aac91a329de38edc612cb4c4dfaf268e2175736ff6660c67ef84065ee5",
            "0x4a9b2b10c976bdff93ab0b237cb03ba9626ee95b8785de92a035bb65ade08bfa",
            "0x00000000000000000000000000000000000000000000000000000000000003e8"
          ],
          "data": "0x",
          "blockHash": "0x05d733c4818fb5ba39cb84dfc6d1fc89be6b77f26fbb26e859b934d97db29a71",
          "blockNumber": "0x2b0a516",
          "transactionHash": "0x96a0b8300951b783291569cbb7436a645ed64200ad9fd27fa7dd8e1a871e6e37",
          "transactionIndex": "0x1",
          "logIndex": "0x3",
          "removed": false
        },
        {
          "address": "0xeffc83ac0da8ec6c91cde640d35efb0d10c2e112",
          "topics": [
            "0xddf252ad1be2c89b69c2b068fc378daa952ba7f163c4a11628f55a4df523b3ef",
            "0x000000000000000000000000667ea4a745828d62aad9ef9d8f974ad247f27a70",
            "0x0000000000000000000000006b1c656ad724c246049ef586fa35d217a8db13a0"
          ],
          "data": "0x00000000000000000000000000000000000000000000000000000000000003e8",
          "blockHash": "0x05d733c4818fb5ba39cb84dfc6d1fc89be6b77f26fbb26e859b934d97db29a71",
          "blockNumber": "0x2b0a516",
          "transactionHash": "0x96a0b8300951b783291569cbb7436a645ed64200ad9fd27fa7dd8e1a871e6e37",
          "transactionIndex": "0x1",
          "logIndex": "0x4",
          "removed": false
        },
        {
          "address": "0x667ea4a745828d62aad9ef9d8f974ad247f27a70",
          "topics": [
            "0xc7f505b2f371ae2175ee4913f4499e1f2633a7b5936321eed1cdaeb6115181d2"
          ],
          "data": "0x0000000000000000000000000000000000000000000000000000000000000001",
          "blockHash": "0x05d733c4818fb5ba39cb84dfc6d1fc89be6b77f26fbb26e859b934d97db29a71",
          "blockNumber": "0x2b0a516",
          "transactionHash": "0x96a0b8300951b783291569cbb7436a645ed64200ad9fd27fa7dd8e1a871e6e37",
          "transactionIndex": "0x1",
          "logIndex": "0x5",
          "removed": false
        }
      ],
      "logsBloom": "0x000000000002000000000000200000000000000000000000000000000000000000000004000800000000000000000000000000000000000000000002002000000000000200000000004000080000000000000200000000000004000000080000000008000101000000000000000000000000000000000080000000100000000000000002000000000008000020000000000000000000c0000000000200040800020000040000000000000000001000008000000100000002000000000000000000002002000000020000040200000000003000200004000010000000000004100010000000000000000100000000000000000002000080000000000100000000",
      "type": "0x2",
      "transactionHash": "0x96a0b8300951b783291569cbb7436a645ed64200ad9fd27fa7dd8e1a871e6e37",
      "transactionIndex": "0x1",
      "blockHash": "0x05d733c4818fb5ba39cb84dfc6d1fc89be6b77f26fbb26e859b934d97db29a71",
      "blockNumber": "0x2b0a516",
      "gasUsed": "0x54a44",
      "effectiveGasPrice": "0x1389",
      "from": "0x1b150538e943f00127929f7eeb65754f7beb0b6d",
      "to": "0x66f20a5fbf43e4b36ac9e2d9de33e8b8cafd3ab7",
      "contractAddress": null
    },
    {
      "status": "0x1",
      "cumulativeGasUsed": "0x6e186",
      "logs": [
        {
          "address": "0xeffc83ac0da8ec6c91cde640d35efb0d10c2e112",
          "topics": [
            "0xddf252ad1be2c89b69c2b068fc378daa952ba7f163c4a11628f55a4df523b3ef",
            "0x0000000000000000000000001b150538e943f00127929f7eeb65754f7beb0b6d",
            "0x000000000000000000000000d238c5ad6f0a863c14a61017f85b0c50529eae3f"
          ],
          "data": "0x00000000000000000000000000000000000000000000000000000000000003e8",
          "blockHash": "0x05d733c4818fb5ba39cb84dfc6d1fc89be6b77f26fbb26e859b934d97db29a71",
          "blockNumber": "0x2b0a516",
          "transactionHash": "0x980f862e4e680991c9c54740d52f3351e428556b9b730cfdb7a74e0790b49d1e",
          "transactionIndex": "0x2",
          "logIndex": "0x6",
          "removed": false
        }
      ],
      "logsBloom": "0x00000000000000000000000000000000000000000000000000000000000000000000000000000000000000000000000000000000000000000000000000000000000000000000000000000008040000000000000000000000000000000000000000000000200000000000000000000000000000000000000000000010000000000000000000000000000000080000000000000000000000000000000000000800000000000000004000000000000000008000000000000000000000000000000000408002000000000000000000000000000000000000000000000000000004000000000000000000000000000000000000000000000000000000000000000000",
      "type": "0x2",
      "transactionHash": "0x980f862e4e680991c9c54740d52f3351e428556b9b730cfdb7a74e0790b49d1e",
      "transactionIndex": "0x2",
      "blockHash": "0x05d733c4818fb5ba39cb84dfc6d1fc89be6b77f26fbb26e859b934d97db29a71",
      "blockNumber": "0x2b0a516",
      "gasUsed": "0xcba1",
      "effectiveGasPrice": "0x1389",
      "from": "0x1b150538e943f00127929f7eeb65754f7beb0b6d",
      "to": "0xeffc83ac0da8ec6c91cde640d35efb0d10c2e112",
      "contractAddress": null
    },
    {
      "status": "0x1",
      "cumulativeGasUsed": "0xc2bbe",
      "logs": [
        {
          "address": "0x66f20a5fbf43e4b36ac9e2d9de33e8b8cafd3ab7",
          "topics": [
            "0x6a097a8db83fd9aee480dc6251f3cbbfc31c2b0adb9f70410b411de98e92515d",
            "0x000000000000000000000000d238c5ad6f0a863c14a61017f85b0c50529eae3f",
            "0x000000000000000000000000000000000000000000000000000000000000007b",
            "0x000000000000000000000000effc83ac0da8ec6c91cde640d35efb0d10c2e112"
          ],
          "data": "0x",
          "blockHash": "0x05d733c4818fb5ba39cb84dfc6d1fc89be6b77f26fbb26e859b934d97db29a71",
          "blockNumber": "0x2b0a516",
          "transactionHash": "0xf8df40e271f2ef1affc5e07017547de712ae0f157dfdd050ff6b5495d7c2f668",
          "transactionIndex": "0x3",
          "logIndex": "0x7",
          "removed": false
        },
        {
          "address": "0xeffc83ac0da8ec6c91cde640d35efb0d10c2e112",
          "topics": [
            "0x8c5be1e5ebec7d5bd14f71427d1e84f3dd0314c0f7b2291e5b200ac8c7c3b925",
            "0x000000000000000000000000d238c5ad6f0a863c14a61017f85b0c50529eae3f",
            "0x0000000000000000000000006b1c656ad724c246049ef586fa35d217a8db13a0"
          ],
          "data": "0x00000000000000000000000000000000000000000000000000000000000003e8",
          "blockHash": "0x05d733c4818fb5ba39cb84dfc6d1fc89be6b77f26fbb26e859b934d97db29a71",
          "blockNumber": "0x2b0a516",
          "transactionHash": "0xf8df40e271f2ef1affc5e07017547de712ae0f157dfdd050ff6b5495d7c2f668",
          "transactionIndex": "0x3",
          "logIndex": "0x8",
          "removed": false
        },
        {
          "address": "0x6b1c656ad724c246049ef586fa35d217a8db13a0",
          "topics": [
            "0x01b41cbd4bbcc3c5b968a04d3fbdd8c1648a39ff6d9a3929b4840cea1142bc65",
            "0x8b54b83a07633d93a4cde8fbf18e797c97bf47bae75a2970787340a2de59ce24",
            "0x12506fb588df7eaa74dbbf3b9c861a834489953ff1022d00d25863ccce6e0afb",
            "0x00000000000000000000000000000000000000000000000000000000000003e8"
          ],
          "data": "0x",
          "blockHash": "0x05d733c4818fb5ba39cb84dfc6d1fc89be6b77f26fbb26e859b934d97db29a71",
          "blockNumber": "0x2b0a516",
          "transactionHash": "0xf8df40e271f2ef1affc5e07017547de712ae0f157dfdd050ff6b5495d7c2f668",
          "transactionIndex": "0x3",
          "logIndex": "0x9",
          "removed": false
        },
        {
          "address": "0xeffc83ac0da8ec6c91cde640d35efb0d10c2e112",
          "topics": [
            "0xddf252ad1be2c89b69c2b068fc378daa952ba7f163c4a11628f55a4df523b3ef",
            "0x000000000000000000000000d238c5ad6f0a863c14a61017f85b0c50529eae3f",
            "0x0000000000000000000000006b1c656ad724c246049ef586fa35d217a8db13a0"
          ],
          "data": "0x00000000000000000000000000000000000000000000000000000000000003e8",
          "blockHash": "0x05d733c4818fb5ba39cb84dfc6d1fc89be6b77f26fbb26e859b934d97db29a71",
          "blockNumber": "0x2b0a516",
          "transactionHash": "0xf8df40e271f2ef1affc5e07017547de712ae0f157dfdd050ff6b5495d7c2f668",
          "transactionIndex": "0x3",
          "logIndex": "0xa",
          "removed": false
        },
        {
          "address": "0xd238c5ad6f0a863c14a61017f85b0c50529eae3f",
          "topics": [
            "0xc7f505b2f371ae2175ee4913f4499e1f2633a7b5936321eed1cdaeb6115181d2"
          ],
          "data": "0x0000000000000000000000000000000000000000000000000000000000000001",
          "blockHash": "0x05d733c4818fb5ba39cb84dfc6d1fc89be6b77f26fbb26e859b934d97db29a71",
          "blockNumber": "0x2b0a516",
          "transactionHash": "0xf8df40e271f2ef1affc5e07017547de712ae0f157dfdd050ff6b5495d7c2f668",
          "transactionIndex": "0x3",
          "logIndex": "0xb",
          "removed": false
        }
      ],
      "logsBloom": "0x000000000000000001000000200004000000000000000000000000000000000000000004000800000000000000000000000000000000000000000000002000000000000000000000004000080008000000000200000000000004000000080000000008002001000000000000000000000000000000000080020000100000010000001002000008000008000020000000000000000000c0000000000200000808020000040000004000000000001000008000000000000000000000000000000000400002000000020000000220000000003000200004000000000000000004100010000000000000000100000000000000000000000080000000000000000000",
      "type": "0x2",
      "transactionHash": "0xf8df40e271f2ef1affc5e07017547de712ae0f157dfdd050ff6b5495d7c2f668",
      "transactionIndex": "0x3",
      "blockHash": "0x05d733c4818fb5ba39cb84dfc6d1fc89be6b77f26fbb26e859b934d97db29a71",
      "blockNumber": "0x2b0a516",
      "gasUsed": "0x54a38",
      "effectiveGasPrice": "0x1389",
      "from": "0x1b150538e943f00127929f7eeb65754f7beb0b6d",
      "to": "0x66f20a5fbf43e4b36ac9e2d9de33e8b8cafd3ab7",
      "contractAddress": null
    },
    {
      "status": "0x1",
      "cumulativeGasUsed": "0xcf75f",
      "logs": [
        {
          "address": "0xeffc83ac0da8ec6c91cde640d35efb0d10c2e112",
          "topics": [
            "0xddf252ad1be2c89b69c2b068fc378daa952ba7f163c4a11628f55a4df523b3ef",
            "0x0000000000000000000000001b150538e943f00127929f7eeb65754f7beb0b6d",
            "0x000000000000000000000000202d7d2cbc96b24cd1290a29b530d146df3b5a2f"
          ],
          "data": "0x00000000000000000000000000000000000000000000000000000000000003e8",
          "blockHash": "0x05d733c4818fb5ba39cb84dfc6d1fc89be6b77f26fbb26e859b934d97db29a71",
          "blockNumber": "0x2b0a516",
          "transactionHash": "0xf704fee4af3e2e76c1414d2e633de40254d4cc7a92ecc3223ec39ac85f8b30d1",
          "transactionIndex": "0x4",
          "logIndex": "0xc",
          "removed": false
        }
      ],
      "logsBloom": "0x00000000000000000000000000000000000000000000000000000000000000000000000000000000000000000000000000000000000000000000000000000000000000000000000000000008040000000000000000000000000000000000000000000000000000000000000000000000000000000000000000000010004000000000000000000000000000080000000000000000000000000000000002000800000000000000000000000000000000008000000000000000000000000000000000008002000000000000000000000000000000000000000000000000000004000000000000000000000000000000000000000100000000000000000000000000",
      "type": "0x2",
      "transactionHash": "0xf704fee4af3e2e76c1414d2e633de40254d4cc7a92ecc3223ec39ac85f8b30d1",
      "transactionIndex": "0x4",
      "blockHash": "0x05d733c4818fb5ba39cb84dfc6d1fc89be6b77f26fbb26e859b934d97db29a71",
      "blockNumber": "0x2b0a516",
      "gasUsed": "0xcba1",
      "effectiveGasPrice": "0x1389",
      "from": "0x1b150538e943f00127929f7eeb65754f7beb0b6d",
      "to": "0xeffc83ac0da8ec6c91cde640d35efb0d10c2e112",
      "contractAddress": null
    },
    {
      "status": "0x1",
      "cumulativeGasUsed": "0x1241a3",
      "logs": [
        {
          "address": "0x66f20a5fbf43e4b36ac9e2d9de33e8b8cafd3ab7",
          "topics": [
            "0x6a097a8db83fd9aee480dc6251f3cbbfc31c2b0adb9f70410b411de98e92515d",
            "0x000000000000000000000000202d7d2cbc96b24cd1290a29b530d146df3b5a2f",
            "0x000000000000000000000000000000000000000000000000000000000000007b",
            "0x000000000000000000000000effc83ac0da8ec6c91cde640d35efb0d10c2e112"
          ],
          "data": "0x",
          "blockHash": "0x05d733c4818fb5ba39cb84dfc6d1fc89be6b77f26fbb26e859b934d97db29a71",
          "blockNumber": "0x2b0a516",
          "transactionHash": "0xb18f3255dbc8d42ebf8586070d273832ab72977283f099415d90daeb4911a084",
          "transactionIndex": "0x5",
          "logIndex": "0xd",
          "removed": false
        },
        {
          "address": "0xeffc83ac0da8ec6c91cde640d35efb0d10c2e112",
          "topics": [
            "0x8c5be1e5ebec7d5bd14f71427d1e84f3dd0314c0f7b2291e5b200ac8c7c3b925",
            "0x000000000000000000000000202d7d2cbc96b24cd1290a29b530d146df3b5a2f",
            "0x0000000000000000000000006b1c656ad724c246049ef586fa35d217a8db13a0"
          ],
          "data": "0x00000000000000000000000000000000000000000000000000000000000003e8",
          "blockHash": "0x05d733c4818fb5ba39cb84dfc6d1fc89be6b77f26fbb26e859b934d97db29a71",
          "blockNumber": "0x2b0a516",
          "transactionHash": "0xb18f3255dbc8d42ebf8586070d273832ab72977283f099415d90daeb4911a084",
          "transactionIndex": "0x5",
          "logIndex": "0xe",
          "removed": false
        },
        {
          "address": "0x6b1c656ad724c246049ef586fa35d217a8db13a0",
          "topics": [
            "0x01b41cbd4bbcc3c5b968a04d3fbdd8c1648a39ff6d9a3929b4840cea1142bc65",
            "0x4367ec0849795fb02892ba0b832d20d3296722d71147e2cad7bfa358494ab60c",
            "0xd1df26f75315a3c9285668d3079f8fd02322af7b0aa7ac5c8152c55765213ac7",
            "0x00000000000000000000000000000000000000000000000000000000000003e8"
          ],
          "data": "0x",
          "blockHash": "0x05d733c4818fb5ba39cb84dfc6d1fc89be6b77f26fbb26e859b934d97db29a71",
          "blockNumber": "0x2b0a516",
          "transactionHash": "0xb18f3255dbc8d42ebf8586070d273832ab72977283f099415d90daeb4911a084",
          "transactionIndex": "0x5",
          "logIndex": "0xf",
          "removed": false
        },
        {
          "address": "0xeffc83ac0da8ec6c91cde640d35efb0d10c2e112",
          "topics": [
            "0xddf252ad1be2c89b69c2b068fc378daa952ba7f163c4a11628f55a4df523b3ef",
            "0x000000000000000000000000202d7d2cbc96b24cd1290a29b530d146df3b5a2f",
            "0x0000000000000000000000006b1c656ad724c246049ef586fa35d217a8db13a0"
          ],
          "data": "0x00000000000000000000000000000000000000000000000000000000000003e8",
          "blockHash": "0x05d733c4818fb5ba39cb84dfc6d1fc89be6b77f26fbb26e859b934d97db29a71",
          "blockNumber": "0x2b0a516",
          "transactionHash": "0xb18f3255dbc8d42ebf8586070d273832ab72977283f099415d90daeb4911a084",
          "transactionIndex": "0x5",
          "logIndex": "0x10",
          "removed": false
        },
        {
          "address": "0x202d7d2cbc96b24cd1290a29b530d146df3b5a2f",
          "topics": [
            "0xc7f505b2f371ae2175ee4913f4499e1f2633a7b5936321eed1cdaeb6115181d2"
          ],
          "data": "0x0000000000000000000000000000000000000000000000000000000000000001",
          "blockHash": "0x05d733c4818fb5ba39cb84dfc6d1fc89be6b77f26fbb26e859b934d97db29a71",
          "blockNumber": "0x2b0a516",
          "transactionHash": "0xb18f3255dbc8d42ebf8586070d273832ab72977283f099415d90daeb4911a084",
          "transactionIndex": "0x5",
          "logIndex": "0x11",
          "removed": false
        }
      ],
      "logsBloom": "0x000400000000000000000000200000000000000000000000000100000000000000000004000800000000000000000000000000000000000000000000002000000000000000000000004000080000000000000220000000000004000000080000000008000001000000000000000000000000000400000080000000100040000000000002000000000008000020000000000810000001c0000000000202000800020000040000000000000000001000008000000000000000000000000000000000000002000000020000000200000000003000200204000000000000000004100010000000000000000100200000000000000100000080000000000000000000",
      "type": "0x2",
      "transactionHash": "0xb18f3255dbc8d42ebf8586070d273832ab72977283f099415d90daeb4911a084",
      "transactionIndex": "0x5",
      "blockHash": "0x05d733c4818fb5ba39cb84dfc6d1fc89be6b77f26fbb26e859b934d97db29a71",
      "blockNumber": "0x2b0a516",
      "gasUsed": "0x54a44",
      "effectiveGasPrice": "0x1389",
      "from": "0x1b150538e943f00127929f7eeb65754f7beb0b6d",
      "to": "0x66f20a5fbf43e4b36ac9e2d9de33e8b8cafd3ab7",
      "contractAddress": null
    },
    {
      "status": "0x1",
      "cumulativeGasUsed": "0x130d44",
      "logs": [
        {
          "address": "0xeffc83ac0da8ec6c91cde640d35efb0d10c2e112",
          "topics": [
            "0xddf252ad1be2c89b69c2b068fc378daa952ba7f163c4a11628f55a4df523b3ef",
            "0x0000000000000000000000001b150538e943f00127929f7eeb65754f7beb0b6d",
            "0x00000000000000000000000027b1de2ec2d921dd091e62d3c66f3dffc1e09cd4"
          ],
          "data": "0x00000000000000000000000000000000000000000000000000000000000003e8",
          "blockHash": "0x05d733c4818fb5ba39cb84dfc6d1fc89be6b77f26fbb26e859b934d97db29a71",
          "blockNumber": "0x2b0a516",
          "transactionHash": "0x4378a20e304ef7c99004ebf4ac7c95d73fa56bfcb6032dbb4639b5f6ae7bc940",
          "transactionIndex": "0x6",
          "logIndex": "0x12",
          "removed": false
        }
      ],
      "logsBloom": "0x00000000000000000000000000000000000000000000000000000000000000000800000000000000000000000000000000000000000000000000000000000000000000000000000000000008040000000000000000004000000000000000000000000000000000000000000000000000000000000000000000080010000000000000000000000000000000080000000000000000000000000000000000000800000000000000000000000000000000008000000000000000000000000000000000008002000000000000000000000000000000000000000000000000000004000000000000000000000000000000000000000000000000000000000000000000",
      "type": "0x2",
      "transactionHash": "0x4378a20e304ef7c99004ebf4ac7c95d73fa56bfcb6032dbb4639b5f6ae7bc940",
      "transactionIndex": "0x6",
      "blockHash": "0x05d733c4818fb5ba39cb84dfc6d1fc89be6b77f26fbb26e859b934d97db29a71",
      "blockNumber": "0x2b0a516",
      "gasUsed": "0xcba1",
      "effectiveGasPrice": "0x1389",
      "from": "0x1b150538e943f00127929f7eeb65754f7beb0b6d",
      "to": "0xeffc83ac0da8ec6c91cde640d35efb0d10c2e112",
      "contractAddress": null
    },
    {
      "status": "0x1",
      "cumulativeGasUsed": "0x54a44",
      "logs": [
        {
          "address": "0x66f20a5fbf43e4b36ac9e2d9de33e8b8cafd3ab7",
          "topics": [
            "0x6a097a8db83fd9aee480dc6251f3cbbfc31c2b0adb9f70410b411de98e92515d",
            "0x00000000000000000000000027b1de2ec2d921dd091e62d3c66f3dffc1e09cd4",
            "0x000000000000000000000000000000000000000000000000000000000000007b",
            "0x000000000000000000000000effc83ac0da8ec6c91cde640d35efb0d10c2e112"
          ],
          "data": "0x",
          "blockHash": "0x003c63c29103ed2cc7397f00f75f6bbe5b60366bd5cb53e802dbb4992f399d82",
          "blockNumber": "0x2b0a517",
          "transactionHash": "0x1b9db0f301ab39a24377bafc97b7e7e7b01cbd99311ef62b9f0e80415db16c3a",
          "transactionIndex": "0x0",
          "logIndex": "0x0",
          "removed": false
        },
        {
          "address": "0xeffc83ac0da8ec6c91cde640d35efb0d10c2e112",
          "topics": [
            "0x8c5be1e5ebec7d5bd14f71427d1e84f3dd0314c0f7b2291e5b200ac8c7c3b925",
            "0x00000000000000000000000027b1de2ec2d921dd091e62d3c66f3dffc1e09cd4",
            "0x0000000000000000000000006b1c656ad724c246049ef586fa35d217a8db13a0"
          ],
          "data": "0x00000000000000000000000000000000000000000000000000000000000003e8",
          "blockHash": "0x003c63c29103ed2cc7397f00f75f6bbe5b60366bd5cb53e802dbb4992f399d82",
          "blockNumber": "0x2b0a517",
          "transactionHash": "0x1b9db0f301ab39a24377bafc97b7e7e7b01cbd99311ef62b9f0e80415db16c3a",
          "transactionIndex": "0x0",
          "logIndex": "0x1",
          "removed": false
        },
        {
          "address": "0x6b1c656ad724c246049ef586fa35d217a8db13a0",
          "topics": [
            "0x01b41cbd4bbcc3c5b968a04d3fbdd8c1648a39ff6d9a3929b4840cea1142bc65",
            "0xab43e4fc1c2b9566dc529a3839d178c4a579cb66edd2ef3d53a65c2eb1d4b5bc",
            "0x844883995feec6b372e42239da3f0e8098d288ae25fb178fa9e31e43efa7f394",
            "0x00000000000000000000000000000000000000000000000000000000000003e8"
          ],
          "data": "0x",
          "blockHash": "0x003c63c29103ed2cc7397f00f75f6bbe5b60366bd5cb53e802dbb4992f399d82",
          "blockNumber": "0x2b0a517",
          "transactionHash": "0x1b9db0f301ab39a24377bafc97b7e7e7b01cbd99311ef62b9f0e80415db16c3a",
          "transactionIndex": "0x0",
          "logIndex": "0x2",
          "removed": false
        },
        {
          "address": "0xeffc83ac0da8ec6c91cde640d35efb0d10c2e112",
          "topics": [
            "0xddf252ad1be2c89b69c2b068fc378daa952ba7f163c4a11628f55a4df523b3ef",
            "0x00000000000000000000000027b1de2ec2d921dd091e62d3c66f3dffc1e09cd4",
            "0x0000000000000000000000006b1c656ad724c246049ef586fa35d217a8db13a0"
          ],
          "data": "0x00000000000000000000000000000000000000000000000000000000000003e8",
          "blockHash": "0x003c63c29103ed2cc7397f00f75f6bbe5b60366bd5cb53e802dbb4992f399d82",
          "blockNumber": "0x2b0a517",
          "transactionHash": "0x1b9db0f301ab39a24377bafc97b7e7e7b01cbd99311ef62b9f0e80415db16c3a",
          "transactionIndex": "0x0",
          "logIndex": "0x3",
          "removed": false
        },
        {
          "address": "0x27b1de2ec2d921dd091e62d3c66f3dffc1e09cd4",
          "topics": [
            "0xc7f505b2f371ae2175ee4913f4499e1f2633a7b5936321eed1cdaeb6115181d2"
          ],
          "data": "0x0000000000000000000000000000000000000000000000000000000000000001",
          "blockHash": "0x003c63c29103ed2cc7397f00f75f6bbe5b60366bd5cb53e802dbb4992f399d82",
          "blockNumber": "0x2b0a517",
          "transactionHash": "0x1b9db0f301ab39a24377bafc97b7e7e7b01cbd99311ef62b9f0e80415db16c3a",
          "transactionIndex": "0x0",
          "logIndex": "0x4",
          "removed": false
        }
      ],
      "logsBloom": "0x000000000000000000000000200000000000000000000000000000000000000008000004000800000000000000000000000000000000000000000000002000000000000000000000004000080000000000000200000040000004000000080000000008000041000000000000001000000100000000000080000800100000000000000003000000002008000020000000000000000000c0000000000200000800020800040000000400000000001000008000000000000000000000000000000000000002000000020000000200000002003000200004000000000000000004108010000000000000000100000000000000000000000080000000000000000000",
      "type": "0x2",
      "transactionHash": "0x1b9db0f301ab39a24377bafc97b7e7e7b01cbd99311ef62b9f0e80415db16c3a",
      "transactionIndex": "0x0",
      "blockHash": "0x003c63c29103ed2cc7397f00f75f6bbe5b60366bd5cb53e802dbb4992f399d82",
      "blockNumber": "0x2b0a517",
      "gasUsed": "0x54a44",
      "effectiveGasPrice": "0x1389",
      "from": "0x1b150538e943f00127929f7eeb65754f7beb0b6d",
      "to": "0x66f20a5fbf43e4b36ac9e2d9de33e8b8cafd3ab7",
      "contractAddress": null
    },
    {
      "status": "0x1",
      "cumulativeGasUsed": "0x615e5",
      "logs": [
        {
          "address": "0xeffc83ac0da8ec6c91cde640d35efb0d10c2e112",
          "topics": [
            "0xddf252ad1be2c89b69c2b068fc378daa952ba7f163c4a11628f55a4df523b3ef",
            "0x0000000000000000000000001b150538e943f00127929f7eeb65754f7beb0b6d",
            "0x0000000000000000000000000ef60a43ad9db8f3a8a7191956085842bb972097"
          ],
          "data": "0x00000000000000000000000000000000000000000000000000000000000003e8",
          "blockHash": "0x003c63c29103ed2cc7397f00f75f6bbe5b60366bd5cb53e802dbb4992f399d82",
          "blockNumber": "0x2b0a517",
          "transactionHash": "0xf0c2bb5f60bbf354481e80d9d82cac94011414ad3627267a0b802c581ebec334",
          "transactionIndex": "0x1",
          "logIndex": "0x5",
          "removed": false
        }
      ],
      "logsBloom": "0x00000000000000000000000002000000000000000000000000000000000200000000000000000000000000000000000000000000000000000000000000000000000000000000000000000008040000000000000000000000000000000000000000000000000000000000000000000000000000000000000000000010000000000000000000000000000000080000000000000000000000000000000000000800000000000000000000000000020000008000000000000000000000000000000000008002000000000000000000000000000000000000000000000000000004000000000000000000000000000000000000000000000000000000000000000000",
      "type": "0x2",
      "transactionHash": "0xf0c2bb5f60bbf354481e80d9d82cac94011414ad3627267a0b802c581ebec334",
      "transactionIndex": "0x1",
      "blockHash": "0x003c63c29103ed2cc7397f00f75f6bbe5b60366bd5cb53e802dbb4992f399d82",
      "blockNumber": "0x2b0a517",
      "gasUsed": "0xcba1",
      "effectiveGasPrice": "0x1389",
      "from": "0x1b150538e943f00127929f7eeb65754f7beb0b6d",
      "to": "0xeffc83ac0da8ec6c91cde640d35efb0d10c2e112",
      "contractAddress": null
    },
    {
      "status": "0x1",
      "cumulativeGasUsed": "0xb6029",
      "logs": [
        {
          "address": "0x66f20a5fbf43e4b36ac9e2d9de33e8b8cafd3ab7",
          "topics": [
            "0x6a097a8db83fd9aee480dc6251f3cbbfc31c2b0adb9f70410b411de98e92515d",
            "0x0000000000000000000000000ef60a43ad9db8f3a8a7191956085842bb972097",
            "0x000000000000000000000000000000000000000000000000000000000000007b",
            "0x000000000000000000000000effc83ac0da8ec6c91cde640d35efb0d10c2e112"
          ],
          "data": "0x",
          "blockHash": "0x003c63c29103ed2cc7397f00f75f6bbe5b60366bd5cb53e802dbb4992f399d82",
          "blockNumber": "0x2b0a517",
          "transactionHash": "0x3977c0aac851795580b825c0d0a80bb77d8a63471679e1960a548d7ef8c4b3a8",
          "transactionIndex": "0x2",
          "logIndex": "0x6",
          "removed": false
        },
        {
          "address": "0xeffc83ac0da8ec6c91cde640d35efb0d10c2e112",
          "topics": [
            "0x8c5be1e5ebec7d5bd14f71427d1e84f3dd0314c0f7b2291e5b200ac8c7c3b925",
            "0x0000000000000000000000000ef60a43ad9db8f3a8a7191956085842bb972097",
            "0x0000000000000000000000006b1c656ad724c246049ef586fa35d217a8db13a0"
          ],
          "data": "0x00000000000000000000000000000000000000000000000000000000000003e8",
          "blockHash": "0x003c63c29103ed2cc7397f00f75f6bbe5b60366bd5cb53e802dbb4992f399d82",
          "blockNumber": "0x2b0a517",
          "transactionHash": "0x3977c0aac851795580b825c0d0a80bb77d8a63471679e1960a548d7ef8c4b3a8",
          "transactionIndex": "0x2",
          "logIndex": "0x7",
          "removed": false
        },
        {
          "address": "0x6b1c656ad724c246049ef586fa35d217a8db13a0",
          "topics": [
            "0x01b41cbd4bbcc3c5b968a04d3fbdd8c1648a39ff6d9a3929b4840cea1142bc65",
            "0xc9231a06b3b68d9d5d648219faac905865c37c21112b964febb15c2b3bf88bf0",
            "0x2d72cc8dd01d18c767fe1efc060496ca2f64fa9224f5b2cf67b7157e86e459e0",
            "0x00000000000000000000000000000000000000000000000000000000000003e8"
          ],
          "data": "0x",
          "blockHash": "0x003c63c29103ed2cc7397f00f75f6bbe5b60366bd5cb53e802dbb4992f399d82",
          "blockNumber": "0x2b0a517",
          "transactionHash": "0x3977c0aac851795580b825c0d0a80bb77d8a63471679e1960a548d7ef8c4b3a8",
          "transactionIndex": "0x2",
          "logIndex": "0x8",
          "removed": false
        },
        {
          "address": "0xeffc83ac0da8ec6c91cde640d35efb0d10c2e112",
          "topics": [
            "0xddf252ad1be2c89b69c2b068fc378daa952ba7f163c4a11628f55a4df523b3ef",
            "0x0000000000000000000000000ef60a43ad9db8f3a8a7191956085842bb972097",
            "0x0000000000000000000000006b1c656ad724c246049ef586fa35d217a8db13a0"
          ],
          "data": "0x00000000000000000000000000000000000000000000000000000000000003e8",
          "blockHash": "0x003c63c29103ed2cc7397f00f75f6bbe5b60366bd5cb53e802dbb4992f399d82",
          "blockNumber": "0x2b0a517",
          "transactionHash": "0x3977c0aac851795580b825c0d0a80bb77d8a63471679e1960a548d7ef8c4b3a8",
          "transactionIndex": "0x2",
          "logIndex": "0x9",
          "removed": false
        },
        {
          "address": "0x0ef60a43ad9db8f3a8a7191956085842bb972097",
          "topics": [
            "0xc7f505b2f371ae2175ee4913f4499e1f2633a7b5936321eed1cdaeb6115181d2"
          ],
          "data": "0x0000000000000000000000000000000000000000000000000000000000000001",
          "blockHash": "0x003c63c29103ed2cc7397f00f75f6bbe5b60366bd5cb53e802dbb4992f399d82",
          "blockNumber": "0x2b0a517",
          "transactionHash": "0x3977c0aac851795580b825c0d0a80bb77d8a63471679e1960a548d7ef8c4b3a8",
          "transactionIndex": "0x2",
          "logIndex": "0xa",
          "removed": false
        }
      ],
      "logsBloom": "0x000000000000000000000000220000000000000000000000000000000002000000000004000800000000000000010000000000000000002000000020002000000000000000000000004000080020000000000200000000000004000000080000000008020001000000000000000000000800000000000080000000100000000000000002000000000008000020000000000000000000c000000000020000080002000004000000000000000002100000a000000000000000000000000000000000000002000000020000000200000000003000200004000000000000000004100010010000000040000100000000000000000000000080000000000000000000",
      "type": "0x2",
      "transactionHash": "0x3977c0aac851795580b825c0d0a80bb77d8a63471679e1960a548d7ef8c4b3a8",
      "transactionIndex": "0x2",
      "blockHash": "0x003c63c29103ed2cc7397f00f75f6bbe5b60366bd5cb53e802dbb4992f399d82",
      "blockNumber": "0x2b0a517",
      "gasUsed": "0x54a44",
      "effectiveGasPrice": "0x1389",
      "from": "0x1b150538e943f00127929f7eeb65754f7beb0b6d",
      "to": "0x66f20a5fbf43e4b36ac9e2d9de33e8b8cafd3ab7",
      "contractAddress": null
    },
    {
      "status": "0x1",
      "cumulativeGasUsed": "0xcba1",
      "logs": [
        {
          "address": "0xeffc83ac0da8ec6c91cde640d35efb0d10c2e112",
          "topics": [
            "0xddf252ad1be2c89b69c2b068fc378daa952ba7f163c4a11628f55a4df523b3ef",
            "0x0000000000000000000000001b150538e943f00127929f7eeb65754f7beb0b6d",
            "0x000000000000000000000000cb5454c952e58d8a71fee03e1312823a2c2c9b37"
          ],
          "data": "0x00000000000000000000000000000000000000000000000000000000000003e8",
          "blockHash": "0xd3b28bfda0ed03b94121b7b61b0f60e77d12dfe31c96e6793d2bc6ec2608ee59",
          "blockNumber": "0x2b0a518",
          "transactionHash": "0xef9e407d2f372c7fe41bebed70dcd2c7dad0c74b42699abe595041285c7b3f61",
          "transactionIndex": "0x0",
          "logIndex": "0x0",
          "removed": false
        }
      ],
      "logsBloom": "0x00000000000000000000000000000000000000000000000000000000000000000000000000000000000000000000000000000000000000000000000000000000000000000000000000000008040000000000000000000000000000000000000000000000000000000000000000000000000000000000000000000010000000000000000000000000000000080000000000000000000000000000000000000800000000000000000000000000000000008000000000000200000000000000000000008002000000000000000000000000000000000000000000000000040004000000000000000000000000000000000000000000000000200000000000000000",
      "type": "0x2",
      "transactionHash": "0xef9e407d2f372c7fe41bebed70dcd2c7dad0c74b42699abe595041285c7b3f61",
      "transactionIndex": "0x0",
      "blockHash": "0xd3b28bfda0ed03b94121b7b61b0f60e77d12dfe31c96e6793d2bc6ec2608ee59",
      "blockNumber": "0x2b0a518",
      "gasUsed": "0xcba1",
      "effectiveGasPrice": "0x1389",
      "from": "0x1b150538e943f00127929f7eeb65754f7beb0b6d",
      "to": "0xeffc83ac0da8ec6c91cde640d35efb0d10c2e112",
      "contractAddress": null
    },
    {
      "status": "0x1",
      "cumulativeGasUsed": "0x615e5",
      "logs": [
        {
          "address": "0x66f20a5fbf43e4b36ac9e2d9de33e8b8cafd3ab7",
          "topics": [
            "0x6a097a8db83fd9aee480dc6251f3cbbfc31c2b0adb9f70410b411de98e92515d",
            "0x000000000000000000000000cb5454c952e58d8a71fee03e1312823a2c2c9b37",
            "0x000000000000000000000000000000000000000000000000000000000000007b",
            "0x000000000000000000000000effc83ac0da8ec6c91cde640d35efb0d10c2e112"
          ],
          "data": "0x",
          "blockHash": "0xd3b28bfda0ed03b94121b7b61b0f60e77d12dfe31c96e6793d2bc6ec2608ee59",
          "blockNumber": "0x2b0a518",
          "transactionHash": "0x340abe217ab510762100a9a6ea9ba009dc7a328f5a0723b482f09363fcab4988",
          "transactionIndex": "0x1",
          "logIndex": "0x1",
          "removed": false
        },
        {
          "address": "0xeffc83ac0da8ec6c91cde640d35efb0d10c2e112",
          "topics": [
            "0x8c5be1e5ebec7d5bd14f71427d1e84f3dd0314c0f7b2291e5b200ac8c7c3b925",
            "0x000000000000000000000000cb5454c952e58d8a71fee03e1312823a2c2c9b37",
            "0x0000000000000000000000006b1c656ad724c246049ef586fa35d217a8db13a0"
          ],
          "data": "0x00000000000000000000000000000000000000000000000000000000000003e8",
          "blockHash": "0xd3b28bfda0ed03b94121b7b61b0f60e77d12dfe31c96e6793d2bc6ec2608ee59",
          "blockNumber": "0x2b0a518",
          "transactionHash": "0x340abe217ab510762100a9a6ea9ba009dc7a328f5a0723b482f09363fcab4988",
          "transactionIndex": "0x1",
          "logIndex": "0x2",
          "removed": false
        },
        {
          "address": "0x6b1c656ad724c246049ef586fa35d217a8db13a0",
          "topics": [
            "0x01b41cbd4bbcc3c5b968a04d3fbdd8c1648a39ff6d9a3929b4840cea1142bc65",
            "0x351d123880c2558f8b960c96e63ce7adf59d849a272b878a91647b7279a5cb80",
            "0xd381e355e8ba3c30d8e33de124277f0fbe492b307625d222d9f6d0b99a02b7e8",
            "0x00000000000000000000000000000000000000000000000000000000000003e8"
          ],
          "data": "0x",
          "blockHash": "0xd3b28bfda0ed03b94121b7b61b0f60e77d12dfe31c96e6793d2bc6ec2608ee59",
          "blockNumber": "0x2b0a518",
          "transactionHash": "0x340abe217ab510762100a9a6ea9ba009dc7a328f5a0723b482f09363fcab4988",
          "transactionIndex": "0x1",
          "logIndex": "0x3",
          "removed": false
        },
        {
          "address": "0xeffc83ac0da8ec6c91cde640d35efb0d10c2e112",
          "topics": [
            "0xddf252ad1be2c89b69c2b068fc378daa952ba7f163c4a11628f55a4df523b3ef",
            "0x000000000000000000000000cb5454c952e58d8a71fee03e1312823a2c2c9b37",
            "0x0000000000000000000000006b1c656ad724c246049ef586fa35d217a8db13a0"
          ],
          "data": "0x00000000000000000000000000000000000000000000000000000000000003e8",
          "blockHash": "0xd3b28bfda0ed03b94121b7b61b0f60e77d12dfe31c96e6793d2bc6ec2608ee59",
          "blockNumber": "0x2b0a518",
          "transactionHash": "0x340abe217ab510762100a9a6ea9ba009dc7a328f5a0723b482f09363fcab4988",
          "transactionIndex": "0x1",
          "logIndex": "0x4",
          "removed": false
        },
        {
          "address": "0xcb5454c952e58d8a71fee03e1312823a2c2c9b37",
          "topics": [
            "0xc7f505b2f371ae2175ee4913f4499e1f2633a7b5936321eed1cdaeb6115181d2"
          ],
          "data": "0x0000000000000000000000000000000000000000000000000000000000000001",
          "blockHash": "0xd3b28bfda0ed03b94121b7b61b0f60e77d12dfe31c96e6793d2bc6ec2608ee59",
          "blockNumber": "0x2b0a518",
          "transactionHash": "0x340abe217ab510762100a9a6ea9ba009dc7a328f5a0723b482f09363fcab4988",
          "transactionIndex": "0x1",
          "logIndex": "0x5",
          "removed": false
        }
      ],
      "logsBloom": "0x000000000000000000000000200000000000000000000000000000000000000000000004000800000000000000000000000000000000000000000000002000000000000000000000004000080000000000000200100000000004000000080000000008000001100000004000200000000000000000000080000000110000000000000002000000800008000020000000000000200000c0000000040200000800020000140000000000000000001000008000000000000200000000000000000000000002000000020000000200000000003000200004000000000000040004100010000000000000000100000000000000000000000080200000000000000000",
      "type": "0x2",
      "transactionHash": "0x340abe217ab510762100a9a6ea9ba009dc7a328f5a0723b482f09363fcab4988",
      "transactionIndex": "0x1",
      "blockHash": "0xd3b28bfda0ed03b94121b7b61b0f60e77d12dfe31c96e6793d2bc6ec2608ee59",
      "blockNumber": "0x2b0a518",
      "gasUsed": "0x54a44",
      "effectiveGasPrice": "0x1389",
      "from": "0x1b150538e943f00127929f7eeb65754f7beb0b6d",
      "to": "0x66f20a5fbf43e4b36ac9e2d9de33e8b8cafd3ab7",
      "contractAddress": null
    },
    {
      "status": "0x1",
      "cumulativeGasUsed": "0x6e186",
      "logs": [
        {
          "address": "0xeffc83ac0da8ec6c91cde640d35efb0d10c2e112",
          "topics": [
            "0xddf252ad1be2c89b69c2b068fc378daa952ba7f163c4a11628f55a4df523b3ef",
            "0x0000000000000000000000001b150538e943f00127929f7eeb65754f7beb0b6d",
            "0x0000000000000000000000001de1ecc38faba2d11126a053247fc1f7baf51254"
          ],
          "data": "0x00000000000000000000000000000000000000000000000000000000000003e8",
          "blockHash": "0xd3b28bfda0ed03b94121b7b61b0f60e77d12dfe31c96e6793d2bc6ec2608ee59",
          "blockNumber": "0x2b0a518",
          "transactionHash": "0x26003f2d9c5c473b63213dc74bbdd2b36ddf3ae11e044eb2e4613d2f65a9fd3e",
          "transactionIndex": "0x2",
          "logIndex": "0x6",
          "removed": false
        }
      ],
      "logsBloom": "0x00000000000000000000000000000000000000000000000000000000000000000000000000000000000000000000000000000000000000000000000000000000000000800000000000000008040000000000000000000000000000000000000000000000000000000000000000000000000000000000000000000010000000000000000000000000000040080000000000000000000000000000000000000800000000000000000000000000000000008000000000000000000000000000000000008002000000000000000000000000000000000000000000000000000004000000000000000000000000000000000000000000000000020000000000000000",
      "type": "0x2",
      "transactionHash": "0x26003f2d9c5c473b63213dc74bbdd2b36ddf3ae11e044eb2e4613d2f65a9fd3e",
      "transactionIndex": "0x2",
      "blockHash": "0xd3b28bfda0ed03b94121b7b61b0f60e77d12dfe31c96e6793d2bc6ec2608ee59",
      "blockNumber": "0x2b0a518",
      "gasUsed": "0xcba1",
      "effectiveGasPrice": "0x1389",
      "from": "0x1b150538e943f00127929f7eeb65754f7beb0b6d",
      "to": "0xeffc83ac0da8ec6c91cde640d35efb0d10c2e112",
      "contractAddress": null
    },
    {
      "status": "0x1",
      "cumulativeGasUsed": "0xc2bbe",
      "logs": [
        {
          "address": "0x66f20a5fbf43e4b36ac9e2d9de33e8b8cafd3ab7",
          "topics": [
            "0x6a097a8db83fd9aee480dc6251f3cbbfc31c2b0adb9f70410b411de98e92515d",
            "0x0000000000000000000000001de1ecc38faba2d11126a053247fc1f7baf51254",
            "0x000000000000000000000000000000000000000000000000000000000000007b",
            "0x000000000000000000000000effc83ac0da8ec6c91cde640d35efb0d10c2e112"
          ],
          "data": "0x",
          "blockHash": "0xd3b28bfda0ed03b94121b7b61b0f60e77d12dfe31c96e6793d2bc6ec2608ee59",
          "blockNumber": "0x2b0a518",
          "transactionHash": "0x940869b308124fd67463900556ee7dec889ee8dc0c2d9c5b3753e3d8e41b5a15",
          "transactionIndex": "0x3",
          "logIndex": "0x7",
          "removed": false
        },
        {
          "address": "0xeffc83ac0da8ec6c91cde640d35efb0d10c2e112",
          "topics": [
            "0x8c5be1e5ebec7d5bd14f71427d1e84f3dd0314c0f7b2291e5b200ac8c7c3b925",
            "0x0000000000000000000000001de1ecc38faba2d11126a053247fc1f7baf51254",
            "0x0000000000000000000000006b1c656ad724c246049ef586fa35d217a8db13a0"
          ],
          "data": "0x00000000000000000000000000000000000000000000000000000000000003e8",
          "blockHash": "0xd3b28bfda0ed03b94121b7b61b0f60e77d12dfe31c96e6793d2bc6ec2608ee59",
          "blockNumber": "0x2b0a518",
          "transactionHash": "0x940869b308124fd67463900556ee7dec889ee8dc0c2d9c5b3753e3d8e41b5a15",
          "transactionIndex": "0x3",
          "logIndex": "0x8",
          "removed": false
        },
        {
          "address": "0x6b1c656ad724c246049ef586fa35d217a8db13a0",
          "topics": [
            "0x01b41cbd4bbcc3c5b968a04d3fbdd8c1648a39ff6d9a3929b4840cea1142bc65",
            "0x5473fefe394ce8514bb28c3f04a7499e5637aa80beca5290fc712c3a9d46c3c0",
            "0xf34ee78f86a4d8b28ce6b43a9ca0021151002be1a23491301847ba166750d24c",
            "0x00000000000000000000000000000000000000000000000000000000000003e8"
          ],
          "data": "0x",
          "blockHash": "0xd3b28bfda0ed03b94121b7b61b0f60e77d12dfe31c96e6793d2bc6ec2608ee59",
          "blockNumber": "0x2b0a518",
          "transactionHash": "0x940869b308124fd67463900556ee7dec889ee8dc0c2d9c5b3753e3d8e41b5a15",
          "transactionIndex": "0x3",
          "logIndex": "0x9",
          "removed": false
        },
        {
          "address": "0xeffc83ac0da8ec6c91cde640d35efb0d10c2e112",
          "topics": [
            "0xddf252ad1be2c89b69c2b068fc378daa952ba7f163c4a11628f55a4df523b3ef",
            "0x0000000000000000000000001de1ecc38faba2d11126a053247fc1f7baf51254",
            "0x0000000000000000000000006b1c656ad724c246049ef586fa35d217a8db13a0"
          ],
          "data": "0x00000000000000000000000000000000000000000000000000000000000003e8",
          "blockHash": "0xd3b28bfda0ed03b94121b7b61b0f60e77d12dfe31c96e6793d2bc6ec2608ee59",
          "blockNumber": "0x2b0a518",
          "transactionHash": "0x940869b308124fd67463900556ee7dec889ee8dc0c2d9c5b3753e3d8e41b5a15",
          "transactionIndex": "0x3",
          "logIndex": "0xa",
          "removed": false
        },
        {
          "address": "0x1de1ecc38faba2d11126a053247fc1f7baf51254",
          "topics": [
            "0xc7f505b2f371ae2175ee4913f4499e1f2633a7b5936321eed1cdaeb6115181d2"
          ],
          "data": "0x0000000000000000000000000000000000000000000000000000000000000001",
          "blockHash": "0xd3b28bfda0ed03b94121b7b61b0f60e77d12dfe31c96e6793d2bc6ec2608ee59",
          "blockNumber": "0x2b0a518",
          "transactionHash": "0x940869b308124fd67463900556ee7dec889ee8dc0c2d9c5b3753e3d8e41b5a15",
          "transactionIndex": "0x3",
          "logIndex": "0xb",
          "removed": false
        }
      ],
      "logsBloom": "0x000000000000000000000000300000000000000000000000000000000000000000000004000800000000000000000000100000000000000000000000002000000000008001000000004000080000000000000200000000000004000000080000040008000001000000000000000000000000000000000080000000100000000000000002000000000008400020000000000000000000c0000000400200400800020000040000000000000000001000008000100000000000000000000400000000000002000000020000000200000000003000200004000000000000000024100010000000000000000100000000000000000000000080020000000000000000",
      "type": "0x2",
      "transactionHash": "0x940869b308124fd67463900556ee7dec889ee8dc0c2d9c5b3753e3d8e41b5a15",
      "transactionIndex": "0x3",
      "blockHash": "0xd3b28bfda0ed03b94121b7b61b0f60e77d12dfe31c96e6793d2bc6ec2608ee59",
      "blockNumber": "0x2b0a518",
      "gasUsed": "0x54a38",
      "effectiveGasPrice": "0x1389",
      "from": "0x1b150538e943f00127929f7eeb65754f7beb0b6d",
      "to": "0x66f20a5fbf43e4b36ac9e2d9de33e8b8cafd3ab7",
      "contractAddress": null
    },
    {
      "status": "0x1",
      "cumulativeGasUsed": "0xcf75f",
      "logs": [
        {
          "address": "0xeffc83ac0da8ec6c91cde640d35efb0d10c2e112",
          "topics": [
            "0xddf252ad1be2c89b69c2b068fc378daa952ba7f163c4a11628f55a4df523b3ef",
            "0x0000000000000000000000001b150538e943f00127929f7eeb65754f7beb0b6d",
            "0x0000000000000000000000006cd65257046d4ba07fca5738fe93e18d0ff6daef"
          ],
          "data": "0x00000000000000000000000000000000000000000000000000000000000003e8",
          "blockHash": "0xd3b28bfda0ed03b94121b7b61b0f60e77d12dfe31c96e6793d2bc6ec2608ee59",
          "blockNumber": "0x2b0a518",
          "transactionHash": "0x58c153c8bbea054e80002fa737d367467ef9505c3cfd8336a49005ae0b613d99",
          "transactionIndex": "0x4",
          "logIndex": "0xc",
          "removed": false
        }
      ],
      "logsBloom": "0x00000000000000000000000000000000000000000000000000000000000000000000000000000000000000000000000000000000000000000000000000000000000000000000000000000008040000000000000000000000000800000800000000000000000000000000000000000000000000000000000400000010000000000000000000000000000000080000000000000000000000000000000000000800000000000000000000000000000000008000000000000000000000000000000000008002000000000000000000000000000000000000000000000000000004000000000000000000000000000000000000000000000000000000000000000000",
      "type": "0x2",
      "transactionHash": "0x58c153c8bbea054e80002fa737d367467ef9505c3cfd8336a49005ae0b613d99",
      "transactionIndex": "0x4",
      "blockHash": "0xd3b28bfda0ed03b94121b7b61b0f60e77d12dfe31c96e6793d2bc6ec2608ee59",
      "blockNumber": "0x2b0a518",
      "gasUsed": "0xcba1",
      "effectiveGasPrice": "0x1389",
      "from": "0x1b150538e943f00127929f7eeb65754f7beb0b6d",
      "to": "0xeffc83ac0da8ec6c91cde640d35efb0d10c2e112",
      "contractAddress": null
    },
    {
      "status": "0x1",
      "cumulativeGasUsed": "0x1241a3",
      "logs": [
        {
          "address": "0x66f20a5fbf43e4b36ac9e2d9de33e8b8cafd3ab7",
          "topics": [
            "0x6a097a8db83fd9aee480dc6251f3cbbfc31c2b0adb9f70410b411de98e92515d",
            "0x0000000000000000000000006cd65257046d4ba07fca5738fe93e18d0ff6daef",
            "0x000000000000000000000000000000000000000000000000000000000000007b",
            "0x000000000000000000000000effc83ac0da8ec6c91cde640d35efb0d10c2e112"
          ],
          "data": "0x",
          "blockHash": "0xd3b28bfda0ed03b94121b7b61b0f60e77d12dfe31c96e6793d2bc6ec2608ee59",
          "blockNumber": "0x2b0a518",
          "transactionHash": "0x600d599ce94e15fd4a7b584b0c99d487539c9068e7373a4a502125306bfcd8a2",
          "transactionIndex": "0x5",
          "logIndex": "0xd",
          "removed": false
        },
        {
          "address": "0xeffc83ac0da8ec6c91cde640d35efb0d10c2e112",
          "topics": [
            "0x8c5be1e5ebec7d5bd14f71427d1e84f3dd0314c0f7b2291e5b200ac8c7c3b925",
            "0x0000000000000000000000006cd65257046d4ba07fca5738fe93e18d0ff6daef",
            "0x0000000000000000000000006b1c656ad724c246049ef586fa35d217a8db13a0"
          ],
          "data": "0x00000000000000000000000000000000000000000000000000000000000003e8",
          "blockHash": "0xd3b28bfda0ed03b94121b7b61b0f60e77d12dfe31c96e6793d2bc6ec2608ee59",
          "blockNumber": "0x2b0a518",
          "transactionHash": "0x600d599ce94e15fd4a7b584b0c99d487539c9068e7373a4a502125306bfcd8a2",
          "transactionIndex": "0x5",
          "logIndex": "0xe",
          "removed": false
        },
        {
          "address": "0x6b1c656ad724c246049ef586fa35d217a8db13a0",
          "topics": [
            "0x01b41cbd4bbcc3c5b968a04d3fbdd8c1648a39ff6d9a3929b4840cea1142bc65",
            "0x88d169ee6aa3352cb86b8abb5d264e232697f0a31e2d99a694802f620115a2cf",
            "0xa956b8bfc8736ef35456d5c5d9df46af2802e155d75c0b38fd153b9bd15b5484",
            "0x00000000000000000000000000000000000000000000000000000000000003e8"
          ],
          "data": "0x",
          "blockHash": "0xd3b28bfda0ed03b94121b7b61b0f60e77d12dfe31c96e6793d2bc6ec2608ee59",
          "blockNumber": "0x2b0a518",
          "transactionHash": "0x600d599ce94e15fd4a7b584b0c99d487539c9068e7373a4a502125306bfcd8a2",
          "transactionIndex": "0x5",
          "logIndex": "0xf",
          "removed": false
        },
        {
          "address": "0xeffc83ac0da8ec6c91cde640d35efb0d10c2e112",
          "topics": [
            "0xddf252ad1be2c89b69c2b068fc378daa952ba7f163c4a11628f55a4df523b3ef",
            "0x0000000000000000000000006cd65257046d4ba07fca5738fe93e18d0ff6daef",
            "0x0000000000000000000000006b1c656ad724c246049ef586fa35d217a8db13a0"
          ],
          "data": "0x00000000000000000000000000000000000000000000000000000000000003e8",
          "blockHash": "0xd3b28bfda0ed03b94121b7b61b0f60e77d12dfe31c96e6793d2bc6ec2608ee59",
          "blockNumber": "0x2b0a518",
          "transactionHash": "0x600d599ce94e15fd4a7b584b0c99d487539c9068e7373a4a502125306bfcd8a2",
          "transactionIndex": "0x5",
          "logIndex": "0x10",
          "removed": false
        },
        {
          "address": "0x6cd65257046d4ba07fca5738fe93e18d0ff6daef",
          "topics": [
            "0xc7f505b2f371ae2175ee4913f4499e1f2633a7b5936321eed1cdaeb6115181d2"
          ],
          "data": "0x0000000000000000000000000000000000000000000000000000000000000001",
          "blockHash": "0xd3b28bfda0ed03b94121b7b61b0f60e77d12dfe31c96e6793d2bc6ec2608ee59",
          "blockNumber": "0x2b0a518",
          "transactionHash": "0x600d599ce94e15fd4a7b584b0c99d487539c9068e7373a4a502125306bfcd8a2",
          "transactionIndex": "0x5",
          "logIndex": "0x11",
          "removed": false
        }
      ],
      "logsBloom": "0x00000000000000000000000020000000000000000000000000080000000000000000004400080000000000000000000000000000000000000002000100200000001000000000000000400008000000000000020000000000000c000008080000000008000001000000000000000000000000000000000084000000100000000000000002000000000008000020000000000000000000c000000000020000081002000004000000000000000000100000800000000000000000000000000000000000000200000002000000020000000000b000200004800000000000000004100010000000000000000100000000000000000000400080000000000000000000",
      "type": "0x2",
      "transactionHash": "0x600d599ce94e15fd4a7b584b0c99d487539c9068e7373a4a502125306bfcd8a2",
      "transactionIndex": "0x5",
      "blockHash": "0xd3b28bfda0ed03b94121b7b61b0f60e77d12dfe31c96e6793d2bc6ec2608ee59",
      "blockNumber": "0x2b0a518",
      "gasUsed": "0x54a44",
      "effectiveGasPrice": "0x1389",
      "from": "0x1b150538e943f00127929f7eeb65754f7beb0b6d",
      "to": "0x66f20a5fbf43e4b36ac9e2d9de33e8b8cafd3ab7",
      "contractAddress": null
    },
    {
      "status": "0x1",
      "cumulativeGasUsed": "0x130d44",
      "logs": [
        {
          "address": "0xeffc83ac0da8ec6c91cde640d35efb0d10c2e112",
          "topics": [
            "0xddf252ad1be2c89b69c2b068fc378daa952ba7f163c4a11628f55a4df523b3ef",
            "0x0000000000000000000000001b150538e943f00127929f7eeb65754f7beb0b6d",
            "0x0000000000000000000000000c85e9b74b16307a25892d6abe81fc54dd090fbe"
          ],
          "data": "0x00000000000000000000000000000000000000000000000000000000000003e8",
          "blockHash": "0xd3b28bfda0ed03b94121b7b61b0f60e77d12dfe31c96e6793d2bc6ec2608ee59",
          "blockNumber": "0x2b0a518",
          "transactionHash": "0x59b9243afb46e08878bd860ed5c6e9a2e1df861af4bb8edf420117bdce98e26e",
          "transactionIndex": "0x6",
          "logIndex": "0x12",
          "removed": false
        }
      ],
      "logsBloom": "0x00000000000000000000000000000000000000000000000000000000000000040000000000000000000000000000000000000000000000000000000000000000000000000000000000000008040000000000000000000000000000000000000000000004000000000000000000000000000000000000000000000010000000000000000000000000000000080000000000000000000000000000000000000800000000000000000000000000000000008000000000000000000000000000000000008002000000000000000000000000000000000000000000000000000004000000000000000000000000000000000000400000000000000000000000000000",
      "type": "0x2",
      "transactionHash": "0x59b9243afb46e08878bd860ed5c6e9a2e1df861af4bb8edf420117bdce98e26e",
      "transactionIndex": "0x6",
      "blockHash": "0xd3b28bfda0ed03b94121b7b61b0f60e77d12dfe31c96e6793d2bc6ec2608ee59",
      "blockNumber": "0x2b0a518",
      "gasUsed": "0xcba1",
      "effectiveGasPrice": "0x1389",
      "from": "0x1b150538e943f00127929f7eeb65754f7beb0b6d",
      "to": "0xeffc83ac0da8ec6c91cde640d35efb0d10c2e112",
      "contractAddress": null
    },
    {
      "status": "0x1",
      "cumulativeGasUsed": "0x1acda7",
      "logs": [
        {
          "address": "0x66f20a5fbf43e4b36ac9e2d9de33e8b8cafd3ab7",
          "topics": [
            "0x6a097a8db83fd9aee480dc6251f3cbbfc31c2b0adb9f70410b411de98e92515d",
            "0x0000000000000000000000000c85e9b74b16307a25892d6abe81fc54dd090fbe",
            "0x000000000000000000000000000000000000000000000000000000000000007b",
            "0x000000000000000000000000effc83ac0da8ec6c91cde640d35efb0d10c2e112"
          ],
          "data": "0x",
          "blockHash": "0xd3b28bfda0ed03b94121b7b61b0f60e77d12dfe31c96e6793d2bc6ec2608ee59",
          "blockNumber": "0x2b0a518",
          "transactionHash": "0xc425609233b8c8c35bd946dcdb8cc15f6b5020954f9b5d068ab4d9689bb7a5da",
          "transactionIndex": "0x8",
          "logIndex": "0x17",
          "removed": false
        },
        {
          "address": "0xeffc83ac0da8ec6c91cde640d35efb0d10c2e112",
          "topics": [
            "0x8c5be1e5ebec7d5bd14f71427d1e84f3dd0314c0f7b2291e5b200ac8c7c3b925",
            "0x0000000000000000000000000c85e9b74b16307a25892d6abe81fc54dd090fbe",
            "0x0000000000000000000000006b1c656ad724c246049ef586fa35d217a8db13a0"
          ],
          "data": "0x00000000000000000000000000000000000000000000000000000000000003e8",
          "blockHash": "0xd3b28bfda0ed03b94121b7b61b0f60e77d12dfe31c96e6793d2bc6ec2608ee59",
          "blockNumber": "0x2b0a518",
          "transactionHash": "0xc425609233b8c8c35bd946dcdb8cc15f6b5020954f9b5d068ab4d9689bb7a5da",
          "transactionIndex": "0x8",
          "logIndex": "0x18",
          "removed": false
        },
        {
          "address": "0x6b1c656ad724c246049ef586fa35d217a8db13a0",
          "topics": [
            "0x01b41cbd4bbcc3c5b968a04d3fbdd8c1648a39ff6d9a3929b4840cea1142bc65",
            "0x500beddbd2b5cedfb78136317e8d77a920034ba7d50503c0fb3a9330472e1322",
            "0x9cffc28aaa59582b0166a70a1631f7feee39373d49fe7fc9859b250949fbf10a",
            "0x00000000000000000000000000000000000000000000000000000000000003e8"
          ],
          "data": "0x",
          "blockHash": "0xd3b28bfda0ed03b94121b7b61b0f60e77d12dfe31c96e6793d2bc6ec2608ee59",
          "blockNumber": "0x2b0a518",
          "transactionHash": "0xc425609233b8c8c35bd946dcdb8cc15f6b5020954f9b5d068ab4d9689bb7a5da",
          "transactionIndex": "0x8",
          "logIndex": "0x19",
          "removed": false
        },
        {
          "address": "0xeffc83ac0da8ec6c91cde640d35efb0d10c2e112",
          "topics": [
            "0xddf252ad1be2c89b69c2b068fc378daa952ba7f163c4a11628f55a4df523b3ef",
            "0x0000000000000000000000000c85e9b74b16307a25892d6abe81fc54dd090fbe",
            "0x0000000000000000000000006b1c656ad724c246049ef586fa35d217a8db13a0"
          ],
          "data": "0x00000000000000000000000000000000000000000000000000000000000003e8",
          "blockHash": "0xd3b28bfda0ed03b94121b7b61b0f60e77d12dfe31c96e6793d2bc6ec2608ee59",
          "blockNumber": "0x2b0a518",
          "transactionHash": "0xc425609233b8c8c35bd946dcdb8cc15f6b5020954f9b5d068ab4d9689bb7a5da",
          "transactionIndex": "0x8",
          "logIndex": "0x1a",
          "removed": false
        },
        {
          "address": "0x0c85e9b74b16307a25892d6abe81fc54dd090fbe",
          "topics": [
            "0xc7f505b2f371ae2175ee4913f4499e1f2633a7b5936321eed1cdaeb6115181d2"
          ],
          "data": "0x0000000000000000000000000000000000000000000000000000000000000001",
          "blockHash": "0xd3b28bfda0ed03b94121b7b61b0f60e77d12dfe31c96e6793d2bc6ec2608ee59",
          "blockNumber": "0x2b0a518",
          "transactionHash": "0xc425609233b8c8c35bd946dcdb8cc15f6b5020954f9b5d068ab4d9689bb7a5da",
          "transactionIndex": "0x8",
          "logIndex": "0x1b",
          "removed": false
        }
      ],
      "logsBloom": "0x00000000000000000000000020000000000000000000000000000000000000040000000400080000000000000000000000000000000000000000000000200000000000000000000000400008800000000000020000000000000400400008000000000804000100400000000000000000000000000000008000000010000000000800000200000000000a080020000000000000000000c0000000000200000800020004040000000000000000001000008000000000000000002000000000000000000002000000020000000200000000003000200004000000000000000004100010000020000000000100000000000000400000000080000000000000000000",
      "type": "0x2",
      "transactionHash": "0xc425609233b8c8c35bd946dcdb8cc15f6b5020954f9b5d068ab4d9689bb7a5da",
      "transactionIndex": "0x8",
      "blockHash": "0xd3b28bfda0ed03b94121b7b61b0f60e77d12dfe31c96e6793d2bc6ec2608ee59",
      "blockNumber": "0x2b0a518",
      "gasUsed": "0x54a44",
      "effectiveGasPrice": "0x1389",
      "from": "0x1b150538e943f00127929f7eeb65754f7beb0b6d",
      "to": "0x66f20a5fbf43e4b36ac9e2d9de33e8b8cafd3ab7",
      "contractAddress": null
    },
    {
      "status": "0x1",
      "cumulativeGasUsed": "0x1b9948",
      "logs": [
        {
          "address": "0xeffc83ac0da8ec6c91cde640d35efb0d10c2e112",
          "topics": [
            "0xddf252ad1be2c89b69c2b068fc378daa952ba7f163c4a11628f55a4df523b3ef",
            "0x0000000000000000000000001b150538e943f00127929f7eeb65754f7beb0b6d",
            "0x0000000000000000000000001b25ce55db4f7db741f2bffcee3b49ea2b526de4"
          ],
          "data": "0x00000000000000000000000000000000000000000000000000000000000003e8",
          "blockHash": "0xd3b28bfda0ed03b94121b7b61b0f60e77d12dfe31c96e6793d2bc6ec2608ee59",
          "blockNumber": "0x2b0a518",
          "transactionHash": "0x151b847ff5868dc836694d837dcb7f2b36f992ad1d7a23358dbd53d290c88871",
          "transactionIndex": "0x9",
          "logIndex": "0x1c",
          "removed": false
        }
      ],
      "logsBloom": "0x00000000000000000000000000000000000000000000000000000000000000000000000000000000000000000000000000000000000000000000000000000000000000000000000000040008040000000000000000000000000000000000000000000000000000000000000000000000000000000000000000000010000000000000000000000000000000080000000000000000000000000000000000000800000000000800000000000000000000008000000000000000000000000000000000008002000000000000000000000000000000100000000000000000000004000000000000000000000000000000000000000000000000000000000000000000",
      "type": "0x2",
      "transactionHash": "0x151b847ff5868dc836694d837dcb7f2b36f992ad1d7a23358dbd53d290c88871",
      "transactionIndex": "0x9",
      "blockHash": "0xd3b28bfda0ed03b94121b7b61b0f60e77d12dfe31c96e6793d2bc6ec2608ee59",
      "blockNumber": "0x2b0a518",
      "gasUsed": "0xcba1",
      "effectiveGasPrice": "0x1389",
      "from": "0x1b150538e943f00127929f7eeb65754f7beb0b6d",
      "to": "0xeffc83ac0da8ec6c91cde640d35efb0d10c2e112",
      "contractAddress": null
    },
    {
      "status": "0x1",
      "cumulativeGasUsed": "0x54a44",
      "logs": [
        {
          "address": "0x66f20a5fbf43e4b36ac9e2d9de33e8b8cafd3ab7",
          "topics": [
            "0x6a097a8db83fd9aee480dc6251f3cbbfc31c2b0adb9f70410b411de98e92515d",
            "0x0000000000000000000000001b25ce55db4f7db741f2bffcee3b49ea2b526de4",
            "0x000000000000000000000000000000000000000000000000000000000000007b",
            "0x000000000000000000000000effc83ac0da8ec6c91cde640d35efb0d10c2e112"
          ],
          "data": "0x",
          "blockHash": "0xf71754ee7a64f260fa2433757d4827c861493d209b37551a724913a4bca908b8",
          "blockNumber": "0x2b0a519",
          "transactionHash": "0xb27d544e678f79d9eaa96696e0863c38ad74e333bc946f3a39bce5d04e05cd99",
          "transactionIndex": "0x0",
          "logIndex": "0x0",
          "removed": false
        },
        {
          "address": "0xeffc83ac0da8ec6c91cde640d35efb0d10c2e112",
          "topics": [
            "0x8c5be1e5ebec7d5bd14f71427d1e84f3dd0314c0f7b2291e5b200ac8c7c3b925",
            "0x0000000000000000000000001b25ce55db4f7db741f2bffcee3b49ea2b526de4",
            "0x0000000000000000000000006b1c656ad724c246049ef586fa35d217a8db13a0"
          ],
          "data": "0x00000000000000000000000000000000000000000000000000000000000003e8",
          "blockHash": "0xf71754ee7a64f260fa2433757d4827c861493d209b37551a724913a4bca908b8",
          "blockNumber": "0x2b0a519",
          "transactionHash": "0xb27d544e678f79d9eaa96696e0863c38ad74e333bc946f3a39bce5d04e05cd99",
          "transactionIndex": "0x0",
          "logIndex": "0x1",
          "removed": false
        },
        {
          "address": "0x6b1c656ad724c246049ef586fa35d217a8db13a0",
          "topics": [
            "0x01b41cbd4bbcc3c5b968a04d3fbdd8c1648a39ff6d9a3929b4840cea1142bc65",
            "0x68db97bcc6bac6a047f417a1e2054c4488a664ae791fb12ec4bf9e8c0ea7f58d",
            "0x19296e95a65a8da76a0410263668bda39c482ca2da444c3c42076b701616619e",
            "0x00000000000000000000000000000000000000000000000000000000000003e8"
          ],
          "data": "0x",
          "blockHash": "0xf71754ee7a64f260fa2433757d4827c861493d209b37551a724913a4bca908b8",
          "blockNumber": "0x2b0a519",
          "transactionHash": "0xb27d544e678f79d9eaa96696e0863c38ad74e333bc946f3a39bce5d04e05cd99",
          "transactionIndex": "0x0",
          "logIndex": "0x2",
          "removed": false
        },
        {
          "address": "0xeffc83ac0da8ec6c91cde640d35efb0d10c2e112",
          "topics": [
            "0xddf252ad1be2c89b69c2b068fc378daa952ba7f163c4a11628f55a4df523b3ef",
            "0x0000000000000000000000001b25ce55db4f7db741f2bffcee3b49ea2b526de4",
            "0x0000000000000000000000006b1c656ad724c246049ef586fa35d217a8db13a0"
          ],
          "data": "0x00000000000000000000000000000000000000000000000000000000000003e8",
          "blockHash": "0xf71754ee7a64f260fa2433757d4827c861493d209b37551a724913a4bca908b8",
          "blockNumber": "0x2b0a519",
          "transactionHash": "0xb27d544e678f79d9eaa96696e0863c38ad74e333bc946f3a39bce5d04e05cd99",
          "transactionIndex": "0x0",
          "logIndex": "0x3",
          "removed": false
        },
        {
          "address": "0x1b25ce55db4f7db741f2bffcee3b49ea2b526de4",
          "topics": [
            "0xc7f505b2f371ae2175ee4913f4499e1f2633a7b5936321eed1cdaeb6115181d2"
          ],
          "data": "0x0000000000000000000000000000000000000000000000000000000000000001",
          "blockHash": "0xf71754ee7a64f260fa2433757d4827c861493d209b37551a724913a4bca908b8",
          "blockNumber": "0x2b0a519",
          "transactionHash": "0xb27d544e678f79d9eaa96696e0863c38ad74e333bc946f3a39bce5d04e05cd99",
          "transactionIndex": "0x0",
          "logIndex": "0x4",
          "removed": false
        }
      ],
      "logsBloom": "0x000000000000000000000000200000000000000000000000000000000000000000000004000800000000000000000000000000000000000000000000002000000000000000000000004400080000000000000200000008000004000000080040000008000001000000000000000000000000000000000080400000100000000000000002000000000008000020000000000000000000c8000000000200000800020000040800000000000000001000208000000000000000000000000000000000000002000000020000000200010000003000301004000000000020000004100010000000000000000100000000000000000001000080000000000000000000",
      "type": "0x2",
      "transactionHash": "0xb27d544e678f79d9eaa96696e0863c38ad74e333bc946f3a39bce5d04e05cd99",
      "transactionIndex": "0x0",
      "blockHash": "0xf71754ee7a64f260fa2433757d4827c861493d209b37551a724913a4bca908b8",
      "blockNumber": "0x2b0a519",
      "gasUsed": "0x54a44",
      "effectiveGasPrice": "0x1389",
      "from": "0x1b150538e943f00127929f7eeb65754f7beb0b6d",
      "to": "0x66f20a5fbf43e4b36ac9e2d9de33e8b8cafd3ab7",
      "contractAddress": null
    }
  ],
  "libraries": [],
  "pending": [],
  "returns": {},
  "timestamp": 1755948185990,
  "chain": 43113,
  "commit": "aa36f6b"
}