{
  "transactions": [
    {
      "hash": "0x3583d42c2778aff6e69cdc5673f888ce7c08f81dd26aa1fc491a46f912d52228",
      "transactionType": "CALL",
      "contractName": null,
      "contractAddress": "0x6b1c656ad724c246049ef586fa35d217a8db13a0",
      "function": "initiate(address,address,uint256,uint256,bytes32)",
      "arguments": [
        "0xeffc83AC0Da8EC6C91CDe640d35eFB0D10c2E112",
        "0xe62a2b235f7bB86C1122313153824D54E6137e77",
        "100",
        "1000",
        "0x5b11618c2e44027877d0cd0921ed166b9f176f50587fc91e7534dd2946db77d6"
      ],
      "transaction": {
        "from": "0x1b150538e943f00127929f7eeb65754f7beb0b6d",
        "to": "0x6b1c656ad724c246049ef586fa35d217a8db13a0",
        "gas": "0x3da0f",
        "value": "0x0",
        "input": "0xa70cac91000000000000000000000000effc83ac0da8ec6c91cde640d35efb0d10c2e112000000000000000000000000e62a2b235f7bb86c1122313153824d54e6137e77000000000000000000000000000000000000000000000000000000000000006400000000000000000000000000000000000000000000000000000000000003e85b11618c2e44027877d0cd0921ed166b9f176f50587fc91e7534dd2946db77d6",
        "nonce": "0x4e",
        "chainId": "0xa869"
      },
      "additionalContracts": [],
      "isFixedGasLimit": false
    },
    {
      "hash": "0xcfe155c85eb781501ad5ff3a36fa44aa0f580ea5da83c8a416cad24fce2f32c9",
      "transactionType": "CALL",
      "contractName": null,
      "contractAddress": "0x6b1c656ad724c246049ef586fa35d217a8db13a0",
      "function": "redeem(bytes32,bytes)",
      "arguments": [
        "0x062e3a49d7f4ea00be19a12bce5f4b53ae8b6bbd55a2110b79c4cf06782c413a",
        "0x73656372657431"
      ],
      "transaction": {
        "from": "0x1b150538e943f00127929f7eeb65754f7beb0b6d",
        "to": "0x6b1c656ad724c246049ef586fa35d217a8db13a0",
        "gas": "0x21dc7",
        "value": "0x0",
        "input": "0xf7ff7207062e3a49d7f4ea00be19a12bce5f4b53ae8b6bbd55a2110b79c4cf06782c413a000000000000000000000000000000000000000000000000000000000000004000000000000000000000000000000000000000000000000000000000000000077365637265743100000000000000000000000000000000000000000000000000",
        "nonce": "0x4f",
        "chainId": "0xa869"
      },
      "additionalContracts": [],
      "isFixedGasLimit": false
    }
  ],
  "receipts": [
    {
      "status": "0x1",
      "cumulativeGasUsed": "0x2c9e4",
      "logs": [
        {
          "address": "0x6b1c656ad724c246049ef586fa35d217a8db13a0",
          "topics": [
            "0x01b41cbd4bbcc3c5b968a04d3fbdd8c1648a39ff6d9a3929b4840cea1142bc65",
            "0x062e3a49d7f4ea00be19a12bce5f4b53ae8b6bbd55a2110b79c4cf06782c413a",
            "0x5b11618c2e44027877d0cd0921ed166b9f176f50587fc91e7534dd2946db77d6",
            "0x00000000000000000000000000000000000000000000000000000000000003e8"
          ],
          "data": "0x",
          "blockHash": "0x5a0e9edab1009c3989b31bb087eb6f99c65dc172c947d244fa3b94f408954db4",
          "blockNumber": "0x2b0a6b5",
          "transactionHash": "0x3583d42c2778aff6e69cdc5673f888ce7c08f81dd26aa1fc491a46f912d52228",
          "transactionIndex": "0x0",
          "logIndex": "0x0",
          "removed": false
        },
        {
          "address": "0xeffc83ac0da8ec6c91cde640d35efb0d10c2e112",
          "topics": [
            "0xddf252ad1be2c89b69c2b068fc378daa952ba7f163c4a11628f55a4df523b3ef",
            "0x0000000000000000000000001b150538e943f00127929f7eeb65754f7beb0b6d",
            "0x0000000000000000000000006b1c656ad724c246049ef586fa35d217a8db13a0"
          ],
          "data": "0x00000000000000000000000000000000000000000000000000000000000003e8",
          "blockHash": "0x5a0e9edab1009c3989b31bb087eb6f99c65dc172c947d244fa3b94f408954db4",
          "blockNumber": "0x2b0a6b5",
          "transactionHash": "0x3583d42c2778aff6e69cdc5673f888ce7c08f81dd26aa1fc491a46f912d52228",
          "transactionIndex": "0x0",
          "logIndex": "0x1",
          "removed": false
        }
      ],
      "logsBloom": "0x00000200000000000000000020000000000001000000000000000000000000000000000000000000000000000000000000000001000000000000000000000000000000000000000000000008040000000000000000000000000400000000000000800800000100000000000000000000000000000000000000000010000000000000000200000000000000080000000000000000000040000000000000000800000000000000000000000000000000008000000000000000000000000000000000008002000000020000000000000000001000200000000000000000000004100000000000000100000120000000000000000000000080000000000000000000",
      "type": "0x2",
      "transactionHash": "0x3583d42c2778aff6e69cdc5673f888ce7c08f81dd26aa1fc491a46f912d52228",
      "transactionIndex": "0x0",
      "blockHash": "0x5a0e9edab1009c3989b31bb087eb6f99c65dc172c947d244fa3b94f408954db4",
      "blockNumber": "0x2b0a6b5",
      "gasUsed": "0x2c9e4",
      "effectiveGasPrice": "0x1389",
      "from": "0x1b150538e943f00127929f7eeb65754f7beb0b6d",
      "to": "0x6b1c656ad724c246049ef586fa35d217a8db13a0",
      "contractAddress": null
    },
    {
      "status": "0x1",
      "cumulativeGasUsed": "0x43c57",
      "logs": [
        {
          "address": "0x6b1c656ad724c246049ef586fa35d217a8db13a0",
          "topics": [
            "0x4c9a044220477b4e94dbb0d07ff6ff4ac30d443bef59098c4541b006954778e2",
            "0x062e3a49d7f4ea00be19a12bce5f4b53ae8b6bbd55a2110b79c4cf06782c413a",
            "0x5b11618c2e44027877d0cd0921ed166b9f176f50587fc91e7534dd2946db77d6"
          ],
          "data": "0x000000000000000000000000000000000000000000000000000000000000002000000000000000000000000000000000000000000000000000000000000000077365637265743100000000000000000000000000000000000000000000000000",
          "blockHash": "0x5a0e9edab1009c3989b31bb087eb6f99c65dc172c947d244fa3b94f408954db4",
          "blockNumber": "0x2b0a6b5",
          "transactionHash": "0xcfe155c85eb781501ad5ff3a36fa44aa0f580ea5da83c8a416cad24fce2f32c9",
          "transactionIndex": "0x1",
          "logIndex": "0x2",
          "removed": false
        },
        {
          "address": "0xeffc83ac0da8ec6c91cde640d35efb0d10c2e112",
          "topics": [
            "0xddf252ad1be2c89b69c2b068fc378daa952ba7f163c4a11628f55a4df523b3ef",
            "0x0000000000000000000000006b1c656ad724c246049ef586fa35d217a8db13a0",
            "0x000000000000000000000000e62a2b235f7bb86c1122313153824d54e6137e77"
          ],
          "data": "0x00000000000000000000000000000000000000000000000000000000000003e8",
          "blockHash": "0x5a0e9edab1009c3989b31bb087eb6f99c65dc172c947d244fa3b94f408954db4",
          "blockNumber": "0x2b0a6b5",
          "transactionHash": "0xcfe155c85eb781501ad5ff3a36fa44aa0f580ea5da83c8a416cad24fce2f32c9",
          "transactionIndex": "0x1",
          "logIndex": "0x3",
          "removed": false
        }
      ],
      "logsBloom": "0x00000200000000000000000000000000000001000000000000000000000000000000000000000000000000000000000000000001020000000000000000000000000000000000000040000008000000000000000000000000080400000000000000800800000100000000000000000000000000000000000000000010000000000000040000000000000000000000000000000000000000000000000000000800000000000000000000000000000000008000000000000000000000000000000000000002000000000000000000000000001000200000000000000000000004000000000000000100000120000000000000000000000002000000000000004000",
      "type": "0x2",
      "transactionHash": "0xcfe155c85eb781501ad5ff3a36fa44aa0f580ea5da83c8a416cad24fce2f32c9",
      "transactionIndex": "0x1",
      "blockHash": "0x5a0e9edab1009c3989b31bb087eb6f99c65dc172c947d244fa3b94f408954db4",
      "blockNumber": "0x2b0a6b5",
      "gasUsed": "0x17273",
      "effectiveGasPrice": "0x1389",
      "from": "0x1b150538e943f00127929f7eeb65754f7beb0b6d",
      "to": "0x6b1c656ad724c246049ef586fa35d217a8db13a0",
      "contractAddress": null
    }
  ],
  "libraries": [],
  "pending": [],
  "returns": {},
  "timestamp": 1755949034145,
  "chain": 43113,
  "commit": "aa36f6b"
}