{
  "transactions": [
    {
      "hash": "0x0e48679f220b32946897ef6419b27f44a7362773c819c2ddc3eb71707bb05b71",
      "transactionType": "CALL",
      "contractName": null,
      "contractAddress": "0xeffc83ac0da8ec6c91cde640d35efb0d10c2e112",
      "function": "approve(address,uint256)",
      "arguments": [
        "0x6B1c656ad724C246049EF586Fa35D217A8db13A0",
        "115792089237316195423570985008687907853269984665640564039457584007913129639935"
      ],
      "transaction": {
        "from": "0x1b150538e943f00127929f7eeb65754f7beb0b6d",
        "to": "0xeffc83ac0da8ec6c91cde640d35efb0d10c2e112",
        "gas": "0xfee1",
        "value": "0x0",
        "input": "0x095ea7b30000000000000000000000006b1c656ad724c246049ef586fa35d217a8db13a0ffffffffffffffffffffffffffffffffffffffffffffffffffffffffffffffff",
        "nonce": "0x2f",
        "chainId": "0xa869"
      },
      "additionalContracts": [],
      "isFixedGasLimit": false
    },
    {
      "hash": "0xc221bec83af272a414e93cd9236ed102c2ce07cf06f9149b270dee32f45db26e",
      "transactionType": "CALL",
      "contractName": null,
      "contractAddress": "0x6b1c656ad724c246049ef586fa35d217a8db13a0",
      "function": "initiate(address,address,uint256,uint256,bytes32)",
      "arguments": [
        "0xeffc83AC0Da8EC6C91CDe640d35eFB0D10c2E112",
        "0x000000000000000000000000000000000000007B",
        "100",
        "1000",
        "0x70147d9c3fe0b99a2ec9f2cbd549e637cb54c230e2bc7e6fb34b629ebe04272a"
      ],
      "transaction": {
        "from": "0x1b150538e943f00127929f7eeb65754f7beb0b6d",
        "to": "0x6b1c656ad724c246049ef586fa35d217a8db13a0",
        "gas": "0x43517",
        "value": "0x0",
        "input": "0xa70cac91000000000000000000000000effc83ac0da8ec6c91cde640d35efb0d10c2e112000000000000000000000000000000000000000000000000000000000000007b000000000000000000000000000000000000000000000000000000000000006400000000000000000000000000000000000000000000000000000000000003e870147d9c3fe0b99a2ec9f2cbd549e637cb54c230e2bc7e6fb34b629ebe04272a",
        "nonce": "0x30",
        "chainId": "0xa869"
      },
      "additionalContracts": [],
      "isFixedGasLimit": false
    },
    {
      "hash": "0x645ef99c41b0b34f231093387653e35e9622e6d9ba5485e62aa1133333586eb4",
      "transactionType": "CALL",
      "contractName": null,
      "contractAddress": "0x6b1c656ad724c246049ef586fa35d217a8db13a0",
      "function": "initiate(address,address,uint256,uint256,bytes32)",
      "arguments": [
        "0xeffc83AC0Da8EC6C91CDe640d35eFB0D10c2E112",
        "0x000000000000000000000000000000000000007B",
        "100",
        "1000",
        "0xb13c1b480862f60929e6797e1ae0da6182cd7e88e202272e755fbe1ccbefd106"
      ],
      "transaction": {
        "from": "0x1b150538e943f00127929f7eeb65754f7beb0b6d",
        "to": "0x6b1c656ad724c246049ef586fa35d217a8db13a0",
        "gas": "0x3d8d4",
        "value": "0x0",
        "input": "0xa70cac91000000000000000000000000effc83ac0da8ec6c91cde640d35efb0d10c2e112000000000000000000000000000000000000000000000000000000000000007b000000000000000000000000000000000000000000000000000000000000006400000000000000000000000000000000000000000000000000000000000003e8b13c1b480862f60929e6797e1ae0da6182cd7e88e202272e755fbe1ccbefd106",
        "nonce": "0x31",
        "chainId": "0xa869"
      },
      "additionalContracts": [],
      "isFixedGasLimit": false
    },
    {
      "hash": "0x1e36effeb437356fd4e1b67643641ffe7ed34c893e04ab3b3f9ff268ed98b7a6",
      "transactionType": "CALL",
      "contractName": null,
      "contractAddress": "0x6b1c656ad724c246049ef586fa35d217a8db13a0",
      "function": "initiate(address,address,uint256,uint256,bytes32)",
      "arguments": [
        "0xeffc83AC0Da8EC6C91CDe640d35eFB0D10c2E112",
        "0x000000000000000000000000000000000000007B",
        "100",
        "1000",
        "0x3a580c46f7ce35ca329ee6cb504ecfdcbb68581135605d3ae98426cff1993135"
      ],
      "transaction": {
        "from": "0x1b150538e943f00127929f7eeb65754f7beb0b6d",
        "to": "0x6b1c656ad724c246049ef586fa35d217a8db13a0",
        "gas": "0x3d8d4",
        "value": "0x0",
        "input": "0xa70cac91000000000000000000000000effc83ac0da8ec6c91cde640d35efb0d10c2e112000000000000000000000000000000000000000000000000000000000000007b000000000000000000000000000000000000000000000000000000000000006400000000000000000000000000000000000000000000000000000000000003e83a580c46f7ce35ca329ee6cb504ecfdcbb68581135605d3ae98426cff1993135",
        "nonce": "0x32",
        "chainId": "0xa869"
      },
      "additionalContracts": [],
      "isFixedGasLimit": false
    },
    {
      "hash": "0x87de7225627cdb3a4c68c3eb30912ba3d5180dd0d71b25409a089a7b7b87a1a5",
      "transactionType": "CALL",
      "contractName": null,
      "contractAddress": "0x6b1c656ad724c246049ef586fa35d217a8db13a0",
      "function": "initiate(address,address,uint256,uint256,bytes32)",
      "arguments": [
        "0xeffc83AC0Da8EC6C91CDe640d35eFB0D10c2E112",
        "0x000000000000000000000000000000000000007B",
        "100",
        "1000",
        "0xb3ee70995431b364c44e15f06c5f8dcb13dae58b0a164ac9499691a7bf7f1d45"
      ],
      "transaction": {
        "from": "0x1b150538e943f00127929f7eeb65754f7beb0b6d",
        "to": "0x6b1c656ad724c246049ef586fa35d217a8db13a0",
        "gas": "0x3d8d4",
        "value": "0x0",
        "input": "0xa70cac91000000000000000000000000effc83ac0da8ec6c91cde640d35efb0d10c2e112000000000000000000000000000000000000000000000000000000000000007b000000000000000000000000000000000000000000000000000000000000006400000000000000000000000000000000000000000000000000000000000003e8b3ee70995431b364c44e15f06c5f8dcb13dae58b0a164ac9499691a7bf7f1d45",
        "nonce": "0x33",
        "chainId": "0xa869"
      },
      "additionalContracts": [],
      "isFixedGasLimit": false
    },
    {
      "hash": "0xa495b50a1a7bfffa5b119548d3a37799a7a542ff0b1a85753f81c291416efd31",
      "transactionType": "CALL",
      "contractName": null,
      "contractAddress": "0x6b1c656ad724c246049ef586fa35d217a8db13a0",
      "function": "initiate(address,address,uint256,uint256,bytes32)",
      "arguments": [
        "0xeffc83AC0Da8EC6C91CDe640d35eFB0D10c2E112",
        "0x000000000000000000000000000000000000007B",
        "100",
        "1000",
        "0xedfbc5f8927982c09100f95635df01f83c5dc4e12da7fb72af4e3c076394e347"
      ],
      "transaction": {
        "from": "0x1b150538e943f00127929f7eeb65754f7beb0b6d",
        "to": "0x6b1c656ad724c246049ef586fa35d217a8db13a0",
        "gas": "0x3d8c3",
        "value": "0x0",
        "input": "0xa70cac91000000000000000000000000effc83ac0da8ec6c91cde640d35efb0d10c2e112000000000000000000000000000000000000000000000000000000000000007b000000000000000000000000000000000000000000000000000000000000006400000000000000000000000000000000000000000000000000000000000003e8edfbc5f8927982c09100f95635df01f83c5dc4e12da7fb72af4e3c076394e347",
        "nonce": "0x34",
        "chainId": "0xa869"
      },
      "additionalContracts": [],
      "isFixedGasLimit": false
    },
    {
      "hash": "0xbcfe0c378a1e8ebb274812a3e04003a7e4a4cf029312ec12ac805043ed34af40",
      "transactionType": "CALL",
      "contractName": null,
      "contractAddress": "0x6b1c656ad724c246049ef586fa35d217a8db13a0",
      "function": "initiate(address,address,uint256,uint256,bytes32)",
      "arguments": [
        "0xeffc83AC0Da8EC6C91CDe640d35eFB0D10c2E112",
        "0x000000000000000000000000000000000000007B",
        "100",
        "1000",
        "0x10a4c0bf95f18b7a3ed9c97cc3637df45757a8bb92d361817728dc61d9582ce8"
      ],
      "transaction": {
        "from": "0x1b150538e943f00127929f7eeb65754f7beb0b6d",
        "to": "0x6b1c656ad724c246049ef586fa35d217a8db13a0",
        "gas": "0x3d8d4",
        "value": "0x0",
        "input": "0xa70cac91000000000000000000000000effc83ac0da8ec6c91cde640d35efb0d10c2e112000000000000000000000000000000000000000000000000000000000000007b000000000000000000000000000000000000000000000000000000000000006400000000000000000000000000000000000000000000000000000000000003e810a4c0bf95f18b7a3ed9c97cc3637df45757a8bb92d361817728dc61d9582ce8",
        "nonce": "0x35",
        "chainId": "0xa869"
      },
      "additionalContracts": [],
      "isFixedGasLimit": false
    },
    {
      "hash": "0xb8e2f9a059b81a16a5cb05a4f6a136f4a5206e700290f61b4d43b9964b804eb4",
      "transactionType": "CALL",
      "contractName": null,
      "contractAddress": "0x6b1c656ad724c246049ef586fa35d217a8db13a0",
      "function": "initiate(address,address,uint256,uint256,bytes32)",
      "arguments": [
        "0xeffc83AC0Da8EC6C91CDe640d35eFB0D10c2E112",
        "0x000000000000000000000000000000000000007B",
        "100",
        "1000",
        "0xe3e65697af2cdcf1ecc7c6d2a23a08060f7a8dba54edc873bb813bddbea7212c"
      ],
      "transaction": {
        "from": "0x1b150538e943f00127929f7eeb65754f7beb0b6d",
        "to": "0x6b1c656ad724c246049ef586fa35d217a8db13a0",
        "gas": "0x3d8d4",
        "value": "0x0",
        "input": "0xa70cac91000000000000000000000000effc83ac0da8ec6c91cde640d35efb0d10c2e112000000000000000000000000000000000000000000000000000000000000007b000000000000000000000000000000000000000000000000000000000000006400000000000000000000000000000000000000000000000000000000000003e8e3e65697af2cdcf1ecc7c6d2a23a08060f7a8dba54edc873bb813bddbea7212c",
        "nonce": "0x36",
        "chainId": "0xa869"
      },
      "additionalContracts": [],
      "isFixedGasLimit": false
    },
    {
      "hash": "0x29ebf1e44e8ec60f475ccc2fdc000d958e89d820f401db940bc0c614ae7bc04e",
      "transactionType": "CALL",
      "contractName": null,
      "contractAddress": "0x6b1c656ad724c246049ef586fa35d217a8db13a0",
      "function": "initiate(address,address,uint256,uint256,bytes32)",
      "arguments": [
        "0xeffc83AC0Da8EC6C91CDe640d35eFB0D10c2E112",
        "0x000000000000000000000000000000000000007B",
        "100",
        "1000",
        "0xfd2df458ba68c938bc181e1744ac2dfe0b85d95f299d18d9a511220b243ae1ca"
      ],
      "transaction": {
        "from": "0x1b150538e943f00127929f7eeb65754f7beb0b6d",
        "to": "0x6b1c656ad724c246049ef586fa35d217a8db13a0",
        "gas": "0x3d8d4",
        "value": "0x0",
        "input": "0xa70cac91000000000000000000000000effc83ac0da8ec6c91cde640d35efb0d10c2e112000000000000000000000000000000000000000000000000000000000000007b000000000000000000000000000000000000000000000000000000000000006400000000000000000000000000000000000000000000000000000000000003e8fd2df458ba68c938bc181e1744ac2dfe0b85d95f299d18d9a511220b243ae1ca",
        "nonce": "0x37",
        "chainId": "0xa869"
      },
      "additionalContracts": [],
      "isFixedGasLimit": false
    },
    {
      "hash": "0x792afc20177f958aba5fafd5f525b7757e99880bd6000839bcc1149c70f8ccea",
      "transactionType": "CALL",
      "contractName": null,
      "contractAddress": "0x6b1c656ad724c246049ef586fa35d217a8db13a0",
      "function": "initiate(address,address,uint256,uint256,bytes32)",
      "arguments": [
        "0xeffc83AC0Da8EC6C91CDe640d35eFB0D10c2E112",
        "0x000000000000000000000000000000000000007B",
        "100",
        "1000",
        "0xef4323601037cb3acd17fb57276ad026a39203dab3f5d4225858d05ce7fe4cfb"
      ],
      "transaction": {
        "from": "0x1b150538e943f00127929f7eeb65754f7beb0b6d",
        "to": "0x6b1c656ad724c246049ef586fa35d217a8db13a0",
        "gas": "0x3d8d4",
        "value": "0x0",
        "input": "0xa70cac91000000000000000000000000effc83ac0da8ec6c91cde640d35efb0d10c2e112000000000000000000000000000000000000000000000000000000000000007b000000000000000000000000000000000000000000000000000000000000006400000000000000000000000000000000000000000000000000000000000003e8ef4323601037cb3acd17fb57276ad026a39203dab3f5d4225858d05ce7fe4cfb",
        "nonce": "0x38",
        "chainId": "0xa869"
      },
      "additionalContracts": [],
      "isFixedGasLimit": false
    },
    {
      "hash": "0xff02b132775f582fd403bbdcdbe219595429569840e450464e1d499b12f0f5bf",
      "transactionType": "CALL",
      "contractName": null,
      "contractAddress": "0x6b1c656ad724c246049ef586fa35d217a8db13a0",
      "function": "initiate(address,address,uint256,uint256,bytes32)",
      "arguments": [
        "0xeffc83AC0Da8EC6C91CDe640d35eFB0D10c2E112",
        "0x000000000000000000000000000000000000007B",
        "100",
        "1000",
        "0x4a9b2b10c976bdff93ab0b237cb03ba9626ee95b8785de92a035bb65ade08bfa"
      ],
      "transaction": {
        "from": "0x1b150538e943f00127929f7eeb65754f7beb0b6d",
        "to": "0x6b1c656ad724c246049ef586fa35d217a8db13a0",
        "gas": "0x3d8d4",
        "value": "0x0",
        "input": "0xa70cac91000000000000000000000000effc83ac0da8ec6c91cde640d35efb0d10c2e112000000000000000000000000000000000000000000000000000000000000007b000000000000000000000000000000000000000000000000000000000000006400000000000000000000000000000000000000000000000000000000000003e84a9b2b10c976bdff93ab0b237cb03ba9626ee95b8785de92a035bb65ade08bfa",
        "nonce": "0x39",
        "chainId": "0xa869"
      },
      "additionalContracts": [],
      "isFixedGasLimit": false
    }
  ],
  "receipts": [
    {
      "status": "0x1",
      "cumulativeGasUsed": "0x1aea0",
      "logs": [
        {
          "address": "0xeffc83ac0da8ec6c91cde640d35efb0d10c2e112",
          "topics": [
            "0x8c5be1e5ebec7d5bd14f71427d1e84f3dd0314c0f7b2291e5b200ac8c7c3b925",
            "0x0000000000000000000000001b150538e943f00127929f7eeb65754f7beb0b6d",
            "0x0000000000000000000000006b1c656ad724c246049ef586fa35d217a8db13a0"
          ],
          "data": "0xffffffffffffffffffffffffffffffffffffffffffffffffffffffffffffffff",
          "blockHash": "0x1ecc8f2ebfc1f443ccfbae1d7fe83e7975cad54de824c85341a6aa5bd7051e3d",
          "blockNumber": "0x2b0a46c",
          "transactionHash": "0x0e48679f220b32946897ef6419b27f44a7362773c819c2ddc3eb71707bb05b71",
          "transactionIndex": "0x3",
          "logIndex": "0x0",
          "removed": false
        }
      ],
      "logsBloom": "0x00000000000000000000000000000000000000000000000000000000000000000000000000000000000000000000000000000000000000000000000000200000000000000000000000000000040000000000000000000000000000000000000000000000000000000000000000000000000000000000000000000000000000000000000000000000000000080000000000000000000000000000000000000800020000000000000000000000000000008000000000000000000000000000000000008000000000000000000000000000001000200000000000000000000004000010000000000000000100000000000000000000000000000000000000000000",
      "type": "0x2",
      "transactionHash": "0x0e48679f220b32946897ef6419b27f44a7362773c819c2ddc3eb71707bb05b71",
      "transactionIndex": "0x3",
      "blockHash": "0x1ecc8f2ebfc1f443ccfbae1d7fe83e7975cad54de824c85341a6aa5bd7051e3d",
      "blockNumber": "0x2b0a46c",
      "gasUsed": "0xb888",
      "effectiveGasPrice": "0x2",
      "from": "0x1b150538e943f00127929f7eeb65754f7beb0b6d",
      "to": "0xeffc83ac0da8ec6c91cde640d35efb0d10c2e112",
      "contractAddress": null
    },
    {
      "status": "0x1",
      "cumulativeGasUsed": "0x4ba6c",
      "logs": [
        {
          "address": "0x6b1c656ad724c246049ef586fa35d217a8db13a0",
          "topics": [
            "0x01b41cbd4bbcc3c5b968a04d3fbdd8c1648a39ff6d9a3929b4840cea1142bc65",
            "0xda512aeb0e5bb77e63194ff20c32a656439a8af0fe66ec312a6239dd29dd1c84",
            "0x70147d9c3fe0b99a2ec9f2cbd549e637cb54c230e2bc7e6fb34b629ebe04272a",
            "0x00000000000000000000000000000000000000000000000000000000000003e8"
          ],
          "data": "0x",
          "blockHash": "0x1ecc8f2ebfc1f443ccfbae1d7fe83e7975cad54de824c85341a6aa5bd7051e3d",
          "blockNumber": "0x2b0a46c",
          "transactionHash": "0xc221bec83af272a414e93cd9236ed102c2ce07cf06f9149b270dee32f45db26e",
          "transactionIndex": "0x4",
          "logIndex": "0x1",
          "removed": false
        },
        {
          "address": "0xeffc83ac0da8ec6c91cde640d35efb0d10c2e112",
          "topics": [
            "0xddf252ad1be2c89b69c2b068fc378daa952ba7f163c4a11628f55a4df523b3ef",
            "0x0000000000000000000000001b150538e943f00127929f7eeb65754f7beb0b6d",
            "0x0000000000000000000000006b1c656ad724c246049ef586fa35d217a8db13a0"
          ],
          "data": "0x00000000000000000000000000000000000000000000000000000000000003e8",
          "blockHash": "0x1ecc8f2ebfc1f443ccfbae1d7fe83e7975cad54de824c85341a6aa5bd7051e3d",
          "blockNumber": "0x2b0a46c",
          "transactionHash": "0xc221bec83af272a414e93cd9236ed102c2ce07cf06f9149b270dee32f45db26e",
          "transactionIndex": "0x4",
          "logIndex": "0x2",
          "removed": false
        }
      ],
      "logsBloom": "0x00000000000000000000080020000000000000000008000000000000000000000000000000000000000000000000000000000000000000000200000000000000000000000000000000000008040000000000000000000000000400000000000000000800000100000000000000000000000000000000000000000010000000000000000200000001000000080000008000000000000040000000000000000800000000000000000000000000000000008000000000000000000000000000000000008002000000020000000000000000001000200000000000000000000004100000000000000000000100000000000000000000000080010000000000000000",
      "type": "0x2",
      "transactionHash": "0xc221bec83af272a414e93cd9236ed102c2ce07cf06f9149b270dee32f45db26e",
      "transactionIndex": "0x4",
      "blockHash": "0x1ecc8f2ebfc1f443ccfbae1d7fe83e7975cad54de824c85341a6aa5bd7051e3d",
      "blockNumber": "0x2b0a46c",
      "gasUsed": "0x30bcc",
      "effectiveGasPrice": "0x2",
      "from": "0x1b150538e943f00127929f7eeb65754f7beb0b6d",
      "to": "0x6b1c656ad724c246049ef586fa35d217a8db13a0",
      "contractAddress": null
    },
    {
      "status": "0x1",
      "cumulativeGasUsed": "0x7836c",
      "logs": [
        {
          "address": "0x6b1c656ad724c246049ef586fa35d217a8db13a0",
          "topics": [
            "0x01b41cbd4bbcc3c5b968a04d3fbdd8c1648a39ff6d9a3929b4840cea1142bc65",
            "0x6b3e37031279e4f56e28b9f2f16f20148f788d652a18f694a1bcfa5bf76e8e99",
            "0xb13c1b480862f60929e6797e1ae0da6182cd7e88e202272e755fbe1ccbefd106",
            "0x00000000000000000000000000000000000000000000000000000000000003e8"
          ],
          "data": "0x",
          "blockHash": "0x1ecc8f2ebfc1f443ccfbae1d7fe83e7975cad54de824c85341a6aa5bd7051e3d",
          "blockNumber": "0x2b0a46c",
          "transactionHash": "0x645ef99c41b0b34f231093387653e35e9622e6d9ba5485e62aa1133333586eb4",
          "transactionIndex": "0x5",
          "logIndex": "0x3",
          "removed": false
        },
        {
          "address": "0xeffc83ac0da8ec6c91cde640d35efb0d10c2e112",
          "topics": [
            "0xddf252ad1be2c89b69c2b068fc378daa952ba7f163c4a11628f55a4df523b3ef",
            "0x0000000000000000000000001b150538e943f00127929f7eeb65754f7beb0b6d",
            "0x0000000000000000000000006b1c656ad724c246049ef586fa35d217a8db13a0"
          ],
          "data": "0x00000000000000000000000000000000000000000000000000000000000003e8",
          "blockHash": "0x1ecc8f2ebfc1f443ccfbae1d7fe83e7975cad54de824c85341a6aa5bd7051e3d",
          "blockNumber": "0x2b0a46c",
          "transactionHash": "0x645ef99c41b0b34f231093387653e35e9622e6d9ba5485e62aa1133333586eb4",
          "transactionIndex": "0x5",
          "logIndex": "0x4",
          "removed": false
        }
      ],
      "logsBloom": "0x00000000000000000000000020000000000000000000000000000000000000008000000000000000000000000000000000000000000000000000000000000000000000000000000000000108040000000000000000000000000400000000000000020800000100000000000000000000000000000000000000000010000000000000000200000000000000080000000000000000000040000000000000000800000000000000000000000000000000008000000000000000000000000000000000008002000000020000000000000000001000200008000000000000000004100000000000000080000100000000800000000000000080000000000000000000",
      "type": "0x2",
      "transactionHash": "0x645ef99c41b0b34f231093387653e35e9622e6d9ba5485e62aa1133333586eb4",
      "transactionIndex": "0x5",
      "blockHash": "0x1ecc8f2ebfc1f443ccfbae1d7fe83e7975cad54de824c85341a6aa5bd7051e3d",
      "blockNumber": "0x2b0a46c",
      "gasUsed": "0x2c900",
      "effectiveGasPrice": "0x2",
      "from": "0x1b150538e943f00127929f7eeb65754f7beb0b6d",
      "to": "0x6b1c656ad724c246049ef586fa35d217a8db13a0",
      "contractAddress": null
    },
    {
      "status": "0x1",
      "cumulativeGasUsed": "0xa4c6c",
      "logs": [
        {
          "address": "0x6b1c656ad724c246049ef586fa35d217a8db13a0",
          "topics": [
            "0x01b41cbd4bbcc3c5b968a04d3fbdd8c1648a39ff6d9a3929b4840cea1142bc65",
            "0xe06296cdfb71116ce19a4e5f6db9830c59af1fe2efcb75cfc06314eda299f107",
            "0x3a580c46f7ce35ca329ee6cb504ecfdcbb68581135605d3ae98426cff1993135",
            "0x00000000000000000000000000000000000000000000000000000000000003e8"
          ],
          "data": "0x",
          "blockHash": "0x1ecc8f2ebfc1f443ccfbae1d7fe83e7975cad54de824c85341a6aa5bd7051e3d",
          "blockNumber": "0x2b0a46c",
          "transactionHash": "0x1e36effeb437356fd4e1b67643641ffe7ed34c893e04ab3b3f9ff268ed98b7a6",
          "transactionIndex": "0x6",
          "logIndex": "0x5",
          "removed": false
        },
        {
          "address": "0xeffc83ac0da8ec6c91cde640d35efb0d10c2e112",
          "topics": [
            "0xddf252ad1be2c89b69c2b068fc378daa952ba7f163c4a11628f55a4df523b3ef",
            "0x0000000000000000000000001b150538e943f00127929f7eeb65754f7beb0b6d",
            "0x0000000000000000000000006b1c656ad724c246049ef586fa35d217a8db13a0"
          ],
          "data": "0x00000000000000000000000000000000000000000000000000000000000003e8",
          "blockHash": "0x1ecc8f2ebfc1f443ccfbae1d7fe83e7975cad54de824c85341a6aa5bd7051e3d",
          "blockNumber": "0x2b0a46c",
          "transactionHash": "0x1e36effeb437356fd4e1b67643641ffe7ed34c893e04ab3b3f9ff268ed98b7a6",
          "transactionIndex": "0x6",
          "logIndex": "0x6",
          "removed": false
        }
      ],
      "logsBloom": "0x00000000000000000000000020000000000000000000000000000000000000000000000000000000000000000000000000000000000000000000000000000000000000000000000000000008040000000000000000000000000400000000000000000800000100000000000000000000000000000000000000000010000000000000000200000000000000080400000000000000000040000000000000000800000000400000000000000000000000008000000000000000000001000000000000008002000010020000000000000000041000200000000000000000001004100000000000000000000100000000000000000000000080000000000000000000",
      "type": "0x2",
      "transactionHash": "0x1e36effeb437356fd4e1b67643641ffe7ed34c893e04ab3b3f9ff268ed98b7a6",
      "transactionIndex": "0x6",
      "blockHash": "0x1ecc8f2ebfc1f443ccfbae1d7fe83e7975cad54de824c85341a6aa5bd7051e3d",
      "blockNumber": "0x2b0a46c",
      "gasUsed": "0x2c900",
      "effectiveGasPrice": "0x2",
      "from": "0x1b150538e943f00127929f7eeb65754f7beb0b6d",
      "to": "0x6b1c656ad724c246049ef586fa35d217a8db13a0",
      "contractAddress": null
    },
    {
      "status": "0x1",
      "cumulativeGasUsed": "0xd156c",
      "logs": [
        {
          "address": "0x6b1c656ad724c246049ef586fa35d217a8db13a0",
          "topics": [
            "0x01b41cbd4bbcc3c5b968a04d3fbdd8c1648a39ff6d9a3929b4840cea1142bc65",
            "0x6da680a4cb51202df1b73976223ae9522490b97f518002db97c2e89c71db14ac",
            "0xb3ee70995431b364c44e15f06c5f8dcb13dae58b0a164ac9499691a7bf7f1d45",
            "0x00000000000000000000000000000000000000000000000000000000000003e8"
          ],
          "data": "0x",
          "blockHash": "0x1ecc8f2ebfc1f443ccfbae1d7fe83e7975cad54de824c85341a6aa5bd7051e3d",
          "blockNumber": "0x2b0a46c",
          "transactionHash": "0x87de7225627cdb3a4c68c3eb30912ba3d5180dd0d71b25409a089a7b7b87a1a5",
          "transactionIndex": "0x7",
          "logIndex": "0x7",
          "removed": false
        },
        {
          "address": "0xeffc83ac0da8ec6c91cde640d35efb0d10c2e112",
          "topics": [
            "0xddf252ad1be2c89b69c2b068fc378daa952ba7f163c4a11628f55a4df523b3ef",
            "0x0000000000000000000000001b150538e943f00127929f7eeb65754f7beb0b6d",
            "0x0000000000000000000000006b1c656ad724c246049ef586fa35d217a8db13a0"
          ],
          "data": "0x00000000000000000000000000000000000000000000000000000000000003e8",
          "blockHash": "0x1ecc8f2ebfc1f443ccfbae1d7fe83e7975cad54de824c85341a6aa5bd7051e3d",
          "blockNumber": "0x2b0a46c",
          "transactionHash": "0x87de7225627cdb3a4c68c3eb30912ba3d5180dd0d71b25409a089a7b7b87a1a5",
          "transactionIndex": "0x7",
          "logIndex": "0x8",
          "removed": false
        }
      ],
      "logsBloom": "0x00000000000000000000000020000000000000000000000000000200000000000000000000000000000000000000000000000000000000000000000000000000000000000000000000000008040000000000000000000000000400000000000000000800000100000000000000000000000000000000000000000010000000000000000200000000000000080000000000000000040040000000000000000800000000000010000000000000000000008000000000000000000000000000000000008002000000020000000000000000001000200000000000000000000004100000000000000000000100000000000100000000000080400100000000000000",
      "type": "0x2",
      "transactionHash": "0x87de7225627cdb3a4c68c3eb30912ba3d5180dd0d71b25409a089a7b7b87a1a5",
      "transactionIndex": "0x7",
      "blockHash": "0x1ecc8f2ebfc1f443ccfbae1d7fe83e7975cad54de824c85341a6aa5bd7051e3d",
      "blockNumber": "0x2b0a46c",
      "gasUsed": "0x2c900",
      "effectiveGasPrice": "0x2",
      "from": "0x1b150538e943f00127929f7eeb65754f7beb0b6d",
      "to": "0x6b1c656ad724c246049ef586fa35d217a8db13a0",
      "contractAddress": null
    },
    {
      "status": "0x1",
      "cumulativeGasUsed": "0xfde60",
      "logs": [
        {
          "address": "0x6b1c656ad724c246049ef586fa35d217a8db13a0",
          "topics": [
            "0x01b41cbd4bbcc3c5b968a04d3fbdd8c1648a39ff6d9a3929b4840cea1142bc65",
            "0x56992dbbc97ae4e979b3db05d3976baef40c779b2bdf9cbbcb3905d48592b37a",
            "0xedfbc5f8927982c09100f95635df01f83c5dc4e12da7fb72af4e3c076394e347",
            "0x00000000000000000000000000000000000000000000000000000000000003e8"
          ],
          "data": "0x",
          "blockHash": "0x1ecc8f2ebfc1f443ccfbae1d7fe83e7975cad54de824c85341a6aa5bd7051e3d",
          "blockNumber": "0x2b0a46c",
          "transactionHash": "0xa495b50a1a7bfffa5b119548d3a37799a7a542ff0b1a85753f81c291416efd31",
          "transactionIndex": "0x8",
          "logIndex": "0x9",
          "removed": false
        },
        {
          "address": "0xeffc83ac0da8ec6c91cde640d35efb0d10c2e112",
          "topics": [
            "0xddf252ad1be2c89b69c2b068fc378daa952ba7f163c4a11628f55a4df523b3ef",
            "0x0000000000000000000000001b150538e943f00127929f7eeb65754f7beb0b6d",
            "0x0000000000000000000000006b1c656ad724c246049ef586fa35d217a8db13a0"
          ],
          "data": "0x00000000000000000000000000000000000000000000000000000000000003e8",
          "blockHash": "0x1ecc8f2ebfc1f443ccfbae1d7fe83e7975cad54de824c85341a6aa5bd7051e3d",
          "blockNumber": "0x2b0a46c",
          "transactionHash": "0xa495b50a1a7bfffa5b119548d3a37799a7a542ff0b1a85753f81c291416efd31",
          "transactionIndex": "0x8",
          "logIndex": "0xa",
          "removed": false
        }
      ],
      "logsBloom": "0x00000000000000000000000020000000001000000000000000000000000000000000000000000000000000000000000000000000000001000000000000004000000000000000000000000008040000008000000000000000000400000000000000000800000100000000000000000000000000000000000000000010000000000000000200000000000000080000000000000000000040000000000000000800000000000000000000000000000000008000000000000000000000000000000000008002000000020000000000000000801000200000000000000000000004100000000000000000000100000000000000000000000180000000000000000000",
      "type": "0x2",
      "transactionHash": "0xa495b50a1a7bfffa5b119548d3a37799a7a542ff0b1a85753f81c291416efd31",
      "transactionIndex": "0x8",
      "blockHash": "0x1ecc8f2ebfc1f443ccfbae1d7fe83e7975cad54de824c85341a6aa5bd7051e3d",
      "blockNumber": "0x2b0a46c",
      "gasUsed": "0x2c8f4",
      "effectiveGasPrice": "0x2",
      "from": "0x1b150538e943f00127929f7eeb65754f7beb0b6d",
      "to": "0x6b1c656ad724c246049ef586fa35d217a8db13a0",
      "contractAddress": null
    },
    {
      "status": "0x1",
      "cumulativeGasUsed": "0x12a760",
      "logs": [
        {
          "address": "0x6b1c656ad724c246049ef586fa35d217a8db13a0",
          "topics": [
            "0x01b41cbd4bbcc3c5b968a04d3fbdd8c1648a39ff6d9a3929b4840cea1142bc65",
            "0x01c950e591dbbc013d52982c4ae98c21a9c09a4f7a9af9f4a2adaa232ebd42ef",
            "0x10a4c0bf95f18b7a3ed9c97cc3637df45757a8bb92d361817728dc61d9582ce8",
            "0x00000000000000000000000000000000000000000000000000000000000003e8"
          ],
          "data": "0x",
          "blockHash": "0x1ecc8f2ebfc1f443ccfbae1d7fe83e7975cad54de824c85341a6aa5bd7051e3d",
          "blockNumber": "0x2b0a46c",
          "transactionHash": "0xbcfe0c378a1e8ebb274812a3e04003a7e4a4cf029312ec12ac805043ed34af40",
          "transactionIndex": "0x9",
          "logIndex": "0xb",
          "removed": false
        },
        {
          "address": "0xeffc83ac0da8ec6c91cde640d35efb0d10c2e112",
          "topics": [
            "0xddf252ad1be2c89b69c2b068fc378daa952ba7f163c4a11628f55a4df523b3ef",
            "0x0000000000000000000000001b150538e943f00127929f7eeb65754f7beb0b6d",
            "0x0000000000000000000000006b1c656ad724c246049ef586fa35d217a8db13a0"
          ],
          "data": "0x00000000000000000000000000000000000000000000000000000000000003e8",
          "blockHash": "0x1ecc8f2ebfc1f443ccfbae1d7fe83e7975cad54de824c85341a6aa5bd7051e3d",
          "blockNumber": "0x2b0a46c",
          "transactionHash": "0xbcfe0c378a1e8ebb274812a3e04003a7e4a4cf029312ec12ac805043ed34af40",
          "transactionIndex": "0x9",
          "logIndex": "0xc",
          "removed": false
        }
      ],
      "logsBloom": "0x00000000000000000000000020000000000000000000000000000000000000000000000000000000000000000000000000000000000000400000000000000000000000000000000000000008060000000000000000000000000400000000000000000800000100000000000000000000000000000000000000000010000000000000000200000000000000080000000000000000020040000000000000000800000080000000000000080000000000008000000000000000000000000000000000008002000000020000000000000000001100200000000000000000000004100000000000000000000100000000000000000000000080000000000000000000",
      "type": "0x2",
      "transactionHash": "0xbcfe0c378a1e8ebb274812a3e04003a7e4a4cf029312ec12ac805043ed34af40",
      "transactionIndex": "0x9",
      "blockHash": "0x1ecc8f2ebfc1f443ccfbae1d7fe83e7975cad54de824c85341a6aa5bd7051e3d",
      "blockNumber": "0x2b0a46c",
      "gasUsed": "0x2c900",
      "effectiveGasPrice": "0x2",
      "from": "0x1b150538e943f00127929f7eeb65754f7beb0b6d",
      "to": "0x6b1c656ad724c246049ef586fa35d217a8db13a0",
      "contractAddress": null
    },
    {
      "status": "0x1",
      "cumulativeGasUsed": "0x15c268",
      "logs": [
        {
          "address": "0x6b1c656ad724c246049ef586fa35d217a8db13a0",
          "topics": [
            "0x01b41cbd4bbcc3c5b968a04d3fbdd8c1648a39ff6d9a3929b4840cea1142bc65",
            "0x4a6f6ee58e357c31db6b88266aea1b07b330f2ce51d6d8217ff849a211dd678f",
            "0xe3e65697af2cdcf1ecc7c6d2a23a08060f7a8dba54edc873bb813bddbea7212c",
            "0x00000000000000000000000000000000000000000000000000000000000003e8"
          ],
          "data": "0x",
          "blockHash": "0x1ecc8f2ebfc1f443ccfbae1d7fe83e7975cad54de824c85341a6aa5bd7051e3d",
          "blockNumber": "0x2b0a46c",
          "transactionHash": "0xb8e2f9a059b81a16a5cb05a4f6a136f4a5206e700290f61b4d43b9964b804eb4",
          "transactionIndex": "0xb",
          "logIndex": "0xd",
          "removed": false
        },
        {
          "address": "0xeffc83ac0da8ec6c91cde640d35efb0d10c2e112",
          "topics": [
            "0xddf252ad1be2c89b69c2b068fc378daa952ba7f163c4a11628f55a4df523b3ef",
            "0x0000000000000000000000001b150538e943f00127929f7eeb65754f7beb0b6d",
            "0x0000000000000000000000006b1c656ad724c246049ef586fa35d217a8db13a0"
          ],
          "data": "0x00000000000000000000000000000000000000000000000000000000000003e8",
          "blockHash": "0x1ecc8f2ebfc1f443ccfbae1d7fe83e7975cad54de824c85341a6aa5bd7051e3d",
          "blockNumber": "0x2b0a46c",
          "transactionHash": "0xb8e2f9a059b81a16a5cb05a4f6a136f4a5206e700290f61b4d43b9964b804eb4",
          "transactionIndex": "0xb",
          "logIndex": "0xe",
          "removed": false
        }
      ],
      "logsBloom": "0x00000000000000000000000020000000004000000000000000000000000000000000000000000000000000000000000000000000000000000200000000000000000000000000000000000008040000000000000000000000000400000000000000000800000100000000000000000000000008000000000000000010000000000000000200000000000000080000000000000000000040000000000000000800000000000000000000000000000000008000000040000000000000000000000000008002000000020000000000000000001000200040002000000000000004100000000000000000000100000000000000000000000080000000000000000000",
      "type": "0x2",
      "transactionHash": "0xb8e2f9a059b81a16a5cb05a4f6a136f4a5206e700290f61b4d43b9964b804eb4",
      "transactionIndex": "0xb",
      "blockHash": "0x1ecc8f2ebfc1f443ccfbae1d7fe83e7975cad54de824c85341a6aa5bd7051e3d",
      "blockNumber": "0x2b0a46c",
      "gasUsed": "0x2c900",
      "effectiveGasPrice": "0x2",
      "from": "0x1b150538e943f00127929f7eeb65754f7beb0b6d",
      "to": "0x6b1c656ad724c246049ef586fa35d217a8db13a0",
      "contractAddress": null
    },
    {
      "status": "0x1",
      "cumulativeGasUsed": "0x188b68",
      "logs": [
        {
          "address": "0x6b1c656ad724c246049ef586fa35d217a8db13a0",
          "topics": [
            "0x01b41cbd4bbcc3c5b968a04d3fbdd8c1648a39ff6d9a3929b4840cea1142bc65",
            "0xf3cd9bb6ed8dff5c3cf3b0cf9faa7726a52a9f4e15a37cb80e058cf8017d2b9e",
            "0xfd2df458ba68c938bc181e1744ac2dfe0b85d95f299d18d9a511220b243ae1ca",
            "0x00000000000000000000000000000000000000000000000000000000000003e8"
          ],
          "data": "0x",
          "blockHash": "0x1ecc8f2ebfc1f443ccfbae1d7fe83e7975cad54de824c85341a6aa5bd7051e3d",
          "blockNumber": "0x2b0a46c",
          "transactionHash": "0x29ebf1e44e8ec60f475ccc2fdc000d958e89d820f401db940bc0c614ae7bc04e",
          "transactionIndex": "0xc",
          "logIndex": "0xf",
          "removed": false
        },
        {
          "address": "0xeffc83ac0da8ec6c91cde640d35efb0d10c2e112",
          "topics": [
            "0xddf252ad1be2c89b69c2b068fc378daa952ba7f163c4a11628f55a4df523b3ef",
            "0x0000000000000000000000001b150538e943f00127929f7eeb65754f7beb0b6d",
            "0x0000000000000000000000006b1c656ad724c246049ef586fa35d217a8db13a0"
          ],
          "data": "0x00000000000000000000000000000000000000000000000000000000000003e8",
          "blockHash": "0x1ecc8f2ebfc1f443ccfbae1d7fe83e7975cad54de824c85341a6aa5bd7051e3d",
          "blockNumber": "0x2b0a46c",
          "transactionHash": "0x29ebf1e44e8ec60f475ccc2fdc000d958e89d820f401db940bc0c614ae7bc04e",
          "transactionIndex": "0xc",
          "logIndex": "0x10",
          "removed": false
        }
      ],
      "logsBloom": "0x00000000000000000000000020000000000000000000000000000000000000000000000000000000000000000000000000000000000000000000000000000000000000000000002000000008040000000000088000000000000400000000000000000800000100000080000000000000000000000000000000000010000000000000000200000000000000080000000000000000000040000000000000000800000000000000000004000000000000008000000000000000000000000000000000008002000000020000000000000000001000200000000000800000000004100000000000000000000100000000000000000000000080000000000000000000",
      "type": "0x2",
      "transactionHash": "0x29ebf1e44e8ec60f475ccc2fdc000d958e89d820f401db940bc0c614ae7bc04e",
      "transactionIndex": "0xc",
      "blockHash": "0x1ecc8f2ebfc1f443ccfbae1d7fe83e7975cad54de824c85341a6aa5bd7051e3d",
      "blockNumber": "0x2b0a46c",
      "gasUsed": "0x2c900",
      "effectiveGasPrice": "0x2",
      "from": "0x1b150538e943f00127929f7eeb65754f7beb0b6d",
      "to": "0x6b1c656ad724c246049ef586fa35d217a8db13a0",
      "contractAddress": null
    },
    {
      "status": "0x1",
      "cumulativeGasUsed": "0x1b5468",
      "logs": [
        {
          "address": "0x6b1c656ad724c246049ef586fa35d217a8db13a0",
          "topics": [
            "0x01b41cbd4bbcc3c5b968a04d3fbdd8c1648a39ff6d9a3929b4840cea1142bc65",
            "0x7566b3346d312737417113668a57d761db0d98804e391e053e0598a2ad013cb3",
            "0xef4323601037cb3acd17fb57276ad026a39203dab3f5d4225858d05ce7fe4cfb",
            "0x00000000000000000000000000000000000000000000000000000000000003e8"
          ],
          "data": "0x",
          "blockHash": "0x1ecc8f2ebfc1f443ccfbae1d7fe83e7975cad54de824c85341a6aa5bd7051e3d",
          "blockNumber": "0x2b0a46c",
          "transactionHash": "0x792afc20177f958aba5fafd5f525b7757e99880bd6000839bcc1149c70f8ccea",
          "transactionIndex": "0xd",
          "logIndex": "0x11",
          "removed": false
        },
        {
          "address": "0xeffc83ac0da8ec6c91cde640d35efb0d10c2e112",
          "topics": [
            "0xddf252ad1be2c89b69c2b068fc378daa952ba7f163c4a11628f55a4df523b3ef",
            "0x0000000000000000000000001b150538e943f00127929f7eeb65754f7beb0b6d",
            "0x0000000000000000000000006b1c656ad724c246049ef586fa35d217a8db13a0"
          ],
          "data": "0x00000000000000000000000000000000000000000000000000000000000003e8",
          "blockHash": "0x1ecc8f2ebfc1f443ccfbae1d7fe83e7975cad54de824c85341a6aa5bd7051e3d",
          "blockNumber": "0x2b0a46c",
          "transactionHash": "0x792afc20177f958aba5fafd5f525b7757e99880bd6000839bcc1149c70f8ccea",
          "transactionIndex": "0xd",
          "logIndex": "0x12",
          "removed": false
        }
      ],
      "logsBloom": "0x80000000000000000000000020000000000000000000000000000000000000000000000000000000000000000000000000000000000000000000000000000000000000000040000000000008040000000000400000000000000400000000000000000800080100000000000000000000001000000000000000000010000000000000000200000000000000080000000000000000000040000000000000000800000000000000000000000000000000008000000000000000004000000000000000008002000000020000000000000000001000200000000000000000000004100000000000000000000100000000000000000000000080000000000000000000",
      "type": "0x2",
      "transactionHash": "0x792afc20177f958aba5fafd5f525b7757e99880bd6000839bcc1149c70f8ccea",
      "transactionIndex": "0xd",
      "blockHash": "0x1ecc8f2ebfc1f443ccfbae1d7fe83e7975cad54de824c85341a6aa5bd7051e3d",
      "blockNumber": "0x2b0a46c",
      "gasUsed": "0x2c900",
      "effectiveGasPrice": "0x2",
      "from": "0x1b150538e943f00127929f7eeb65754f7beb0b6d",
      "to": "0x6b1c656ad724c246049ef586fa35d217a8db13a0",
      "contractAddress": null
    },
    {
      "status": "0x1",
      "cumulativeGasUsed": "0x1e1d68",
      "logs": [
        {
          "address": "0x6b1c656ad724c246049ef586fa35d217a8db13a0",
          "topics": [
            "0x01b41cbd4bbcc3c5b968a04d3fbdd8c1648a39ff6d9a3929b4840cea1142bc65",
            "0xbccce578f0b4354c9b9d9bef0eb9d39c71a3eedaf5cc615798e388829395e0df",
            "0x4a9b2b10c976bdff93ab0b237cb03ba9626ee95b8785de92a035bb65ade08bfa",
            "0x00000000000000000000000000000000000000000000000000000000000003e8"
          ],
          "data": "0x",
          "blockHash": "0x1ecc8f2ebfc1f443ccfbae1d7fe83e7975cad54de824c85341a6aa5bd7051e3d",
          "blockNumber": "0x2b0a46c",
          "transactionHash": "0xff02b132775f582fd403bbdcdbe219595429569840e450464e1d499b12f0f5bf",
          "transactionIndex": "0xe",
          "logIndex": "0x13",
          "removed": false
        },
        {
          "address": "0xeffc83ac0da8ec6c91cde640d35efb0d10c2e112",
          "topics": [
            "0xddf252ad1be2c89b69c2b068fc378daa952ba7f163c4a11628f55a4df523b3ef",
            "0x0000000000000000000000001b150538e943f00127929f7eeb65754f7beb0b6d",
            "0x0000000000000000000000006b1c656ad724c246049ef586fa35d217a8db13a0"
          ],
          "data": "0x00000000000000000000000000000000000000000000000000000000000003e8",
          "blockHash": "0x1ecc8f2ebfc1f443ccfbae1d7fe83e7975cad54de824c85341a6aa5bd7051e3d",
          "blockNumber": "0x2b0a46c",
          "transactionHash": "0xff02b132775f582fd403bbdcdbe219595429569840e450464e1d499b12f0f5bf",
          "transactionIndex": "0xe",
          "logIndex": "0x14",
          "removed": false
        }
      ],
      "logsBloom": "0x0000000000000000000000002000000000000000000000000000000000000000000000000000000000000000000000000000000000000000000000000000000000000000000000000000000804000000000000000000000000040000000001000000080001010000000000000000000000800000000000000000001000000000000000020000000000000008000000000000000000004000000000000000080000000000000000000000080000000000800000000000000000000000000000000000a002000000020000000000000000001000200000000000000000000004100000000000000000000100000000000000000002000080000000000000000000",
      "type": "0x2",
      "transactionHash": "0xff02b132775f582fd403bbdcdbe219595429569840e450464e1d499b12f0f5bf",
      "transactionIndex": "0xe",
      "blockHash": "0x1ecc8f2ebfc1f443ccfbae1d7fe83e7975cad54de824c85341a6aa5bd7051e3d",
      "blockNumber": "0x2b0a46c",
      "gasUsed": "0x2c900",
      "effectiveGasPrice": "0x2",
      "from": "0x1b150538e943f00127929f7eeb65754f7beb0b6d",
      "to": "0x6b1c656ad724c246049ef586fa35d217a8db13a0",
      "contractAddress": null
    }
  ],
  "libraries": [],
  "pending": [],
  "returns": {},
  "timestamp": 1755947844831,
  "chain": 43113,
  "commit": "aa36f6b"
}