{
  "transactions": [
    {
      "hash": "0x0a595898ad7e4ade19f51c881baeb647d23c961c855909d04491c11a40cff8cb",
      "transactionType": "CALL",
      "contractName": null,
      "contractAddress": "0xeffc83ac0da8ec6c91cde640d35efb0d10c2e112",
      "function": "transfer(address,uint256)",
      "arguments": [
        "0x667Ea4A745828D62aAd9ef9d8f974Ad247f27a70",
        "1000"
      ],
      "transaction": {
        "from": "0x1b150538e943f00127929f7eeb65754f7beb0b6d",
        "to": "0xeffc83ac0da8ec6c91cde640d35efb0d10c2e112",
        "gas": "0x10cbc",
        "value": "0x0",
        "input": "0xa9059cbb000000000000000000000000667ea4a745828d62aad9ef9d8f974ad247f27a7000000000000000000000000000000000000000000000000000000000000003e8",
        "nonce": "0xec",
        "chainId": "0x66eee"
      },
      "additionalContracts": [],
      "isFixedGasLimit": false
    },
    {
      "hash": "0x47906e822795d2843ea9d65d880de12936dce2be7687e427e70ad7bbd9fdb59d",
      "transactionType": "CALL",
      "contractName": null,
      "contractAddress": "0x66f20a5fbf43e4b36ac9e2d9de33e8b8cafd3ab7",
      "function": "createERC20SwapAddress(address,address,address,uint256,uint256,bytes32)",
      "arguments": [
        "0xeffc83AC0Da8EC6C91CDe640d35eFB0D10c2E112",
        "0x000000000000000000000000000000000000007B",
        "0x00000000000000000000000000000000000000e7",
        "100",
        "1000",
        "0x4a9b2b10c976bdff93ab0b237cb03ba9626ee95b8785de92a035bb65ade08bfa"
      ],
      "transaction": {
        "from": "0x1b150538e943f00127929f7eeb65754f7beb0b6d",
        "to": "0x66f20a5fbf43e4b36ac9e2d9de33e8b8cafd3ab7",
        "gas": "0x6c94e",
        "value": "0x0",
        "input": "0xda65e516000000000000000000000000effc83ac0da8ec6c91cde640d35efb0d10c2e112000000000000000000000000000000000000000000000000000000000000007b00000000000000000000000000000000000000000000000000000000000000e7000000000000000000000000000000000000000000000000000000000000006400000000000000000000000000000000000000000000000000000000000003e84a9b2b10c976bdff93ab0b237cb03ba9626ee95b8785de92a035bb65ade08bfa",
        "nonce": "0xed",
        "chainId": "0x66eee"
      },
      "additionalContracts": [
        {
          "transactionType": "CREATE2",
          "contractName": null,
          "address": "0x667ea4a745828d62aad9ef9d8f974ad247f27a70",
          "initCode": "0x61010d3d81600a3d39f3363d3d373d3d3d363d7369c8598202017476c5a423acbc612fc93de6887b5af43d82803e903d91602b57fd5bf30000000000000000000000006b1c656ad724c246049ef586fa35d217a8db13a0000000000000000000000000effc83ac0da8ec6c91cde640d35efb0d10c2e112000000000000000000000000000000000000000000000000000000000000007b00000000000000000000000000000000000000000000000000000000000000e700000000000000000000000000000000000000000000000000000000000000644a9b2b10c976bdff93ab0b237cb03ba9626ee95b8785de92a035bb65ade08bfa00000000000000000000000000000000000000000000000000000000000003e8"
        }
      ],
      "isFixedGasLimit": false
    },
    {
      "hash": "0x59b007d6f526ee258eaee6640acf694532cc0f295ca4997f4f19848f0d6d87ed",
      "transactionType": "CALL",
      "contractName": null,
      "contractAddress": "0xeffc83ac0da8ec6c91cde640d35efb0d10c2e112",
      "function": "transfer(address,uint256)",
      "arguments": [
        "0xD238c5aD6F0A863c14a61017F85B0c50529eae3f",
        "1000"
      ],
      "transaction": {
        "from": "0x1b150538e943f00127929f7eeb65754f7beb0b6d",
        "to": "0xeffc83ac0da8ec6c91cde640d35efb0d10c2e112",
        "gas": "0x10cbc",
        "value": "0x0",
        "input": "0xa9059cbb000000000000000000000000d238c5ad6f0a863c14a61017f85b0c50529eae3f00000000000000000000000000000000000000000000000000000000000003e8",
        "nonce": "0xee",
        "chainId": "0x66eee"
      },
      "additionalContracts": [],
      "isFixedGasLimit": false
    },
    {
      "hash": "0xb7607990cc12c3a8aaa00258b155ff2727dc0842c57365c1ac17db6278a7e554",
      "transactionType": "CALL",
      "contractName": null,
      "contractAddress": "0x66f20a5fbf43e4b36ac9e2d9de33e8b8cafd3ab7",
      "function": "createERC20SwapAddress(address,address,address,uint256,uint256,bytes32)",
      "arguments": [
        "0xeffc83AC0Da8EC6C91CDe640d35eFB0D10c2E112",
        "0x000000000000000000000000000000000000007B",
        "0x00000000000000000000000000000000000000e7",
        "100",
        "1000",
        "0x12506fb588df7eaa74dbbf3b9c861a834489953ff1022d00d25863ccce6e0afb"
      ],
      "transaction": {
        "from": "0x1b150538e943f00127929f7eeb65754f7beb0b6d",
        "to": "0x66f20a5fbf43e4b36ac9e2d9de33e8b8cafd3ab7",
        "gas": "0x6c93d",
        "value": "0x0",
        "input": "0xda65e516000000000000000000000000effc83ac0da8ec6c91cde640d35efb0d10c2e112000000000000000000000000000000000000000000000000000000000000007b00000000000000000000000000000000000000000000000000000000000000e7000000000000000000000000000000000000000000000000000000000000006400000000000000000000000000000000000000000000000000000000000003e812506fb588df7eaa74dbbf3b9c861a834489953ff1022d00d25863ccce6e0afb",
        "nonce": "0xef",
        "chainId": "0x66eee"
      },
      "additionalContracts": [
        {
          "transactionType": "CREATE2",
          "contractName": null,
          "address": "0xd238c5ad6f0a863c14a61017f85b0c50529eae3f",
          "initCode": "0x61010d3d81600a3d39f3363d3d373d3d3d363d7369c8598202017476c5a423acbc612fc93de6887b5af43d82803e903d91602b57fd5bf30000000000000000000000006b1c656ad724c246049ef586fa35d217a8db13a0000000000000000000000000effc83ac0da8ec6c91cde640d35efb0d10c2e112000000000000000000000000000000000000000000000000000000000000007b00000000000000000000000000000000000000000000000000000000000000e7000000000000000000000000000000000000000000000000000000000000006412506fb588df7eaa74dbbf3b9c861a834489953ff1022d00d25863ccce6e0afb00000000000000000000000000000000000000000000000000000000000003e8"
        }
      ],
      "isFixedGasLimit": false
    },
    {
      "hash": "0x1751e7847cf24d0ca6992a09dcf15c529aa2d590be120b1cc79a22bf41a1d359",
      "transactionType": "CALL",
      "contractName": null,
      "contractAddress": "0xeffc83ac0da8ec6c91cde640d35efb0d10c2e112",
      "function": "transfer(address,uint256)",
      "arguments": [
        "0x202D7D2cbc96B24cd1290a29B530D146Df3B5a2F",
        "1000"
      ],
      "transaction": {
        "from": "0x1b150538e943f00127929f7eeb65754f7beb0b6d",
        "to": "0xeffc83ac0da8ec6c91cde640d35efb0d10c2e112",
        "gas": "0x10cbc",
        "value": "0x0",
        "input": "0xa9059cbb000000000000000000000000202d7d2cbc96b24cd1290a29b530d146df3b5a2f00000000000000000000000000000000000000000000000000000000000003e8",
        "nonce": "0xf0",
        "chainId": "0x66eee"
      },
      "additionalContracts": [],
      "isFixedGasLimit": false
    },
    {
      "hash": "0x06a152ce49d653d188176f6ea2d46c9f519849fe118f771c33b4d04d27bbb2ed",
      "transactionType": "CALL",
      "contractName": null,
      "contractAddress": "0x66f20a5fbf43e4b36ac9e2d9de33e8b8cafd3ab7",
      "function": "createERC20SwapAddress(address,address,address,uint256,uint256,bytes32)",
      "arguments": [
        "0xeffc83AC0Da8EC6C91CDe640d35eFB0D10c2E112",
        "0x000000000000000000000000000000000000007B",
        "0x00000000000000000000000000000000000000e7",
        "100",
        "1000",
        "0xd1df26f75315a3c9285668d3079f8fd02322af7b0aa7ac5c8152c55765213ac7"
      ],
      "transaction": {
        "from": "0x1b150538e943f00127929f7eeb65754f7beb0b6d",
        "to": "0x66f20a5fbf43e4b36ac9e2d9de33e8b8cafd3ab7",
        "gas": "0x6c94e",
        "value": "0x0",
        "input": "0xda65e516000000000000000000000000effc83ac0da8ec6c91cde640d35efb0d10c2e112000000000000000000000000000000000000000000000000000000000000007b00000000000000000000000000000000000000000000000000000000000000e7000000000000000000000000000000000000000000000000000000000000006400000000000000000000000000000000000000000000000000000000000003e8d1df26f75315a3c9285668d3079f8fd02322af7b0aa7ac5c8152c55765213ac7",
        "nonce": "0xf1",
        "chainId": "0x66eee"
      },
      "additionalContracts": [
        {
          "transactionType": "CREATE2",
          "contractName": null,
          "address": "0x202d7d2cbc96b24cd1290a29b530d146df3b5a2f",
          "initCode": "0x61010d3d81600a3d39f3363d3d373d3d3d363d7369c8598202017476c5a423acbc612fc93de6887b5af43d82803e903d91602b57fd5bf30000000000000000000000006b1c656ad724c246049ef586fa35d217a8db13a0000000000000000000000000effc83ac0da8ec6c91cde640d35efb0d10c2e112000000000000000000000000000000000000000000000000000000000000007b00000000000000000000000000000000000000000000000000000000000000e70000000000000000000000000000000000000000000000000000000000000064d1df26f75315a3c9285668d3079f8fd02322af7b0aa7ac5c8152c55765213ac700000000000000000000000000000000000000000000000000000000000003e8"
        }
      ],
      "isFixedGasLimit": false
    },
    {
      "hash": "0xad983d55ff2f6d69f5db5e67e025333ed2aca8708d3e3fe0eeb491204a56acc2",
      "transactionType": "CALL",
      "contractName": null,
      "contractAddress": "0xeffc83ac0da8ec6c91cde640d35efb0d10c2e112",
      "function": "transfer(address,uint256)",
      "arguments": [
        "0x27b1de2Ec2d921Dd091E62d3C66f3dfFC1E09cD4",
        "1000"
      ],
      "transaction": {
        "from": "0x1b150538e943f00127929f7eeb65754f7beb0b6d",
        "to": "0xeffc83ac0da8ec6c91cde640d35efb0d10c2e112",
        "gas": "0x10cbc",
        "value": "0x0",
        "input": "0xa9059cbb00000000000000000000000027b1de2ec2d921dd091e62d3c66f3dffc1e09cd400000000000000000000000000000000000000000000000000000000000003e8",
        "nonce": "0xf2",
        "chainId": "0x66eee"
      },
      "additionalContracts": [],
      "isFixedGasLimit": false
    },
    {
      "hash": "0x0d7885256775b9b894339dac8c8f0134f5c6a14626530a3a943a174badc76bdb",
      "transactionType": "CALL",
      "contractName": null,
      "contractAddress": "0x66f20a5fbf43e4b36ac9e2d9de33e8b8cafd3ab7",
      "function": "createERC20SwapAddress(address,address,address,uint256,uint256,bytes32)",
      "arguments": [
        "0xeffc83AC0Da8EC6C91CDe640d35eFB0D10c2E112",
        "0x000000000000000000000000000000000000007B",
        "0x00000000000000000000000000000000000000e7",
        "100",
        "1000",
        "0x844883995feec6b372e42239da3f0e8098d288ae25fb178fa9e31e43efa7f394"
      ],
      "transaction": {
        "from": "0x1b150538e943f00127929f7eeb65754f7beb0b6d",
        "to": "0x66f20a5fbf43e4b36ac9e2d9de33e8b8cafd3ab7",
        "gas": "0x6c94e",
        "value": "0x0",
        "input": "0xda65e516000000000000000000000000effc83ac0da8ec6c91cde640d35efb0d10c2e112000000000000000000000000000000000000000000000000000000000000007b00000000000000000000000000000000000000000000000000000000000000e7000000000000000000000000000000000000000000000000000000000000006400000000000000000000000000000000000000000000000000000000000003e8844883995feec6b372e42239da3f0e8098d288ae25fb178fa9e31e43efa7f394",
        "nonce": "0xf3",
        "chainId": "0x66eee"
      },
      "additionalContracts": [
        {
          "transactionType": "CREATE2",
          "contractName": null,
          "address": "0x27b1de2ec2d921dd091e62d3c66f3dffc1e09cd4",
          "initCode": "0x61010d3d81600a3d39f3363d3d373d3d3d363d7369c8598202017476c5a423acbc612fc93de6887b5af43d82803e903d91602b57fd5bf30000000000000000000000006b1c656ad724c246049ef586fa35d217a8db13a0000000000000000000000000effc83ac0da8ec6c91cde640d35efb0d10c2e112000000000000000000000000000000000000000000000000000000000000007b00000000000000000000000000000000000000000000000000000000000000e70000000000000000000000000000000000000000000000000000000000000064844883995feec6b372e42239da3f0e8098d288ae25fb178fa9e31e43efa7f39400000000000000000000000000000000000000000000000000000000000003e8"
        }
      ],
      "isFixedGasLimit": false
    },
    {
      "hash": "0x27f4c6b17ed83669575cf2a18179502b5224ffc6a29290cf0a8831212a70e010",
      "transactionType": "CALL",
      "contractName": null,
      "contractAddress": "0xeffc83ac0da8ec6c91cde640d35efb0d10c2e112",
      "function": "transfer(address,uint256)",
      "arguments": [
        "0x0EF60A43ad9DB8f3A8a7191956085842BB972097",
        "1000"
      ],
      "transaction": {
        "from": "0x1b150538e943f00127929f7eeb65754f7beb0b6d",
        "to": "0xeffc83ac0da8ec6c91cde640d35efb0d10c2e112",
        "gas": "0x10cbc",
        "value": "0x0",
        "input": "0xa9059cbb0000000000000000000000000ef60a43ad9db8f3a8a7191956085842bb97209700000000000000000000000000000000000000000000000000000000000003e8",
        "nonce": "0xf4",
        "chainId": "0x66eee"
      },
      "additionalContracts": [],
      "isFixedGasLimit": false
    },
    {
      "hash": "0xe8fd28d76a23b007de52a330be91079204591f134658e9b373416907b87a9b84",
      "transactionType": "CALL",
      "contractName": null,
      "contractAddress": "0x66f20a5fbf43e4b36ac9e2d9de33e8b8cafd3ab7",
      "function": "createERC20SwapAddress(address,address,address,uint256,uint256,bytes32)",
      "arguments": [
        "0xeffc83AC0Da8EC6C91CDe640d35eFB0D10c2E112",
        "0x000000000000000000000000000000000000007B",
        "0x00000000000000000000000000000000000000e7",
        "100",
        "1000",
        "0x2d72cc8dd01d18c767fe1efc060496ca2f64fa9224f5b2cf67b7157e86e459e0"
      ],
      "transaction": {
        "from": "0x1b150538e943f00127929f7eeb65754f7beb0b6d",
        "to": "0x66f20a5fbf43e4b36ac9e2d9de33e8b8cafd3ab7",
        "gas": "0x6c94e",
        "value": "0x0",
        "input": "0xda65e516000000000000000000000000effc83ac0da8ec6c91cde640d35efb0d10c2e112000000000000000000000000000000000000000000000000000000000000007b00000000000000000000000000000000000000000000000000000000000000e7000000000000000000000000000000000000000000000000000000000000006400000000000000000000000000000000000000000000000000000000000003e82d72cc8dd01d18c767fe1efc060496ca2f64fa9224f5b2cf67b7157e86e459e0",
        "nonce": "0xf5",
        "chainId": "0x66eee"
      },
      "additionalContracts": [
        {
          "transactionType": "CREATE2",
          "contractName": null,
          "address": "0x0ef60a43ad9db8f3a8a7191956085842bb972097",
          "initCode": "0x61010d3d81600a3d39f3363d3d373d3d3d363d7369c8598202017476c5a423acbc612fc93de6887b5af43d82803e903d91602b57fd5bf30000000000000000000000006b1c656ad724c246049ef586fa35d217a8db13a0000000000000000000000000effc83ac0da8ec6c91cde640d35efb0d10c2e112000000000000000000000000000000000000000000000000000000000000007b00000000000000000000000000000000000000000000000000000000000000e700000000000000000000000000000000000000000000000000000000000000642d72cc8dd01d18c767fe1efc060496ca2f64fa9224f5b2cf67b7157e86e459e000000000000000000000000000000000000000000000000000000000000003e8"
        }
      ],
      "isFixedGasLimit": false
    },
    {
      "hash": "0x1da35f4c7698b93e86aa45d614ed6c1812f513fe8efe7b877e97d144e4646950",
      "transactionType": "CALL",
      "contractName": null,
      "contractAddress": "0xeffc83ac0da8ec6c91cde640d35efb0d10c2e112",
      "function": "transfer(address,uint256)",
      "arguments": [
        "0xcb5454C952e58D8A71fee03E1312823A2C2C9B37",
        "1000"
      ],
      "transaction": {
        "from": "0x1b150538e943f00127929f7eeb65754f7beb0b6d",
        "to": "0xeffc83ac0da8ec6c91cde640d35efb0d10c2e112",
        "gas": "0x10cbc",
        "value": "0x0",
        "input": "0xa9059cbb000000000000000000000000cb5454c952e58d8a71fee03e1312823a2c2c9b3700000000000000000000000000000000000000000000000000000000000003e8",
        "nonce": "0xf6",
        "chainId": "0x66eee"
      },
      "additionalContracts": [],
      "isFixedGasLimit": false
    },
    {
      "hash": "0x325b58c6ac8c23461f9987f21d5009d630cb87ebbeab8e0ee290fd2fbbb899e6",
      "transactionType": "CALL",
      "contractName": null,
      "contractAddress": "0x66f20a5fbf43e4b36ac9e2d9de33e8b8cafd3ab7",
      "function": "createERC20SwapAddress(address,address,address,uint256,uint256,bytes32)",
      "arguments": [
        "0xeffc83AC0Da8EC6C91CDe640d35eFB0D10c2E112",
        "0x000000000000000000000000000000000000007B",
        "0x00000000000000000000000000000000000000e7",
        "100",
        "1000",
        "0xd381e355e8ba3c30d8e33de124277f0fbe492b307625d222d9f6d0b99a02b7e8"
      ],
      "transaction": {
        "from": "0x1b150538e943f00127929f7eeb65754f7beb0b6d",
        "to": "0x66f20a5fbf43e4b36ac9e2d9de33e8b8cafd3ab7",
        "gas": "0x6c94e",
        "value": "0x0",
        "input": "0xda65e516000000000000000000000000effc83ac0da8ec6c91cde640d35efb0d10c2e112000000000000000000000000000000000000000000000000000000000000007b00000000000000000000000000000000000000000000000000000000000000e7000000000000000000000000000000000000000000000000000000000000006400000000000000000000000000000000000000000000000000000000000003e8d381e355e8ba3c30d8e33de124277f0fbe492b307625d222d9f6d0b99a02b7e8",
        "nonce": "0xf7",
        "chainId": "0x66eee"
      },
      "additionalContracts": [
        {
          "transactionType": "CREATE2",
          "contractName": null,
          "address": "0xcb5454c952e58d8a71fee03e1312823a2c2c9b37",
          "initCode": "0x61010d3d81600a3d39f3363d3d373d3d3d363d7369c8598202017476c5a423acbc612fc93de6887b5af43d82803e903d91602b57fd5bf30000000000000000000000006b1c656ad724c246049ef586fa35d217a8db13a0000000000000000000000000effc83ac0da8ec6c91cde640d35efb0d10c2e112000000000000000000000000000000000000000000000000000000000000007b00000000000000000000000000000000000000000000000000000000000000e70000000000000000000000000000000000000000000000000000000000000064d381e355e8ba3c30d8e33de124277f0fbe492b307625d222d9f6d0b99a02b7e800000000000000000000000000000000000000000000000000000000000003e8"
        }
      ],
      "isFixedGasLimit": false
    },
    {
      "hash": "0x7cfa176c6badf4d0ead23e1c7d043dc4fa218f19cb81bc8779e59a936ed666fa",
      "transactionType": "CALL",
      "contractName": null,
      "contractAddress": "0xeffc83ac0da8ec6c91cde640d35efb0d10c2e112",
      "function": "transfer(address,uint256)",
      "arguments": [
        "0x1DE1eCc38FabA2D11126A053247Fc1f7BAF51254",
        "1000"
      ],
      "transaction": {
        "from": "0x1b150538e943f00127929f7eeb65754f7beb0b6d",
        "to": "0xeffc83ac0da8ec6c91cde640d35efb0d10c2e112",
        "gas": "0x10cbc",
        "value": "0x0",
        "input": "0xa9059cbb0000000000000000000000001de1ecc38faba2d11126a053247fc1f7baf5125400000000000000000000000000000000000000000000000000000000000003e8",
        "nonce": "0xf8",
        "chainId": "0x66eee"
      },
      "additionalContracts": [],
      "isFixedGasLimit": false
    },
    {
      "hash": "0x886a390b1c5f8ea341a575b9a3738b56a6ad51eabe762f33b92566a0d1cecc45",
      "transactionType": "CALL",
      "contractName": null,
      "contractAddress": "0x66f20a5fbf43e4b36ac9e2d9de33e8b8cafd3ab7",
      "function": "createERC20SwapAddress(address,address,address,uint256,uint256,bytes32)",
      "arguments": [
        "0xeffc83AC0Da8EC6C91CDe640d35eFB0D10c2E112",
        "0x000000000000000000000000000000000000007B",
        "0x00000000000000000000000000000000000000e7",
        "100",
        "1000",
        "0xf34ee78f86a4d8b28ce6b43a9ca0021151002be1a23491301847ba166750d24c"
      ],
      "transaction": {
        "from": "0x1b150538e943f00127929f7eeb65754f7beb0b6d",
        "to": "0x66f20a5fbf43e4b36ac9e2d9de33e8b8cafd3ab7",
        "gas": "0x6c93d",
        "value": "0x0",
        "input": "0xda65e516000000000000000000000000effc83ac0da8ec6c91cde640d35efb0d10c2e112000000000000000000000000000000000000000000000000000000000000007b00000000000000000000000000000000000000000000000000000000000000e7000000000000000000000000000000000000000000000000000000000000006400000000000000000000000000000000000000000000000000000000000003e8f34ee78f86a4d8b28ce6b43a9ca0021151002be1a23491301847ba166750d24c",
        "nonce": "0xf9",
        "chainId": "0x66eee"
      },
      "additionalContracts": [
        {
          "transactionType": "CREATE2",
          "contractName": null,
          "address": "0x1de1ecc38faba2d11126a053247fc1f7baf51254",
          "initCode": "0x61010d3d81600a3d39f3363d3d373d3d3d363d7369c8598202017476c5a423acbc612fc93de6887b5af43d82803e903d91602b57fd5bf30000000000000000000000006b1c656ad724c246049ef586fa35d217a8db13a0000000000000000000000000effc83ac0da8ec6c91cde640d35efb0d10c2e112000000000000000000000000000000000000000000000000000000000000007b00000000000000000000000000000000000000000000000000000000000000e70000000000000000000000000000000000000000000000000000000000000064f34ee78f86a4d8b28ce6b43a9ca0021151002be1a23491301847ba166750d24c00000000000000000000000000000000000000000000000000000000000003e8"
        }
      ],
      "isFixedGasLimit": false
    },
    {
      "hash": "0x10c4ddf034178502843550b9e59274e6a0e7ebb713fa13c9f4761055842cbd73",
      "transactionType": "CALL",
      "contractName": null,
      "contractAddress": "0xeffc83ac0da8ec6c91cde640d35efb0d10c2e112",
      "function": "transfer(address,uint256)",
      "arguments": [
        "0x6CD65257046d4bA07fca5738fE93e18d0fF6DaeF",
        "1000"
      ],
      "transaction": {
        "from": "0x1b150538e943f00127929f7eeb65754f7beb0b6d",
        "to": "0xeffc83ac0da8ec6c91cde640d35efb0d10c2e112",
        "gas": "0x10cbc",
        "value": "0x0",
        "input": "0xa9059cbb0000000000000000000000006cd65257046d4ba07fca5738fe93e18d0ff6daef00000000000000000000000000000000000000000000000000000000000003e8",
        "nonce": "0xfa",
        "chainId": "0x66eee"
      },
      "additionalContracts": [],
      "isFixedGasLimit": false
    },
    {
      "hash": "0x0b07be9b3edadfb63d20996532510ea16e54d523afd38a83d0a17137e5ecd499",
      "transactionType": "CALL",
      "contractName": null,
      "contractAddress": "0x66f20a5fbf43e4b36ac9e2d9de33e8b8cafd3ab7",
      "function": "createERC20SwapAddress(address,address,address,uint256,uint256,bytes32)",
      "arguments": [
        "0xeffc83AC0Da8EC6C91CDe640d35eFB0D10c2E112",
        "0x000000000000000000000000000000000000007B",
        "0x00000000000000000000000000000000000000e7",
        "100",
        "1000",
        "0xa956b8bfc8736ef35456d5c5d9df46af2802e155d75c0b38fd153b9bd15b5484"
      ],
      "transaction": {
        "from": "0x1b150538e943f00127929f7eeb65754f7beb0b6d",
        "to": "0x66f20a5fbf43e4b36ac9e2d9de33e8b8cafd3ab7",
        "gas": "0x6c94e",
        "value": "0x0",
        "input": "0xda65e516000000000000000000000000effc83ac0da8ec6c91cde640d35efb0d10c2e112000000000000000000000000000000000000000000000000000000000000007b00000000000000000000000000000000000000000000000000000000000000e7000000000000000000000000000000000000000000000000000000000000006400000000000000000000000000000000000000000000000000000000000003e8a956b8bfc8736ef35456d5c5d9df46af2802e155d75c0b38fd153b9bd15b5484",
        "nonce": "0xfb",
        "chainId": "0x66eee"
      },
      "additionalContracts": [
        {
          "transactionType": "CREATE2",
          "contractName": null,
          "address": "0x6cd65257046d4ba07fca5738fe93e18d0ff6daef",
          "initCode": "0x61010d3d81600a3d39f3363d3d373d3d3d363d7369c8598202017476c5a423acbc612fc93de6887b5af43d82803e903d91602b57fd5bf30000000000000000000000006b1c656ad724c246049ef586fa35d217a8db13a0000000000000000000000000effc83ac0da8ec6c91cde640d35efb0d10c2e112000000000000000000000000000000000000000000000000000000000000007b00000000000000000000000000000000000000000000000000000000000000e70000000000000000000000000000000000000000000000000000000000000064a956b8bfc8736ef35456d5c5d9df46af2802e155d75c0b38fd153b9bd15b548400000000000000000000000000000000000000000000000000000000000003e8"
        }
      ],
      "isFixedGasLimit": false
    },
    {
      "hash": "0x595f571e489b023ef24480f909bbc413d17f256b1f4ff28110690ce78a85a044",
      "transactionType": "CALL",
      "contractName": null,
      "contractAddress": "0xeffc83ac0da8ec6c91cde640d35efb0d10c2e112",
      "function": "transfer(address,uint256)",
      "arguments": [
        "0x0c85e9B74B16307a25892D6ABE81fc54dd090FbE",
        "1000"
      ],
      "transaction": {
        "from": "0x1b150538e943f00127929f7eeb65754f7beb0b6d",
        "to": "0xeffc83ac0da8ec6c91cde640d35efb0d10c2e112",
        "gas": "0x10cbc",
        "value": "0x0",
        "input": "0xa9059cbb0000000000000000000000000c85e9b74b16307a25892d6abe81fc54dd090fbe00000000000000000000000000000000000000000000000000000000000003e8",
        "nonce": "0xfc",
        "chainId": "0x66eee"
      },
      "additionalContracts": [],
      "isFixedGasLimit": false
    },
    {
      "hash": "0xe3816a673f29d95252ad3ac964184c2f854baa27c29b0fc19fb67f5d805cb13b",
      "transactionType": "CALL",
      "contractName": null,
      "contractAddress": "0x66f20a5fbf43e4b36ac9e2d9de33e8b8cafd3ab7",
      "function": "createERC20SwapAddress(address,address,address,uint256,uint256,bytes32)",
      "arguments": [
        "0xeffc83AC0Da8EC6C91CDe640d35eFB0D10c2E112",
        "0x000000000000000000000000000000000000007B",
        "0x00000000000000000000000000000000000000e7",
        "100",
        "1000",
        "0x9cffc28aaa59582b0166a70a1631f7feee39373d49fe7fc9859b250949fbf10a"
      ],
      "transaction": {
        "from": "0x1b150538e943f00127929f7eeb65754f7beb0b6d",
        "to": "0x66f20a5fbf43e4b36ac9e2d9de33e8b8cafd3ab7",
        "gas": "0x6c94e",
        "value": "0x0",
        "input": "0xda65e516000000000000000000000000effc83ac0da8ec6c91cde640d35efb0d10c2e112000000000000000000000000000000000000000000000000000000000000007b00000000000000000000000000000000000000000000000000000000000000e7000000000000000000000000000000000000000000000000000000000000006400000000000000000000000000000000000000000000000000000000000003e89cffc28aaa59582b0166a70a1631f7feee39373d49fe7fc9859b250949fbf10a",
        "nonce": "0xfd",
        "chainId": "0x66eee"
      },
      "additionalContracts": [
        {
          "transactionType": "CREATE2",
          "contractName": null,
          "address": "0x0c85e9b74b16307a25892d6abe81fc54dd090fbe",
          "initCode": "0x61010d3d81600a3d39f3363d3d373d3d3d363d7369c8598202017476c5a423acbc612fc93de6887b5af43d82803e903d91602b57fd5bf30000000000000000000000006b1c656ad724c246049ef586fa35d217a8db13a0000000000000000000000000effc83ac0da8ec6c91cde640d35efb0d10c2e112000000000000000000000000000000000000000000000000000000000000007b00000000000000000000000000000000000000000000000000000000000000e700000000000000000000000000000000000000000000000000000000000000649cffc28aaa59582b0166a70a1631f7feee39373d49fe7fc9859b250949fbf10a00000000000000000000000000000000000000000000000000000000000003e8"
        }
      ],
      "isFixedGasLimit": false
    },
    {
      "hash": "0xa89921e2ba546c7432e73b4e16f65a81193114f8c274db1fb6cd5e6830693c47",
      "transactionType": "CALL",
      "contractName": null,
      "contractAddress": "0xeffc83ac0da8ec6c91cde640d35efb0d10c2e112",
      "function": "transfer(address,uint256)",
      "arguments": [
        "0x1B25CE55Db4F7Db741f2bfFCEe3b49EA2B526dE4",
        "1000"
      ],
      "transaction": {
        "from": "0x1b150538e943f00127929f7eeb65754f7beb0b6d",
        "to": "0xeffc83ac0da8ec6c91cde640d35efb0d10c2e112",
        "gas": "0x10cbc",
        "value": "0x0",
        "input": "0xa9059cbb0000000000000000000000001b25ce55db4f7db741f2bffcee3b49ea2b526de400000000000000000000000000000000000000000000000000000000000003e8",
        "nonce": "0xfe",
        "chainId": "0x66eee"
      },
      "additionalContracts": [],
      "isFixedGasLimit": false
    },
    {
      "hash": "0x3e4617116e80024639b45a646de0bb50ae3ac3b91708ec7b4a57ade92e0645cb",
      "transactionType": "CALL",
      "contractName": null,
      "contractAddress": "0x66f20a5fbf43e4b36ac9e2d9de33e8b8cafd3ab7",
      "function": "createERC20SwapAddress(address,address,address,uint256,uint256,bytes32)",
      "arguments": [
        "0xeffc83AC0Da8EC6C91CDe640d35eFB0D10c2E112",
        "0x000000000000000000000000000000000000007B",
        "0x00000000000000000000000000000000000000e7",
        "100",
        "1000",
        "0x19296e95a65a8da76a0410263668bda39c482ca2da444c3c42076b701616619e"
      ],
      "transaction": {
        "from": "0x1b150538e943f00127929f7eeb65754f7beb0b6d",
        "to": "0x66f20a5fbf43e4b36ac9e2d9de33e8b8cafd3ab7",
        "gas": "0x6c94e",
        "value": "0x0",
        "input": "0xda65e516000000000000000000000000effc83ac0da8ec6c91cde640d35efb0d10c2e112000000000000000000000000000000000000000000000000000000000000007b00000000000000000000000000000000000000000000000000000000000000e7000000000000000000000000000000000000000000000000000000000000006400000000000000000000000000000000000000000000000000000000000003e819296e95a65a8da76a0410263668bda39c482ca2da444c3c42076b701616619e",
        "nonce": "0xff",
        "chainId": "0x66eee"
      },
      "additionalContracts": [
        {
          "transactionType": "CREATE2",
          "contractName": null,
          "address": "0x1b25ce55db4f7db741f2bffcee3b49ea2b526de4",
          "initCode": "0x61010d3d81600a3d39f3363d3d373d3d3d363d7369c8598202017476c5a423acbc612fc93de6887b5af43d82803e903d91602b57fd5bf30000000000000000000000006b1c656ad724c246049ef586fa35d217a8db13a0000000000000000000000000effc83ac0da8ec6c91cde640d35efb0d10c2e112000000000000000000000000000000000000000000000000000000000000007b00000000000000000000000000000000000000000000000000000000000000e7000000000000000000000000000000000000000000000000000000000000006419296e95a65a8da76a0410263668bda39c482ca2da444c3c42076b701616619e00000000000000000000000000000000000000000000000000000000000003e8"
        }
      ],
      "isFixedGasLimit": false
    }
  ],
  "receipts": [
    {
      "status": "0x1",
      "cumulativeGasUsed": "0x944cc",
      "logs": [
        {
          "address": "0xeffc83ac0da8ec6c91cde640d35efb0d10c2e112",
          "topics": [
            "0xddf252ad1be2c89b69c2b068fc378daa952ba7f163c4a11628f55a4df523b3ef",
            "0x0000000000000000000000001b150538e943f00127929f7eeb65754f7beb0b6d",
            "0x000000000000000000000000667ea4a745828d62aad9ef9d8f974ad247f27a70"
          ],
          "data": "0x00000000000000000000000000000000000000000000000000000000000003e8",
          "blockHash": "0x995d61a573459d8f54b8ae853ff4b6ddc1bfcd47f4c8e2a439dbfd0a6e5047be",
          "blockNumber": "0xb2317fd",
          "transactionHash": "0x0a595898ad7e4ade19f51c881baeb647d23c961c855909d04491c11a40cff8cb",
          "transactionIndex": "0x6",
          "logIndex": "0x12",
          "removed": false
        }
      ],
      "logsBloom": "0x00000000000000000000000000000000000000000000000000000000000000000000000000000000000000000000000000000000000000000000000000000000000000020000000000000008040000000000000000000000000000000000000000000000000000000000000000000000000000000000000000000010000000000000000000000000000000080000000000000000000000000000000000000800000000000000000000000000000000008000000000000000000000000000000000008002000000000000000000000000000000000000000010000000000004000000000000000000000000000000000000000000000000000000000100000000",
      "type": "0x2",
      "transactionHash": "0x0a595898ad7e4ade19f51c881baeb647d23c961c855909d04491c11a40cff8cb",
      "transactionIndex": "0x6",
      "blockHash": "0x995d61a573459d8f54b8ae853ff4b6ddc1bfcd47f4c8e2a439dbfd0a6e5047be",
      "blockNumber": "0xb2317fd",
      "gasUsed": "0xcba1",
      "effectiveGasPrice": "0x5f5e100",
      "from": "0x1b150538e943f00127929f7eeb65754f7beb0b6d",
      "to": "0xeffc83ac0da8ec6c91cde640d35efb0d10c2e112",
      "contractAddress": null,
      "gasUsedForL1": "0x0",
      "l1BlockNumber": "0x8a09be",
      "timeboosted": false
    },
    {
      "status": "0x1",
      "cumulativeGasUsed": "0x4e9c9",
      "logs": [
        {
          "address": "0x66f20a5fbf43e4b36ac9e2d9de33e8b8cafd3ab7",
          "topics": [
            "0x6a097a8db83fd9aee480dc6251f3cbbfc31c2b0adb9f70410b411de98e92515d",
            "0x000000000000000000000000667ea4a745828d62aad9ef9d8f974ad247f27a70",
            "0x000000000000000000000000000000000000000000000000000000000000007b",
            "0x000000000000000000000000effc83ac0da8ec6c91cde640d35efb0d10c2e112"
          ],
          "data": "0x",
          "blockHash": "0xa56fdd0ad2dc1c138fe464a4d64171f9e1cb9f5ac5e43c808a69912611791a43",
          "blockNumber": "0xb231806",
          "transactionHash": "0x47906e822795d2843ea9d65d880de12936dce2be7687e427e70ad7bbd9fdb59d",
          "transactionIndex": "0x1",
          "logIndex": "0x0",
          "removed": false
        },
        {
          "address": "0xeffc83ac0da8ec6c91cde640d35efb0d10c2e112",
          "topics": [
            "0x8c5be1e5ebec7d5bd14f71427d1e84f3dd0314c0f7b2291e5b200ac8c7c3b925",
            "0x000000000000000000000000667ea4a745828d62aad9ef9d8f974ad247f27a70",
            "0x0000000000000000000000006b1c656ad724c246049ef586fa35d217a8db13a0"
          ],
          "data": "0x00000000000000000000000000000000000000000000000000000000000003e8",
          "blockHash": "0xa56fdd0ad2dc1c138fe464a4d64171f9e1cb9f5ac5e43c808a69912611791a43",
          "blockNumber": "0xb231806",
          "transactionHash": "0x47906e822795d2843ea9d65d880de12936dce2be7687e427e70ad7bbd9fdb59d",
          "transactionIndex": "0x1",
          "logIndex": "0x1",
          "removed": false
        },
        {
          "address": "0x6b1c656ad724c246049ef586fa35d217a8db13a0",
          "topics": [
            "0x01b41cbd4bbcc3c5b968a04d3fbdd8c1648a39ff6d9a3929b4840cea1142bc65",
            "0x0da289fed6fe3b050191f354dfb373235e9305e82102fb30d79369b69390d803",
            "0x4a9b2b10c976bdff93ab0b237cb03ba9626ee95b8785de92a035bb65ade08bfa",
            "0x00000000000000000000000000000000000000000000000000000000000003e8"
          ],
          "data": "0x",
          "blockHash": "0xa56fdd0ad2dc1c138fe464a4d64171f9e1cb9f5ac5e43c808a69912611791a43",
          "blockNumber": "0xb231806",
          "transactionHash": "0x47906e822795d2843ea9d65d880de12936dce2be7687e427e70ad7bbd9fdb59d",
          "transactionIndex": "0x1",
          "logIndex": "0x2",
          "removed": false
        },
        {
          "address": "0xeffc83ac0da8ec6c91cde640d35efb0d10c2e112",
          "topics": [
            "0xddf252ad1be2c89b69c2b068fc378daa952ba7f163c4a11628f55a4df523b3ef",
            "0x000000000000000000000000667ea4a745828d62aad9ef9d8f974ad247f27a70",
            "0x0000000000000000000000006b1c656ad724c246049ef586fa35d217a8db13a0"
          ],
          "data": "0x00000000000000000000000000000000000000000000000000000000000003e8",
          "blockHash": "0xa56fdd0ad2dc1c138fe464a4d64171f9e1cb9f5ac5e43c808a69912611791a43",
          "blockNumber": "0xb231806",
          "transactionHash": "0x47906e822795d2843ea9d65d880de12936dce2be7687e427e70ad7bbd9fdb59d",
          "transactionIndex": "0x1",
          "logIndex": "0x3",
          "removed": false
        },
        {
          "address": "0x667ea4a745828d62aad9ef9d8f974ad247f27a70",
          "topics": [
            "0xc7f505b2f371ae2175ee4913f4499e1f2633a7b5936321eed1cdaeb6115181d2"
          ],
          "data": "0x0000000000000000000000000000000000000000000000000000000000000001",
          "blockHash": "0xa56fdd0ad2dc1c138fe464a4d64171f9e1cb9f5ac5e43c808a69912611791a43",
          "blockNumber": "0xb231806",
          "transactionHash": "0x47906e822795d2843ea9d65d880de12936dce2be7687e427e70ad7bbd9fdb59d",
          "transactionIndex": "0x1",
          "logIndex": "0x4",
          "removed": false
        }
      ],
      "logsBloom": "0x000000000000000000000000200000000000000000000000000000000000000000000004000800000000000000000000000000000000000000000000002000000000000200000000004000080000000000000200000000000014000000080000000008000101000000000000000000000000000000000080000000100000000000200002000000000008000020000000000000000000c0000000000200040800020000040000000000000000001000008000000100000002020000000000000000002002000000020000000200000000003000200004000010000000000004100010000000000000000100000000000000000002000080000000000100000000",
      "type": "0x2",
      "transactionHash": "0x47906e822795d2843ea9d65d880de12936dce2be7687e427e70ad7bbd9fdb59d",
      "transactionIndex": "0x1",
      "blockHash": "0xa56fdd0ad2dc1c138fe464a4d64171f9e1cb9f5ac5e43c808a69912611791a43",
      "blockNumber": "0xb231806",
      "gasUsed": "0x4e9c9",
      "effectiveGasPrice": "0x5f5e100",
      "from": "0x1b150538e943f00127929f7eeb65754f7beb0b6d",
      "to": "0x66f20a5fbf43e4b36ac9e2d9de33e8b8cafd3ab7",
      "contractAddress": null,
      "gasUsedForL1": "0x1",
      "l1BlockNumber": "0x8a09be",
      "timeboosted": false
    },
    {
      "status": "0x1",
      "cumulativeGasUsed": "0x6475a",
      "logs": [
        {
          "address": "0xeffc83ac0da8ec6c91cde640d35efb0d10c2e112",
          "topics": [
            "0xddf252ad1be2c89b69c2b068fc378daa952ba7f163c4a11628f55a4df523b3ef",
            "0x0000000000000000000000001b150538e943f00127929f7eeb65754f7beb0b6d",
            "0x000000000000000000000000d238c5ad6f0a863c14a61017f85b0c50529eae3f"
          ],
          "data": "0x00000000000000000000000000000000000000000000000000000000000003e8",
          "blockHash": "0x8aac3b2be74199a9a18b1021c1e1318ecc27a613779a107426e6df8ea6c0cc02",
          "blockNumber": "0xb23180f",
          "transactionHash": "0x59b007d6f526ee258eaee6640acf694532cc0f295ca4997f4f19848f0d6d87ed",
          "transactionIndex": "0x5",
          "logIndex": "0xc",
          "removed": false
        }
      ],
      "logsBloom": "0x00000000000000000000000000000000000000000000000000000000000000000000000000000000000000000000000000000000000000000000000000000000000000000000000000000008040000000000000000000000000000000000000000000000200000000000000000000000000000000000000000000010000000000000000000000000000000080000000000000000000000000000000000000800000000000000004000000000000000008000000000000000000000000000000000408002000000000000000000000000000000000000000000000000000004000000000000000000000000000000000000000000000000000000000000000000",
      "type": "0x2",
      "transactionHash": "0x59b007d6f526ee258eaee6640acf694532cc0f295ca4997f4f19848f0d6d87ed",
      "transactionIndex": "0x5",
      "blockHash": "0x8aac3b2be74199a9a18b1021c1e1318ecc27a613779a107426e6df8ea6c0cc02",
      "blockNumber": "0xb23180f",
      "gasUsed": "0xcba1",
      "effectiveGasPrice": "0x5f5e100",
      "from": "0x1b150538e943f00127929f7eeb65754f7beb0b6d",
      "to": "0xeffc83ac0da8ec6c91cde640d35efb0d10c2e112",
      "contractAddress": null,
      "gasUsedForL1": "0x0",
      "l1BlockNumber": "0x8a09be",
      "timeboosted": false
    },
    {
      "status": "0x1",
      "cumulativeGasUsed": "0x79e15",
      "logs": [
        {
          "address": "0x66f20a5fbf43e4b36ac9e2d9de33e8b8cafd3ab7",
          "topics": [
            "0x6a097a8db83fd9aee480dc6251f3cbbfc31c2b0adb9f70410b411de98e92515d",
            "0x000000000000000000000000d238c5ad6f0a863c14a61017f85b0c50529eae3f",
            "0x000000000000000000000000000000000000000000000000000000000000007b",
            "0x000000000000000000000000effc83ac0da8ec6c91cde640d35efb0d10c2e112"
          ],
          "data": "0x",
          "blockHash": "0xbaee46c2f4eef2a0aea9b12be6ad0e51ab179ef137bb231bc7b9c6974b97ed44",
          "blockNumber": "0xb231817",
          "transactionHash": "0xb7607990cc12c3a8aaa00258b155ff2727dc0842c57365c1ac17db6278a7e554",
          "transactionIndex": "0x3",
          "logIndex": "0x4",
          "removed": false
        },
        {
          "address": "0xeffc83ac0da8ec6c91cde640d35efb0d10c2e112",
          "topics": [
            "0x8c5be1e5ebec7d5bd14f71427d1e84f3dd0314c0f7b2291e5b200ac8c7c3b925",
            "0x000000000000000000000000d238c5ad6f0a863c14a61017f85b0c50529eae3f",
            "0x0000000000000000000000006b1c656ad724c246049ef586fa35d217a8db13a0"
          ],
          "data": "0x00000000000000000000000000000000000000000000000000000000000003e8",
          "blockHash": "0xbaee46c2f4eef2a0aea9b12be6ad0e51ab179ef137bb231bc7b9c6974b97ed44",
          "blockNumber": "0xb231817",
          "transactionHash": "0xb7607990cc12c3a8aaa00258b155ff2727dc0842c57365c1ac17db6278a7e554",
          "transactionIndex": "0x3",
          "logIndex": "0x5",
          "removed": false
        },
        {
          "address": "0x6b1c656ad724c246049ef586fa35d217a8db13a0",
          "topics": [
            "0x01b41cbd4bbcc3c5b968a04d3fbdd8c1648a39ff6d9a3929b4840cea1142bc65",
            "0x65b972959e1b1a1d665419bd0034f825025df3bc3e57b4321577b1f39a7e706d",
            "0x12506fb588df7eaa74dbbf3b9c861a834489953ff1022d00d25863ccce6e0afb",
            "0x00000000000000000000000000000000000000000000000000000000000003e8"
          ],
          "data": "0x",
          "blockHash": "0xbaee46c2f4eef2a0aea9b12be6ad0e51ab179ef137bb231bc7b9c6974b97ed44",
          "blockNumber": "0xb231817",
          "transactionHash": "0xb7607990cc12c3a8aaa00258b155ff2727dc0842c57365c1ac17db6278a7e554",
          "transactionIndex": "0x3",
          "logIndex": "0x6",
          "removed": false
        },
        {
          "address": "0xeffc83ac0da8ec6c91cde640d35efb0d10c2e112",
          "topics": [
            "0xddf252ad1be2c89b69c2b068fc378daa952ba7f163c4a11628f55a4df523b3ef",
            "0x000000000000000000000000d238c5ad6f0a863c14a61017f85b0c50529eae3f",
            "0x0000000000000000000000006b1c656ad724c246049ef586fa35d217a8db13a0"
          ],
          "data": "0x00000000000000000000000000000000000000000000000000000000000003e8",
          "blockHash": "0xbaee46c2f4eef2a0aea9b12be6ad0e51ab179ef137bb231bc7b9c6974b97ed44",
          "blockNumber": "0xb231817",
          "transactionHash": "0xb7607990cc12c3a8aaa00258b155ff2727dc0842c57365c1ac17db6278a7e554",
          "transactionIndex": "0x3",
          "logIndex": "0x7",
          "removed": false
        },
        {
          "address": "0xd238c5ad6f0a863c14a61017f85b0c50529eae3f",
          "topics": [
            "0xc7f505b2f371ae2175ee4913f4499e1f2633a7b5936321eed1cdaeb6115181d2"
          ],
          "data": "0x0000000000000000000000000000000000000000000000000000000000000001",
          "blockHash": "0xbaee46c2f4eef2a0aea9b12be6ad0e51ab179ef137bb231bc7b9c6974b97ed44",
          "blockNumber": "0xb231817",
          "transactionHash": "0xb7607990cc12c3a8aaa00258b155ff2727dc0842c57365c1ac17db6278a7e554",
          "transactionIndex": "0x3",
          "logIndex": "0x8",
          "removed": false
        }
      ],
      "logsBloom": "0x000000000000000001000000200000000000000000000000000000000000000000000004000800000000000000000000000000000000000000000000002000000000000400000000004400080008000000000200000000000004000000080000000008002001000000000000000000000080000000000080020000100000010000001002000008000008000020000000000000000000c0000000000200000800020000040000004000000000001000008000000000000000000000000000000000400002000000020000000200000000003000200004000000000000000004100010000000000000000100000000000000000000000080000000000000000000",
      "type": "0x2",
      "transactionHash": "0xb7607990cc12c3a8aaa00258b155ff2727dc0842c57365c1ac17db6278a7e554",
      "transactionIndex": "0x3",
      "blockHash": "0xbaee46c2f4eef2a0aea9b12be6ad0e51ab179ef137bb231bc7b9c6974b97ed44",
      "blockNumber": "0xb231817",
      "gasUsed": "0x4e9bd",
      "effectiveGasPrice": "0x5f5e100",
      "from": "0x1b150538e943f00127929f7eeb65754f7beb0b6d",
      "to": "0x66f20a5fbf43e4b36ac9e2d9de33e8b8cafd3ab7",
      "contractAddress": null,
      "gasUsedForL1": "0x1",
      "l1BlockNumber": "0x8a09be",
      "timeboosted": false
    },
    {
      "status": "0x1",
      "cumulativeGasUsed": "0x6d2f4",
      "logs": [
        {
          "address": "0xeffc83ac0da8ec6c91cde640d35efb0d10c2e112",
          "topics": [
            "0xddf252ad1be2c89b69c2b068fc378daa952ba7f163c4a11628f55a4df523b3ef",
            "0x0000000000000000000000001b150538e943f00127929f7eeb65754f7beb0b6d",
            "0x000000000000000000000000202d7d2cbc96b24cd1290a29b530d146df3b5a2f"
          ],
          "data": "0x00000000000000000000000000000000000000000000000000000000000003e8",
          "blockHash": "0x7610104f9676b57a824a2f6e315325aabd9b0413158072a916976d1fb3b420f4",
          "blockNumber": "0xb231821",
          "transactionHash": "0x1751e7847cf24d0ca6992a09dcf15c529aa2d590be120b1cc79a22bf41a1d359",
          "transactionIndex": "0x4",
          "logIndex": "0xc",
          "removed": false
        }
      ],
      "logsBloom": "0x00000000000000000000000000000000000000000000000000000000000000000000000000000000000000000000000000000000000000000000000000000000000000000000000000000008040000000000000000000000000000000000000000000000000000000000000000000000000000000000000000000010004000000000000000000000000000080000000000000000000000000000000002000800000000000000000000000000000000008000000000000000000000000000000000008002000000000000000000000000000000000000000000000000000004000000000000000000000000000000000000000100000000000000000000000000",
      "type": "0x2",
      "transactionHash": "0x1751e7847cf24d0ca6992a09dcf15c529aa2d590be120b1cc79a22bf41a1d359",
      "transactionIndex": "0x4",
      "blockHash": "0x7610104f9676b57a824a2f6e315325aabd9b0413158072a916976d1fb3b420f4",
      "blockNumber": "0xb231821",
      "gasUsed": "0xcba1",
      "effectiveGasPrice": "0x5f5e100",
      "from": "0x1b150538e943f00127929f7eeb65754f7beb0b6d",
      "to": "0xeffc83ac0da8ec6c91cde640d35efb0d10c2e112",
      "contractAddress": null,
      "gasUsedForL1": "0x0",
      "l1BlockNumber": "0x8a09be",
      "timeboosted": false
    },
    {
      "status": "0x1",
      "cumulativeGasUsed": "0xd569e",
      "logs": [
        {
          "address": "0x66f20a5fbf43e4b36ac9e2d9de33e8b8cafd3ab7",
          "topics": [
            "0x6a097a8db83fd9aee480dc6251f3cbbfc31c2b0adb9f70410b411de98e92515d",
            "0x000000000000000000000000202d7d2cbc96b24cd1290a29b530d146df3b5a2f",
            "0x000000000000000000000000000000000000000000000000000000000000007b",
            "0x000000000000000000000000effc83ac0da8ec6c91cde640d35efb0d10c2e112"
          ],
          "data": "0x",
          "blockHash": "0x6a040c1e8fed33c5afc750e023b25b93f87b18743b131fe8f107e60ff45cb20c",
          "blockNumber": "0xb23182d",
          "transactionHash": "0x06a152ce49d653d188176f6ea2d46c9f519849fe118f771c33b4d04d27bbb2ed",
          "transactionIndex": "0x3",
          "logIndex": "0x4",
          "removed": false
        },
        {
          "address": "0xeffc83ac0da8ec6c91cde640d35efb0d10c2e112",
          "topics": [
            "0x8c5be1e5ebec7d5bd14f71427d1e84f3dd0314c0f7b2291e5b200ac8c7c3b925",
            "0x000000000000000000000000202d7d2cbc96b24cd1290a29b530d146df3b5a2f",
            "0x0000000000000000000000006b1c656ad724c246049ef586fa35d217a8db13a0"
          ],
          "data": "0x00000000000000000000000000000000000000000000000000000000000003e8",
          "blockHash": "0x6a040c1e8fed33c5afc750e023b25b93f87b18743b131fe8f107e60ff45cb20c",
          "blockNumber": "0xb23182d",
          "transactionHash": "0x06a152ce49d653d188176f6ea2d46c9f519849fe118f771c33b4d04d27bbb2ed",
          "transactionIndex": "0x3",
          "logIndex": "0x5",
          "removed": false
        },
        {
          "address": "0x6b1c656ad724c246049ef586fa35d217a8db13a0",
          "topics": [
            "0x01b41cbd4bbcc3c5b968a04d3fbdd8c1648a39ff6d9a3929b4840cea1142bc65",
            "0xca45c2691847a579a8e4ece41e8cdcb21f0332c0cca377970dcfbc8d66398f6c",
            "0xd1df26f75315a3c9285668d3079f8fd02322af7b0aa7ac5c8152c55765213ac7",
            "0x00000000000000000000000000000000000000000000000000000000000003e8"
          ],
          "data": "0x",
          "blockHash": "0x6a040c1e8fed33c5afc750e023b25b93f87b18743b131fe8f107e60ff45cb20c",
          "blockNumber": "0xb23182d",
          "transactionHash": "0x06a152ce49d653d188176f6ea2d46c9f519849fe118f771c33b4d04d27bbb2ed",
          "transactionIndex": "0x3",
          "logIndex": "0x6",
          "removed": false
        },
        {
          "address": "0xeffc83ac0da8ec6c91cde640d35efb0d10c2e112",
          "topics": [
            "0xddf252ad1be2c89b69c2b068fc378daa952ba7f163c4a11628f55a4df523b3ef",
            "0x000000000000000000000000202d7d2cbc96b24cd1290a29b530d146df3b5a2f",
            "0x0000000000000000000000006b1c656ad724c246049ef586fa35d217a8db13a0"
          ],
          "data": "0x00000000000000000000000000000000000000000000000000000000000003e8",
          "blockHash": "0x6a040c1e8fed33c5afc750e023b25b93f87b18743b131fe8f107e60ff45cb20c",
          "blockNumber": "0xb23182d",
          "transactionHash": "0x06a152ce49d653d188176f6ea2d46c9f519849fe118f771c33b4d04d27bbb2ed",
          "transactionIndex": "0x3",
          "logIndex": "0x7",
          "removed": false
        },
        {
          "address": "0x202d7d2cbc96b24cd1290a29b530d146df3b5a2f",
          "topics": [
            "0xc7f505b2f371ae2175ee4913f4499e1f2633a7b5936321eed1cdaeb6115181d2"
          ],
          "data": "0x0000000000000000000000000000000000000000000000000000000000000001",
          "blockHash": "0x6a040c1e8fed33c5afc750e023b25b93f87b18743b131fe8f107e60ff45cb20c",
          "blockNumber": "0xb23182d",
          "transactionHash": "0x06a152ce49d653d188176f6ea2d46c9f519849fe118f771c33b4d04d27bbb2ed",
          "transactionIndex": "0x3",
          "logIndex": "0x8",
          "removed": false
        }
      ],
      "logsBloom": "0x000000000020000000000000200000000000000000000000000100000000000000000004000800000000000000000000000000000000000000000000002000000000000000000000004000080000000000000220000000000004010000080000000008000001000000000000000000000000000000000080000000100040000000000002000000000008000020000000000810000000c0000000000202000800020000040000000000000000001000208000000000000000000000000000000000000002000000020000000200000000003000200204000000000000000004100010000000000000000100200000000000000100000080000000000000000000",
      "type": "0x2",
      "transactionHash": "0x06a152ce49d653d188176f6ea2d46c9f519849fe118f771c33b4d04d27bbb2ed",
      "transactionIndex": "0x3",
      "blockHash": "0x6a040c1e8fed33c5afc750e023b25b93f87b18743b131fe8f107e60ff45cb20c",
      "blockNumber": "0xb23182d",
      "gasUsed": "0x4e9c9",
      "effectiveGasPrice": "0x5f5e100",
      "from": "0x1b150538e943f00127929f7eeb65754f7beb0b6d",
      "to": "0x66f20a5fbf43e4b36ac9e2d9de33e8b8cafd3ab7",
      "contractAddress": null,
      "gasUsedForL1": "0x1",
      "l1BlockNumber": "0x8a09be",
      "timeboosted": false
    },
    {
      "status": "0x1",
      "cumulativeGasUsed": "0x289a6",
      "logs": [
        {
          "address": "0xeffc83ac0da8ec6c91cde640d35efb0d10c2e112",
          "topics": [
            "0xddf252ad1be2c89b69c2b068fc378daa952ba7f163c4a11628f55a4df523b3ef",
            "0x0000000000000000000000001b150538e943f00127929f7eeb65754f7beb0b6d",
            "0x00000000000000000000000027b1de2ec2d921dd091e62d3c66f3dffc1e09cd4"
          ],
          "data": "0x00000000000000000000000000000000000000000000000000000000000003e8",
          "blockHash": "0xb9b0a9dabb89bff615f02f760029a5a9a499410be74e5d155c3014bac3e47ccd",
          "blockNumber": "0xb231836",
          "transactionHash": "0xad983d55ff2f6d69f5db5e67e025333ed2aca8708d3e3fe0eeb491204a56acc2",
          "transactionIndex": "0x2",
          "logIndex": "0x4",
          "removed": false
        }
      ],
      "logsBloom": "0x00000000000000000000000000000000000000000000000000000000000000000800000000000000000000000000000000000000000000000000000000000000000000000000000000000008040000000000000000004000000000000000000000000000000000000000000000000000000000000000000000080010000000000000000000000000000000080000000000000000000000000000000000000800000000000000000000000000000000008000000000000000000000000000000000008002000000000000000000000000000000000000000000000000000004000000000000000000000000000000000000000000000000000000000000000000",
      "type": "0x2",
      "transactionHash": "0xad983d55ff2f6d69f5db5e67e025333ed2aca8708d3e3fe0eeb491204a56acc2",
      "transactionIndex": "0x2",
      "blockHash": "0xb9b0a9dabb89bff615f02f760029a5a9a499410be74e5d155c3014bac3e47ccd",
      "blockNumber": "0xb231836",
      "gasUsed": "0xcba1",
      "effectiveGasPrice": "0x5f5e100",
      "from": "0x1b150538e943f00127929f7eeb65754f7beb0b6d",
      "to": "0xeffc83ac0da8ec6c91cde640d35efb0d10c2e112",
      "contractAddress": null,
      "gasUsedForL1": "0x0",
      "l1BlockNumber": "0x8a09c0",
      "timeboosted": false
    },
    {
      "status": "0x1",
      "cumulativeGasUsed": "0x8274e",
      "logs": [
        {
          "address": "0x66f20a5fbf43e4b36ac9e2d9de33e8b8cafd3ab7",
          "topics": [
            "0x6a097a8db83fd9aee480dc6251f3cbbfc31c2b0adb9f70410b411de98e92515d",
            "0x00000000000000000000000027b1de2ec2d921dd091e62d3c66f3dffc1e09cd4",
            "0x000000000000000000000000000000000000000000000000000000000000007b",
            "0x000000000000000000000000effc83ac0da8ec6c91cde640d35efb0d10c2e112"
          ],
          "data": "0x",
          "blockHash": "0x436a4e204e00ee87f03f83631864bdbb1138f99e9a722f5e9f0a9ab584e36c17",
          "blockNumber": "0xb23183e",
          "transactionHash": "0x0d7885256775b9b894339dac8c8f0134f5c6a14626530a3a943a174badc76bdb",
          "transactionIndex": "0x3",
          "logIndex": "0x8",
          "removed": false
        },
        {
          "address": "0xeffc83ac0da8ec6c91cde640d35efb0d10c2e112",
          "topics": [
            "0x8c5be1e5ebec7d5bd14f71427d1e84f3dd0314c0f7b2291e5b200ac8c7c3b925",
            "0x00000000000000000000000027b1de2ec2d921dd091e62d3c66f3dffc1e09cd4",
            "0x0000000000000000000000006b1c656ad724c246049ef586fa35d217a8db13a0"
          ],
          "data": "0x00000000000000000000000000000000000000000000000000000000000003e8",
          "blockHash": "0x436a4e204e00ee87f03f83631864bdbb1138f99e9a722f5e9f0a9ab584e36c17",
          "blockNumber": "0xb23183e",
          "transactionHash": "0x0d7885256775b9b894339dac8c8f0134f5c6a14626530a3a943a174badc76bdb",
          "transactionIndex": "0x3",
          "logIndex": "0x9",
          "removed": false
        },
        {
          "address": "0x6b1c656ad724c246049ef586fa35d217a8db13a0",
          "topics": [
            "0x01b41cbd4bbcc3c5b968a04d3fbdd8c1648a39ff6d9a3929b4840cea1142bc65",
            "0xc3023bc6d2f36fa3d80337abd34c1973cf8626a7a7ff0a3645025169cd4bb1e6",
            "0x844883995feec6b372e42239da3f0e8098d288ae25fb178fa9e31e43efa7f394",
            "0x00000000000000000000000000000000000000000000000000000000000003e8"
          ],
          "data": "0x",
          "blockHash": "0x436a4e204e00ee87f03f83631864bdbb1138f99e9a722f5e9f0a9ab584e36c17",
          "blockNumber": "0xb23183e",
          "transactionHash": "0x0d7885256775b9b894339dac8c8f0134f5c6a14626530a3a943a174badc76bdb",
          "transactionIndex": "0x3",
          "logIndex": "0xa",
          "removed": false
        },
        {
          "address": "0xeffc83ac0da8ec6c91cde640d35efb0d10c2e112",
          "topics": [
            "0xddf252ad1be2c89b69c2b068fc378daa952ba7f163c4a11628f55a4df523b3ef",
            "0x00000000000000000000000027b1de2ec2d921dd091e62d3c66f3dffc1e09cd4",
            "0x0000000000000000000000006b1c656ad724c246049ef586fa35d217a8db13a0"
          ],
          "data": "0x00000000000000000000000000000000000000000000000000000000000003e8",
          "blockHash": "0x436a4e204e00ee87f03f83631864bdbb1138f99e9a722f5e9f0a9ab584e36c17",
          "blockNumber": "0xb23183e",
          "transactionHash": "0x0d7885256775b9b894339dac8c8f0134f5c6a14626530a3a943a174badc76bdb",
          "transactionIndex": "0x3",
          "logIndex": "0xb",
          "removed": false
        },
        {
          "address": "0x27b1de2ec2d921dd091e62d3c66f3dffc1e09cd4",
          "topics": [
            "0xc7f505b2f371ae2175ee4913f4499e1f2633a7b5936321eed1cdaeb6115181d2"
          ],
          "data": "0x0000000000000000000000000000000000000000000000000000000000000001",
          "blockHash": "0x436a4e204e00ee87f03f83631864bdbb1138f99e9a722f5e9f0a9ab584e36c17",
          "blockNumber": "0xb23183e",
          "transactionHash": "0x0d7885256775b9b894339dac8c8f0134f5c6a14626530a3a943a174badc76bdb",
          "transactionIndex": "0x3",
          "logIndex": "0xc",
          "removed": false
        }
      ],
      "logsBloom": "0x000000000000000000000000200000000000000000000000000000000000000008000004000800000000000000000000000000000000000000000000002000000000000000000000004000080000000000000200000040000004000000080000000008000043000000000000001000000100000000000080000800100000000000000002000000002008000020000000000000000000c0000000000200000800020200040000000000000000001000008000000000000000000000000000000000000002000000020000000200000002003000200004000000000000000004108010000000000000000100000000040000000000000080000000000000000000",
      "type": "0x2",
      "transactionHash": "0x0d7885256775b9b894339dac8c8f0134f5c6a14626530a3a943a174badc76bdb",
      "transactionIndex": "0x3",
      "blockHash": "0x436a4e204e00ee87f03f83631864bdbb1138f99e9a722f5e9f0a9ab584e36c17",
      "blockNumber": "0xb23183e",
      "gasUsed": "0x4e9c9",
      "effectiveGasPrice": "0x5f5e100",
      "from": "0x1b150538e943f00127929f7eeb65754f7beb0b6d",
      "to": "0x66f20a5fbf43e4b36ac9e2d9de33e8b8cafd3ab7",
      "contractAddress": null,
      "gasUsedForL1": "0x1",
      "l1BlockNumber": "0x8a09c0",
      "timeboosted": false
    },
    {
      "status": "0x1",
      "cumulativeGasUsed": "0x3c896",
      "logs": [
        {
          "address": "0xeffc83ac0da8ec6c91cde640d35efb0d10c2e112",
          "topics": [
            "0xddf252ad1be2c89b69c2b068fc378daa952ba7f163c4a11628f55a4df523b3ef",
            "0x0000000000000000000000001b150538e943f00127929f7eeb65754f7beb0b6d",
            "0x0000000000000000000000000ef60a43ad9db8f3a8a7191956085842bb972097"
          ],
          "data": "0x00000000000000000000000000000000000000000000000000000000000003e8",
          "blockHash": "0x15f46762809f9d89f383af54052b39d2580215bee0dc823e7162a2e332512a40",
          "blockNumber": "0xb231848",
          "transactionHash": "0x27f4c6b17ed83669575cf2a18179502b5224ffc6a29290cf0a8831212a70e010",
          "transactionIndex": "0x3",
          "logIndex": "0x5",
          "removed": false
        }
      ],
      "logsBloom": "0x00000000000000000000000002000000000000000000000000000000000200000000000000000000000000000000000000000000000000000000000000000000000000000000000000000008040000000000000000000000000000000000000000000000000000000000000000000000000000000000000000000010000000000000000000000000000000080000000000000000000000000000000000000800000000000000000000000000020000008000000000000000000000000000000000008002000000000000000000000000000000000000000000000000000004000000000000000000000000000000000000000000000000000000000000000000",
      "type": "0x2",
      "transactionHash": "0x27f4c6b17ed83669575cf2a18179502b5224ffc6a29290cf0a8831212a70e010",
      "transactionIndex": "0x3",
      "blockHash": "0x15f46762809f9d89f383af54052b39d2580215bee0dc823e7162a2e332512a40",
      "blockNumber": "0xb231848",
      "gasUsed": "0xcba1",
      "effectiveGasPrice": "0x5f5e100",
      "from": "0x1b150538e943f00127929f7eeb65754f7beb0b6d",
      "to": "0xeffc83ac0da8ec6c91cde640d35efb0d10c2e112",
      "contractAddress": null,
      "gasUsedForL1": "0x0",
      "l1BlockNumber": "0x8a09c0",
      "timeboosted": false
    },
    {
      "status": "0x1",
      "cumulativeGasUsed": "0xbdc5f",
      "logs": [
        {
          "address": "0x66f20a5fbf43e4b36ac9e2d9de33e8b8cafd3ab7",
          "topics": [
            "0x6a097a8db83fd9aee480dc6251f3cbbfc31c2b0adb9f70410b411de98e92515d",
            "0x0000000000000000000000000ef60a43ad9db8f3a8a7191956085842bb972097",
            "0x000000000000000000000000000000000000000000000000000000000000007b",
            "0x000000000000000000000000effc83ac0da8ec6c91cde640d35efb0d10c2e112"
          ],
          "data": "0x",
          "blockHash": "0x53589ec6e868742c115a6ca4b730092fe239298774ea0251fb529a88ca20acfa",
          "blockNumber": "0xb231851",
          "transactionHash": "0xe8fd28d76a23b007de52a330be91079204591f134658e9b373416907b87a9b84",
          "transactionIndex": "0x6",
          "logIndex": "0xc",
          "removed": false
        },
        {
          "address": "0xeffc83ac0da8ec6c91cde640d35efb0d10c2e112",
          "topics": [
            "0x8c5be1e5ebec7d5bd14f71427d1e84f3dd0314c0f7b2291e5b200ac8c7c3b925",
            "0x0000000000000000000000000ef60a43ad9db8f3a8a7191956085842bb972097",
            "0x0000000000000000000000006b1c656ad724c246049ef586fa35d217a8db13a0"
          ],
          "data": "0x00000000000000000000000000000000000000000000000000000000000003e8",
          "blockHash": "0x53589ec6e868742c115a6ca4b730092fe239298774ea0251fb529a88ca20acfa",
          "blockNumber": "0xb231851",
          "transactionHash": "0xe8fd28d76a23b007de52a330be91079204591f134658e9b373416907b87a9b84",
          "transactionIndex": "0x6",
          "logIndex": "0xd",
          "removed": false
        },
        {
          "address": "0x6b1c656ad724c246049ef586fa35d217a8db13a0",
          "topics": [
            "0x01b41cbd4bbcc3c5b968a04d3fbdd8c1648a39ff6d9a3929b4840cea1142bc65",
            "0xbbc2b50f8fcd02da8821a96718e6164750ce76e52a281c9727c2abbbea517d1e",
            "0x2d72cc8dd01d18c767fe1efc060496ca2f64fa9224f5b2cf67b7157e86e459e0",
            "0x00000000000000000000000000000000000000000000000000000000000003e8"
          ],
          "data": "0x",
          "blockHash": "0x53589ec6e868742c115a6ca4b730092fe239298774ea0251fb529a88ca20acfa",
          "blockNumber": "0xb231851",
          "transactionHash": "0xe8fd28d76a23b007de52a330be91079204591f134658e9b373416907b87a9b84",
          "transactionIndex": "0x6",
          "logIndex": "0xe",
          "removed": false
        },
        {
          "address": "0xeffc83ac0da8ec6c91cde640d35efb0d10c2e112",
          "topics": [
            "0xddf252ad1be2c89b69c2b068fc378daa952ba7f163c4a11628f55a4df523b3ef",
            "0x0000000000000000000000000ef60a43ad9db8f3a8a7191956085842bb972097",
            "0x0000000000000000000000006b1c656ad724c246049ef586fa35d217a8db13a0"
          ],
          "data": "0x00000000000000000000000000000000000000000000000000000000000003e8",
          "blockHash": "0x53589ec6e868742c115a6ca4b730092fe239298774ea0251fb529a88ca20acfa",
          "blockNumber": "0xb231851",
          "transactionHash": "0xe8fd28d76a23b007de52a330be91079204591f134658e9b373416907b87a9b84",
          "transactionIndex": "0x6",
          "logIndex": "0xf",
          "removed": false
        },
        {
          "address": "0x0ef60a43ad9db8f3a8a7191956085842bb972097",
          "topics": [
            "0xc7f505b2f371ae2175ee4913f4499e1f2633a7b5936321eed1cdaeb6115181d2"
          ],
          "data": "0x0000000000000000000000000000000000000000000000000000000000000001",
          "blockHash": "0x53589ec6e868742c115a6ca4b730092fe239298774ea0251fb529a88ca20acfa",
          "blockNumber": "0xb231851",
          "transactionHash": "0xe8fd28d76a23b007de52a330be91079204591f134658e9b373416907b87a9b84",
          "transactionIndex": "0x6",
          "logIndex": "0x10",
          "removed": false
        }
      ],
      "logsBloom": "0x000000000000000000000000220000000000000000000000000000000002000000000004000800000000000000010000000000000000002000000020002000000000000000000000004000080020000000000200000000000004000000080000000008000001000000000000000000000800000000000080000000100000000000000002000000000108000020000000000000000000c0000000000200000800020000040000000000000000021000008000000000000000000000000000000000000002000000020000000200000000003000200004000000000000000004100014000000000040080100000000000000000000000080000000000000000000",
      "type": "0x2",
      "transactionHash": "0xe8fd28d76a23b007de52a330be91079204591f134658e9b373416907b87a9b84",
      "transactionIndex": "0x6",
      "blockHash": "0x53589ec6e868742c115a6ca4b730092fe239298774ea0251fb529a88ca20acfa",
      "blockNumber": "0xb231851",
      "gasUsed": "0x4e9c9",
      "effectiveGasPrice": "0x5f5e100",
      "from": "0x1b150538e943f00127929f7eeb65754f7beb0b6d",
      "to": "0x66f20a5fbf43e4b36ac9e2d9de33e8b8cafd3ab7",
      "contractAddress": null,
      "gasUsedForL1": "0x1",
      "l1BlockNumber": "0x8a09c0",
      "timeboosted": false
    },
    {
      "status": "0x1",
      "cumulativeGasUsed": "0x6f935",
      "logs": [
        {
          "address": "0xeffc83ac0da8ec6c91cde640d35efb0d10c2e112",
          "topics": [
            "0xddf252ad1be2c89b69c2b068fc378daa952ba7f163c4a11628f55a4df523b3ef",
            "0x0000000000000000000000001b150538e943f00127929f7eeb65754f7beb0b6d",
            "0x000000000000000000000000cb5454c952e58d8a71fee03e1312823a2c2c9b37"
          ],
          "data": "0x00000000000000000000000000000000000000000000000000000000000003e8",
          "blockHash": "0x88258c206a609dc702f65ff6b5d25d1b16a11cbff77db18b61a2e9e0de935f46",
          "blockNumber": "0xb23185a",
          "transactionHash": "0x1da35f4c7698b93e86aa45d614ed6c1812f513fe8efe7b877e97d144e4646950",
          "transactionIndex": "0x5",
          "logIndex": "0xc",
          "removed": false
        }
      ],
      "logsBloom": "0x00000000000000000000000000000000000000000000000000000000000000000000000000000000000000000000000000000000000000000000000000000000000000000000000000000008040000000000000000000000000000000000000000000000000000000000000000000000000000000000000000000010000000000000000000000000000000080000000000000000000000000000000000000800000000000000000000000000000000008000000000000200000000000000000000008002000000000000000000000000000000000000000000000000040004000000000000000000000000000000000000000000000000200000000000000000",
      "type": "0x2",
      "transactionHash": "0x1da35f4c7698b93e86aa45d614ed6c1812f513fe8efe7b877e97d144e4646950",
      "transactionIndex": "0x5",
      "blockHash": "0x88258c206a609dc702f65ff6b5d25d1b16a11cbff77db18b61a2e9e0de935f46",
      "blockNumber": "0xb23185a",
      "gasUsed": "0xcba1",
      "effectiveGasPrice": "0x5f5e100",
      "from": "0x1b150538e943f00127929f7eeb65754f7beb0b6d",
      "to": "0xeffc83ac0da8ec6c91cde640d35efb0d10c2e112",
      "contractAddress": null,
      "gasUsedForL1": "0x0",
      "l1BlockNumber": "0x8a09c0",
      "timeboosted": false
    },
    {
      "status": "0x1",
      "cumulativeGasUsed": "0x72819",
      "logs": [
        {
          "address": "0x66f20a5fbf43e4b36ac9e2d9de33e8b8cafd3ab7",
          "topics": [
            "0x6a097a8db83fd9aee480dc6251f3cbbfc31c2b0adb9f70410b411de98e92515d",
            "0x000000000000000000000000cb5454c952e58d8a71fee03e1312823a2c2c9b37",
            "0x000000000000000000000000000000000000000000000000000000000000007b",
            "0x000000000000000000000000effc83ac0da8ec6c91cde640d35efb0d10c2e112"
          ],
          "data": "0x",
          "blockHash": "0xc3877768f2574a4528c1d29cf1a9411bb6a94d1dccbd5f62d431afa5edd4810b",
          "blockNumber": "0xb231861",
          "transactionHash": "0x325b58c6ac8c23461f9987f21d5009d630cb87ebbeab8e0ee290fd2fbbb899e6",
          "transactionIndex": "0x3",
          "logIndex": "0x4",
          "removed": false
        },
        {
          "address": "0xeffc83ac0da8ec6c91cde640d35efb0d10c2e112",
          "topics": [
            "0x8c5be1e5ebec7d5bd14f71427d1e84f3dd0314c0f7b2291e5b200ac8c7c3b925",
            "0x000000000000000000000000cb5454c952e58d8a71fee03e1312823a2c2c9b37",
            "0x0000000000000000000000006b1c656ad724c246049ef586fa35d217a8db13a0"
          ],
          "data": "0x00000000000000000000000000000000000000000000000000000000000003e8",
          "blockHash": "0xc3877768f2574a4528c1d29cf1a9411bb6a94d1dccbd5f62d431afa5edd4810b",
          "blockNumber": "0xb231861",
          "transactionHash": "0x325b58c6ac8c23461f9987f21d5009d630cb87ebbeab8e0ee290fd2fbbb899e6",
          "transactionIndex": "0x3",
          "logIndex": "0x5",
          "removed": false
        },
        {
          "address": "0x6b1c656ad724c246049ef586fa35d217a8db13a0",
          "topics": [
            "0x01b41cbd4bbcc3c5b968a04d3fbdd8c1648a39ff6d9a3929b4840cea1142bc65",
            "0x80253a9329de7ed22987378f2961fbcc1f738c2bd56194ae07ed225c8d92e738",
            "0xd381e355e8ba3c30d8e33de124277f0fbe492b307625d222d9f6d0b99a02b7e8",
            "0x00000000000000000000000000000000000000000000000000000000000003e8"
          ],
          "data": "0x",
          "blockHash": "0xc3877768f2574a4528c1d29cf1a9411bb6a94d1dccbd5f62d431afa5edd4810b",
          "blockNumber": "0xb231861",
          "transactionHash": "0x325b58c6ac8c23461f9987f21d5009d630cb87ebbeab8e0ee290fd2fbbb899e6",
          "transactionIndex": "0x3",
          "logIndex": "0x6",
          "removed": false
        },
        {
          "address": "0xeffc83ac0da8ec6c91cde640d35efb0d10c2e112",
          "topics": [
            "0xddf252ad1be2c89b69c2b068fc378daa952ba7f163c4a11628f55a4df523b3ef",
            "0x000000000000000000000000cb5454c952e58d8a71fee03e1312823a2c2c9b37",
            "0x0000000000000000000000006b1c656ad724c246049ef586fa35d217a8db13a0"
          ],
          "data": "0x00000000000000000000000000000000000000000000000000000000000003e8",
          "blockHash": "0xc3877768f2574a4528c1d29cf1a9411bb6a94d1dccbd5f62d431afa5edd4810b",
          "blockNumber": "0xb231861",
          "transactionHash": "0x325b58c6ac8c23461f9987f21d5009d630cb87ebbeab8e0ee290fd2fbbb899e6",
          "transactionIndex": "0x3",
          "logIndex": "0x7",
          "removed": false
        },
        {
          "address": "0xcb5454c952e58d8a71fee03e1312823a2c2c9b37",
          "topics": [
            "0xc7f505b2f371ae2175ee4913f4499e1f2633a7b5936321eed1cdaeb6115181d2"
          ],
          "data": "0x0000000000000000000000000000000000000000000000000000000000000001",
          "blockHash": "0xc3877768f2574a4528c1d29cf1a9411bb6a94d1dccbd5f62d431afa5edd4810b",
          "blockNumber": "0xb231861",
          "transactionHash": "0x325b58c6ac8c23461f9987f21d5009d630cb87ebbeab8e0ee290fd2fbbb899e6",
          "transactionIndex": "0x3",
          "logIndex": "0x8",
          "removed": false
        }
      ],
      "logsBloom": "0x000000000000000000000000200000000000000000000000000000000000000000000004000800000000000000000000000000000000000000000008002000000000000000000000004000080000000000000200100000000004000000080000000028000001100000000000200000000000000000000080000000100000000000000002000000800008000020000000000000000000c0000000040200000800020000140000000000000000001000008000000000000200000000000000000000000002000000020000000200000000003000200004000000000000041004100010000000000000000100000000000000000000000080200000000000000000",
      "type": "0x2",
      "transactionHash": "0x325b58c6ac8c23461f9987f21d5009d630cb87ebbeab8e0ee290fd2fbbb899e6",
      "transactionIndex": "0x3",
      "blockHash": "0xc3877768f2574a4528c1d29cf1a9411bb6a94d1dccbd5f62d431afa5edd4810b",
      "blockNumber": "0xb231861",
      "gasUsed": "0x4e9c9",
      "effectiveGasPrice": "0x5f5e100",
      "from": "0x1b150538e943f00127929f7eeb65754f7beb0b6d",
      "to": "0x66f20a5fbf43e4b36ac9e2d9de33e8b8cafd3ab7",
      "contractAddress": null,
      "gasUsedForL1": "0x1",
      "l1BlockNumber": "0x8a09c0",
      "timeboosted": false
    },
    {
      "status": "0x1",
      "cumulativeGasUsed": "0x6aa2d",
      "logs": [
        {
          "address": "0xeffc83ac0da8ec6c91cde640d35efb0d10c2e112",
          "topics": [
            "0xddf252ad1be2c89b69c2b068fc378daa952ba7f163c4a11628f55a4df523b3ef",
            "0x0000000000000000000000001b150538e943f00127929f7eeb65754f7beb0b6d",
            "0x0000000000000000000000001de1ecc38faba2d11126a053247fc1f7baf51254"
          ],
          "data": "0x00000000000000000000000000000000000000000000000000000000000003e8",
          "blockHash": "0x2afdb16d1305aed60c32e9b1b4343e01227891456dd1137905eabadb800c790b",
          "blockNumber": "0xb23186c",
          "transactionHash": "0x7cfa176c6badf4d0ead23e1c7d043dc4fa218f19cb81bc8779e59a936ed666fa",
          "transactionIndex": "0x5",
          "logIndex": "0xc",
          "removed": false
        }
      ],
      "logsBloom": "0x00000000000000000000000000000000000000000000000000000000000000000000000000000000000000000000000000000000000000000000000000000000000000800000000000000008040000000000000000000000000000000000000000000000000000000000000000000000000000000000000000000010000000000000000000000000000040080000000000000000000000000000000000000800000000000000000000000000000000008000000000000000000000000000000000008002000000000000000000000000000000000000000000000000000004000000000000000000000000000000000000000000000000020000000000000000",
      "type": "0x2",
      "transactionHash": "0x7cfa176c6badf4d0ead23e1c7d043dc4fa218f19cb81bc8779e59a936ed666fa",
      "transactionIndex": "0x5",
      "blockHash": "0x2afdb16d1305aed60c32e9b1b4343e01227891456dd1137905eabadb800c790b",
      "blockNumber": "0xb23186c",
      "gasUsed": "0xcba1",
      "effectiveGasPrice": "0x5f5e100",
      "from": "0x1b150538e943f00127929f7eeb65754f7beb0b6d",
      "to": "0xeffc83ac0da8ec6c91cde640d35efb0d10c2e112",
      "contractAddress": null,
      "gasUsedForL1": "0x0",
      "l1BlockNumber": "0x8a09c1",
      "timeboosted": false
    },
    {
      "status": "0x1",
      "cumulativeGasUsed": "0x8ddf6",
      "logs": [
        {
          "address": "0x66f20a5fbf43e4b36ac9e2d9de33e8b8cafd3ab7",
          "topics": [
            "0x6a097a8db83fd9aee480dc6251f3cbbfc31c2b0adb9f70410b411de98e92515d",
            "0x0000000000000000000000001de1ecc38faba2d11126a053247fc1f7baf51254",
            "0x000000000000000000000000000000000000000000000000000000000000007b",
            "0x000000000000000000000000effc83ac0da8ec6c91cde640d35efb0d10c2e112"
          ],
          "data": "0x",
          "blockHash": "0x266cb6ed281a95150f4eb1970582695fd3cdda7007fa37b4fab7a9b38b7547e6",
          "blockNumber": "0xb231875",
          "transactionHash": "0x886a390b1c5f8ea341a575b9a3738b56a6ad51eabe762f33b92566a0d1cecc45",
          "transactionIndex": "0x2",
          "logIndex": "0x6",
          "removed": false
        },
        {
          "address": "0xeffc83ac0da8ec6c91cde640d35efb0d10c2e112",
          "topics": [
            "0x8c5be1e5ebec7d5bd14f71427d1e84f3dd0314c0f7b2291e5b200ac8c7c3b925",
            "0x0000000000000000000000001de1ecc38faba2d11126a053247fc1f7baf51254",
            "0x0000000000000000000000006b1c656ad724c246049ef586fa35d217a8db13a0"
          ],
          "data": "0x00000000000000000000000000000000000000000000000000000000000003e8",
          "blockHash": "0x266cb6ed281a95150f4eb1970582695fd3cdda7007fa37b4fab7a9b38b7547e6",
          "blockNumber": "0xb231875",
          "transactionHash": "0x886a390b1c5f8ea341a575b9a3738b56a6ad51eabe762f33b92566a0d1cecc45",
          "transactionIndex": "0x2",
          "logIndex": "0x7",
          "removed": false
        },
        {
          "address": "0x6b1c656ad724c246049ef586fa35d217a8db13a0",
          "topics": [
            "0x01b41cbd4bbcc3c5b968a04d3fbdd8c1648a39ff6d9a3929b4840cea1142bc65",
            "0x014b36915f0164e2fe67d96243147790d4f0c9bc054a3f686fa0af2a76890551",
            "0xf34ee78f86a4d8b28ce6b43a9ca0021151002be1a23491301847ba166750d24c",
            "0x00000000000000000000000000000000000000000000000000000000000003e8"
          ],
          "data": "0x",
          "blockHash": "0x266cb6ed281a95150f4eb1970582695fd3cdda7007fa37b4fab7a9b38b7547e6",
          "blockNumber": "0xb231875",
          "transactionHash": "0x886a390b1c5f8ea341a575b9a3738b56a6ad51eabe762f33b92566a0d1cecc45",
          "transactionIndex": "0x2",
          "logIndex": "0x8",
          "removed": false
        },
        {
          "address": "0xeffc83ac0da8ec6c91cde640d35efb0d10c2e112",
          "topics": [
            "0xddf252ad1be2c89b69c2b068fc378daa952ba7f163c4a11628f55a4df523b3ef",
            "0x0000000000000000000000001de1ecc38faba2d11126a053247fc1f7baf51254",
            "0x0000000000000000000000006b1c656ad724c246049ef586fa35d217a8db13a0"
          ],
          "data": "0x00000000000000000000000000000000000000000000000000000000000003e8",
          "blockHash": "0x266cb6ed281a95150f4eb1970582695fd3cdda7007fa37b4fab7a9b38b7547e6",
          "blockNumber": "0xb231875",
          "transactionHash": "0x886a390b1c5f8ea341a575b9a3738b56a6ad51eabe762f33b92566a0d1cecc45",
          "transactionIndex": "0x2",
          "logIndex": "0x9",
          "removed": false
        },
        {
          "address": "0x1de1ecc38faba2d11126a053247fc1f7baf51254",
          "topics": [
            "0xc7f505b2f371ae2175ee4913f4499e1f2633a7b5936321eed1cdaeb6115181d2"
          ],
          "data": "0x0000000000000000000000000000000000000000000000000000000000000001",
          "blockHash": "0x266cb6ed281a95150f4eb1970582695fd3cdda7007fa37b4fab7a9b38b7547e6",
          "blockNumber": "0xb231875",
          "transactionHash": "0x886a390b1c5f8ea341a575b9a3738b56a6ad51eabe762f33b92566a0d1cecc45",
          "transactionIndex": "0x2",
          "logIndex": "0xa",
          "removed": false
        }
      ],
      "logsBloom": "0x000000000000000000000000300000000000000000000000000000000000000000000004000800000000000000000000100000000000000000000000002000000000008000000000004000080000000000000200000000000004000000080000040008000001000000000000000000002000000000000080000000100000000000000002000000000008400020000000000000000000c0000000400200400800020000040000000000000000001000008100000000000000000000000400000000000002000000020000000200000000003008200004000000000000000004100010000000000000000100000000000000000000000080020000000000000000",
      "type": "0x2",
      "transactionHash": "0x886a390b1c5f8ea341a575b9a3738b56a6ad51eabe762f33b92566a0d1cecc45",
      "transactionIndex": "0x2",
      "blockHash": "0x266cb6ed281a95150f4eb1970582695fd3cdda7007fa37b4fab7a9b38b7547e6",
      "blockNumber": "0xb231875",
      "gasUsed": "0x4e9bd",
      "effectiveGasPrice": "0x5f5e100",
      "from": "0x1b150538e943f00127929f7eeb65754f7beb0b6d",
      "to": "0x66f20a5fbf43e4b36ac9e2d9de33e8b8cafd3ab7",
      "contractAddress": null,
      "gasUsedForL1": "0x1",
      "l1BlockNumber": "0x8a09c1",
      "timeboosted": false
    },
    {
      "status": "0x1",
      "cumulativeGasUsed": "0xcba1",
      "logs": [
        {
          "address": "0xeffc83ac0da8ec6c91cde640d35efb0d10c2e112",
          "topics": [
            "0xddf252ad1be2c89b69c2b068fc378daa952ba7f163c4a11628f55a4df523b3ef",
            "0x0000000000000000000000001b150538e943f00127929f7eeb65754f7beb0b6d",
            "0x0000000000000000000000006cd65257046d4ba07fca5738fe93e18d0ff6daef"
          ],
          "data": "0x00000000000000000000000000000000000000000000000000000000000003e8",
          "blockHash": "0x7c020b2efa25ffb3e6c0f804632f192b157033d5cdcfde9177f8a61693a30533",
          "blockNumber": "0xb23187d",
          "transactionHash": "0x10c4ddf034178502843550b9e59274e6a0e7ebb713fa13c9f4761055842cbd73",
          "transactionIndex": "0x1",
          "logIndex": "0x0",
          "removed": false
        }
      ],
      "logsBloom": "0x00000000000000000000000000000000000000000000000000000000000000000000000000000000000000000000000000000000000000000000000000000000000000000000000000000008040000000000000000000000000800000800000000000000000000000000000000000000000000000000000400000010000000000000000000000000000000080000000000000000000000000000000000000800000000000000000000000000000000008000000000000000000000000000000000008002000000000000000000000000000000000000000000000000000004000000000000000000000000000000000000000000000000000000000000000000",
      "type": "0x2",
      "transactionHash": "0x10c4ddf034178502843550b9e59274e6a0e7ebb713fa13c9f4761055842cbd73",
      "transactionIndex": "0x1",
      "blockHash": "0x7c020b2efa25ffb3e6c0f804632f192b157033d5cdcfde9177f8a61693a30533",
      "blockNumber": "0xb23187d",
      "gasUsed": "0xcba1",
      "effectiveGasPrice": "0x5f5e100",
      "from": "0x1b150538e943f00127929f7eeb65754f7beb0b6d",
      "to": "0xeffc83ac0da8ec6c91cde640d35efb0d10c2e112",
      "contractAddress": null,
      "gasUsedForL1": "0x0",
      "l1BlockNumber": "0x8a09c1",
      "timeboosted": false
    },
    {
      "status": "0x1",
      "cumulativeGasUsed": "0x115d1a",
      "logs": [
        {
          "address": "0x66f20a5fbf43e4b36ac9e2d9de33e8b8cafd3ab7",
          "topics": [
            "0x6a097a8db83fd9aee480dc6251f3cbbfc31c2b0adb9f70410b411de98e92515d",
            "0x0000000000000000000000006cd65257046d4ba07fca5738fe93e18d0ff6daef",
            "0x000000000000000000000000000000000000000000000000000000000000007b",
            "0x000000000000000000000000effc83ac0da8ec6c91cde640d35efb0d10c2e112"
          ],
          "data": "0x",
          "blockHash": "0x0e4b4c1092d199c17c2db8cc5d6ba9f251df485fafa4023f2f81ebf0a921e071",
          "blockNumber": "0xb231886",
          "transactionHash": "0x0b07be9b3edadfb63d20996532510ea16e54d523afd38a83d0a17137e5ecd499",
          "transactionIndex": "0x7",
          "logIndex": "0x16",
          "removed": false
        },
        {
          "address": "0xeffc83ac0da8ec6c91cde640d35efb0d10c2e112",
          "topics": [
            "0x8c5be1e5ebec7d5bd14f71427d1e84f3dd0314c0f7b2291e5b200ac8c7c3b925",
            "0x0000000000000000000000006cd65257046d4ba07fca5738fe93e18d0ff6daef",
            "0x0000000000000000000000006b1c656ad724c246049ef586fa35d217a8db13a0"
          ],
          "data": "0x00000000000000000000000000000000000000000000000000000000000003e8",
          "blockHash": "0x0e4b4c1092d199c17c2db8cc5d6ba9f251df485fafa4023f2f81ebf0a921e071",
          "blockNumber": "0xb231886",
          "transactionHash": "0x0b07be9b3edadfb63d20996532510ea16e54d523afd38a83d0a17137e5ecd499",
          "transactionIndex": "0x7",
          "logIndex": "0x17",
          "removed": false
        },
        {
          "address": "0x6b1c656ad724c246049ef586fa35d217a8db13a0",
          "topics": [
            "0x01b41cbd4bbcc3c5b968a04d3fbdd8c1648a39ff6d9a3929b4840cea1142bc65",
            "0x42c9363ee2c81dc7ffb94526703ab262a078a419cd2c8bbc47c5fd2cd0bd77ef",
            "0xa956b8bfc8736ef35456d5c5d9df46af2802e155d75c0b38fd153b9bd15b5484",
            "0x00000000000000000000000000000000000000000000000000000000000003e8"
          ],
          "data": "0x",
          "blockHash": "0x0e4b4c1092d199c17c2db8cc5d6ba9f251df485fafa4023f2f81ebf0a921e071",
          "blockNumber": "0xb231886",
          "transactionHash": "0x0b07be9b3edadfb63d20996532510ea16e54d523afd38a83d0a17137e5ecd499",
          "transactionIndex": "0x7",
          "logIndex": "0x18",
          "removed": false
        },
        {
          "address": "0xeffc83ac0da8ec6c91cde640d35efb0d10c2e112",
          "topics": [
            "0xddf252ad1be2c89b69c2b068fc378daa952ba7f163c4a11628f55a4df523b3ef",
            "0x0000000000000000000000006cd65257046d4ba07fca5738fe93e18d0ff6daef",
            "0x0000000000000000000000006b1c656ad724c246049ef586fa35d217a8db13a0"
          ],
          "data": "0x00000000000000000000000000000000000000000000000000000000000003e8",
          "blockHash": "0x0e4b4c1092d199c17c2db8cc5d6ba9f251df485fafa4023f2f81ebf0a921e071",
          "blockNumber": "0xb231886",
          "transactionHash": "0x0b07be9b3edadfb63d20996532510ea16e54d523afd38a83d0a17137e5ecd499",
          "transactionIndex": "0x7",
          "logIndex": "0x19",
          "removed": false
        },
        {
          "address": "0x6cd65257046d4ba07fca5738fe93e18d0ff6daef",
          "topics": [
            "0xc7f505b2f371ae2175ee4913f4499e1f2633a7b5936321eed1cdaeb6115181d2"
          ],
          "data": "0x0000000000000000000000000000000000000000000000000000000000000001",
          "blockHash": "0x0e4b4c1092d199c17c2db8cc5d6ba9f251df485fafa4023f2f81ebf0a921e071",
          "blockNumber": "0xb231886",
          "transactionHash": "0x0b07be9b3edadfb63d20996532510ea16e54d523afd38a83d0a17137e5ecd499",
          "transactionIndex": "0x7",
          "logIndex": "0x1a",
          "removed": false
        }
      ],
      "logsBloom": "0x00000000000000000000000020000000000000000000000000000000000000000000000400080000000000000000000000000000000000000000000100200000001001000000000000400008000000000000020000000000000c000008080000000008000001000000000000000000000000000000000084000100100000000000000002000000000008000020000000000000000000c400000000020000081002000004000000000000000000100000800000000000000000000000000000000000000200000002000000020000000000b000200004800000000000000004100010000000000000000100000000000000000000400080000000000000000000",
      "type": "0x2",
      "transactionHash": "0x0b07be9b3edadfb63d20996532510ea16e54d523afd38a83d0a17137e5ecd499",
      "transactionIndex": "0x7",
      "blockHash": "0x0e4b4c1092d199c17c2db8cc5d6ba9f251df485fafa4023f2f81ebf0a921e071",
      "blockNumber": "0xb231886",
      "gasUsed": "0x4e9c9",
      "effectiveGasPrice": "0x5f5e100",
      "from": "0x1b150538e943f00127929f7eeb65754f7beb0b6d",
      "to": "0x66f20a5fbf43e4b36ac9e2d9de33e8b8cafd3ab7",
      "contractAddress": null,
      "gasUsedForL1": "0x1",
      "l1BlockNumber": "0x8a09c1",
      "timeboosted": false
    },
    {
      "status": "0x1",
      "cumulativeGasUsed": "0x5911d",
      "logs": [
        {
          "address": "0xeffc83ac0da8ec6c91cde640d35efb0d10c2e112",
          "topics": [
            "0xddf252ad1be2c89b69c2b068fc378daa952ba7f163c4a11628f55a4df523b3ef",
            "0x0000000000000000000000001b150538e943f00127929f7eeb65754f7beb0b6d",
            "0x0000000000000000000000000c85e9b74b16307a25892d6abe81fc54dd090fbe"
          ],
          "data": "0x00000000000000000000000000000000000000000000000000000000000003e8",
          "blockHash": "0xea3e71c5cb238a6bd304a9890fcd1e846d5d6f23c3f072632f2f18d08462df08",
          "blockNumber": "0xb23188e",
          "transactionHash": "0x595f571e489b023ef24480f909bbc413d17f256b1f4ff28110690ce78a85a044",
          "transactionIndex": "0x4",
          "logIndex": "0x9",
          "removed": false
        }
      ],
      "logsBloom": "0x00000000000000000000000000000000000000000000000000000000000000040000000000000000000000000000000000000000000000000000000000000000000000000000000000000008040000000000000000000000000000000000000000000004000000000000000000000000000000000000000000000010000000000000000000000000000000080000000000000000000000000000000000000800000000000000000000000000000000008000000000000000000000000000000000008002000000000000000000000000000000000000000000000000000004000000000000000000000000000000000000400000000000000000000000000000",
      "type": "0x2",
      "transactionHash": "0x595f571e489b023ef24480f909bbc413d17f256b1f4ff28110690ce78a85a044",
      "transactionIndex": "0x4",
      "blockHash": "0xea3e71c5cb238a6bd304a9890fcd1e846d5d6f23c3f072632f2f18d08462df08",
      "blockNumber": "0xb23188e",
      "gasUsed": "0xcba1",
      "effectiveGasPrice": "0x5f5e100",
      "from": "0x1b150538e943f00127929f7eeb65754f7beb0b6d",
      "to": "0xeffc83ac0da8ec6c91cde640d35efb0d10c2e112",
      "contractAddress": null,
      "gasUsedForL1": "0x0",
      "l1BlockNumber": "0x8a09c1",
      "timeboosted": false
    },
    {
      "status": "0x1",
      "cumulativeGasUsed": "0x69da5",
      "logs": [
        {
          "address": "0x66f20a5fbf43e4b36ac9e2d9de33e8b8cafd3ab7",
          "topics": [
            "0x6a097a8db83fd9aee480dc6251f3cbbfc31c2b0adb9f70410b411de98e92515d",
            "0x0000000000000000000000000c85e9b74b16307a25892d6abe81fc54dd090fbe",
            "0x000000000000000000000000000000000000000000000000000000000000007b",
            "0x000000000000000000000000effc83ac0da8ec6c91cde640d35efb0d10c2e112"
          ],
          "data": "0x",
          "blockHash": "0x30a870981558e370d6aee255dd14cabfd3cc2aaf7b341f2fabd5793fdf3bd65b",
          "blockNumber": "0xb231896",
          "transactionHash": "0xe3816a673f29d95252ad3ac964184c2f854baa27c29b0fc19fb67f5d805cb13b",
          "transactionIndex": "0x2",
          "logIndex": "0x4",
          "removed": false
        },
        {
          "address": "0xeffc83ac0da8ec6c91cde640d35efb0d10c2e112",
          "topics": [
            "0x8c5be1e5ebec7d5bd14f71427d1e84f3dd0314c0f7b2291e5b200ac8c7c3b925",
            "0x0000000000000000000000000c85e9b74b16307a25892d6abe81fc54dd090fbe",
            "0x0000000000000000000000006b1c656ad724c246049ef586fa35d217a8db13a0"
          ],
          "data": "0x00000000000000000000000000000000000000000000000000000000000003e8",
          "blockHash": "0x30a870981558e370d6aee255dd14cabfd3cc2aaf7b341f2fabd5793fdf3bd65b",
          "blockNumber": "0xb231896",
          "transactionHash": "0xe3816a673f29d95252ad3ac964184c2f854baa27c29b0fc19fb67f5d805cb13b",
          "transactionIndex": "0x2",
          "logIndex": "0x5",
          "removed": false
        },
        {
          "address": "0x6b1c656ad724c246049ef586fa35d217a8db13a0",
          "topics": [
            "0x01b41cbd4bbcc3c5b968a04d3fbdd8c1648a39ff6d9a3929b4840cea1142bc65",
            "0x9e177219f4c4d4c7593c9f28a06d27d967192161d814d132d8449d895c756855",
            "0x9cffc28aaa59582b0166a70a1631f7feee39373d49fe7fc9859b250949fbf10a",
            "0x00000000000000000000000000000000000000000000000000000000000003e8"
          ],
          "data": "0x",
          "blockHash": "0x30a870981558e370d6aee255dd14cabfd3cc2aaf7b341f2fabd5793fdf3bd65b",
          "blockNumber": "0xb231896",
          "transactionHash": "0xe3816a673f29d95252ad3ac964184c2f854baa27c29b0fc19fb67f5d805cb13b",
          "transactionIndex": "0x2",
          "logIndex": "0x6",
          "removed": false
        },
        {
          "address": "0xeffc83ac0da8ec6c91cde640d35efb0d10c2e112",
          "topics": [
            "0xddf252ad1be2c89b69c2b068fc378daa952ba7f163c4a11628f55a4df523b3ef",
            "0x0000000000000000000000000c85e9b74b16307a25892d6abe81fc54dd090fbe",
            "0x0000000000000000000000006b1c656ad724c246049ef586fa35d217a8db13a0"
          ],
          "data": "0x00000000000000000000000000000000000000000000000000000000000003e8",
          "blockHash": "0x30a870981558e370d6aee255dd14cabfd3cc2aaf7b341f2fabd5793fdf3bd65b",
          "blockNumber": "0xb231896",
          "transactionHash": "0xe3816a673f29d95252ad3ac964184c2f854baa27c29b0fc19fb67f5d805cb13b",
          "transactionIndex": "0x2",
          "logIndex": "0x7",
          "removed": false
        },
        {
          "address": "0x0c85e9b74b16307a25892d6abe81fc54dd090fbe",
          "topics": [
            "0xc7f505b2f371ae2175ee4913f4499e1f2633a7b5936321eed1cdaeb6115181d2"
          ],
          "data": "0x0000000000000000000000000000000000000000000000000000000000000001",
          "blockHash": "0x30a870981558e370d6aee255dd14cabfd3cc2aaf7b341f2fabd5793fdf3bd65b",
          "blockNumber": "0xb231896",
          "transactionHash": "0xe3816a673f29d95252ad3ac964184c2f854baa27c29b0fc19fb67f5d805cb13b",
          "transactionIndex": "0x2",
          "logIndex": "0x8",
          "removed": false
        }
      ],
      "logsBloom": "0x00000000000000000000000020000000000000000000000000000000000000040000000400080000000000000000000000000000000000000000000000200000000000000000000000400008800000000000021000000000000400400008000000000804000100400000000000000000000000000000008000000010400000000800000200000000000a008020000000000000000000c0000000000200000800020000040000000000000000001000008000000000000000002000000000000000000002000000020000000200000000003000200004000000000000000004100010000000000000000100000000000000400000000080000000000000000000",
      "type": "0x2",
      "transactionHash": "0xe3816a673f29d95252ad3ac964184c2f854baa27c29b0fc19fb67f5d805cb13b",
      "transactionIndex": "0x2",
      "blockHash": "0x30a870981558e370d6aee255dd14cabfd3cc2aaf7b341f2fabd5793fdf3bd65b",
      "blockNumber": "0xb231896",
      "gasUsed": "0x4e9c9",
      "effectiveGasPrice": "0x5f5e100",
      "from": "0x1b150538e943f00127929f7eeb65754f7beb0b6d",
      "to": "0x66f20a5fbf43e4b36ac9e2d9de33e8b8cafd3ab7",
      "contractAddress": null,
      "gasUsedForL1": "0x1",
      "l1BlockNumber": "0x8a09c1",
      "timeboosted": false
    },
    {
      "status": "0x1",
      "cumulativeGasUsed": "0x27f61",
      "logs": [
        {
          "address": "0xeffc83ac0da8ec6c91cde640d35efb0d10c2e112",
          "topics": [
            "0xddf252ad1be2c89b69c2b068fc378daa952ba7f163c4a11628f55a4df523b3ef",
            "0x0000000000000000000000001b150538e943f00127929f7eeb65754f7beb0b6d",
            "0x0000000000000000000000001b25ce55db4f7db741f2bffcee3b49ea2b526de4"
          ],
          "data": "0x00000000000000000000000000000000000000000000000000000000000003e8",
          "blockHash": "0xdf2f3256d47f4fa004b8101f9c577ee4605f3a82628010aa1fe5babaa1b3cc49",
          "blockNumber": "0xb23189f",
          "transactionHash": "0xa89921e2ba546c7432e73b4e16f65a81193114f8c274db1fb6cd5e6830693c47",
          "transactionIndex": "0x2",
          "logIndex": "0x4",
          "removed": false
        }
      ],
      "logsBloom": "0x00000000000000000000000000000000000000000000000000000000000000000000000000000000000000000000000000000000000000000000000000000000000000000000000000040008040000000000000000000000000000000000000000000000000000000000000000000000000000000000000000000010000000000000000000000000000000080000000000000000000000000000000000000800000000000800000000000000000000008000000000000000000000000000000000008002000000000000000000000000000000100000000000000000000004000000000000000000000000000000000000000000000000000000000000000000",
      "type": "0x2",
      "transactionHash": "0xa89921e2ba546c7432e73b4e16f65a81193114f8c274db1fb6cd5e6830693c47",
      "transactionIndex": "0x2",
      "blockHash": "0xdf2f3256d47f4fa004b8101f9c577ee4605f3a82628010aa1fe5babaa1b3cc49",
      "blockNumber": "0xb23189f",
      "gasUsed": "0xcba1",
      "effectiveGasPrice": "0x5f5e100",
      "from": "0x1b150538e943f00127929f7eeb65754f7beb0b6d",
      "to": "0xeffc83ac0da8ec6c91cde640d35efb0d10c2e112",
      "contractAddress": null,
      "gasUsedForL1": "0x0",
      "l1BlockNumber": "0x8a09c1",
      "timeboosted": false
    },
    {
      "status": "0x1",
      "cumulativeGasUsed": "0xacf50",
      "logs": [
        {
          "address": "0x66f20a5fbf43e4b36ac9e2d9de33e8b8cafd3ab7",
          "topics": [
            "0x6a097a8db83fd9aee480dc6251f3cbbfc31c2b0adb9f70410b411de98e92515d",
            "0x0000000000000000000000001b25ce55db4f7db741f2bffcee3b49ea2b526de4",
            "0x000000000000000000000000000000000000000000000000000000000000007b",
            "0x000000000000000000000000effc83ac0da8ec6c91cde640d35efb0d10c2e112"
          ],
          "data": "0x",
          "blockHash": "0x27df07bc5fb220216074056cfe1eea8ad352546bd8a19c1dc1769c032ad4467e",
          "blockNumber": "0xb2318a7",
          "transactionHash": "0x3e4617116e80024639b45a646de0bb50ae3ac3b91708ec7b4a57ade92e0645cb",
          "transactionIndex": "0x4",
          "logIndex": "0xa",
          "removed": false
        },
        {
          "address": "0xeffc83ac0da8ec6c91cde640d35efb0d10c2e112",
          "topics": [
            "0x8c5be1e5ebec7d5bd14f71427d1e84f3dd0314c0f7b2291e5b200ac8c7c3b925",
            "0x0000000000000000000000001b25ce55db4f7db741f2bffcee3b49ea2b526de4",
            "0x0000000000000000000000006b1c656ad724c246049ef586fa35d217a8db13a0"
          ],
          "data": "0x00000000000000000000000000000000000000000000000000000000000003e8",
          "blockHash": "0x27df07bc5fb220216074056cfe1eea8ad352546bd8a19c1dc1769c032ad4467e",
          "blockNumber": "0xb2318a7",
          "transactionHash": "0x3e4617116e80024639b45a646de0bb50ae3ac3b91708ec7b4a57ade92e0645cb",
          "transactionIndex": "0x4",
          "logIndex": "0xb",
          "removed": false
        },
        {
          "address": "0x6b1c656ad724c246049ef586fa35d217a8db13a0",
          "topics": [
            "0x01b41cbd4bbcc3c5b968a04d3fbdd8c1648a39ff6d9a3929b4840cea1142bc65",
            "0x9555a286ee4a399c00449f0eefd2d98d27794e409c0f2a36ff4762f2ca8a1777",
            "0x19296e95a65a8da76a0410263668bda39c482ca2da444c3c42076b701616619e",
            "0x00000000000000000000000000000000000000000000000000000000000003e8"
          ],
          "data": "0x",
          "blockHash": "0x27df07bc5fb220216074056cfe1eea8ad352546bd8a19c1dc1769c032ad4467e",
          "blockNumber": "0xb2318a7",
          "transactionHash": "0x3e4617116e80024639b45a646de0bb50ae3ac3b91708ec7b4a57ade92e0645cb",
          "transactionIndex": "0x4",
          "logIndex": "0xc",
          "removed": false
        },
        {
          "address": "0xeffc83ac0da8ec6c91cde640d35efb0d10c2e112",
          "topics": [
            "0xddf252ad1be2c89b69c2b068fc378daa952ba7f163c4a11628f55a4df523b3ef",
            "0x0000000000000000000000001b25ce55db4f7db741f2bffcee3b49ea2b526de4",
            "0x0000000000000000000000006b1c656ad724c246049ef586fa35d217a8db13a0"
          ],
          "data": "0x00000000000000000000000000000000000000000000000000000000000003e8",
          "blockHash": "0x27df07bc5fb220216074056cfe1eea8ad352546bd8a19c1dc1769c032ad4467e",
          "blockNumber": "0xb2318a7",
          "transactionHash": "0x3e4617116e80024639b45a646de0bb50ae3ac3b91708ec7b4a57ade92e0645cb",
          "transactionIndex": "0x4",
          "logIndex": "0xd",
          "removed": false
        },
        {
          "address": "0x1b25ce55db4f7db741f2bffcee3b49ea2b526de4",
          "topics": [
            "0xc7f505b2f371ae2175ee4913f4499e1f2633a7b5936321eed1cdaeb6115181d2"
          ],
          "data": "0x0000000000000000000000000000000000000000000000000000000000000001",
          "blockHash": "0x27df07bc5fb220216074056cfe1eea8ad352546bd8a19c1dc1769c032ad4467e",
          "blockNumber": "0xb2318a7",
          "transactionHash": "0x3e4617116e80024639b45a646de0bb50ae3ac3b91708ec7b4a57ade92e0645cb",
          "transactionIndex": "0x4",
          "logIndex": "0xe",
          "removed": false
        }
      ],
      "logsBloom": "0x000000000000000000000000200000000000000000000000000000000000000000000004000800000000000000000000000000000000000000000000002000000000000000000000004400080000000000000200000008000004000000080040000008000001000000000000000000000000000000000080000000100000000000000002000000000008000020000000000000000000c8000000000200400800020000040800000000000000001000208000000000000000000000000000000000000002000200020800000200010000003000300004000000000020000004100010000000000000000100000000000000000000000080000000000000000000",
      "type": "0x2",
      "transactionHash": "0x3e4617116e80024639b45a646de0bb50ae3ac3b91708ec7b4a57ade92e0645cb",
      "transactionIndex": "0x4",
      "blockHash": "0x27df07bc5fb220216074056cfe1eea8ad352546bd8a19c1dc1769c032ad4467e",
      "blockNumber": "0xb2318a7",
      "gasUsed": "0x4e9c9",
      "effectiveGasPrice": "0x5f5e100",
      "from": "0x1b150538e943f00127929f7eeb65754f7beb0b6d",
      "to": "0x66f20a5fbf43e4b36ac9e2d9de33e8b8cafd3ab7",
      "contractAddress": null,
      "gasUsedForL1": "0x1",
      "l1BlockNumber": "0x8a09c2",
      "timeboosted": false
    }
  ],
  "libraries": [],
  "pending": [],
  "returns": {},
  "timestamp": 1755948442888,
  "chain": 421614,
  "commit": "aa36f6b"
}