{
  "transactions": [
    {
      "hash": "0x3757de0151dba29d0aee35ea28c74b207457b89889e99c50774b43061307e332",
      "transactionType": "CALL",
      "contractName": null,
      "contractAddress": "0x00c1df9bf9c7ff7f3c2a8f9e9af72da95b350d34",
      "function": "approve(address,uint256)",
      "arguments": [
        "0x6B1c656ad724C246049EF586Fa35D217A8db13A0",
        "115792089237316195423570985008687907853269984665640564039457584007913129639935"
      ],
      "transaction": {
        "from": "0x1b150538e943f00127929f7eeb65754f7beb0b6d",
        "to": "0x00c1df9bf9c7ff7f3c2a8f9e9af72da95b350d34",
        "gas": "0xf1d9",
        "value": "0x0",
        "input": "0x095ea7b30000000000000000000000006b1c656ad724c246049ef586fa35d217a8db13a0ffffffffffffffffffffffffffffffffffffffffffffffffffffffffffffffff",
        "nonce": "0xd6",
        "chainId": "0x66eee"
      },
      "additionalContracts": [],
      "isFixedGasLimit": false
    },
    {
      "hash": "0xba149adfee348de200718d2d541b6421cd10fde5a40bee0b8809b38ea30d227f",
      "transactionType": "CALL",
      "contractName": null,
      "contractAddress": "0x6b1c656ad724c246049ef586fa35d217a8db13a0",
      "function": "initiate(address,address,uint256,uint256,bytes32)",
      "arguments": [
        "0x00c1Df9bf9C7ff7F3c2A8F9e9af72DA95b350D34",
        "0x000000000000000000000000000000000000007B",
        "100",
        "1000",
        "0x81b04ae4944e1704a65bc3a57b6fc3b06a6b923e3c558d611f6a854b5539ec13"
      ],
      "transaction": {
        "from": "0x1b150538e943f00127929f7eeb65754f7beb0b6d",
        "to": "0x6b1c656ad724c246049ef586fa35d217a8db13a0",
        "gas": "0x43507",
        "value": "0x0",
        "input": "0xa70cac9100000000000000000000000000c1df9bf9c7ff7f3c2a8f9e9af72da95b350d34000000000000000000000000000000000000000000000000000000000000007b000000000000000000000000000000000000000000000000000000000000006400000000000000000000000000000000000000000000000000000000000003e881b04ae4944e1704a65bc3a57b6fc3b06a6b923e3c558d611f6a854b5539ec13",
        "nonce": "0xd7",
        "chainId": "0x66eee"
      },
      "additionalContracts": [],
      "isFixedGasLimit": false
    },
    {
      "hash": "0xce19fe96a3c7a946bc99feee3e0495016c8d78f33023aee4c23ffca2b9ef35bb",
      "transactionType": "CALL",
      "contractName": null,
      "contractAddress": "0x6b1c656ad724c246049ef586fa35d217a8db13a0",
      "function": "initiate(address,address,uint256,uint256,bytes32)",
      "arguments": [
        "0x00c1Df9bf9C7ff7F3c2A8F9e9af72DA95b350D34",
        "0x000000000000000000000000000000000000007B",
        "100",
        "1000",
        "0xc09322c415a5ac9ffb1a6cde7e927f480cc1d8afaf22b39a47797966c08e9c4b"
      ],
      "transaction": {
        "from": "0x1b150538e943f00127929f7eeb65754f7beb0b6d",
        "to": "0x6b1c656ad724c246049ef586fa35d217a8db13a0",
        "gas": "0x3d8c3",
        "value": "0x0",
        "input": "0xa70cac9100000000000000000000000000c1df9bf9c7ff7f3c2a8f9e9af72da95b350d34000000000000000000000000000000000000000000000000000000000000007b000000000000000000000000000000000000000000000000000000000000006400000000000000000000000000000000000000000000000000000000000003e8c09322c415a5ac9ffb1a6cde7e927f480cc1d8afaf22b39a47797966c08e9c4b",
        "nonce": "0xd8",
        "chainId": "0x66eee"
      },
      "additionalContracts": [],
      "isFixedGasLimit": false
    },
    {
      "hash": "0x5dcd48721ef16a596c965838b7c8a8889e215b30d1fd325a9336994120d0f99f",
      "transactionType": "CALL",
      "contractName": null,
      "contractAddress": "0x6b1c656ad724c246049ef586fa35d217a8db13a0",
      "function": "initiate(address,address,uint256,uint256,bytes32)",
      "arguments": [
        "0x00c1Df9bf9C7ff7F3c2A8F9e9af72DA95b350D34",
        "0x000000000000000000000000000000000000007B",
        "100",
        "1000",
        "0xa82872b96246dac512ddf0515f5da862a92ecebebcb92537b6e3e73199694c45"
      ],
      "transaction": {
        "from": "0x1b150538e943f00127929f7eeb65754f7beb0b6d",
        "to": "0x6b1c656ad724c246049ef586fa35d217a8db13a0",
        "gas": "0x3d8c3",
        "value": "0x0",
        "input": "0xa70cac9100000000000000000000000000c1df9bf9c7ff7f3c2a8f9e9af72da95b350d34000000000000000000000000000000000000000000000000000000000000007b000000000000000000000000000000000000000000000000000000000000006400000000000000000000000000000000000000000000000000000000000003e8a82872b96246dac512ddf0515f5da862a92ecebebcb92537b6e3e73199694c45",
        "nonce": "0xd9",
        "chainId": "0x66eee"
      },
      "additionalContracts": [],
      "isFixedGasLimit": false
    },
    {
      "hash": "0x4877c4e27abe2798ac956817473ae83ef5b845f40c622b6b6b249cfea0be3b91",
      "transactionType": "CALL",
      "contractName": null,
      "contractAddress": "0x6b1c656ad724c246049ef586fa35d217a8db13a0",
      "function": "initiate(address,address,uint256,uint256,bytes32)",
      "arguments": [
        "0x00c1Df9bf9C7ff7F3c2A8F9e9af72DA95b350D34",
        "0x000000000000000000000000000000000000007B",
        "100",
        "1000",
        "0x2a3f128306951f1ded174b8803ee1f0df0c6404bbe92682be21fd84accf5d540"
      ],
      "transaction": {
        "from": "0x1b150538e943f00127929f7eeb65754f7beb0b6d",
        "to": "0x6b1c656ad724c246049ef586fa35d217a8db13a0",
        "gas": "0x3d8c3",
        "value": "0x0",
        "input": "0xa70cac9100000000000000000000000000c1df9bf9c7ff7f3c2a8f9e9af72da95b350d34000000000000000000000000000000000000000000000000000000000000007b000000000000000000000000000000000000000000000000000000000000006400000000000000000000000000000000000000000000000000000000000003e82a3f128306951f1ded174b8803ee1f0df0c6404bbe92682be21fd84accf5d540",
        "nonce": "0xda",
        "chainId": "0x66eee"
      },
      "additionalContracts": [],
      "isFixedGasLimit": false
    },
    {
      "hash": "0x144095bdcfdb879bbc8ca3f7cc609f7f8e1e2ebc5ea2ac9feb0791b4edd26862",
      "transactionType": "CALL",
      "contractName": null,
      "contractAddress": "0x6b1c656ad724c246049ef586fa35d217a8db13a0",
      "function": "initiate(address,address,uint256,uint256,bytes32)",
      "arguments": [
        "0x00c1Df9bf9C7ff7F3c2A8F9e9af72DA95b350D34",
        "0x000000000000000000000000000000000000007B",
        "100",
        "1000",
        "0xe14f5be83831f7fefa669d5a84daaa56ec01477dafc6701a83f243bc2228bb11"
      ],
      "transaction": {
        "from": "0x1b150538e943f00127929f7eeb65754f7beb0b6d",
        "to": "0x6b1c656ad724c246049ef586fa35d217a8db13a0",
        "gas": "0x3d8c3",
        "value": "0x0",
        "input": "0xa70cac9100000000000000000000000000c1df9bf9c7ff7f3c2a8f9e9af72da95b350d34000000000000000000000000000000000000000000000000000000000000007b000000000000000000000000000000000000000000000000000000000000006400000000000000000000000000000000000000000000000000000000000003e8e14f5be83831f7fefa669d5a84daaa56ec01477dafc6701a83f243bc2228bb11",
        "nonce": "0xdb",
        "chainId": "0x66eee"
      },
      "additionalContracts": [],
      "isFixedGasLimit": false
    },
    {
      "hash": "0x7b06a26d71f642018aba468498b25fc026d1e3f3d99e72f782318157e1c9628a",
      "transactionType": "CALL",
      "contractName": null,
      "contractAddress": "0x6b1c656ad724c246049ef586fa35d217a8db13a0",
      "function": "initiate(address,address,uint256,uint256,bytes32)",
      "arguments": [
        "0x00c1Df9bf9C7ff7F3c2A8F9e9af72DA95b350D34",
        "0x000000000000000000000000000000000000007B",
        "100",
        "1000",
        "0x3ba2581d53fbf070be34b6d6a2382faf1b8e76a3ade45b31c0c7c90ea289874e"
      ],
      "transaction": {
        "from": "0x1b150538e943f00127929f7eeb65754f7beb0b6d",
        "to": "0x6b1c656ad724c246049ef586fa35d217a8db13a0",
        "gas": "0x3d8c3",
        "value": "0x0",
        "input": "0xa70cac9100000000000000000000000000c1df9bf9c7ff7f3c2a8f9e9af72da95b350d34000000000000000000000000000000000000000000000000000000000000007b000000000000000000000000000000000000000000000000000000000000006400000000000000000000000000000000000000000000000000000000000003e83ba2581d53fbf070be34b6d6a2382faf1b8e76a3ade45b31c0c7c90ea289874e",
        "nonce": "0xdc",
        "chainId": "0x66eee"
      },
      "additionalContracts": [],
      "isFixedGasLimit": false
    },
    {
      "hash": "0x50993f7bc12508d1bde688c07ca0ddbaa41b96195cc3197aa1d0b4df6a1b84fd",
      "transactionType": "CALL",
      "contractName": null,
      "contractAddress": "0x6b1c656ad724c246049ef586fa35d217a8db13a0",
      "function": "initiate(address,address,uint256,uint256,bytes32)",
      "arguments": [
        "0x00c1Df9bf9C7ff7F3c2A8F9e9af72DA95b350D34",
        "0x000000000000000000000000000000000000007B",
        "100",
        "1000",
        "0xa3ecde0c1d9daa6b7a949c87a1af7963c69cb2c412fb3086c495f14630c17b7b"
      ],
      "transaction": {
        "from": "0x1b150538e943f00127929f7eeb65754f7beb0b6d",
        "to": "0x6b1c656ad724c246049ef586fa35d217a8db13a0",
        "gas": "0x3d8c3",
        "value": "0x0",
        "input": "0xa70cac9100000000000000000000000000c1df9bf9c7ff7f3c2a8f9e9af72da95b350d34000000000000000000000000000000000000000000000000000000000000007b000000000000000000000000000000000000000000000000000000000000006400000000000000000000000000000000000000000000000000000000000003e8a3ecde0c1d9daa6b7a949c87a1af7963c69cb2c412fb3086c495f14630c17b7b",
        "nonce": "0xdd",
        "chainId": "0x66eee"
      },
      "additionalContracts": [],
      "isFixedGasLimit": false
    },
    {
      "hash": "0x7003b79b6114ecec6683af64ed3b1d0e016d80a3304bc224e62759c767697584",
      "transactionType": "CALL",
      "contractName": null,
      "contractAddress": "0x6b1c656ad724c246049ef586fa35d217a8db13a0",
      "function": "initiate(address,address,uint256,uint256,bytes32)",
      "arguments": [
        "0x00c1Df9bf9C7ff7F3c2A8F9e9af72DA95b350D34",
        "0x000000000000000000000000000000000000007B",
        "100",
        "1000",
        "0x99fdc3a44c06c65a307ea38acda009243287ccbbdb2b0ce423a25bb9b525d7f2"
      ],
      "transaction": {
        "from": "0x1b150538e943f00127929f7eeb65754f7beb0b6d",
        "to": "0x6b1c656ad724c246049ef586fa35d217a8db13a0",
        "gas": "0x3d8c3",
        "value": "0x0",
        "input": "0xa70cac9100000000000000000000000000c1df9bf9c7ff7f3c2a8f9e9af72da95b350d34000000000000000000000000000000000000000000000000000000000000007b000000000000000000000000000000000000000000000000000000000000006400000000000000000000000000000000000000000000000000000000000003e899fdc3a44c06c65a307ea38acda009243287ccbbdb2b0ce423a25bb9b525d7f2",
        "nonce": "0xde",
        "chainId": "0x66eee"
      },
      "additionalContracts": [],
      "isFixedGasLimit": false
    },
    {
      "hash": "0x1cdf542e86c0eb3402795d51ab5297f3344be4fb122db40b1676199eaab6e97e",
      "transactionType": "CALL",
      "contractName": null,
      "contractAddress": "0x6b1c656ad724c246049ef586fa35d217a8db13a0",
      "function": "initiate(address,address,uint256,uint256,bytes32)",
      "arguments": [
        "0x00c1Df9bf9C7ff7F3c2A8F9e9af72DA95b350D34",
        "0x000000000000000000000000000000000000007B",
        "100",
        "1000",
        "0xc03eee8aa25e1b9fd36a28c6d3321bd0d0534a72034c40fcd9d75c70a610037e"
      ],
      "transaction": {
        "from": "0x1b150538e943f00127929f7eeb65754f7beb0b6d",
        "to": "0x6b1c656ad724c246049ef586fa35d217a8db13a0",
        "gas": "0x3d8c3",
        "value": "0x0",
        "input": "0xa70cac9100000000000000000000000000c1df9bf9c7ff7f3c2a8f9e9af72da95b350d34000000000000000000000000000000000000000000000000000000000000007b000000000000000000000000000000000000000000000000000000000000006400000000000000000000000000000000000000000000000000000000000003e8c03eee8aa25e1b9fd36a28c6d3321bd0d0534a72034c40fcd9d75c70a610037e",
        "nonce": "0xdf",
        "chainId": "0x66eee"
      },
      "additionalContracts": [],
      "isFixedGasLimit": false
    },
    {
      "hash": "0xf8eaa6d38d81284ac0498ce2207898e7e0b8420b522db47b52f82044145b94e2",
      "transactionType": "CALL",
      "contractName": null,
      "contractAddress": "0x6b1c656ad724c246049ef586fa35d217a8db13a0",
      "function": "initiate(address,address,uint256,uint256,bytes32)",
      "arguments": [
        "0x00c1Df9bf9C7ff7F3c2A8F9e9af72DA95b350D34",
        "0x000000000000000000000000000000000000007B",
        "100",
        "1000",
        "0xd3b2f026768fb94e95a4848cf669d1f120a6c73cd795450e52de6bddcadd883c"
      ],
      "transaction": {
        "from": "0x1b150538e943f00127929f7eeb65754f7beb0b6d",
        "to": "0x6b1c656ad724c246049ef586fa35d217a8db13a0",
        "gas": "0x3d8c3",
        "value": "0x0",
        "input": "0xa70cac9100000000000000000000000000c1df9bf9c7ff7f3c2a8f9e9af72da95b350d34000000000000000000000000000000000000000000000000000000000000007b000000000000000000000000000000000000000000000000000000000000006400000000000000000000000000000000000000000000000000000000000003e8d3b2f026768fb94e95a4848cf669d1f120a6c73cd795450e52de6bddcadd883c",
        "nonce": "0xe0",
        "chainId": "0x66eee"
      },
      "additionalContracts": [],
      "isFixedGasLimit": false
    }
  ],
  "receipts": [
    {
      "status": "0x1",
      "cumulativeGasUsed": "0x4c392",
      "logs": [
        {
          "address": "0x00c1df9bf9c7ff7f3c2a8f9e9af72da95b350d34",
          "topics": [
            "0x8c5be1e5ebec7d5bd14f71427d1e84f3dd0314c0f7b2291e5b200ac8c7c3b925",
            "0x0000000000000000000000001b150538e943f00127929f7eeb65754f7beb0b6d",
            "0x0000000000000000000000006b1c656ad724c246049ef586fa35d217a8db13a0"
          ],
          "data": "0xffffffffffffffffffffffffffffffffffffffffffffffffffffffffffffffff",
          "blockHash": "0xe57ffd0b30256d3cdc68a4ded802bede83b18fca6f82375dbaf74bb52a09416b",
          "blockNumber": "0xb23023a",
          "transactionHash": "0x3757de0151dba29d0aee35ea28c74b207457b89889e99c50774b43061307e332",
          "transactionIndex": "0x4",
          "logIndex": "0x6",
          "removed": false
        }
      ],
      "logsBloom": "0x00000000000000000000000000000000000000200000000000000000000000000000000000000000000000000000000000000000000000000000000000200000000000000000000000000000040000000000000000000000000000000000000000000000000002000000000000000000000000000000000000000000000000000000000000000000000000080000000000000000000000000000000000000000020000000000000100000000000000000000000000000000000000000000000000008000000000000000000000000000001000200000000000000000000000000010000000000000000100000000000000000000000000000000000000000000",
      "type": "0x2",
      "transactionHash": "0x3757de0151dba29d0aee35ea28c74b207457b89889e99c50774b43061307e332",
      "transactionIndex": "0x4",
      "blockHash": "0xe57ffd0b30256d3cdc68a4ded802bede83b18fca6f82375dbaf74bb52a09416b",
      "blockNumber": "0xb23023a",
      "gasUsed": "0xb889",
      "effectiveGasPrice": "0x5f5e100",
      "from": "0x1b150538e943f00127929f7eeb65754f7beb0b6d",
      "to": "0x00c1df9bf9c7ff7f3c2a8f9e9af72da95b350d34",
      "contractAddress": null,
      "gasUsedForL1": "0x1",
      "l1BlockNumber": "0x8a0945",
      "timeboosted": false
    },
    {
      "status": "0x1",
      "cumulativeGasUsed": "0x30bc2",
      "logs": [
        {
          "address": "0x6b1c656ad724c246049ef586fa35d217a8db13a0",
          "topics": [
            "0x01b41cbd4bbcc3c5b968a04d3fbdd8c1648a39ff6d9a3929b4840cea1142bc65",
            "0xa43779b69c8406d419e939ff5b45142e4b82241665c4d70b3591b8c978648d32",
            "0x81b04ae4944e1704a65bc3a57b6fc3b06a6b923e3c558d611f6a854b5539ec13",
            "0x00000000000000000000000000000000000000000000000000000000000003e8"
          ],
          "data": "0x",
          "blockHash": "0x033f05d06d913648dbce60d96a630bd8b12326fad2a44931eea8d71401cc574d",
          "blockNumber": "0xb230246",
          "transactionHash": "0xba149adfee348de200718d2d541b6421cd10fde5a40bee0b8809b38ea30d227f",
          "transactionIndex": "0x1",
          "logIndex": "0x0",
          "removed": false
        },
        {
          "address": "0x00c1df9bf9c7ff7f3c2a8f9e9af72da95b350d34",
          "topics": [
            "0xddf252ad1be2c89b69c2b068fc378daa952ba7f163c4a11628f55a4df523b3ef",
            "0x0000000000000000000000001b150538e943f00127929f7eeb65754f7beb0b6d",
            "0x0000000000000000000000006b1c656ad724c246049ef586fa35d217a8db13a0"
          ],
          "data": "0x00000000000000000000000000000000000000000000000000000000000003e8",
          "blockHash": "0x033f05d06d913648dbce60d96a630bd8b12326fad2a44931eea8d71401cc574d",
          "blockNumber": "0xb230246",
          "transactionHash": "0xba149adfee348de200718d2d541b6421cd10fde5a40bee0b8809b38ea30d227f",
          "transactionIndex": "0x1",
          "logIndex": "0x1",
          "removed": false
        }
      ],
      "logsBloom": "0x00000000000000400000000020000000000000200000000000000000000000000000000000000000000000000000000000000000000000000000000000000000000000000000000000000018040000000000000000000000000400000000000000000800000102000000000000000000000000000000000000000010000000000000000200000000000000080000000000000000000040000000000000000200000000000100000100000000000000000000000200000000000000000000000000008002000000020000000000000000001000200000000000000000000000100000000000000000000100000000000000000040000080000000000000000000",
      "type": "0x2",
      "transactionHash": "0xba149adfee348de200718d2d541b6421cd10fde5a40bee0b8809b38ea30d227f",
      "transactionIndex": "0x1",
      "blockHash": "0x033f05d06d913648dbce60d96a630bd8b12326fad2a44931eea8d71401cc574d",
      "blockNumber": "0xb230246",
      "gasUsed": "0x30bc2",
      "effectiveGasPrice": "0x5f5e100",
      "from": "0x1b150538e943f00127929f7eeb65754f7beb0b6d",
      "to": "0x6b1c656ad724c246049ef586fa35d217a8db13a0",
      "contractAddress": null,
      "gasUsedForL1": "0x2",
      "l1BlockNumber": "0x8a0946",
      "timeboosted": false
    },
    {
      "status": "0x1",
      "cumulativeGasUsed": "0x83102",
      "logs": [
        {
          "address": "0x6b1c656ad724c246049ef586fa35d217a8db13a0",
          "topics": [
            "0x01b41cbd4bbcc3c5b968a04d3fbdd8c1648a39ff6d9a3929b4840cea1142bc65",
            "0x0f552d8f9658d94423dbd3b054630e6958a1bd54337f4f1700b9d49ca3ec46c6",
            "0xc09322c415a5ac9ffb1a6cde7e927f480cc1d8afaf22b39a47797966c08e9c4b",
            "0x00000000000000000000000000000000000000000000000000000000000003e8"
          ],
          "data": "0x",
          "blockHash": "0xb714a99b63d2fd96d9d8ddc5252023b176e6b5ce0911c0a697ecf7d0cfe7bde6",
          "blockNumber": "0xb230257",
          "transactionHash": "0xce19fe96a3c7a946bc99feee3e0495016c8d78f33023aee4c23ffca2b9ef35bb",
          "transactionIndex": "0x4",
          "logIndex": "0xb",
          "removed": false
        },
        {
          "address": "0x00c1df9bf9c7ff7f3c2a8f9e9af72da95b350d34",
          "topics": [
            "0xddf252ad1be2c89b69c2b068fc378daa952ba7f163c4a11628f55a4df523b3ef",
            "0x0000000000000000000000001b150538e943f00127929f7eeb65754f7beb0b6d",
            "0x0000000000000000000000006b1c656ad724c246049ef586fa35d217a8db13a0"
          ],
          "data": "0x00000000000000000000000000000000000000000000000000000000000003e8",
          "blockHash": "0xb714a99b63d2fd96d9d8ddc5252023b176e6b5ce0911c0a697ecf7d0cfe7bde6",
          "blockNumber": "0xb230257",
          "transactionHash": "0xce19fe96a3c7a946bc99feee3e0495016c8d78f33023aee4c23ffca2b9ef35bb",
          "transactionIndex": "0x4",
          "logIndex": "0xc",
          "removed": false
        }
      ],
      "logsBloom": "0x00000000000000004000000020000000000000200000000000000000000100000000000000000000000000000000000000000000000000000000000000000000000000000000000000000008040000000000100000000010000400000000000000000800000102000000000000000000000000000000000000000010000000800000000200000000000000080000000000000000000040000000000000000000000000000000000100000000000000000000000000000000000000000000000000008002000000020000000000000000001000200000000000000000000000300000000000000000000100000000000000000000000080000000000000000000",
      "type": "0x2",
      "transactionHash": "0xce19fe96a3c7a946bc99feee3e0495016c8d78f33023aee4c23ffca2b9ef35bb",
      "transactionIndex": "0x4",
      "blockHash": "0xb714a99b63d2fd96d9d8ddc5252023b176e6b5ce0911c0a697ecf7d0cfe7bde6",
      "blockNumber": "0xb230257",
      "gasUsed": "0x2c8f6",
      "effectiveGasPrice": "0x5f5e100",
      "from": "0x1b150538e943f00127929f7eeb65754f7beb0b6d",
      "to": "0x6b1c656ad724c246049ef586fa35d217a8db13a0",
      "contractAddress": null,
      "gasUsedForL1": "0x2",
      "l1BlockNumber": "0x8a0946",
      "timeboosted": false
    },
    {
      "status": "0x1",
      "cumulativeGasUsed": "0x8aef7",
      "logs": [
        {
          "address": "0x6b1c656ad724c246049ef586fa35d217a8db13a0",
          "topics": [
            "0x01b41cbd4bbcc3c5b968a04d3fbdd8c1648a39ff6d9a3929b4840cea1142bc65",
            "0xbdf03d0fa814c96907dde54ae2f69cd8f3cdf3b19d9d58d9239582f8e2d0e560",
            "0xa82872b96246dac512ddf0515f5da862a92ecebebcb92537b6e3e73199694c45",
            "0x00000000000000000000000000000000000000000000000000000000000003e8"
          ],
          "data": "0x",
          "blockHash": "0x8f08889c590eed003783d0c282aaa6860870cea61dc3fa4ed656cc49ff757096",
          "blockNumber": "0xb230264",
          "transactionHash": "0x5dcd48721ef16a596c965838b7c8a8889e215b30d1fd325a9336994120d0f99f",
          "transactionIndex": "0x6",
          "logIndex": "0x9",
          "removed": false
        },
        {
          "address": "0x00c1df9bf9c7ff7f3c2a8f9e9af72da95b350d34",
          "topics": [
            "0xddf252ad1be2c89b69c2b068fc378daa952ba7f163c4a11628f55a4df523b3ef",
            "0x0000000000000000000000001b150538e943f00127929f7eeb65754f7beb0b6d",
            "0x0000000000000000000000006b1c656ad724c246049ef586fa35d217a8db13a0"
          ],
          "data": "0x00000000000000000000000000000000000000000000000000000000000003e8",
          "blockHash": "0x8f08889c590eed003783d0c282aaa6860870cea61dc3fa4ed656cc49ff757096",
          "blockNumber": "0xb230264",
          "transactionHash": "0x5dcd48721ef16a596c965838b7c8a8889e215b30d1fd325a9336994120d0f99f",
          "transactionIndex": "0x6",
          "logIndex": "0xa",
          "removed": false
        }
      ],
      "logsBloom": "0x00000000000000000000000020000000000000200000000000000000000000000000000000000000000000000000000000000000000000000000000000000000000000000000000000000008040000000000000000000000000400000000000000000800000102000000000000000000000000000000000000000010000000000000000202200000000000080000000000000000000040000000000000000000000000000000000100000000000000008000000000000000000000000000000000008002000000020000000000000000001000200000000000000000002000100000000040000000002100000000000000000000000080000000000000000000",
      "type": "0x2",
      "transactionHash": "0x5dcd48721ef16a596c965838b7c8a8889e215b30d1fd325a9336994120d0f99f",
      "transactionIndex": "0x6",
      "blockHash": "0x8f08889c590eed003783d0c282aaa6860870cea61dc3fa4ed656cc49ff757096",
      "blockNumber": "0xb230264",
      "gasUsed": "0x2c8f6",
      "effectiveGasPrice": "0x5f5e100",
      "from": "0x1b150538e943f00127929f7eeb65754f7beb0b6d",
      "to": "0x6b1c656ad724c246049ef586fa35d217a8db13a0",
      "contractAddress": null,
      "gasUsedForL1": "0x2",
      "l1BlockNumber": "0x8a0946",
      "timeboosted": false
    },
    {
      "status": "0x1",
      "cumulativeGasUsed": "0x2c8f6",
      "logs": [
        {
          "address": "0x6b1c656ad724c246049ef586fa35d217a8db13a0",
          "topics": [
            "0x01b41cbd4bbcc3c5b968a04d3fbdd8c1648a39ff6d9a3929b4840cea1142bc65",
            "0x8f778cb3cc49bb137676cc202b33b0fc1fa5663f0510e450c2bde62414d00bda",
            "0x2a3f128306951f1ded174b8803ee1f0df0c6404bbe92682be21fd84accf5d540",
            "0x00000000000000000000000000000000000000000000000000000000000003e8"
          ],
          "data": "0x",
          "blockHash": "0x62a4ea3b6cea16c4698ced7c5e89c5f889bb07d9747377671aff189b0c98a97c",
          "blockNumber": "0xb230275",
          "transactionHash": "0x4877c4e27abe2798ac956817473ae83ef5b845f40c622b6b6b249cfea0be3b91",
          "transactionIndex": "0x1",
          "logIndex": "0x0",
          "removed": false
        },
        {
          "address": "0x00c1df9bf9c7ff7f3c2a8f9e9af72da95b350d34",
          "topics": [
            "0xddf252ad1be2c89b69c2b068fc378daa952ba7f163c4a11628f55a4df523b3ef",
            "0x0000000000000000000000001b150538e943f00127929f7eeb65754f7beb0b6d",
            "0x0000000000000000000000006b1c656ad724c246049ef586fa35d217a8db13a0"
          ],
          "data": "0x00000000000000000000000000000000000000000000000000000000000003e8",
          "blockHash": "0x62a4ea3b6cea16c4698ced7c5e89c5f889bb07d9747377671aff189b0c98a97c",
          "blockNumber": "0xb230275",
          "transactionHash": "0x4877c4e27abe2798ac956817473ae83ef5b845f40c622b6b6b249cfea0be3b91",
          "transactionIndex": "0x1",
          "logIndex": "0x1",
          "removed": false
        }
      ],
      "logsBloom": "0x00000400000000000000000020000000000000200000000000000000000000000000000000000000000000000000000000000000000000000000000000000000000000000000000000000008040000000000000000100000000400000000000000000800000102000000200008000000000000000000000000000010000000000000000200000000000000080000000000000000000040000000000000000000000000000000000100000000000000000000000000000000000000000010000000008002000000020000000000000000001000200100000000000000000000100000000000000000000100000000000000000000000080000000000000000000",
      "type": "0x2",
      "transactionHash": "0x4877c4e27abe2798ac956817473ae83ef5b845f40c622b6b6b249cfea0be3b91",
      "transactionIndex": "0x1",
      "blockHash": "0x62a4ea3b6cea16c4698ced7c5e89c5f889bb07d9747377671aff189b0c98a97c",
      "blockNumber": "0xb230275",
      "gasUsed": "0x2c8f6",
      "effectiveGasPrice": "0x5f5e100",
      "from": "0x1b150538e943f00127929f7eeb65754f7beb0b6d",
      "to": "0x6b1c656ad724c246049ef586fa35d217a8db13a0",
      "contractAddress": null,
      "gasUsedForL1": "0x2",
      "l1BlockNumber": "0x8a0946",
      "timeboosted": false
    },
    {
      "status": "0x1",
      "cumulativeGasUsed": "0x106c4e",
      "logs": [
        {
          "address": "0x6b1c656ad724c246049ef586fa35d217a8db13a0",
          "topics": [
            "0x01b41cbd4bbcc3c5b968a04d3fbdd8c1648a39ff6d9a3929b4840cea1142bc65",
            "0x8e5a8e6952b9aa867eeb91b28665e35b2615a145e2163b62185c80c4bb16eecd",
            "0xe14f5be83831f7fefa669d5a84daaa56ec01477dafc6701a83f243bc2228bb11",
            "0x00000000000000000000000000000000000000000000000000000000000003e8"
          ],
          "data": "0x",
          "blockHash": "0xf092bdbd8126f4f74002dd676e3118fa9b0bb8c77a5770ffdc13674efda2b82e",
          "blockNumber": "0xb230284",
          "transactionHash": "0x144095bdcfdb879bbc8ca3f7cc609f7f8e1e2ebc5ea2ac9feb0791b4edd26862",
          "transactionIndex": "0x8",
          "logIndex": "0x1b",
          "removed": false
        },
        {
          "address": "0x00c1df9bf9c7ff7f3c2a8f9e9af72da95b350d34",
          "topics": [
            "0xddf252ad1be2c89b69c2b068fc378daa952ba7f163c4a11628f55a4df523b3ef",
            "0x0000000000000000000000001b150538e943f00127929f7eeb65754f7beb0b6d",
            "0x0000000000000000000000006b1c656ad724c246049ef586fa35d217a8db13a0"
          ],
          "data": "0x00000000000000000000000000000000000000000000000000000000000003e8",
          "blockHash": "0xf092bdbd8126f4f74002dd676e3118fa9b0bb8c77a5770ffdc13674efda2b82e",
          "blockNumber": "0xb230284",
          "transactionHash": "0x144095bdcfdb879bbc8ca3f7cc609f7f8e1e2ebc5ea2ac9feb0791b4edd26862",
          "transactionIndex": "0x8",
          "logIndex": "0x1c",
          "removed": false
        }
      ],
      "logsBloom": "0x00000000000000000000000020000000000000200000000000000000000000000000000000000000000000000400000000008000000000000800000000000000000000000000000000000008040000000000000000000000000400000000010000000800000102000000000000000000000000000000000000000010000000000200000200000000000000080000000000000000000040000000000000000000000000000000000100010000000000000000000000000000000000000000000000008002000000020000000000000000001000200000000000000000000000100000000000000000000100000000000000000000000080000000000000000000",
      "type": "0x2",
      "transactionHash": "0x144095bdcfdb879bbc8ca3f7cc609f7f8e1e2ebc5ea2ac9feb0791b4edd26862",
      "transactionIndex": "0x8",
      "blockHash": "0xf092bdbd8126f4f74002dd676e3118fa9b0bb8c77a5770ffdc13674efda2b82e",
      "blockNumber": "0xb230284",
      "gasUsed": "0x2c8f6",
      "effectiveGasPrice": "0x5f5e100",
      "from": "0x1b150538e943f00127929f7eeb65754f7beb0b6d",
      "to": "0x6b1c656ad724c246049ef586fa35d217a8db13a0",
      "contractAddress": null,
      "gasUsedForL1": "0x2",
      "l1BlockNumber": "0x8a0948",
      "timeboosted": false
    },
    {
      "status": "0x1",
      "cumulativeGasUsed": "0xc185d",
      "logs": [
        {
          "address": "0x6b1c656ad724c246049ef586fa35d217a8db13a0",
          "topics": [
            "0x01b41cbd4bbcc3c5b968a04d3fbdd8c1648a39ff6d9a3929b4840cea1142bc65",
            "0xf7449108ea2e3cf898e0694695b026948521492a280f092bc13fa352cb0be5f8",
            "0x3ba2581d53fbf070be34b6d6a2382faf1b8e76a3ade45b31c0c7c90ea289874e",
            "0x00000000000000000000000000000000000000000000000000000000000003e8"
          ],
          "data": "0x",
          "blockHash": "0x8162fc5b236fdb9a6528299dc672964a079a40d940afb1f659027e0fb3f01697",
          "blockNumber": "0xb230293",
          "transactionHash": "0x7b06a26d71f642018aba468498b25fc026d1e3f3d99e72f782318157e1c9628a",
          "transactionIndex": "0x3",
          "logIndex": "0x5",
          "removed": false
        },
        {
          "address": "0x00c1df9bf9c7ff7f3c2a8f9e9af72da95b350d34",
          "topics": [
            "0xddf252ad1be2c89b69c2b068fc378daa952ba7f163c4a11628f55a4df523b3ef",
            "0x0000000000000000000000001b150538e943f00127929f7eeb65754f7beb0b6d",
            "0x0000000000000000000000006b1c656ad724c246049ef586fa35d217a8db13a0"
          ],
          "data": "0x00000000000000000000000000000000000000000000000000000000000003e8",
          "blockHash": "0x8162fc5b236fdb9a6528299dc672964a079a40d940afb1f659027e0fb3f01697",
          "blockNumber": "0xb230293",
          "transactionHash": "0x7b06a26d71f642018aba468498b25fc026d1e3f3d99e72f782318157e1c9628a",
          "transactionIndex": "0x3",
          "logIndex": "0x6",
          "removed": false
        }
      ],
      "logsBloom": "0x00000000000000000000080020000000000000200000000000000000000000000000000000000000200000000000000010000000000000000000000000000000000000000000000000000008040000000000000000000000000400000000000000000800000102000000000000000000000000000000000000000010000000000400000200000000000000080000000000000000000040000000000000000000000000000000000100000000000000000000000000000000000100000000000000008002000000020000000000000000001000200000000000800000000000100000000000000000000100000000000000000000000080000000000000000000",
      "type": "0x2",
      "transactionHash": "0x7b06a26d71f642018aba468498b25fc026d1e3f3d99e72f782318157e1c9628a",
      "transactionIndex": "0x3",
      "blockHash": "0x8162fc5b236fdb9a6528299dc672964a079a40d940afb1f659027e0fb3f01697",
      "blockNumber": "0xb230293",
      "gasUsed": "0x2c8f6",
      "effectiveGasPrice": "0x5f5e100",
      "from": "0x1b150538e943f00127929f7eeb65754f7beb0b6d",
      "to": "0x6b1c656ad724c246049ef586fa35d217a8db13a0",
      "contractAddress": null,
      "gasUsedForL1": "0x2",
      "l1BlockNumber": "0x8a0948",
      "timeboosted": false
    },
    {
      "status": "0x1",
      "cumulativeGasUsed": "0x4a1dd",
      "logs": [
        {
          "address": "0x6b1c656ad724c246049ef586fa35d217a8db13a0",
          "topics": [
            "0x01b41cbd4bbcc3c5b968a04d3fbdd8c1648a39ff6d9a3929b4840cea1142bc65",
            "0x6986da3beb37757997f9e96bf300d79594ee1b919b28c683cef487c3c120f3ba",
            "0xa3ecde0c1d9daa6b7a949c87a1af7963c69cb2c412fb3086c495f14630c17b7b",
            "0x00000000000000000000000000000000000000000000000000000000000003e8"
          ],
          "data": "0x",
          "blockHash": "0x6c31a16b558ed5b7561416207950dbe3b0a99c8ef6f6d5ace846cbd4133f80ad",
          "blockNumber": "0xb23029c",
          "transactionHash": "0x50993f7bc12508d1bde688c07ca0ddbaa41b96195cc3197aa1d0b4df6a1b84fd",
          "transactionIndex": "0x2",
          "logIndex": "0x6",
          "removed": false
        },
        {
          "address": "0x00c1df9bf9c7ff7f3c2a8f9e9af72da95b350d34",
          "topics": [
            "0xddf252ad1be2c89b69c2b068fc378daa952ba7f163c4a11628f55a4df523b3ef",
            "0x0000000000000000000000001b150538e943f00127929f7eeb65754f7beb0b6d",
            "0x0000000000000000000000006b1c656ad724c246049ef586fa35d217a8db13a0"
          ],
          "data": "0x00000000000000000000000000000000000000000000000000000000000003e8",
          "blockHash": "0x6c31a16b558ed5b7561416207950dbe3b0a99c8ef6f6d5ace846cbd4133f80ad",
          "blockNumber": "0xb23029c",
          "transactionHash": "0x50993f7bc12508d1bde688c07ca0ddbaa41b96195cc3197aa1d0b4df6a1b84fd",
          "transactionIndex": "0x2",
          "logIndex": "0x7",
          "removed": false
        }
      ],
      "logsBloom": "0x00000000000000000000000020000000000000200000000000000000000000010000000000000000000000008000000011000000000000000000000000000000000000000000000000000008040000000000000000000000000400000000000000000800000102000000000000000000000000008000000000000010000000000000000200000000000200080000000000000000000040000000000000000000000000000000000100000000000000000000000000000000000000000000000000008002000000020000000000000000001000200000000000000000000000100000000000000000000100000000000000000000000080000000000000000000",
      "type": "0x2",
      "transactionHash": "0x50993f7bc12508d1bde688c07ca0ddbaa41b96195cc3197aa1d0b4df6a1b84fd",
      "transactionIndex": "0x2",
      "blockHash": "0x6c31a16b558ed5b7561416207950dbe3b0a99c8ef6f6d5ace846cbd4133f80ad",
      "blockNumber": "0xb23029c",
      "gasUsed": "0x2c8f6",
      "effectiveGasPrice": "0x5f5e100",
      "from": "0x1b150538e943f00127929f7eeb65754f7beb0b6d",
      "to": "0x6b1c656ad724c246049ef586fa35d217a8db13a0",
      "contractAddress": null,
      "gasUsedForL1": "0x2",
      "l1BlockNumber": "0x8a0948",
      "timeboosted": false
    },
    {
      "status": "0x1",
      "cumulativeGasUsed": "0xceada",
      "logs": [
        {
          "address": "0x6b1c656ad724c246049ef586fa35d217a8db13a0",
          "topics": [
            "0x01b41cbd4bbcc3c5b968a04d3fbdd8c1648a39ff6d9a3929b4840cea1142bc65",
            "0xc725279efa692db71053430fe0dbc42f8c56338fb5c65a82c0a7ef81a65d2dc3",
            "0x99fdc3a44c06c65a307ea38acda009243287ccbbdb2b0ce423a25bb9b525d7f2",
            "0x00000000000000000000000000000000000000000000000000000000000003e8"
          ],
          "data": "0x",
          "blockHash": "0xa59299be8b2e8ee0f197c8c4459a8d4ee4fa5139b5d62ef33f54ccbb14db4b35",
          "blockNumber": "0xb2302a8",
          "transactionHash": "0x7003b79b6114ecec6683af64ed3b1d0e016d80a3304bc224e62759c767697584",
          "transactionIndex": "0x8",
          "logIndex": "0x16",
          "removed": false
        },
        {
          "address": "0x00c1df9bf9c7ff7f3c2a8f9e9af72da95b350d34",
          "topics": [
            "0xddf252ad1be2c89b69c2b068fc378daa952ba7f163c4a11628f55a4df523b3ef",
            "0x0000000000000000000000001b150538e943f00127929f7eeb65754f7beb0b6d",
            "0x0000000000000000000000006b1c656ad724c246049ef586fa35d217a8db13a0"
          ],
          "data": "0x00000000000000000000000000000000000000000000000000000000000003e8",
          "blockHash": "0xa59299be8b2e8ee0f197c8c4459a8d4ee4fa5139b5d62ef33f54ccbb14db4b35",
          "blockNumber": "0xb2302a8",
          "transactionHash": "0x7003b79b6114ecec6683af64ed3b1d0e016d80a3304bc224e62759c767697584",
          "transactionIndex": "0x8",
          "logIndex": "0x17",
          "removed": false
        }
      ],
      "logsBloom": "0x0000000000000000000000002000000000000020000000000000000000000000000000000000000000000000000000000000000000080000000000000000000000000000000000000000000804000000000010000000000800040000000000000000080000010200000000000000000000008000000000000000001000100000000000020000000000000008000000000000000000004000000000000000000000000000000000010000000000000000000000000000000000000000000000000000800a000000020000000000000000001000200000000000000000000000100000000000000000000100000000000000000000000080000000000000000000",
      "type": "0x2",
      "transactionHash": "0x7003b79b6114ecec6683af64ed3b1d0e016d80a3304bc224e62759c767697584",
      "transactionIndex": "0x8",
      "blockHash": "0xa59299be8b2e8ee0f197c8c4459a8d4ee4fa5139b5d62ef33f54ccbb14db4b35",
      "blockNumber": "0xb2302a8",
      "gasUsed": "0x2c8f6",
      "effectiveGasPrice": "0x5f5e100",
      "from": "0x1b150538e943f00127929f7eeb65754f7beb0b6d",
      "to": "0x6b1c656ad724c246049ef586fa35d217a8db13a0",
      "contractAddress": null,
      "gasUsedForL1": "0x2",
      "l1BlockNumber": "0x8a0948",
      "timeboosted": false
    },
    {
      "status": "0x1",
      "cumulativeGasUsed": "0x64379",
      "logs": [
        {
          "address": "0x6b1c656ad724c246049ef586fa35d217a8db13a0",
          "topics": [
            "0x01b41cbd4bbcc3c5b968a04d3fbdd8c1648a39ff6d9a3929b4840cea1142bc65",
            "0x1b545b9ab5f595d9ce8cd71039f210d7aaa7f37897439366ded7a3e73c715efe",
            "0xc03eee8aa25e1b9fd36a28c6d3321bd0d0534a72034c40fcd9d75c70a610037e",
            "0x00000000000000000000000000000000000000000000000000000000000003e8"
          ],
          "data": "0x",
          "blockHash": "0x6f7d6735b5a33f5a371e9e5580ceeebd22a3c692bc3392e0af6c3aa8b0400877",
          "blockNumber": "0xb2302b2",
          "transactionHash": "0x1cdf542e86c0eb3402795d51ab5297f3344be4fb122db40b1676199eaab6e97e",
          "transactionIndex": "0x3",
          "logIndex": "0x8",
          "removed": false
        },
        {
          "address": "0x00c1df9bf9c7ff7f3c2a8f9e9af72da95b350d34",
          "topics": [
            "0xddf252ad1be2c89b69c2b068fc378daa952ba7f163c4a11628f55a4df523b3ef",
            "0x0000000000000000000000001b150538e943f00127929f7eeb65754f7beb0b6d",
            "0x0000000000000000000000006b1c656ad724c246049ef586fa35d217a8db13a0"
          ],
          "data": "0x00000000000000000000000000000000000000000000000000000000000003e8",
          "blockHash": "0x6f7d6735b5a33f5a371e9e5580ceeebd22a3c692bc3392e0af6c3aa8b0400877",
          "blockNumber": "0xb2302b2",
          "transactionHash": "0x1cdf542e86c0eb3402795d51ab5297f3344be4fb122db40b1676199eaab6e97e",
          "transactionIndex": "0x3",
          "logIndex": "0x9",
          "removed": false
        }
      ],
      "logsBloom": "0x00000000000000000002000020040000000000200000000000000000000000000000000000000000000000000000000000000000000000000000000000000000000000000000000000000008040000001000000000000000000400000000000000000800400102000000000000000000000000000000000000000010000000000000000200000000000000080000000000000000000050000000000000000000000000000000000100000000000000000000000000000000000000000000000000008002000000020000000000000000001000200000000000000000000000100000000000000000000100000000000000000000000080000000000000000000",
      "type": "0x2",
      "transactionHash": "0x1cdf542e86c0eb3402795d51ab5297f3344be4fb122db40b1676199eaab6e97e",
      "transactionIndex": "0x3",
      "blockHash": "0x6f7d6735b5a33f5a371e9e5580ceeebd22a3c692bc3392e0af6c3aa8b0400877",
      "blockNumber": "0xb2302b2",
      "gasUsed": "0x2c8f6",
      "effectiveGasPrice": "0x5f5e100",
      "from": "0x1b150538e943f00127929f7eeb65754f7beb0b6d",
      "to": "0x6b1c656ad724c246049ef586fa35d217a8db13a0",
      "contractAddress": null,
      "gasUsedForL1": "0x2",
      "l1BlockNumber": "0x8a0948",
      "timeboosted": false
    },
    {
      "status": "0x1",
      "cumulativeGasUsed": "0x7f6e7",
      "logs": [
        {
          "address": "0x6b1c656ad724c246049ef586fa35d217a8db13a0",
          "topics": [
            "0x01b41cbd4bbcc3c5b968a04d3fbdd8c1648a39ff6d9a3929b4840cea1142bc65",
            "0x9c765d2281c3024c449c71b71d08cca7864d2093246d25d1578ca9938e4c2fb9",
            "0xd3b2f026768fb94e95a4848cf669d1f120a6c73cd795450e52de6bddcadd883c",
            "0x00000000000000000000000000000000000000000000000000000000000003e8"
          ],
          "data": "0x",
          "blockHash": "0x5f3520b997a71f44f1dfa48c77d567fac63b3be7336db88f999edac645d059a8",
          "blockNumber": "0xb2302bc",
          "transactionHash": "0xf8eaa6d38d81284ac0498ce2207898e7e0b8420b522db47b52f82044145b94e2",
          "transactionIndex": "0x4",
          "logIndex": "0xc",
          "removed": false
        },
        {
          "address": "0x00c1df9bf9c7ff7f3c2a8f9e9af72da95b350d34",
          "topics": [
            "0xddf252ad1be2c89b69c2b068fc378daa952ba7f163c4a11628f55a4df523b3ef",
            "0x0000000000000000000000001b150538e943f00127929f7eeb65754f7beb0b6d",
            "0x0000000000000000000000006b1c656ad724c246049ef586fa35d217a8db13a0"
          ],
          "data": "0x00000000000000000000000000000000000000000000000000000000000003e8",
          "blockHash": "0x5f3520b997a71f44f1dfa48c77d567fac63b3be7336db88f999edac645d059a8",
          "blockNumber": "0xb2302bc",
          "transactionHash": "0xf8eaa6d38d81284ac0498ce2207898e7e0b8420b522db47b52f82044145b94e2",
          "transactionIndex": "0x4",
          "logIndex": "0xd",
          "removed": false
        }
      ],
      "logsBloom": "0x00000000000000000400000020000000000400200000000000000000000000000000000000000000000000000000000000000000000000000000000000000000000000000000002000000008040000000000000000000000000400000000000000000800000102000000000000000000000000000000000000000010000000000000000200000000000010080000000000000000000040000000000000000000000000000000000100000000000000000000000000000000000000000000000000008002000004020000000000000010001000200000000000000000000000100000000000000000000100000000000000000000000080000000000000000000",
      "type": "0x2",
      "transactionHash": "0xf8eaa6d38d81284ac0498ce2207898e7e0b8420b522db47b52f82044145b94e2",
      "transactionIndex": "0x4",
      "blockHash": "0x5f3520b997a71f44f1dfa48c77d567fac63b3be7336db88f999edac645d059a8",
      "blockNumber": "0xb2302bc",
      "gasUsed": "0x2c8f6",
      "effectiveGasPrice": "0x5f5e100",
      "from": "0x1b150538e943f00127929f7eeb65754f7beb0b6d",
      "to": "0x6b1c656ad724c246049ef586fa35d217a8db13a0",
      "contractAddress": null,
      "gasUsedForL1": "0x2",
      "l1BlockNumber": "0x8a0949",
      "timeboosted": false
    }
  ],
  "libraries": [],
  "pending": [],
  "returns": {},
  "timestamp": 1755946988260,
  "chain": 421614,
  "commit": "aa36f6b"
}