{
  "transactions": [
    {
      "hash": "0xde7933cbe17a022013b4141b867bbd29c002dd20ddb3d453bd0fe5ab67c5409f",
      "transactionType": "CALL",
      "contractName": null,
      "contractAddress": "0xeffc83ac0da8ec6c91cde640d35efb0d10c2e112",
      "function": "approve(address,uint256)",
      "arguments": [
        "0x6B1c656ad724C246049EF586Fa35D217A8db13A0",
        "115792089237316195423570985008687907853269984665640564039457584007913129639935"
      ],
      "transaction": {
        "from": "0x1b150538e943f00127929f7eeb65754f7beb0b6d",
        "to": "0xeffc83ac0da8ec6c91cde640d35efb0d10c2e112",
        "gas": "0xf1d9",
        "value": "0x0",
        "input": "0x095ea7b30000000000000000000000006b1c656ad724c246049ef586fa35d217a8db13a0ffffffffffffffffffffffffffffffffffffffffffffffffffffffffffffffff",
        "nonce": "0xe1",
        "chainId": "0x66eee"
      },
      "additionalContracts": [],
      "isFixedGasLimit": false
    },
    {
      "hash": "0x960eec4090df8b84e32c8c3a4b40a534fed2e335fbf0c217cb237799a4505246",
      "transactionType": "CALL",
      "contractName": null,
      "contractAddress": "0x6b1c656ad724c246049ef586fa35d217a8db13a0",
      "function": "initiate(address,address,uint256,uint256,bytes32)",
      "arguments": [
        "0xeffc83AC0Da8EC6C91CDe640d35eFB0D10c2E112",
        "0x000000000000000000000000000000000000007B",
        "100",
        "1000",
        "0x66687aadf862bd776c8fc18b8e9f8e20089714856ee233b3902a591d0d5f2925"
      ],
      "transaction": {
        "from": "0x1b150538e943f00127929f7eeb65754f7beb0b6d",
        "to": "0x6b1c656ad724c246049ef586fa35d217a8db13a0",
        "gas": "0x43517",
        "value": "0x0",
        "input": "0xa70cac91000000000000000000000000effc83ac0da8ec6c91cde640d35efb0d10c2e112000000000000000000000000000000000000000000000000000000000000007b000000000000000000000000000000000000000000000000000000000000006400000000000000000000000000000000000000000000000000000000000003e866687aadf862bd776c8fc18b8e9f8e20089714856ee233b3902a591d0d5f2925",
        "nonce": "0xe2",
        "chainId": "0x66eee"
      },
      "additionalContracts": [],
      "isFixedGasLimit": false
    },
    {
      "hash": "0xc0d5ca9d866a09a474b2bc1b67e21ed070b90d3ffade4073faef4a21f60ef3e5",
      "transactionType": "CALL",
      "contractName": null,
      "contractAddress": "0x6b1c656ad724c246049ef586fa35d217a8db13a0",
      "function": "initiate(address,address,uint256,uint256,bytes32)",
      "arguments": [
        "0xeffc83AC0Da8EC6C91CDe640d35eFB0D10c2E112",
        "0x000000000000000000000000000000000000007B",
        "100",
        "1000",
        "0xec4916dd28fc4c10d78e287ca5d9cc51ee1ae73cbfde08c6b37324cbfaac8bc5"
      ],
      "transaction": {
        "from": "0x1b150538e943f00127929f7eeb65754f7beb0b6d",
        "to": "0x6b1c656ad724c246049ef586fa35d217a8db13a0",
        "gas": "0x3d8d4",
        "value": "0x0",
        "input": "0xa70cac91000000000000000000000000effc83ac0da8ec6c91cde640d35efb0d10c2e112000000000000000000000000000000000000000000000000000000000000007b000000000000000000000000000000000000000000000000000000000000006400000000000000000000000000000000000000000000000000000000000003e8ec4916dd28fc4c10d78e287ca5d9cc51ee1ae73cbfde08c6b37324cbfaac8bc5",
        "nonce": "0xe3",
        "chainId": "0x66eee"
      },
      "additionalContracts": [],
      "isFixedGasLimit": false
    },
    {
      "hash": "0xbf9e3963f6340aeeb7179b6f81788219de675d878807e37db819b9f83cf32721",
      "transactionType": "CALL",
      "contractName": null,
      "contractAddress": "0x6b1c656ad724c246049ef586fa35d217a8db13a0",
      "function": "initiate(address,address,uint256,uint256,bytes32)",
      "arguments": [
        "0xeffc83AC0Da8EC6C91CDe640d35eFB0D10c2E112",
        "0x000000000000000000000000000000000000007B",
        "100",
        "1000",
        "0x9267d3dbed802941483f1afa2a6bc68de5f653128aca9bf1461c5d0a3ad36ed2"
      ],
      "transaction": {
        "from": "0x1b150538e943f00127929f7eeb65754f7beb0b6d",
        "to": "0x6b1c656ad724c246049ef586fa35d217a8db13a0",
        "gas": "0x3d8d4",
        "value": "0x0",
        "input": "0xa70cac91000000000000000000000000effc83ac0da8ec6c91cde640d35efb0d10c2e112000000000000000000000000000000000000000000000000000000000000007b000000000000000000000000000000000000000000000000000000000000006400000000000000000000000000000000000000000000000000000000000003e89267d3dbed802941483f1afa2a6bc68de5f653128aca9bf1461c5d0a3ad36ed2",
        "nonce": "0xe4",
        "chainId": "0x66eee"
      },
      "additionalContracts": [],
      "isFixedGasLimit": false
    },
    {
      "hash": "0x7db793dd1f0fe771b1c3e4a39a86cbef4ef7fee284f7994b940aac5295aa06b5",
      "transactionType": "CALL",
      "contractName": null,
      "contractAddress": "0x6b1c656ad724c246049ef586fa35d217a8db13a0",
      "function": "initiate(address,address,uint256,uint256,bytes32)",
      "arguments": [
        "0xeffc83AC0Da8EC6C91CDe640d35eFB0D10c2E112",
        "0x000000000000000000000000000000000000007B",
        "100",
        "1000",
        "0xd9147961436944f43cd99d28b2bbddbf452ef872b30c8279e255e7daafc7f946"
      ],
      "transaction": {
        "from": "0x1b150538e943f00127929f7eeb65754f7beb0b6d",
        "to": "0x6b1c656ad724c246049ef586fa35d217a8db13a0",
        "gas": "0x3d8d4",
        "value": "0x0",
        "input": "0xa70cac91000000000000000000000000effc83ac0da8ec6c91cde640d35efb0d10c2e112000000000000000000000000000000000000000000000000000000000000007b000000000000000000000000000000000000000000000000000000000000006400000000000000000000000000000000000000000000000000000000000003e8d9147961436944f43cd99d28b2bbddbf452ef872b30c8279e255e7daafc7f946",
        "nonce": "0xe5",
        "chainId": "0x66eee"
      },
      "additionalContracts": [],
      "isFixedGasLimit": false
    },
    {
      "hash": "0xfc055179ea5c4497facfe131a8fb949a277455d57eb756d032df1aca24271e83",
      "transactionType": "CALL",
      "contractName": null,
      "contractAddress": "0x6b1c656ad724c246049ef586fa35d217a8db13a0",
      "function": "initiate(address,address,uint256,uint256,bytes32)",
      "arguments": [
        "0xeffc83AC0Da8EC6C91CDe640d35eFB0D10c2E112",
        "0x000000000000000000000000000000000000007B",
        "100",
        "1000",
        "0xe38990d0c7fc009880a9c07c23842e886c6bbdc964ce6bdd5817ad357335ee6f"
      ],
      "transaction": {
        "from": "0x1b150538e943f00127929f7eeb65754f7beb0b6d",
        "to": "0x6b1c656ad724c246049ef586fa35d217a8db13a0",
        "gas": "0x3d8c3",
        "value": "0x0",
        "input": "0xa70cac91000000000000000000000000effc83ac0da8ec6c91cde640d35efb0d10c2e112000000000000000000000000000000000000000000000000000000000000007b000000000000000000000000000000000000000000000000000000000000006400000000000000000000000000000000000000000000000000000000000003e8e38990d0c7fc009880a9c07c23842e886c6bbdc964ce6bdd5817ad357335ee6f",
        "nonce": "0xe6",
        "chainId": "0x66eee"
      },
      "additionalContracts": [],
      "isFixedGasLimit": false
    },
    {
      "hash": "0x43adb2db25ca338eb9b3474f62ac48617cf6cefce5463f8bbd30bc25d4580796",
      "transactionType": "CALL",
      "contractName": null,
      "contractAddress": "0x6b1c656ad724c246049ef586fa35d217a8db13a0",
      "function": "initiate(address,address,uint256,uint256,bytes32)",
      "arguments": [
        "0xeffc83AC0Da8EC6C91CDe640d35eFB0D10c2E112",
        "0x000000000000000000000000000000000000007B",
        "100",
        "1000",
        "0x96de8fc8c256fa1e1556d41af431cace7dca68707c78dd88c3acab8b17164c47"
      ],
      "transaction": {
        "from": "0x1b150538e943f00127929f7eeb65754f7beb0b6d",
        "to": "0x6b1c656ad724c246049ef586fa35d217a8db13a0",
        "gas": "0x3d8d4",
        "value": "0x0",
        "input": "0xa70cac91000000000000000000000000effc83ac0da8ec6c91cde640d35efb0d10c2e112000000000000000000000000000000000000000000000000000000000000007b000000000000000000000000000000000000000000000000000000000000006400000000000000000000000000000000000000000000000000000000000003e896de8fc8c256fa1e1556d41af431cace7dca68707c78dd88c3acab8b17164c47",
        "nonce": "0xe7",
        "chainId": "0x66eee"
      },
      "additionalContracts": [],
      "isFixedGasLimit": false
    },
    {
      "hash": "0xd9896579ffa714842d119764d922e40eafb884d6a8fbbc13e29bd3af373a543f",
      "transactionType": "CALL",
      "contractName": null,
      "contractAddress": "0x6b1c656ad724c246049ef586fa35d217a8db13a0",
      "function": "initiate(address,address,uint256,uint256,bytes32)",
      "arguments": [
        "0xeffc83AC0Da8EC6C91CDe640d35eFB0D10c2E112",
        "0x000000000000000000000000000000000000007B",
        "100",
        "1000",
        "0xd1ec675902ef1633427ca360b290b0b3045a0d9058ddb5e648b4c3c3224c5c68"
      ],
      "transaction": {
        "from": "0x1b150538e943f00127929f7eeb65754f7beb0b6d",
        "to": "0x6b1c656ad724c246049ef586fa35d217a8db13a0",
        "gas": "0x3d8d4",
        "value": "0x0",
        "input": "0xa70cac91000000000000000000000000effc83ac0da8ec6c91cde640d35efb0d10c2e112000000000000000000000000000000000000000000000000000000000000007b000000000000000000000000000000000000000000000000000000000000006400000000000000000000000000000000000000000000000000000000000003e8d1ec675902ef1633427ca360b290b0b3045a0d9058ddb5e648b4c3c3224c5c68",
        "nonce": "0xe8",
        "chainId": "0x66eee"
      },
      "additionalContracts": [],
      "isFixedGasLimit": false
    },
    {
      "hash": "0x9d25e4d1924001e18aae749cf4f62e655d7a50b41253593c539bce9dc30d70e6",
      "transactionType": "CALL",
      "contractName": null,
      "contractAddress": "0x6b1c656ad724c246049ef586fa35d217a8db13a0",
      "function": "initiate(address,address,uint256,uint256,bytes32)",
      "arguments": [
        "0xeffc83AC0Da8EC6C91CDe640d35eFB0D10c2E112",
        "0x000000000000000000000000000000000000007B",
        "100",
        "1000",
        "0x48428bdb7ddd829410d6bbb924fdeb3a3d7e88c2577bffae073b990c6f061d08"
      ],
      "transaction": {
        "from": "0x1b150538e943f00127929f7eeb65754f7beb0b6d",
        "to": "0x6b1c656ad724c246049ef586fa35d217a8db13a0",
        "gas": "0x3d8d4",
        "value": "0x0",
        "input": "0xa70cac91000000000000000000000000effc83ac0da8ec6c91cde640d35efb0d10c2e112000000000000000000000000000000000000000000000000000000000000007b000000000000000000000000000000000000000000000000000000000000006400000000000000000000000000000000000000000000000000000000000003e848428bdb7ddd829410d6bbb924fdeb3a3d7e88c2577bffae073b990c6f061d08",
        "nonce": "0xe9",
        "chainId": "0x66eee"
      },
      "additionalContracts": [],
      "isFixedGasLimit": false
    },
    {
      "hash": "0xfd0dff0e5919bb95fb457810e95e98b0f0dc73e47d028bdc78e5b15b628b7d9a",
      "transactionType": "CALL",
      "contractName": null,
      "contractAddress": "0x6b1c656ad724c246049ef586fa35d217a8db13a0",
      "function": "initiate(address,address,uint256,uint256,bytes32)",
      "arguments": [
        "0xeffc83AC0Da8EC6C91CDe640d35eFB0D10c2E112",
        "0x000000000000000000000000000000000000007B",
        "100",
        "1000",
        "0x38df1c1f64a24a77b23393bca50dff872e31edc4f3b5aa3b90ad0b82f4f089b6"
      ],
      "transaction": {
        "from": "0x1b150538e943f00127929f7eeb65754f7beb0b6d",
        "to": "0x6b1c656ad724c246049ef586fa35d217a8db13a0",
        "gas": "0x3d8d4",
        "value": "0x0",
        "input": "0xa70cac91000000000000000000000000effc83ac0da8ec6c91cde640d35efb0d10c2e112000000000000000000000000000000000000000000000000000000000000007b000000000000000000000000000000000000000000000000000000000000006400000000000000000000000000000000000000000000000000000000000003e838df1c1f64a24a77b23393bca50dff872e31edc4f3b5aa3b90ad0b82f4f089b6",
        "nonce": "0xea",
        "chainId": "0x66eee"
      },
      "additionalContracts": [],
      "isFixedGasLimit": false
    },
    {
      "hash": "0x61132026b01f06fc9a00f5d356db2674067bf5aadda9b8b7218fc98a4fdea610",
      "transactionType": "CALL",
      "contractName": null,
      "contractAddress": "0x6b1c656ad724c246049ef586fa35d217a8db13a0",
      "function": "initiate(address,address,uint256,uint256,bytes32)",
      "arguments": [
        "0xeffc83AC0Da8EC6C91CDe640d35eFB0D10c2E112",
        "0x000000000000000000000000000000000000007B",
        "100",
        "1000",
        "0x887bf140ce0b6a497ed8db5c7498a45454f0b2bd644b0313f7a82acc084d0027"
      ],
      "transaction": {
        "from": "0x1b150538e943f00127929f7eeb65754f7beb0b6d",
        "to": "0x6b1c656ad724c246049ef586fa35d217a8db13a0",
        "gas": "0x3d8c3",
        "value": "0x0",
        "input": "0xa70cac91000000000000000000000000effc83ac0da8ec6c91cde640d35efb0d10c2e112000000000000000000000000000000000000000000000000000000000000007b000000000000000000000000000000000000000000000000000000000000006400000000000000000000000000000000000000000000000000000000000003e8887bf140ce0b6a497ed8db5c7498a45454f0b2bd644b0313f7a82acc084d0027",
        "nonce": "0xeb",
        "chainId": "0x66eee"
      },
      "additionalContracts": [],
      "isFixedGasLimit": false
    }
  ],
  "receipts": [
    {
      "status": "0x1",
      "cumulativeGasUsed": "0x7c2ec",
      "logs": [
        {
          "address": "0xeffc83ac0da8ec6c91cde640d35efb0d10c2e112",
          "topics": [
            "0x8c5be1e5ebec7d5bd14f71427d1e84f3dd0314c0f7b2291e5b200ac8c7c3b925",
            "0x0000000000000000000000001b150538e943f00127929f7eeb65754f7beb0b6d",
            "0x0000000000000000000000006b1c656ad724c246049ef586fa35d217a8db13a0"
          ],
          "data": "0xffffffffffffffffffffffffffffffffffffffffffffffffffffffffffffffff",
          "blockHash": "0x5e977e749c832332e1d6dd89c3a20749d18674351e4c0b79074f9807c72e3286",
          "blockNumber": "0xb23050c",
          "transactionHash": "0xde7933cbe17a022013b4141b867bbd29c002dd20ddb3d453bd0fe5ab67c5409f",
          "transactionIndex": "0x5",
          "logIndex": "0x9",
          "removed": false
        }
      ],
      "logsBloom": "0x00000000000000000000000000000000000000000000000000000000000000000000000000000000000000000000000000000000000000000000000000200000000000000000000000000000040000000000000000000000000000000000000000000000000000000000000000000000000000000000000000000000000000000000000000000000000000080000000000000000000000000000000000000800020000000000000000000000000000008000000000000000000000000000000000008000000000000000000000000000001000200000000000000000000004000010000000000000000100000000000000000000000000000000000000000000",
      "type": "0x2",
      "transactionHash": "0xde7933cbe17a022013b4141b867bbd29c002dd20ddb3d453bd0fe5ab67c5409f",
      "transactionIndex": "0x5",
      "blockHash": "0x5e977e749c832332e1d6dd89c3a20749d18674351e4c0b79074f9807c72e3286",
      "blockNumber": "0xb23050c",
      "gasUsed": "0xb889",
      "effectiveGasPrice": "0x5f5e100",
      "from": "0x1b150538e943f00127929f7eeb65754f7beb0b6d",
      "to": "0xeffc83ac0da8ec6c91cde640d35efb0d10c2e112",
      "contractAddress": null,
      "gasUsedForL1": "0x1",
      "l1BlockNumber": "0x8a0955",
      "timeboosted": false
    },
    {
      "status": "0x1",
      "cumulativeGasUsed": "0x381fe",
      "logs": [
        {
          "address": "0x6b1c656ad724c246049ef586fa35d217a8db13a0",
          "topics": [
            "0x01b41cbd4bbcc3c5b968a04d3fbdd8c1648a39ff6d9a3929b4840cea1142bc65",
            "0xc54d497c3b9a7878f2b64a06067dd449edc817cc2ad3b1b45769fd97dbd5766e",
            "0x66687aadf862bd776c8fc18b8e9f8e20089714856ee233b3902a591d0d5f2925",
            "0x00000000000000000000000000000000000000000000000000000000000003e8"
          ],
          "data": "0x",
          "blockHash": "0x42d2363b24fb63a3fd528a9c9a56f62993ab614e6534d8b07b094676ae169754",
          "blockNumber": "0xb230514",
          "transactionHash": "0x960eec4090df8b84e32c8c3a4b40a534fed2e335fbf0c217cb237799a4505246",
          "transactionIndex": "0x2",
          "logIndex": "0x1",
          "removed": false
        },
        {
          "address": "0xeffc83ac0da8ec6c91cde640d35efb0d10c2e112",
          "topics": [
            "0xddf252ad1be2c89b69c2b068fc378daa952ba7f163c4a11628f55a4df523b3ef",
            "0x0000000000000000000000001b150538e943f00127929f7eeb65754f7beb0b6d",
            "0x0000000000000000000000006b1c656ad724c246049ef586fa35d217a8db13a0"
          ],
          "data": "0x00000000000000000000000000000000000000000000000000000000000003e8",
          "blockHash": "0x42d2363b24fb63a3fd528a9c9a56f62993ab614e6534d8b07b094676ae169754",
          "blockNumber": "0xb230514",
          "transactionHash": "0x960eec4090df8b84e32c8c3a4b40a534fed2e335fbf0c217cb237799a4505246",
          "transactionIndex": "0x2",
          "logIndex": "0x2",
          "removed": false
        }
      ],
      "logsBloom": "0x00000000000000000000000020000000000000000000000000000000000000000000000000000000000000000000000000000000000000000000000000000000000000000000000000000008040000000000000000000000000400000000000000000800000100000000000000000000000000000000000000000010000000001000000200000000000000080000000000000000000040000000000000000800400000000000000000000000000000008000000000000000000000000000000000008002000000020000000020010000001000200000000001000000000004100000000000000000000100000000000000000000000080000000200000000000",
      "type": "0x2",
      "transactionHash": "0x960eec4090df8b84e32c8c3a4b40a534fed2e335fbf0c217cb237799a4505246",
      "transactionIndex": "0x2",
      "blockHash": "0x42d2363b24fb63a3fd528a9c9a56f62993ab614e6534d8b07b094676ae169754",
      "blockNumber": "0xb230514",
      "gasUsed": "0x30bce",
      "effectiveGasPrice": "0x5f5e100",
      "from": "0x1b150538e943f00127929f7eeb65754f7beb0b6d",
      "to": "0x6b1c656ad724c246049ef586fa35d217a8db13a0",
      "contractAddress": null,
      "gasUsedForL1": "0x2",
      "l1BlockNumber": "0x8a0955",
      "timeboosted": false
    },
    {
      "status": "0x1",
      "cumulativeGasUsed": "0x72545",
      "logs": [
        {
          "address": "0x6b1c656ad724c246049ef586fa35d217a8db13a0",
          "topics": [
            "0x01b41cbd4bbcc3c5b968a04d3fbdd8c1648a39ff6d9a3929b4840cea1142bc65",
            "0x95745f0e36008cd25de3f83258d95f5a34c9ca3f01a678975ac3ab0e9fd68b77",
            "0xec4916dd28fc4c10d78e287ca5d9cc51ee1ae73cbfde08c6b37324cbfaac8bc5",
            "0x00000000000000000000000000000000000000000000000000000000000003e8"
          ],
          "data": "0x",
          "blockHash": "0x4b61012b4eef23909c81a1c7b71159185de5a2acb416efbff773367142706525",
          "blockNumber": "0xb23051d",
          "transactionHash": "0xc0d5ca9d866a09a474b2bc1b67e21ed070b90d3ffade4073faef4a21f60ef3e5",
          "transactionIndex": "0x3",
          "logIndex": "0x8",
          "removed": false
        },
        {
          "address": "0xeffc83ac0da8ec6c91cde640d35efb0d10c2e112",
          "topics": [
            "0xddf252ad1be2c89b69c2b068fc378daa952ba7f163c4a11628f55a4df523b3ef",
            "0x0000000000000000000000001b150538e943f00127929f7eeb65754f7beb0b6d",
            "0x0000000000000000000000006b1c656ad724c246049ef586fa35d217a8db13a0"
          ],
          "data": "0x00000000000000000000000000000000000000000000000000000000000003e8",
          "blockHash": "0x4b61012b4eef23909c81a1c7b71159185de5a2acb416efbff773367142706525",
          "blockNumber": "0xb23051d",
          "transactionHash": "0xc0d5ca9d866a09a474b2bc1b67e21ed070b90d3ffade4073faef4a21f60ef3e5",
          "transactionIndex": "0x3",
          "logIndex": "0x9",
          "removed": false
        }
      ],
      "logsBloom": "0x00000000000000000000000020000000000000000000000000000000800000000000000000000000000000000000000000000000000000000000000000000000000000000000000000000008040000000001000000000000000400000000000000000800000100000000000000004000000000000000000000000010000000000000000208000000000000080000000000000000000040000000000000000800000000000000000000000000000000008000000000000000000000000000000000009002000000020000000100000000001000200000000000000000000004100000000000000000000100000000000000000000000080000000000000000000",
      "type": "0x2",
      "transactionHash": "0xc0d5ca9d866a09a474b2bc1b67e21ed070b90d3ffade4073faef4a21f60ef3e5",
      "transactionIndex": "0x3",
      "blockHash": "0x4b61012b4eef23909c81a1c7b71159185de5a2acb416efbff773367142706525",
      "blockNumber": "0xb23051d",
      "gasUsed": "0x2c902",
      "effectiveGasPrice": "0x5f5e100",
      "from": "0x1b150538e943f00127929f7eeb65754f7beb0b6d",
      "to": "0x6b1c656ad724c246049ef586fa35d217a8db13a0",
      "contractAddress": null,
      "gasUsedForL1": "0x2",
      "l1BlockNumber": "0x8a0955",
      "timeboosted": false
    },
    {
      "status": "0x1",
      "cumulativeGasUsed": "0x62fde",
      "logs": [
        {
          "address": "0x6b1c656ad724c246049ef586fa35d217a8db13a0",
          "topics": [
            "0x01b41cbd4bbcc3c5b968a04d3fbdd8c1648a39ff6d9a3929b4840cea1142bc65",
            "0x56514a355dca375f952a65067b04fa99629bc3ef0f6249eef8e9acb1d267882a",
            "0x9267d3dbed802941483f1afa2a6bc68de5f653128aca9bf1461c5d0a3ad36ed2",
            "0x00000000000000000000000000000000000000000000000000000000000003e8"
          ],
          "data": "0x",
          "blockHash": "0x406a3755aa3692ea3568f73b3caa24486e2a7a5c425093875cb5337b1b0b843b",
          "blockNumber": "0xb230527",
          "transactionHash": "0xbf9e3963f6340aeeb7179b6f81788219de675d878807e37db819b9f83cf32721",
          "transactionIndex": "0x3",
          "logIndex": "0x8",
          "removed": false
        },
        {
          "address": "0xeffc83ac0da8ec6c91cde640d35efb0d10c2e112",
          "topics": [
            "0xddf252ad1be2c89b69c2b068fc378daa952ba7f163c4a11628f55a4df523b3ef",
            "0x0000000000000000000000001b150538e943f00127929f7eeb65754f7beb0b6d",
            "0x0000000000000000000000006b1c656ad724c246049ef586fa35d217a8db13a0"
          ],
          "data": "0x00000000000000000000000000000000000000000000000000000000000003e8",
          "blockHash": "0x406a3755aa3692ea3568f73b3caa24486e2a7a5c425093875cb5337b1b0b843b",
          "blockNumber": "0xb230527",
          "transactionHash": "0xbf9e3963f6340aeeb7179b6f81788219de675d878807e37db819b9f83cf32721",
          "transactionIndex": "0x3",
          "logIndex": "0x9",
          "removed": false
        }
      ],
      "logsBloom": "0x00000800000000000000000020000000000000000000000000000000080000000000000000000000000000000000000000000000000100000000000000000000000000000000000000000008040000000000000000000000000400000000000100000800000100001000000000000000000000000000000000000010000000000000000200000000000000080000000000000000000040000000004000000800000000000000000000000000000000008000000000000000000000000000000000008002000000020000000000000000001000200000000000000000000004100000000000000000000100000000000000000000000080000000000000000000",
      "type": "0x2",
      "transactionHash": "0xbf9e3963f6340aeeb7179b6f81788219de675d878807e37db819b9f83cf32721",
      "transactionIndex": "0x3",
      "blockHash": "0x406a3755aa3692ea3568f73b3caa24486e2a7a5c425093875cb5337b1b0b843b",
      "blockNumber": "0xb230527",
      "gasUsed": "0x2c902",
      "effectiveGasPrice": "0x5f5e100",
      "from": "0x1b150538e943f00127929f7eeb65754f7beb0b6d",
      "to": "0x6b1c656ad724c246049ef586fa35d217a8db13a0",
      "contractAddress": null,
      "gasUsedForL1": "0x2",
      "l1BlockNumber": "0x8a0955",
      "timeboosted": false
    },
    {
      "status": "0x1",
      "cumulativeGasUsed": "0x47c70",
      "logs": [
        {
          "address": "0x6b1c656ad724c246049ef586fa35d217a8db13a0",
          "topics": [
            "0x01b41cbd4bbcc3c5b968a04d3fbdd8c1648a39ff6d9a3929b4840cea1142bc65",
            "0x659a595853ab456d31894e9429723f8a50f977c9164af0f67ed1f9c619a96b7f",
            "0xd9147961436944f43cd99d28b2bbddbf452ef872b30c8279e255e7daafc7f946",
            "0x00000000000000000000000000000000000000000000000000000000000003e8"
          ],
          "data": "0x",
          "blockHash": "0xccbea1769142380027164b4821d2888611c220d74a826ae34a3ae15a5d8a0ae8",
          "blockNumber": "0xb230530",
          "transactionHash": "0x7db793dd1f0fe771b1c3e4a39a86cbef4ef7fee284f7994b940aac5295aa06b5",
          "transactionIndex": "0x2",
          "logIndex": "0x4",
          "removed": false
        },
        {
          "address": "0xeffc83ac0da8ec6c91cde640d35efb0d10c2e112",
          "topics": [
            "0xddf252ad1be2c89b69c2b068fc378daa952ba7f163c4a11628f55a4df523b3ef",
            "0x0000000000000000000000001b150538e943f00127929f7eeb65754f7beb0b6d",
            "0x0000000000000000000000006b1c656ad724c246049ef586fa35d217a8db13a0"
          ],
          "data": "0x00000000000000000000000000000000000000000000000000000000000003e8",
          "blockHash": "0xccbea1769142380027164b4821d2888611c220d74a826ae34a3ae15a5d8a0ae8",
          "blockNumber": "0xb230530",
          "transactionHash": "0x7db793dd1f0fe771b1c3e4a39a86cbef4ef7fee284f7994b940aac5295aa06b5",
          "transactionIndex": "0x2",
          "logIndex": "0x5",
          "removed": false
        }
      ],
      "logsBloom": "0x00000000000000000000020020000000000000000000000000000000000000800000000000000000000000100000000000000000000000000000000000000000000000000000000000000008040000000000000000000000000400000000000000000800000100000000000000000000000000000000000000000010000000000000000200000000000000080000000000000000000040000000000000000800000000000400000000000000000000008000000000000000000000000000000000008002000000020000001000000000001000200000000000000000000004100001000000000000000100000000000000000000000080000000000000000000",
      "type": "0x2",
      "transactionHash": "0x7db793dd1f0fe771b1c3e4a39a86cbef4ef7fee284f7994b940aac5295aa06b5",
      "transactionIndex": "0x2",
      "blockHash": "0xccbea1769142380027164b4821d2888611c220d74a826ae34a3ae15a5d8a0ae8",
      "blockNumber": "0xb230530",
      "gasUsed": "0x2c902",
      "effectiveGasPrice": "0x5f5e100",
      "from": "0x1b150538e943f00127929f7eeb65754f7beb0b6d",
      "to": "0x6b1c656ad724c246049ef586fa35d217a8db13a0",
      "contractAddress": null,
      "gasUsedForL1": "0x2",
      "l1BlockNumber": "0x8a0955",
      "timeboosted": false
    },
    {
      "status": "0x1",
      "cumulativeGasUsed": "0x7f7e6",
      "logs": [
        {
          "address": "0x6b1c656ad724c246049ef586fa35d217a8db13a0",
          "topics": [
            "0x01b41cbd4bbcc3c5b968a04d3fbdd8c1648a39ff6d9a3929b4840cea1142bc65",
            "0xe84ff8e0117782871ea91ac96fcfb122757f4a4ec0518cc0e33209a431c36774",
            "0xe38990d0c7fc009880a9c07c23842e886c6bbdc964ce6bdd5817ad357335ee6f",
            "0x00000000000000000000000000000000000000000000000000000000000003e8"
          ],
          "data": "0x",
          "blockHash": "0x738552dbefa0956b4368dcf4eea26abcc00df3ca32ccd6f632fbb62ffe2ad19a",
          "blockNumber": "0xb23053a",
          "transactionHash": "0xfc055179ea5c4497facfe131a8fb949a277455d57eb756d032df1aca24271e83",
          "transactionIndex": "0x4",
          "logIndex": "0xc",
          "removed": false
        },
        {
          "address": "0xeffc83ac0da8ec6c91cde640d35efb0d10c2e112",
          "topics": [
            "0xddf252ad1be2c89b69c2b068fc378daa952ba7f163c4a11628f55a4df523b3ef",
            "0x0000000000000000000000001b150538e943f00127929f7eeb65754f7beb0b6d",
            "0x0000000000000000000000006b1c656ad724c246049ef586fa35d217a8db13a0"
          ],
          "data": "0x00000000000000000000000000000000000000000000000000000000000003e8",
          "blockHash": "0x738552dbefa0956b4368dcf4eea26abcc00df3ca32ccd6f632fbb62ffe2ad19a",
          "blockNumber": "0xb23053a",
          "transactionHash": "0xfc055179ea5c4497facfe131a8fb949a277455d57eb756d032df1aca24271e83",
          "transactionIndex": "0x4",
          "logIndex": "0xd",
          "removed": false
        }
      ],
      "logsBloom": "0x004000000000000000000000200000000000000000000000000000000000000000000000000000000000000000000000000000000000000000000000000000000000000000000000000000080400100000000000000000000004000000000000000008000001000000000000000000000000000000000000000000100000000000000002000000000000000800000000000000000000400000000000000008000000000000000000000000000000000080000000080000000000000000000000000080020000000200000000000000000010002004000000000000000000041000000000000000000001000000000000000000000000c0000080000000000000",
      "type": "0x2",
      "transactionHash": "0xfc055179ea5c4497facfe131a8fb949a277455d57eb756d032df1aca24271e83",
      "transactionIndex": "0x4",
      "blockHash": "0x738552dbefa0956b4368dcf4eea26abcc00df3ca32ccd6f632fbb62ffe2ad19a",
      "blockNumber": "0xb23053a",
      "gasUsed": "0x2c8f6",
      "effectiveGasPrice": "0x5f5e100",
      "from": "0x1b150538e943f00127929f7eeb65754f7beb0b6d",
      "to": "0x6b1c656ad724c246049ef586fa35d217a8db13a0",
      "contractAddress": null,
      "gasUsedForL1": "0x2",
      "l1BlockNumber": "0x8a0957",
      "timeboosted": false
    },
    {
      "status": "0x1",
      "cumulativeGasUsed": "0x7f6bc",
      "logs": [
        {
          "address": "0x6b1c656ad724c246049ef586fa35d217a8db13a0",
          "topics": [
            "0x01b41cbd4bbcc3c5b968a04d3fbdd8c1648a39ff6d9a3929b4840cea1142bc65",
            "0x2501f01916fae0a2b5da9feb6819f9b336274ba15f9d3d92e4085858ac906d52",
            "0x96de8fc8c256fa1e1556d41af431cace7dca68707c78dd88c3acab8b17164c47",
            "0x00000000000000000000000000000000000000000000000000000000000003e8"
          ],
          "data": "0x",
          "blockHash": "0x76b710e709a74cb927e938363d97a96b0816d557683d31c082db2bceffffee58",
          "blockNumber": "0xb230545",
          "transactionHash": "0x43adb2db25ca338eb9b3474f62ac48617cf6cefce5463f8bbd30bc25d4580796",
          "transactionIndex": "0x4",
          "logIndex": "0xc",
          "removed": false
        },
        {
          "address": "0xeffc83ac0da8ec6c91cde640d35efb0d10c2e112",
          "topics": [
            "0xddf252ad1be2c89b69c2b068fc378daa952ba7f163c4a11628f55a4df523b3ef",
            "0x0000000000000000000000001b150538e943f00127929f7eeb65754f7beb0b6d",
            "0x0000000000000000000000006b1c656ad724c246049ef586fa35d217a8db13a0"
          ],
          "data": "0x00000000000000000000000000000000000000000000000000000000000003e8",
          "blockHash": "0x76b710e709a74cb927e938363d97a96b0816d557683d31c082db2bceffffee58",
          "blockNumber": "0xb230545",
          "transactionHash": "0x43adb2db25ca338eb9b3474f62ac48617cf6cefce5463f8bbd30bc25d4580796",
          "transactionIndex": "0x4",
          "logIndex": "0xd",
          "removed": false
        }
      ],
      "logsBloom": "0x00004000000080000000000020000000000000000000000000000000000000000000000008000000000000000000000000000000000000000000000000000000000000000000000000000008040000000000000000000000000400000000000000000800000100000000000000000000040000000000000000000010000000000000000200000000000000080000000000000000000040000000000000000800000000000000000000000000000000008000000000000040000000000000000000008082000000020000000000000000001000200000000000000000000004100000000000000000000100000000000000000000000080000000000000000000",
      "type": "0x2",
      "transactionHash": "0x43adb2db25ca338eb9b3474f62ac48617cf6cefce5463f8bbd30bc25d4580796",
      "transactionIndex": "0x4",
      "blockHash": "0x76b710e709a74cb927e938363d97a96b0816d557683d31c082db2bceffffee58",
      "blockNumber": "0xb230545",
      "gasUsed": "0x2c902",
      "effectiveGasPrice": "0x5f5e100",
      "from": "0x1b150538e943f00127929f7eeb65754f7beb0b6d",
      "to": "0x6b1c656ad724c246049ef586fa35d217a8db13a0",
      "contractAddress": null,
      "gasUsedForL1": "0x2",
      "l1BlockNumber": "0x8a0957",
      "timeboosted": false
    },
    {
      "status": "0x1",
      "cumulativeGasUsed": "0x7723c",
      "logs": [
        {
          "address": "0x6b1c656ad724c246049ef586fa35d217a8db13a0",
          "topics": [
            "0x01b41cbd4bbcc3c5b968a04d3fbdd8c1648a39ff6d9a3929b4840cea1142bc65",
            "0xb3fce384cb6eae9c4e8407acae1814a245e75f23b76003dd5c7e307786ba3b79",
            "0xd1ec675902ef1633427ca360b290b0b3045a0d9058ddb5e648b4c3c3224c5c68",
            "0x00000000000000000000000000000000000000000000000000000000000003e8"
          ],
          "data": "0x",
          "blockHash": "0x50570d29120da7131e13a601bed7b655e66dcc955f03582e8d8c5bb3abf36704",
          "blockNumber": "0xb230553",
          "transactionHash": "0xd9896579ffa714842d119764d922e40eafb884d6a8fbbc13e29bd3af373a543f",
          "transactionIndex": "0x3",
          "logIndex": "0x7",
          "removed": false
        },
        {
          "address": "0xeffc83ac0da8ec6c91cde640d35efb0d10c2e112",
          "topics": [
            "0xddf252ad1be2c89b69c2b068fc378daa952ba7f163c4a11628f55a4df523b3ef",
            "0x0000000000000000000000001b150538e943f00127929f7eeb65754f7beb0b6d",
            "0x0000000000000000000000006b1c656ad724c246049ef586fa35d217a8db13a0"
          ],
          "data": "0x00000000000000000000000000000000000000000000000000000000000003e8",
          "blockHash": "0x50570d29120da7131e13a601bed7b655e66dcc955f03582e8d8c5bb3abf36704",
          "blockNumber": "0xb230553",
          "transactionHash": "0xd9896579ffa714842d119764d922e40eafb884d6a8fbbc13e29bd3af373a543f",
          "transactionIndex": "0x3",
          "logIndex": "0x8",
          "removed": false
        }
      ],
      "logsBloom": "0x00000000000000000000000020000000401000000000000000000000000000000000000000000000000000000000000000000000000000000000000000000000000000000000000000000008040000000000000000000000000400000002000000000800000100000000000000000000000000000000000000000010000000004000000200000000000000080000000000000000000040000000000000000800000000000000000000000000000000008000000000004000000000000000000008008002000000020000000000000000001000200000000000000000000004100000000000000000000100000000000000000000000080000000000000000000",
      "type": "0x2",
      "transactionHash": "0xd9896579ffa714842d119764d922e40eafb884d6a8fbbc13e29bd3af373a543f",
      "transactionIndex": "0x3",
      "blockHash": "0x50570d29120da7131e13a601bed7b655e66dcc955f03582e8d8c5bb3abf36704",
      "blockNumber": "0xb230553",
      "gasUsed": "0x2c902",
      "effectiveGasPrice": "0x5f5e100",
      "from": "0x1b150538e943f00127929f7eeb65754f7beb0b6d",
      "to": "0x6b1c656ad724c246049ef586fa35d217a8db13a0",
      "contractAddress": null,
      "gasUsedForL1": "0x2",
      "l1BlockNumber": "0x8a0957",
      "timeboosted": false
    },
    {
      "status": "0x1",
      "cumulativeGasUsed": "0x2c902",
      "logs": [
        {
          "address": "0x6b1c656ad724c246049ef586fa35d217a8db13a0",
          "topics": [
            "0x01b41cbd4bbcc3c5b968a04d3fbdd8c1648a39ff6d9a3929b4840cea1142bc65",
            "0xdb076c701c4c51a7302547e09134d67a0bae054dae46bc8b7f4d11f2c60ed55a",
            "0x48428bdb7ddd829410d6bbb924fdeb3a3d7e88c2577bffae073b990c6f061d08",
            "0x00000000000000000000000000000000000000000000000000000000000003e8"
          ],
          "data": "0x",
          "blockHash": "0x07523b9c00ede8359517755fe3433a144b83cd13b948cfb31699c283fc58cf87",
          "blockNumber": "0xb230560",
          "transactionHash": "0x9d25e4d1924001e18aae749cf4f62e655d7a50b41253593c539bce9dc30d70e6",
          "transactionIndex": "0x1",
          "logIndex": "0x0",
          "removed": false
        },
        {
          "address": "0xeffc83ac0da8ec6c91cde640d35efb0d10c2e112",
          "topics": [
            "0xddf252ad1be2c89b69c2b068fc378daa952ba7f163c4a11628f55a4df523b3ef",
            "0x0000000000000000000000001b150538e943f00127929f7eeb65754f7beb0b6d",
            "0x0000000000000000000000006b1c656ad724c246049ef586fa35d217a8db13a0"
          ],
          "data": "0x00000000000000000000000000000000000000000000000000000000000003e8",
          "blockHash": "0x07523b9c00ede8359517755fe3433a144b83cd13b948cfb31699c283fc58cf87",
          "blockNumber": "0xb230560",
          "transactionHash": "0x9d25e4d1924001e18aae749cf4f62e655d7a50b41253593c539bce9dc30d70e6",
          "transactionIndex": "0x1",
          "logIndex": "0x1",
          "removed": false
        }
      ],
      "logsBloom": "0x00000000000000000000000020000000000000000000000000000000000000000000000000000000000000000000000000000000000000000000000000000000000000000000000000000008040000000000000000100000000400000000000080000800000100000020000000000000000000000000000000000010000000000000000200000000010000080000000000000000000040000400000000000800000000000000000000000000000000008000000000000000000000000000000000008002000000020000000000000000001000200000000000000000000004100000000000000000000100000000000000000001000080000000000000000000",
      "type": "0x2",
      "transactionHash": "0x9d25e4d1924001e18aae749cf4f62e655d7a50b41253593c539bce9dc30d70e6",
      "transactionIndex": "0x1",
      "blockHash": "0x07523b9c00ede8359517755fe3433a144b83cd13b948cfb31699c283fc58cf87",
      "blockNumber": "0xb230560",
      "gasUsed": "0x2c902",
      "effectiveGasPrice": "0x5f5e100",
      "from": "0x1b150538e943f00127929f7eeb65754f7beb0b6d",
      "to": "0x6b1c656ad724c246049ef586fa35d217a8db13a0",
      "contractAddress": null,
      "gasUsedForL1": "0x2",
      "l1BlockNumber": "0x8a0957",
      "timeboosted": false
    },
    {
      "status": "0x1",
      "cumulativeGasUsed": "0x1ea08c",
      "logs": [
        {
          "address": "0x6b1c656ad724c246049ef586fa35d217a8db13a0",
          "topics": [
            "0x01b41cbd4bbcc3c5b968a04d3fbdd8c1648a39ff6d9a3929b4840cea1142bc65",
            "0x8cd7194996910231ca6aa55886cb453c48243458b4b815437dd17ddffb73f49a",
            "0x38df1c1f64a24a77b23393bca50dff872e31edc4f3b5aa3b90ad0b82f4f089b6",
            "0x00000000000000000000000000000000000000000000000000000000000003e8"
          ],
          "data": "0x",
          "blockHash": "0x13e8c783cbd26aa9157dcd7ee8cec333bb7d168a176cd5739aa8640b18d4ed3f",
          "blockNumber": "0xb230568",
          "transactionHash": "0xfd0dff0e5919bb95fb457810e95e98b0f0dc73e47d028bdc78e5b15b628b7d9a",
          "transactionIndex": "0xc",
          "logIndex": "0x22",
          "removed": false
        },
        {
          "address": "0xeffc83ac0da8ec6c91cde640d35efb0d10c2e112",
          "topics": [
            "0xddf252ad1be2c89b69c2b068fc378daa952ba7f163c4a11628f55a4df523b3ef",
            "0x0000000000000000000000001b150538e943f00127929f7eeb65754f7beb0b6d",
            "0x0000000000000000000000006b1c656ad724c246049ef586fa35d217a8db13a0"
          ],
          "data": "0x00000000000000000000000000000000000000000000000000000000000003e8",
          "blockHash": "0x13e8c783cbd26aa9157dcd7ee8cec333bb7d168a176cd5739aa8640b18d4ed3f",
          "blockNumber": "0xb230568",
          "transactionHash": "0xfd0dff0e5919bb95fb457810e95e98b0f0dc73e47d028bdc78e5b15b628b7d9a",
          "transactionIndex": "0xc",
          "logIndex": "0x23",
          "removed": false
        }
      ],
      "logsBloom": "0x01000000000000000000000020000000000000000000000000000000000100000000000000000080000000000000000000000000000000000000000000000000000000000000000000000008040000000000000000000000000400000000000000000800200100000000000000000000000000000000000000000010000000000000000200000000002000080001000000000000000040000000000000000800000000000000000000000000000000008000000000000000000000000000000000008002000000020000000000000000001000200000000000000000000004100000000000000000000100000000000000000000000080000000000000000000",
      "type": "0x2",
      "transactionHash": "0xfd0dff0e5919bb95fb457810e95e98b0f0dc73e47d028bdc78e5b15b628b7d9a",
      "transactionIndex": "0xc",
      "blockHash": "0x13e8c783cbd26aa9157dcd7ee8cec333bb7d168a176cd5739aa8640b18d4ed3f",
      "blockNumber": "0xb230568",
      "gasUsed": "0x2c902",
      "effectiveGasPrice": "0x5f5e100",
      "from": "0x1b150538e943f00127929f7eeb65754f7beb0b6d",
      "to": "0x6b1c656ad724c246049ef586fa35d217a8db13a0",
      "contractAddress": null,
      "gasUsedForL1": "0x2",
      "l1BlockNumber": "0x8a0957",
      "timeboosted": false
    },
    {
      "status": "0x1",
      "cumulativeGasUsed": "0x2c8f6",
      "logs": [
        {
          "address": "0x6b1c656ad724c246049ef586fa35d217a8db13a0",
          "topics": [
            "0x01b41cbd4bbcc3c5b968a04d3fbdd8c1648a39ff6d9a3929b4840cea1142bc65",
            "0xb4621e1dcd02087c2985e560f3acec247d7cbad31ef4c035cc28c5d380d9b469",
            "0x887bf140ce0b6a497ed8db5c7498a45454f0b2bd644b0313f7a82acc084d0027",
            "0x00000000000000000000000000000000000000000000000000000000000003e8"
          ],
          "data": "0x",
          "blockHash": "0xfe6a192c8118e936c9dd5d625cc5d014977d18ea932b81f6c6e808231ccef9b7",
          "blockNumber": "0xb230574",
          "transactionHash": "0x61132026b01f06fc9a00f5d356db2674067bf5aadda9b8b7218fc98a4fdea610",
          "transactionIndex": "0x1",
          "logIndex": "0x0",
          "removed": false
        },
        {
          "address": "0xeffc83ac0da8ec6c91cde640d35efb0d10c2e112",
          "topics": [
            "0xddf252ad1be2c89b69c2b068fc378daa952ba7f163c4a11628f55a4df523b3ef",
            "0x0000000000000000000000001b150538e943f00127929f7eeb65754f7beb0b6d",
            "0x0000000000000000000000006b1c656ad724c246049ef586fa35d217a8db13a0"
          ],
          "data": "0x00000000000000000000000000000000000000000000000000000000000003e8",
          "blockHash": "0xfe6a192c8118e936c9dd5d625cc5d014977d18ea932b81f6c6e808231ccef9b7",
          "blockNumber": "0xb230574",
          "transactionHash": "0x61132026b01f06fc9a00f5d356db2674067bf5aadda9b8b7218fc98a4fdea610",
          "transactionIndex": "0x1",
          "logIndex": "0x1",
          "removed": false
        }
      ],
      "logsBloom": "0x00000000000000000000000020000000000000000000000400000000000000000000000000000000000000000000000000000000000000000000000000000000200000000000000001000008040000000000000000000000000400000000000000000800000102000000000000000000000000000000000000000210000000000000000200000000000000080000000000000000000040000000000000000800000000000000000000000000000000008000000000000000000000000000000000008002000000020000000000000000001000200000000000000000000004100000000002000000000100000000000000000000000080000000000000000000",
      "type": "0x2",
      "transactionHash": "0x61132026b01f06fc9a00f5d356db2674067bf5aadda9b8b7218fc98a4fdea610",
      "transactionIndex": "0x1",
      "blockHash": "0xfe6a192c8118e936c9dd5d625cc5d014977d18ea932b81f6c6e808231ccef9b7",
      "blockNumber": "0xb230574",
      "gasUsed": "0x2c8f6",
      "effectiveGasPrice": "0x5f5e100",
      "from": "0x1b150538e943f00127929f7eeb65754f7beb0b6d",
      "to": "0x6b1c656ad724c246049ef586fa35d217a8db13a0",
      "contractAddress": null,
      "gasUsedForL1": "0x2",
      "l1BlockNumber": "0x8a0958",
      "timeboosted": false
    }
  ],
  "libraries": [],
  "pending": [],
  "returns": {},
  "timestamp": 1755947167708,
  "chain": 421614,
  "commit": "aa36f6b"
}