{
  "transactions": [
    {
      "hash": "0xf901e35f2e7b4e1a8258003b23226224cfc1a053ea846a685028a045fd276090",
      "transactionType": "CALL",
      "contractName": null,
      "contractAddress": "0x6b1c656ad724c246049ef586fa35d217a8db13a0",
      "function": "initiate(address,address,uint256,uint256,bytes32)",
      "arguments": [
        "0x00c1Df9bf9C7ff7F3c2A8F9e9af72DA95b350D34",
        "0xe62a2b235f7bB86C1122313153824D54E6137e77",
        "100",
        "1000",
        "0x8bf236717150921fd7ad7d2ab23b233c8fd2744214d202038436c857897135d5"
      ],
      "transaction": {
        "from": "0x1b150538e943f00127929f7eeb65754f7beb0b6d",
        "to": "0x6b1c656ad724c246049ef586fa35d217a8db13a0",
        "gas": "0x3ad4d",
        "value": "0x0",
        "input": "0xa70cac9100000000000000000000000000c1df9bf9c7ff7f3c2a8f9e9af72da95b350d34000000000000000000000000e62a2b235f7bb86c1122313153824d54e6137e77000000000000000000000000000000000000000000000000000000000000006400000000000000000000000000000000000000000000000000000000000003e88bf236717150921fd7ad7d2ab23b233c8fd2744214d202038436c857897135d5",
        "nonce": "0x102",
        "chainId": "0x66eee"
      },
      "additionalContracts": [],
      "isFixedGasLimit": false
    },
    {
      "hash": "0x1bc81ddadc6b78736553d7e3df2f5a9bb151d2d75ebe42a6b5c0ab7f0fa66814",
      "transactionType": "CALL",
      "contractName": null,
      "contractAddress": "0x6b1c656ad724c246049ef586fa35d217a8db13a0",
      "function": "redeem(bytes32,bytes)",
      "arguments": [
        "0x97c6375474f18b25e071e45410aeadeca9d1cfa351658bf5ef6520e07b9ea06a",
        "0x7365637265743131"
      ],
      "transaction": {
        "from": "0x1b150538e943f00127929f7eeb65754f7beb0b6d",
        "to": "0x6b1c656ad724c246049ef586fa35d217a8db13a0",
        "gas": "0x21dea",
        "value": "0x0",
        "input": "0xf7ff720797c6375474f18b25e071e45410aeadeca9d1cfa351658bf5ef6520e07b9ea06a000000000000000000000000000000000000000000000000000000000000004000000000000000000000000000000000000000000000000000000000000000087365637265743131000000000000000000000000000000000000000000000000",
        "nonce": "0x103",
        "chainId": "0x66eee"
      },
      "additionalContracts": [],
      "isFixedGasLimit": false
    }
  ],
  "receipts": [
    {
      "status": "0x1",
      "cumulativeGasUsed": "0x70512",
      "logs": [
        {
          "address": "0x6b1c656ad724c246049ef586fa35d217a8db13a0",
          "topics": [
            "0x01b41cbd4bbcc3c5b968a04d3fbdd8c1648a39ff6d9a3929b4840cea1142bc65",
            "0x97c6375474f18b25e071e45410aeadeca9d1cfa351658bf5ef6520e07b9ea06a",
            "0x8bf236717150921fd7ad7d2ab23b233c8fd2744214d202038436c857897135d5",
            "0x00000000000000000000000000000000000000000000000000000000000003e8"
          ],
          "data": "0x",
          "blockHash": "0x4cb2bbfa3461de5cc339820e691be50706631862cceae445b76a80df2180ba51",
          "blockNumber": "0xb2322c7",
          "transactionHash": "0xf901e35f2e7b4e1a8258003b23226224cfc1a053ea846a685028a045fd276090",
          "transactionIndex": "0x4",
          "logIndex": "0x8",
          "removed": false
        },
        {
          "address": "0x00c1df9bf9c7ff7f3c2a8f9e9af72da95b350d34",
          "topics": [
            "0xddf252ad1be2c89b69c2b068fc378daa952ba7f163c4a11628f55a4df523b3ef",
            "0x0000000000000000000000001b150538e943f00127929f7eeb65754f7beb0b6d",
            "0x0000000000000000000000006b1c656ad724c246049ef586fa35d217a8db13a0"
          ],
          "data": "0x00000000000000000000000000000000000000000000000000000000000003e8",
          "blockHash": "0x4cb2bbfa3461de5cc339820e691be50706631862cceae445b76a80df2180ba51",
          "blockNumber": "0xb2322c7",
          "transactionHash": "0xf901e35f2e7b4e1a8258003b23226224cfc1a053ea846a685028a045fd276090",
          "transactionIndex": "0x4",
          "logIndex": "0x9",
          "removed": false
        }
      ],
      "logsBloom": "0x00000000000000000000000020000000000000200000000000020000000000000000000000000000000000000000000000000000000000000000000000000000000001000000000000000008040000000000000000000000000400000000000000000800000102000000000000000000000000000000000000000010000000020020000200000000000000080000000000000000000040000000000000000000000000000000000100000000000000000000000000000000000000000000000000008002000000020000000000000000021000200000000000000000000000100000020000000000000100000000000000000000000080000000000000000000",
      "type": "0x2",
      "transactionHash": "0xf901e35f2e7b4e1a8258003b23226224cfc1a053ea846a685028a045fd276090",
      "transactionIndex": "0x4",
      "blockHash": "0x4cb2bbfa3461de5cc339820e691be50706631862cceae445b76a80df2180ba51",
      "blockNumber": "0xb2322c7",
      "gasUsed": "0x2c9da",
      "effectiveGasPrice": "0x5f5e100",
      "from": "0x1b150538e943f00127929f7eeb65754f7beb0b6d",
      "to": "0x6b1c656ad724c246049ef586fa35d217a8db13a0",
      "contractAddress": null,
      "gasUsedForL1": "0x2",
      "l1BlockNumber": "0x8a09fc",
      "timeboosted": false
    },
    {
      "status": "0x1",
      "cumulativeGasUsed": "0xf4db5",
      "logs": [
        {
          "address": "0x6b1c656ad724c246049ef586fa35d217a8db13a0",
          "topics": [
            "0x4c9a044220477b4e94dbb0d07ff6ff4ac30d443bef59098c4541b006954778e2",
            "0x97c6375474f18b25e071e45410aeadeca9d1cfa351658bf5ef6520e07b9ea06a",
            "0x8bf236717150921fd7ad7d2ab23b233c8fd2744214d202038436c857897135d5"
          ],
          "data": "0x000000000000000000000000000000000000000000000000000000000000002000000000000000000000000000000000000000000000000000000000000000087365637265743131000000000000000000000000000000000000000000000000",
          "blockHash": "0x9dfb03a27b50aa0b23b949f98c3d0d2741371857b964c924a315c303ef3c6adc",
          "blockNumber": "0xb2322d4",
          "transactionHash": "0x1bc81ddadc6b78736553d7e3df2f5a9bb151d2d75ebe42a6b5c0ab7f0fa66814",
          "transactionIndex": "0x4",
          "logIndex": "0x7",
          "removed": false
        },
        {
          "address": "0x00c1df9bf9c7ff7f3c2a8f9e9af72da95b350d34",
          "topics": [
            "0xddf252ad1be2c89b69c2b068fc378daa952ba7f163c4a11628f55a4df523b3ef",
            "0x0000000000000000000000006b1c656ad724c246049ef586fa35d217a8db13a0",
            "0x000000000000000000000000e62a2b235f7bb86c1122313153824d54e6137e77"
          ],
          "data": "0x00000000000000000000000000000000000000000000000000000000000003e8",
          "blockHash": "0x9dfb03a27b50aa0b23b949f98c3d0d2741371857b964c924a315c303ef3c6adc",
          "blockNumber": "0xb2322d4",
          "transactionHash": "0x1bc81ddadc6b78736553d7e3df2f5a9bb151d2d75ebe42a6b5c0ab7f0fa66814",
          "transactionIndex": "0x4",
          "logIndex": "0x8",
          "removed": false
        }
      ],
      "logsBloom": "0x00000000000000000000000000000000000000200000000000020000000000000000000000000000000000000000000000000000020000000000000000000000000001000000000040000008000000000000000000000000080400000000000000000800000102000000000000000000000000000000000000000010000000020020040000000000000000000000000000000000000000000000000000000000000000000000000100000000000000000000000000000000000000000000000000000002000000000000000000000000021000200000000000000000000000000000020000000000000100000000000000000000000002000000000000004000",
      "type": "0x2",
      "transactionHash": "0x1bc81ddadc6b78736553d7e3df2f5a9bb151d2d75ebe42a6b5c0ab7f0fa66814",
      "transactionIndex": "0x4",
      "blockHash": "0x9dfb03a27b50aa0b23b949f98c3d0d2741371857b964c924a315c303ef3c6adc",
      "blockNumber": "0xb2322d4",
      "gasUsed": "0x1728c",
      "effectiveGasPrice": "0x5f5e100",
      "from": "0x1b150538e943f00127929f7eeb65754f7beb0b6d",
      "to": "0x6b1c656ad724c246049ef586fa35d217a8db13a0",
      "contractAddress": null,
      "gasUsedForL1": "0x1",
      "l1BlockNumber": "0x8a09fd",
      "timeboosted": false
    }
  ],
  "libraries": [],
  "pending": [],
  "returns": {},
  "timestamp": 1755949148604,
  "chain": 421614,
  "commit": "aa36f6b"
}